:020000040801F1
:10000000583E00204501010859020108510201082B
:100010005502010849020108C5030108000000005B
:100020000000000000000000000000006102010864
:100030004D020108000000005D0201086502010890
:100040005F0101085F0101085F0101085F0101080C
:100050005F0101085F0101085F0101085F010108FC
:100060005F0101085F0101085F0101085F010108EC
:100070005F0101085F0101085F0101085F010108DC
:100080005F0101085F0101085F0101085F010108CC
:100090005F0101085F0101085F0101085F010108BC
:1000A0005F0101085F0101085F0101085F010108AC
:1000B0005F0101085F0101085F0101085F0101089C
:1000C0005F0101085F0101085F0101085F0101088C
:1000D0005F010108B5030108BD0301085F010108C4
:1000E0005F0101085F0101085F0101085F0101086C
:1000F0005F0101085F0101085F0101085F0101085C
:100100005F0101085F0101085F0101085F0101084B
:100110005F0101085F0101085F0101085F0101083B
:100120005F0101085F0101085F0101085F0101082B
:10013000DFF80CD000F076F800480047594B010872
:10014000583E00200648804706480047FEE7FEE785
:10015000FEE7FEE7FEE7FEE7FEE7FEE7FEE7FEE777
:100160006D0201083101010840EA01039B0703D039
:1001700009E008C9121F08C0042AFAD203E011F8E6
:10018000013B00F8013B521EF9D27047D2B201E0A8
:1001900000F8012B491EFBD270470022F6E710B58C
:1001A00013460A4604461946FFF7F0FF204610BDE5
:1001B000421C10F8011B0029FBD1801A704710B5B2
:1001C000002200E0521C835C8C5CA34201D1002B16
:1001D000F8D1D8B2E1B2401A10BD30B505460020C2
:1001E000034600E05B1C934205D2EC5CC85C201A1D
:1001F00001D1002CF6D130BD30B50B4601460020B0
:100200002022012409E021FA02F59D4205D303FAD8
:1002100002F5491B04FA02F52844151EA2F1010259
:10022000F1DC30BD064C074D06E0E06840F001030C
:1002300094E8070098471034AC42F6D3FFF77CFFF0
:1002400088B30108A8B30108FEE70000704700006A
:10025000FEE70000FEE70000704700007047000066
:100260007047000080B508F0E3FD80BD81B04EF618
:100270008851CEF200010A6841F2040042F4700293
:10028000C4F202000A6050F8041C4FF0000C41F068
:10029000010140F8041C016844F61F6341F080012D
:1002A0000160CDF800C0009A9A4207D844F6206257
:1002B000009B01330093009B9342F9D3C0F800C028
:1002C000C0F828C050F8042C4FF6FF73CFF6F66341
:1002D0001A4040F8042C4FF41F02426050F8042CDE
:1002E00022F4802240F8042C50F8042C42F480328E
:1002F00040F8042C4FF6FE7250F8041C013A4CF101
:100300000003890301D4002BF6D150F8041C8903A3
:1003100001D400BFFEE7826947F2000142F080523B
:10032000C4F2000182610A684FF6FF7342F4404252
:100330000A600268CBF2C37302600268026002685E
:1003400042F480620260026822F440320260026875
:1003500042F44032026002681A400260026842F4CD
:10036000C012026050F8042C42F0807240F8042C55
:1003700050F8042C9201FBD50A6842F480320A60DE
:100380004A68D203FCD50A6842F400320A6000BF12
:100390004A689203FCD5016821F0030101600168FD
:1003A00041F00201016000BF01680907FCD501B0FE
:1003B0007047000080B509F0C1F880BD80B509F034
:1003C000D1F980BDFEE700002DE9F04F85B040F285
:1003D000341E40F69C7BC2F2000E40F2342C40F2F8
:1003E00004030024C2F2000B4FF00108C2F2000C1B
:1003F0000EF144004FF0FF0AC2F200034FF0000973
:1004000000250490042DC0F221831BF805103D291E
:1004100040F01C8305EB0B0010F8012C432A29D176
:1004200010F8022C502A25D110F8032C4D2A21D186
:10043000049A05F10800691C42F201478EF8FE801B
:10044000CCF8F8830BE000BFB9F1000F01F1010512
:1004500018BF147001328142294680F20B811BF8CB
:1004600001300D2B1370EFD808FA03F33B4218BF8D
:100470008946E9E73D2940F0E98210F8012C442A39
:100480005AD110F8022C552A56D16F1C1BF80700C0
:1004900041F654013D2808BFAF1C1BF80700C2F20B
:1004A0000001303808608EF843008EF8FE80CCF8EA
:1004B000F88303F09BFF04F009F940F22000C2F238
:1004C0000000006840F2341E002140F674720024DF
:1004D000C2F2000EC0F60201C2F200021160C8B101
:1004E00040F23422C2F200020023AEF10101043ACC
:1004F000C0F6020353F8045BFF2D42F8045F28BFE7
:100500005546013801F8015FF4D140F67470C2F22B
:10051000000003609EF844000130C0B2022880F061
:10052000258140F6607044F24541C2F20000C4F6F5
:100530004D11C0E9001121E13D2940F0878210F8FA
:10054000012C4C2A2CD110F8022C572A28D110F853
:10055000032C4D2A24D105F10E010EF114026B1C5F
:10056000002042F201468EF8FE80CCF8F8830CE0C1
:100570002C2F08BF18460028A3F1010718BF1470DC
:10058000013301328F4280F275811BF803700D2F09
:100590001770EDD808FA07F53542E9D01846EAE7B2
:1005A0003D2940F0538210F8012C4C2A40F0A580E0
:1005B00010F8022C572A40F0A08010F8032C4E2A85
:1005C00040F09B8010F8042C452A40F096800135BD
:1005D0001BF8050041F654013038C2F200018EF8D4
:1005E000FE80CCF8F883086098BF20468EF84C0057
:1005F00003F0FCFE04F06AF840F22000C2F20000B2
:10060000006840F2341E002140F67472C2F2000EFF
:10061000C0F60201C2F200021160C8B140F23422F9
:10062000C2F200020023AEF10101043AC0F6020357
:1006300053F8047BFF2F42F8047F28BF5746013848
:1006400001F8017FF4D140F67470C2F2000003603B
:100650009EF844000130C0B2022880F0CC8340F6FE
:10066000607044F24541C2F20000C4F64D11C0E989
:100670000011C8E303F0BAFE04F028F840F22000AD
:10068000C2F20000006840F2342C40F2341E002117
:1006900040F67472C2F2000CC2F2000EC0F6020103
:1006A000C2F200021160B8B10023AEF10101ACF159
:1006B0000402C0F6020300BF53F8047BFF2F42F888
:1006C000047F28BF5746013801F8017FF4D140F676
:1006D0007470C2F2000003609EF844000130C0B2A2
:1006E000022838D240F6607044F24541C2F2000060
:1006F000C4F64D11C0E9001135E03D2940F0A68156
:1007000010F8012C472A44D110F8022C462A40D177
:1007100010F8032C432A3CD1681C002100228EF8DB
:10072000FE80CCF8F8830EE0002A06BF0EF80130F8
:1007300000220EF80140002A01F1010108BF01303A
:100740000F2900F0E8821BF800302C2BECD10EF8BA
:1007500001400246EFE7DEE9110140F66072C2F2A5
:100760000002C2E90001002000240DE0DEE91101D1
:1007700040F66072C2F20002C2E9000101203D466B
:1007800040F2342CC2F2000C40F20403C2F2000327
:100790005DE13D2940F05A8110F8012C542A40F0C7
:1007A000D38010F8022C532A40F0CE8010F8032C8E
:1007B000522A40F0C98010F8042C572A40F0C48017
:1007C0004078AE1C41F654041BF806103038C2F2D3
:1007D000000420604FF0000498BF20462C298EF8BA
:1007E000FE80CCF8F88308BFEE1C1BF8061041F21F
:1007F000A435C2F200058EF841002C2928464FF49A
:10080000966108BF0136FFF7C8FC40F6D06C0027A0
:100810000BEB06004FF00009C2F2000C029600BF7D
:10082000015D2F55002912BF2129B9F1000FA14602
:10083000B9F1000F18BF394629550134052CEFD105
:10084000A9F101000328CCF80070039400F25D8345
:1008500041F65406C2F20006DFE810F004009D03E2
:10086000AA03C90328783038306088BFCCF800006C
:1008700000F0F9BB1BF800100EF123032C2908BF70
:1008800001301BF800102C2908BF013000F10E02C6
:1008900000210BE02C2F08BF0146002918BF1C7057
:1008A000904200F1010003F101030ADA1BF8007025
:1008B0000D2F1F70EED808FA07F53542EAD0014631
:1008C000EBE71BF801000EF132022C2808BF0131C2
:1008D0001BF801004FF000092C2808BF013101F17D
:1008E0000E0009E0B9F1000F01F1010518BF147005
:1008F0000132814229460ADA1BF801300D2B1370B0
:10090000F0D808FA03F3334218BF8946EAE79EF8A5
:1009100014000130C0B20228C0F0A3809EF8190074
:10092000FF2800F09E80002800F09B80DEE9050192
:10093000DEF81F2043F62027C2F20007DEF81C3045
:10094000C7F80B200BC7A2E03D2940F07F8010F8CC
:10095000011C542940F07A8010F8021C532975D1EB
:1009600010F8031C522971D110F8041C48296DD1CC
:10097000407841F654043038C2F2000405F102090F
:1009800020604FF000071BF8091098BF38468EF81A
:100990004200C0B22C298EF8FE80CCF8F883CCF847
:1009A000080108BF05F103091BF8091040F21812ED
:1009B000C2F2000210602C290FF67830594608BFA9
:1009C00009F101090AF03CF841F2A435C2F2000530
:1009D00028464FF49661FFF7E0FB2B4600224D4678
:1009E0004FF000091BF80510B9F1000F484608BF89
:1009F000B946002918BF8146B9F1000F18BF11464A
:100A0000D95507F1010708BF0135052FEAD1A9F132
:100A1000010040F6CC6E0328C2F2000ECEF8002092
:100A200000F25C84DFE810F00400E203F7031E0428
:100A3000187840F23417303840F234262060C2F281
:100A40000007C2F2000600F0A1BC00BF0120002890
:100A500000F06685186801358542FFF6D3AC00F0DA
:100A60005FBD43F62020C2F2000043F238018181CD
:100A700043F22B61C3F63201016043F23521C3F228
:100A80003831416043F23531C3F6301181609EF850
:100A900023000130C0B2022814D39EF82800FF289A
:100AA00010D078B1DEF82300DEF82E2043F6302790
:100AB000C2F20007DEF82710DEF82B30C7F80B2053
:100AC0000BC715E043F63021C2F2000143F639109E
:100AD000888143F22B60C3F63200086043F2323063
:100AE000C3F23100486043F63210C3F2331088601D
:100AF0009EF832000130C0B2022814D39EF83700AD
:100B0000FF2810D078B1DEF83200DEF83D2043F641
:100B10004027C2F20007DEF83610DEF83A30C7F898
:100B20000B200BC714E043F64021C2F20001322033
:100B3000888143F22B60C3F63200086043F2311023
:100B4000C3F23230486043F23430C3F2317088600F
:100B500003F04CFC03F0BAFD40F22000C2F20000AA
:100B60000068002140F6747240F2341E40F2342CCA
:100B7000C0F60201C2F20002C2F2000EC2F2000C84
:100B80001160B8B10023AEF10101ACF10402C0F66E
:100B9000020300BF53F8047BFF2F42F8047F28BFF5
:100BA0005746013801F8017FF4D140F67470C2F263
:100BB000000003609EF814000130C0B2022812D376
:100BC0009EF81900FF280ED068B1DEE90501DEF8B5
:100BD0001F2043F62024C2F20004DEF81C30C4F8C3
:100BE0000B200BC415E043F62020C2F2000043F2B4
:100BF0003801818143F22B61C3F63201016043F277
:100C00003521C3F23831416043F23531C3F630113A
:100C100081609EF8230000240130C0B2022814D362
:100C20009EF82800FF2810D078B1DEF82300DEF807
:100C30002E2043F63026C2F20006DEF82710DEF83A
:100C40002B30C6F80B200BC615E043F63021C2F25C
:100C5000000143F63910888143F22B60C3F632005D
:100C6000086043F23230C3F23100486043F632107C
:100C7000C3F2331088609EF832000130C0B20228FF
:100C800014D39EF83700FF2810D078B1DEF8320078
:100C9000DEF83D2043F64026C2F20006DEF83610AC
:100CA000DEF83A30C6F80B200BC614E043F64021BC
:100CB000C2F200013220888143F22B60C3F6320079
:100CC000086043F23110C3F23230486043F23430EE
:100CD000C3F2317088609EF8440040F20403013092
:100CE000C0B2C2F2000302280BD240F6607044F298
:100CF0004541C2F20000C4F64D11C0E900110020C8
:100D0000A5E6DEE9110140F66072C2F20002C2E916
:100D1000000100209BE60EF10E00511C4FF000096F
:100D2000052200BF1BF801302C2B08BF8946B9F102
:100D3000000F14BF23460131013A00F8013FF1D101
:100D400009F101051BF8050041F654012C2808BFE4
:100D500009F102051BF80500C2F200012C2808BFAA
:100D600001351BF805003038086003F03FFB03F045
:100D7000ADFC40F22000C2F200000068002140F605
:100D8000747240F2341E40F2342C40F2A006C0F6D9
:100D90000201C2F20002C2F2000EC2F2000CC2F264
:100DA00000061160B0B10023AEF10101ACF1040204
:100DB000C0F6020353F8047BFF2F42F8047F28BFDC
:100DC0005746013801F8017FF4D140F67470C2F241
:100DD000000003609EF844000130C0B2022817D220
:100DE00040F6607044F24541C2F20000C4F64D1175
:100DF000C0E9001114E0DEE9110140F66072C2F2B0
:100E00000002C2E9000101204FF000090024B7E40C
:100E1000DEE9110140F66072C2F20002C2E900018F
:100E20009EF800000024FF281BD09EF80110FF2927
:100E300017D09EF80220FF2A13D090B189B182B159
:100E40004FF0FF300EEB000149783318A1F130026A
:100E50004B2A00F1010028BF21460E285970F1D11C
:100E60000FE043F24D20C5F24D00306044F64C6077
:100E7000C4F64150706052203072C6F80940A6F89E
:100E80000D409EF80F000130C0B202280AD240F295
:100E9000BC0043F23101C2F20000C3F23001016034
:100EA000047109E09EF81300DEF80F1040F2BC0256
:100EB000C2F20002107111609EF8410040F204037A
:100EC000411CC9B2C2F20003012912D840F28C00C1
:100ED000C2F20000006840F2CC01C2F200010870CA
:100EE00040F21C11C2F2000108608EF8410000209F
:100EF000ADE540F2CC01C2F20001087040F21C11D5
:100F0000C2F2000108600020A1E52878697844F267
:100F10008044303842F210724FF47A73CFF6FF7487
:100F200041F65406504301FB03F211FB03414BF61B
:100F30008133C2F20006CCF800009A42316024BF2F
:100F40000844CCF80000A87864224EF6405300FB19
:100F500002F1CFF6FF7310FB0230B1F5965F3060FF
:100F600004D9DCF800100844CCF80000E8784FF60B
:100F7000206200EB80004100CFF6FF7202EB4000E0
:100F8000B1F5F07F306004D9DCF800100844CCF8EB
:100F9000000029795DE02978A1F130003129306025
:100FA00022BF00EB80004000CCF80000697850E0E0
:100FB00029784FF62062A1F130003129306022BF3C
:100FC00064214843CCF800006878CFF6FF7200EB4C
:100FD0008000410002EB4000B1F5F07F306004D9A1
:100FE000DCF800100844CCF80000A97831E029783A
:100FF0006422A1F130003129306022BF4FF47A71B0
:101000004843CCF8000068784EF6405300FB02F1EC
:10101000CFF6FF7310FB0230B1F5965F306004D954
:10102000DCF800100844CCF80000A8784FF62062E5
:1010300000EB80004100CFF6FF7202EB4000B1F5FB
:10104000F07F306004D9DCF800100844CCF80000D0
:10105000E978A1F130003129306004D3DCF80010C8
:101060000844CCF80000DCF8000048F68904A0F23F
:10107000A15111F5B46F30603CBF4FF4B461CCF8AE
:101080000010DCF80030C8F6880454FB033140F649
:10109000DC654A1102EBD17100EE101AB8EEC00AFD
:1010A000BDEEC00A54FB0001C2F2000510EE102A8A
:1010B0002B603B2BD8BF3A464F1140F21C1407EB74
:1010C000D171C2F2000440F64866C1EB01112768F5
:1010D000C2F20006A0EB81010FF288403260CCF82A
:1010E0000010009709F0ACFC286840F2342740F269
:1010F0003413C2F20007C2F200033168C7F890014E
:1011000093F8410040F6D062C2F20002C7F8941191
:10111000411C1268C9B20129C7F898210DD840F2C4
:101120008C00C2F20000006840F2CC01C2F2000163
:101130000870206083F8410005E040F2CC01C2F263
:1011400000010870206003F051F903F007FB40F242
:101150002000C2F200000068002140F67472039E75
:10116000C0F60201C2F200021160E0B140F2341197
:1011700040F23422C2F20001C2F20002002301391F
:10118000043AC0F6020353F8047BFF2F42F8047FB1
:1011900028BF5746013801F8017FF4D140F674703A
:1011A000C2F2000003600298851901F0A7F940F22D
:1011B000341EC2F2000E9EF844000130C0B2022874
:1011C0000AD240F6607044F24541C2F20000C4F613
:1011D0004D11C0E9001107E0DEE9110140F660722F
:1011E000C2F20002C2E9000100200FE6197840F2C5
:1011F0003417A1F130003129206022BF00EB8000BC
:101200004000CEF8000040F234265978C2F20007C0
:10121000C2F20006B2E019784FF62062A1F1300068
:101220003129206022BF64214843CEF8000058785D
:1012300040F2341700EB800040F234264100CFF634
:10124000FF72C2F20007C2F2000602EB4000B1F5E5
:10125000F07F206004D9DEF800100844CEF80000CA
:1012600099788BE019784FF0640CA1F130003129A6
:10127000206022BF4FF47A714843CEF800005878BE
:101280004EF6405240F2341740F2342600FB0CF187
:10129000CFF6FF72C2F20007C2F2000610FB0C206C
:1012A000B1F5965F206004D9DEF800100844CEF84E
:1012B000000098784FF6206200EB80004100CFF6E6
:1012C000FF7202EB4000B1F5F07F206004D9DEF838
:1012D00000100844CEF80000D9784FE0197844F2A5
:1012E0008047A1F130003129206022BF42F2107105
:1012F0004843CEF8000058784FF47A72CFF6FF7763
:1013000000FB02F110FB02704BF6813240F2341701
:1013100040F234269142C2F20007C2F20006206079
:1013200004D3DEF800100844CEF8000098784FF09F
:10133000640C4EF6405200FB0CF1CFF6FF7210FB2E
:101340000C20B1F5965F206004D9DEF80010084447
:10135000CEF80000D8784FF6206200EB8000410004
:10136000CFF6FF7202EB4000B1F5F07F206004D9A8
:10137000DEF800100844CEF800001979A1F1300021
:101380003129206004D3DEF800100844CEF80000B4
:10139000DEF8000042F261714DF6A002411ACFF66C
:1013A000FF72914240F6D861C2F2000120600860ED
:1013B0003CBF42F26071216021684DF6A00342F209
:1013C0006072CFF6FF738A1A01339A421AD240F242
:1013D0001010C2F20000C0F8008040F64460C2F273
:1013E0000000172202603B20CEF8000040F6D860D3
:1013F0004FF43461C2F20000C6F8A481C6F8A81107
:10140000016026E045F606334A09C0F2B05348F6BB
:101410008904A2FB0323C8F6880454FB000040F2B1
:101420001012C2F2000213604211C6E9693102EBE8
:10143000D07054FB011240F64463C2F200031860FE
:10144000501100EBD270C0EB0010A1EB8000CEF881
:10145000000040F64860C2F20000016897F84200C0
:10146000C6F89C11411CDEF80020C9B20129C6F85B
:10147000A0210CD840F28800C2F20000006840F2BF
:101480001811C2F20001086087F8420004E040F23F
:101490001811C2F20001086002F0A8FF03F05EF923
:1014A00040F22000C2F200000068002140F6747291
:1014B000C0F60201C2F200021160E0B140F2341144
:1014C00040F23422C2F20001C2F2000200230139CC
:1014D000043AC0F6020353F8047BFF2F42F8047F5E
:1014E00028BF5746013801F8017FF4D140F67470E7
:1014F000C2F20000036001F001F840F23424C2F2AD
:10150000000404F5CE778ECF0EA0009709F098FA6C
:1015100040F2341EA4460020C2F2000EFFF724B9A8
:1015200040F69C70C2F20000FF21FEF736FE05B0C7
:10153000BDE8F08F0D0A48525354202573200D0A40
:101540000000000032304852535420464D4342437D
:101550004B55503A202564202564202564202564BD
:101560000D0A0000323057525354206D5F685F6D92
:10157000745F656E737273743A202564202564204D
:1015800025642025640D0A002DE9F04F87B040F254
:10159000341A40F2000B40F69C78C2F2000A40F286
:1015A000342C41F6540540F2040403464FF0000E7B
:1015B000C0F6020BC2F20008C2F2000C0AF14400AD
:1015C000C2F20005C2F2000400270026059006932F
:1015D000042FC0F25F8118F807103D2940F05A81AE
:1015E00007EB080010F8012C432A2BD110F8022C2D
:1015F000502A27D110F8032C4D2A23D1514601201F
:10160000059A8AF8FE00CCF8F803012507F10800D6
:10161000791C42F201440AE0002E01F1010718BFD3
:1016200082F800E001328142394680F2CD8018F81C
:1016300001300D2B1370EFD805FA03F3234218BFC6
:101640000E46E9E73D2940F0258110F8012C442A97
:1016500052D110F8022C552A4ED1781C18F80010DF
:101660004FF001093D2908BFB81C18F800100746C3
:10167000A1F1300028608AF843008AF8FE90CCF887
:10168000F893654602F0B2FE03F020F840F2200025
:10169000C2F20000006840F674710028C2F2000136
:1016A000C1F800B000F00F81AAF101012A1F5B46CA
:1016B000AC46FF2553F8044BFF2C42F8044F28BFDB
:1016C0002C46013801F8014FF4D140F67470C2F293
:1016D0000000036040F2341A41F65405069B40F2C4
:1016E00004044FF00109C2F2000AC2F200054FF0F3
:1016F000000EC2F20004CFE03D2940F0CB8010F88C
:10170000012C4C2A31D110F8022C572A2DD110F877
:10171000032C4D2A29D10120A9468AF8FE00CCF8D5
:10172000F803012507F10E010AF114027B1C0020C9
:1017300042F201440EE000BF2C2F08BF18460028DB
:10174000A3F1010718BF82F800E0013301328F4294
:1017500080F2C28018F803700D2F1770ECD805FACC
:1017600007F62642E8D01846E9E73D2940F0928086
:1017700010F8012C472A67D110F8022C462A63D1B1
:1017800010F8032C432A5FD140F674790121C2F28C
:1017900000098AF8FE10CCF8F8130130791C0027F4
:1017A00000220AE0002F06BF0AF8023000270AF8DC
:1017B00002E001320F2A00F03682835C2C2BF1D13B
:1017C0008F180AF802E0F4E702F010FE02F07EFF44
:1017D00040F22000C2F20000006840F67471002858
:1017E000C2F20001C1F800B060D040F2342CAAF17E
:1017F0000101C2F2000C41F6540AACF104025B464E
:10180000C2F2000AFF2500BF53F8044BFF2C42F838
:10181000044F28BF2C46013801F8014FF4D140F69F
:101820007470C2F20000036040F23410C2F2000093
:1018300040F20404069B4FF000094FF0000EC2F284
:1018400000045546824627E03D2923D110F8012C9B
:10185000542A0CD110F8022C532A08D110F8032C6A
:10186000522A04D110F8042C572A00F0C7823D29CF
:1018700010D110F8011C54290CD110F8021C532966
:1018800008D110F8031C522904D110F8040C482880
:1018900000F0B4824FF00109B9F1000F00F0AE8200
:1018A000206801378742FFF693AEA7E240F2342C5E
:1018B00041F654054FF00009C2F2000C4FF0000E43
:1018C000C2F20005A9E1AC4641F65405069BC2F2FE
:1018D00000054FF0000EDFE718F800100AF12303AF
:1018E0002C2908BF013018F800102C2908BF01303E
:1018F00000F10E0200210CE02C2F08BF0146002948
:1019000018BF83F800E0904200F1010003F10103E9
:101910000ADA18F800700D2F1F70EDD805FA07F6D7
:101920002642E9D00146EAE718F801000AF132023E
:101930002C2808BF013118F8010000262C2808BF08
:10194000013101F10E0009E0002E01F1010718BF7D
:1019500082F800E00132814239460ADA18F8013093
:101960000D2B1370F0D805FA03F3234218BF0E466F
:10197000EAE79AF814000130C0B2022812D39AF8AC
:101980001900FF280ED068B1DAE90501DAF81F2046
:1019900043F62025C2F20005DAF81C30C5F80B200A
:1019A0000BC515E043F62020C2F2000043F23801D7
:1019B000818143F22B61C3F63201016043F235218C
:1019C000C3F23831416043F23531C3F630118160E2
:1019D0009AF823000130C0B2022814D39AF82800E4
:1019E000FF2810D078B1DAF82300DAF82E2043F679
:1019F0003025C2F20005DAF82710DAF82B30C5F8E6
:101A00000B200BC515E043F63021C2F2000143F66E
:101A10003910888143F22B60C3F63200086043F22C
:101A20003230C3F23100486043F63210C3F2331053
:101A300088609AF832000130C0B2022814D39AF8B4
:101A40003700FF2810D078B1DAF83200DAF83D20FC
:101A500043F64025C2F20005DAF83610DAF83A30DB
:101A6000C5F80B200BC514E043F64021C2F200017B
:101A70003220888143F22B60C3F63200086043F2C3
:101A80003110C3F23230486043F23430C3F2317067
:101A900088604D4602F0AAFC02F018FE40F22000D9
:101AA000C2F20000006840F6747140F2342CC2F2B9
:101AB0000001C2F2000C4FF0000EC1F800B0D0B12E
:101AC000AAF10101ACF104025B46FF2553F8044B77
:101AD000FF2C42F8044F28BF2C46013801F8014F73
:101AE000F4D140F6747040F2341AC2F20000C2F22F
:101AF000000A4D4603609AF814000130C0B2022873
:101B000012D39AF81900FF280ED068B1DAE905015E
:101B1000DAF81F2043F62024C2F20004DAF81C3061
:101B2000C4F80B200BC415E043F62020C2F20000DD
:101B300043F23801818143F22B61C3F63201016027
:101B400043F23521C3F23831416043F23531C3F6F7
:101B5000301181609AF823000130C0B2022814D3FA
:101B60009AF82800FF2810D078B1DAF82300DAF8C4
:101B70002E2043F63024C2F20004DAF82710DAF8F7
:101B80002B30C4F80B200BC415E043F63021C2F211
:101B9000000143F63910888143F22B60C3F632000E
:101BA000086043F23230C3F23100486043F632102D
:101BB000C3F2331088609AF832000130C0B20228B4
:101BC00014D39AF83700FF2810D078B1DAF8320031
:101BD000DAF83D2043F64024C2F20004DAF8361069
:101BE000DAF83A30C4F80B200BC414E043F6402175
:101BF000C2F200013220888143F22B60C3F632002A
:101C0000086043F23110C3F23230486043F234309E
:101C1000C3F2317088604FF0000940F20404069B63
:101C2000C2F2000438E60026002400BF013718F88D
:101C3000075040F23410C2F200002C2D20444FF027
:101C4000000208BF3E46002E08BF2A46C2730FF6A8
:101C5000640039463346009508F0F2FE44F2422013
:101C6000C0F20F00013800BFFCD10134052CDDD1DA
:101C7000771C18F8070041F654052C2808BFB71C3C
:101C800018F80700C2F200052C2808BF013718F821
:101C900007003038286002F0A9FB02F017FD40F27F
:101CA0002000C2F20000006840F2341A40F2342CE6
:101CB00040F2A004069BC2F2000AC2F2000C4FF0F0
:101CC000000EC2F200044946C9F800B0E0B1AAF122
:101CD0000101ACF104025B464FF0FF0A53F8045BCC
:101CE000FF2D42F8045F28BF5546013801F8015F17
:101CF000F4D1C9F8003041F65405069B40F2341A7D
:101D0000C2F20005C2F2000A9AF80000FF281CD0B7
:101D10009AF80110FF2918D09AF80220FF2A14D04F
:101D200098B191B18AB199464FF0FF300AEB0001AA
:101D300049782318A1F130024B2A00F1010028BF95
:101D400071460E285970F1D110E043F24D20C5F2D2
:101D50004D00206044F64C60C4F641506060522053
:101D600099462072C4F809E0A4F80DE09AF80F0033
:101D70000130C0B202280BD240F2BC0043F2310164
:101D8000C2F20000C3F23001016080F804E009E013
:101D90009AF81300DAF80F1040F2BC02C2F2000207
:101DA000107111609AF8410040F20404411CC9B25C
:101DB000C2F200044B46012913D840F28C00C2F253
:101DC0000000006840F2CC01C2F20001087040F24D
:101DD0001C11C2F2000108608AF841004FF00009AE
:101DE0005AE540F2CC01C2F20001087040F21C1129
:101DF000C2F2000108604FF000094DE5082B5BD0EE
:101E0000072B40F04D8398F8087001208AF8FE00F7
:101E1000CCF8F80398F80900B7F130095146AA4602
:101E2000C5F800904FF009054FF0000698BFB14685
:101E30002C2808BF0A2518F8050041F2A434C2F284
:101E4000000481F841902C2820464FF4966108BF89
:101E50000135FEF7A2F908EB05000021002200BFC2
:101E6000835C00290D4608BF1546002B08BF294694
:101E7000002918BF3346A3540132052AF0D140F699
:101E8000D0600139C2F2000000220329026000F292
:101E9000738040F2342CC2F2000CDFE801F002B093
:101EA000BDDB217840F234143039CAF80010C2F298
:101EB000000488BF01600AE101208AF8FE00CCF826
:101EC000F80398F8080098F80910303828604FF0A7
:101ED000000698BF30468AF84200C0B20927CCF805
:101EE000080140F218122C2908BF0A2718F8071019
:101EF00041F2A434C2F20002C2F2000410602C29A4
:101F000020464FF4966108BF0137FEF746F90020DE
:101F1000002100BF18F807206654212A12BF002AAA
:101F200000280846002818BF3246625401F101011A
:101F300008BF01370529EDD140F6CC680138C2F25F
:101F4000000800210328C8F8001000F23F8140F289
:101F5000342C40F67476C2F2000CC2F20006DFE8C0
:101F600010F0040085019201B1012078303828601A
:101F700088BFC8F80000E1E121786278303942F288
:101F8000107344F2804659434FF47A73CFF6FF76CC
:101F900002FB03F712FB03624BF6813301609F42A1
:101FA000CAF8002024BF11440160A17864224EF6D3
:101FB000405740F2342C01FB02F3CFF6FF77C2F218
:101FC000000C11FB0271B3F5965FCAF8001002D93C
:101FD000026811440160E1784FF6206301EB810152
:101FE0004A00CFF6FF7303EB4101B2F5F07FCAF868
:101FF000001002D902681144016022795AE0227867
:10200000A2F13001312ACAF8001022BF01EB810190
:102010004900016062784DE0312F03D321783039D7
:10202000CAF80010DAF8002064215143012A016047
:1020300003DB6278303ACAF80020DAF8003003EBAC
:1020400083025200012BCAF80020A4BF1144016092
:10205000A2782FE022784EF64057A2F13001312AC3
:10206000CAF8001022BF4FF47A72514301606178C0
:10207000642201FB02F3CFF6FF7711FB0271B3F587
:10208000965FCAF8001002D9026811440160A17875
:102090004FF6206301EB81014A00CFF6FF7303EB9B
:1020A0004101B2F5F07FCAF8001002D9026811446C
:1020B0000160E27840F23414A2F13001312AC2F218
:1020C0000004CAF8001002D30268114401600168DC
:1020D00048F68907B1F5B46FCAF80010C4BF4FF4D1
:1020E000B46202600268C8F68807002ADCBF4FF4B9
:1020F000B4620260026840F6DC6357FB0226C2F25B
:1021000000031A60731100253B2AC8BF03EBD67584
:1021100040F6486357FB0117C2F200031D607B11B4
:1021200003EBD773C3EB0313A1EB8301016009F148
:102130000100C0B20128CCE96425CCF8981111D86F
:1021400040F28C00C2F20000006840F2CC01C2F202
:102150000001087040F21C11C2F20001086084F80E
:1021600041000CE040F2CC00C2F2000040F21C1131
:1021700080F800905FFA89F0C2F20001086040F632
:10218000747AC2F2000A02F031F902F0E7FA40F282
:102190002000C2F200000068CAF800B098B140F216
:1021A0003422C2F20002611E043A00BF5BF8043B15
:1021B000FF2B42F8043F28BFFF23013801F8013FFD
:1021C000F4D1CAF800B000F099F969E1217844F23D
:1021D0008043A1F130003129286022BF42F2107102
:1021E0004843C8F8000060784FF47A71CFF6FF7367
:1021F00040F2342C40F6747600FB01F210FB013003
:102200004BF68131C2F2000CC2F200068A4228600D
:1022100004D3D8F800100844C8F80000A07864215E
:102220004EF6405300FB01F2CFF6FF7310FB013076
:10223000B2F5965F286004D9D8F800100844C8F8B1
:102240000000E0784FF6206200EB80004100CFF6FE
:10225000FF7202EB4000B1F5F07F286004D9D8F896
:1022600000100844C8F8000021795DE02178A1F150
:1022700030003129286022BF00EB80004000C8F800
:102280000000617850E021784FF62062A1F1300023
:102290003129286022BF64214843C8F800006078D3
:1022A000CFF6FF7200EB8000410002EB4000B1F579
:1022B000F07F286004D9D8F800100844C8F800005E
:1022C000A17831E021784EF64053A1F13000312958
:1022D000286022BF4FF47A714843C8F80000607844
:1022E000642100FB01F2CFF6FF7310FB0130B2F561
:1022F000965F286004D9D8F800100844C8F8000098
:10230000A0784FF6206200EB80004100CFF6FF720C
:1023100002EB4000B1F5F07F286004D9D8F8001036
:102320000844C8F80000E178A1F1300031292860A4
:1023300004D3D8F800100844C8F80000D8F800000A
:102340004DF6A00240F6D86442F26171CFF6FF72FA
:10235000C2F20004411A2860914220603CBF42F260
:1023600060712960296842F26073CB1A013240F62D
:10237000446A40F210179342C2F2000AC2F2000708
:102380000BD24FF434600121CCE96910062038608B
:102390001720CAF800003B2033E045F606334A090F
:1023A000C0F2B053A2FB03234FF4B462C146A84667
:1023B00003FB12059FED431A00EE105AB8EEC00A57
:1023C00080EE010ACCE969313B60C9F8005008F0A1
:1023D0005BFB48F68900C8F6880050FB055040F2C8
:1023E000342C411101EBD070C0EB0010C2F2000C94
:1023F000BDEEC00AC8F80050C846A5EB80008AEDC3
:10240000000A40F64861C2F200010968C8F80000FD
:10241000CCF89C11DCF8A811CCF8A001216067462B
:1024200001F0E4FF02F09AF940F22000C2F200004D
:102430000068C6F800B090B140F23411C2F2000159
:1024400001393A1F5BF8043BFF2B42F8043F28BFD9
:10245000FF23013801F8013FF4D1C6F800B000F0C5
:102460004DF840F23410C2F2000090F8422040F2E1
:102470001810C2F200000368D8F8000040F21017EC
:10248000DAF80010C2F200073F6826688DE8830082
:1024900040F69C710CA0C2F20001039608F0D0FA3D
:1024A00040F69C70C2F20000FF21FDF776FE07B0F7
:1024B000BDE8F08F0D0A25642025642025642025C1
:1024C000640D0A0000007042336D7367202573208D
:1024D000666D635F627566665B36365D20256420D7
:1024E000656E61626C656872737420256420256472
:1024F0002025642025642025640D0A002DE9F04F75
:1025000081B040F23424C2F2000404F5C87B9BE899
:10251000E808D4F8A40140F6DC6C40F6486140F6C7
:10252000D06240F6446940F6CC6840F2101AC2F21C
:10253000000CC2F20001C2F20002C2F20009C2F2B3
:102540000008C2F2000ACCF800300D601660C9F82D
:102550000070C8F800B055EA0607CAF8000004BFCA
:102560000C20086008681928A4BF182008600868B3
:10257000B0F1FF3FDCBF00200860B6F1FF3FDCBFD9
:1025800000201060A3F5B46010F5B46F07D840F2D6
:10259000CF20CCF800000B2008603B2010600868BA
:1025A0001368C0EB001003EB8000A0F5B46313F5D3
:1025B000B46FCCF8000007D840F2CF20CCF8000070
:1025C0000B2008603B201060D4F8A80142F2607133
:1025D0004DF6A002411ACFF6FF7240F6D86691423E
:1025E000C2F200060FD84FF43460012117223B23BA
:1025F000CAF80010C9F80020C8F80030C4E9672301
:10260000C4E9691038E000EE100A9FED221AB8EE16
:10261000400A80EE010A306008F036FABCEEC01ABB
:1026200011EE100A4FF4B46100FB11B59FED1A2AA8
:1026300000EE105AB8EEC00A80EE020A41F65407C6
:1026400084ED691A8AED001AC2F2000708F01CFA3C
:1026500048F68900C8F6880050FB0550BDEEC00A58
:10266000411101EBD070C0EB0010A5EB800089EDAB
:10267000000A3D60C8F80000306842F25F7188428D
:10268000A4BF42F260703060D4F8A801306001B09D
:10269000BDE8F08F0000B44400007042B0B50828D7
:1026A00084BF6420B0BD81B240F2BF1222FA01F1B2
:1026B000C9074FF0640413D00AA113A251F82010E7
:1026C00052F8205040F69C70C2F20000FDF777FDF2
:1026D00040F2F001C2F200010860002808BF2C4659
:1026E0002046B0BD2C000020360000203E00002017
:1026F00047000020520000205E0000202C00002037
:1027000068000020700000200000000001000000B0
:10271000020000000300000004000000120000009E
:102720000000000015000000190000002DE9F0472E
:1027300082B040F6587041F2A03640F69C74C2F266
:1027400000000021C2F20006C2F200040022C0E92B
:102750000011317004E000BFFD2901F1010114DA1C
:10276000635C222B04BF01323270212BF4D1EF299C
:10277000F2DCD3B2012BEFD02144D1F80130D1F8F3
:102780000510C0E90031FF21E6E740F6587040F639
:102790006071C2F20000C2F200010822FDF71DFDC7
:1027A00041F6540540F2EC09C2F2000540F28008FF
:1027B000C2F2000964212860C2F200080020C9F8B2
:1027C000001000220021C8F80000307004E000BFB3
:1027D000FD2A02F1010212DAA35C222B04BF0131AF
:1027E0003170212BF4D1EF2AF2DCCBB2012BEFD0E8
:1027F000A318A050FF22586018819872E8E7617A08
:10280000E079267A44F64A375429C0F24C0708BFCB
:102810004F2E65D0627994F803C02179A3794C2AB0
:1028200008BF572900F080804C2B08BF572A00F0C2
:102830008680472B08BF462A00F09C80442808BFAA
:10284000552B00F00381542B08BF462A00F02A8143
:10285000432A08BF502900F04D81522B08BF452A5A
:1028600000F055814D2B08BF492A00F03C82432BD4
:1028700008BF412A00F0598283F0540682F05305C4
:102880002E4381F052052E4308BFBCF1480F00F0E3
:102890008082ACF15705B6FA86F6B5FA85F5760969
:1028A0006D092E40012E40F08F823D2802D1072075
:1028B000FEF76AFE40F21C10C2F20000016840F60A
:1028C000DC60C2F2000002684AF68560C0F60100D2
:1028D00008F0B6F8384600BF013800BFFCD137E138
:1028E0004F2897D14AF6D170C0F6010008F0F6F9EA
:1028F000384600BF013800BFFCD140F22800C2F2C8
:102900000000002101600320C9F80000C8F80000A1
:1029100040F69870C2F2000063210170384600BF93
:10292000013800BFFCD11DE1BCF14D0F7FF47CAF3D
:102930003D2B40F0A180FDF747FD05259DE04E2988
:102940007FF477AF3D2808BFFDF73EFD40F234101D
:10295000C2F2000090F84C104BF24F104EF2DE1510
:10296000C0F60100C0F2E40508F06AF8013D00BFBE
:10297000FCD1EDE043297FF461AF3D281FD1FDF785
:1029800023FD3846013800BFFCD141F2A435C2F224
:1029900000054AF6795140F2A002C0F60101C2F2E8
:1029A0000002284608F05CF8284607F067FF42F668
:1029B0002850C0F2311000BF013800BFFCD141F2F5
:1029C000A430C2F200004FF49661FDF7E6FB41F639
:1029D0006C00C2F2000040F69801FDF7DEFB42F603
:1029E000A410C2F2000040F63401FDF7D6FB42F21B
:1029F0000410C2F2000040F69801FDF7CEFB42F64B
:102A0000A010C2F200000021016042F69C10C2F248
:102A10000000016040F69C70C2F20000FF21FDF74B
:102A2000BCFB40F2CC00C2F2000003784AF6097009
:102A300040F2A00140F2BC02C0F60100C2F2000167
:102A4000C2F2000207F0FCFF02207FE0412A7FF47F
:102A5000FAAE3D2E68D101202860FDF7B5FC40F2AA
:102A60003410C2F2000090F843104AF63950C0F614
:102A7000010007F0E5FF68E001254AF6457043F6DE
:102A8000202143F6302243F64023C0F60100C2F273
:102A90000001C2F20002C2F2000307F0D1FFC9F840
:102AA000005055E04F297FF4D3AEBCF1530F7FF4B3
:102AB000CFAE4AF6DC70C0F6010008F00FF93846D8
:102AC000013800BFFCD140F22800C2F20000002112
:102AD00001600320C9F800000D20C8F8000040F68E
:102AE0009870C2F20000632101703846013800BFBF
:102AF000FCD137E03D2B08BFFDF766FC4AF6577066
:102B000040F66071C0F60100C2F2000108E05629EB
:102B10007FF4A8AE40F208010FF27450C2F2000137
:102B200007F08EFF052011E040F23410C2F20000E1
:102B300090F8431040F22400C2F2000002684AF606
:102B40001C70C0F6010007F07BFF0420C9F80000EC
:102B500040F69970C2F20000007840F69871C2F217
:102B600000010870207A532840F0AD80E0794D28AC
:102B700040F0A980A0794C2840F0A580A07A2228B6
:102B800040F0778040F6987040F68C6AC2F2000000
:102B90002A21C2F2000A017050463221FDF7FDFAE7
:102BA00040F6687541F2A430C2F200050026C2F278
:102BB00000004FF49661C5E90066FDF7EEFA0B20C0
:102BC00000210022235C2C2B04BF01260130235C52
:102BD000222B0AD0002E19BFAB5401320AF8013063
:102BE0000131642800F10100ECDB4AF6A4504EF2FA
:102BF000DE14C0F60100C0F2E40407F03FFE00BF9F
:102C0000013C00BFFCD141F2A434C2F200044AF6F8
:102C1000B65140F68C63C0F60101C2F200032046B3
:102C20002A46009507F01CFF204607F027FE4CF2CD
:102C3000BC30C0F2C91000BF013800BFFCD14AF659
:102C4000EA70C0F6010008F049F83846013800BFC4
:102C5000FCD13846013800BFFCD140F22800C2F256
:102C60000000002101600820C9F80010C8F8000029
:102C700018E04AF66370C0F6010008F02FF83846F5
:102C8000013800BFFCD1D8F8000008280AD040F66F
:102C90009970C2F20000007840F69871C2F200010B
:102CA000087000BF013F00BFFCD1D8F80000082821
:102CB00009D040F69970C2F20000007840F6987191
:102CC000C2F200010870D9F80000032808D10D20D5
:102CD000C8F8000040F69870C2F20000632101704D
:102CE00002B0BDE8F08753297FF4C1AD40F69A7574
:102CF00040F69B76C2F20005C2F2000629783278CF
:102D00004AF6E260C0F6010007F09AFE0520C9F815
:102D10000000287840F69871C2F2000108703078FF
:102D200040F69971C2F200011BE746297FF4A4AD79
:102D3000BCF1460F7FF4A0AD49F29464CDA0C0F27F
:102D4000980407F0CBFF01F051FB01F081FB052057
:102D5000C9F8000040F69970C2F20000007840F611
:102D60009871C2F200010870013C00BFFCD14EF620
:102D70000C50CEF20000BFF34F8F0168042201F423
:102D8000E061C0F2FA5211430160BFF34F8F00BF00
:102D9000FEE73D2802D10820FEF7F6FB40F21810AE
:102DA000C2F20000016840F6D860C2F2000002687A
:102DB0004AF67160C0F6010007F042FE384600BFD7
:102DC000013800BFFCD1C3E6462B08BF542A30D0DF
:102DD000542B08BF542A3BD0472B08BF4C2A53D052
:102DE000432B08BF4F2A00F07B80502B08BF4F2A8F
:102DF00000F08A80322B08BF572A00F0B8804128A3
:102E000008BF542B00F0ED806420C9F80000204674
:102E1000FDF7CEF940F60D222118225200208870CD
:102E2000204607F02BFD40F69870C2F200001D21ED
:102E3000D5E04429CCD1BCF1570FC9D189A007F006
:102E40004DFF3846013800BFFCD107F0DDFD7FE6BD
:102E50004429C1D1BCF1570FBED17EA007F03EFF7F
:102E60003846013800BFFCD147F67200C0F27D1031
:102E7000013800BFFCD142F60040C4F2010000213D
:102E8000C82206F05BF963E64629A9D1BCF1530FCD
:102E9000A6D140F6987A40F69A70C2F2000AC2F2C1
:102EA00000009AF80010037840F69B7040F699767F
:102EB000C2F2000041F28435C2F200060078C2F28C
:102EC000000532782D6800905AA0019507F0B8FDF2
:102ED0003846013800BFFCD130788AF8000041E65E
:102EE00053297FF482AFBCF1430F7FF47EAF41F2F0
:102EF0008430C2F20000016849A007F0A1FD384605
:102F0000013800BFFCD123E645297FF473AFBCF143
:102F1000520F7FF46FAF49F294653DA0C0F298055F
:102F200007F0DCFE013D00BFFCD140F2C800C2F258
:102F30000000642101604AF6A450C0F6010007F0C9
:102F40009DFC46F65610C0F27840013800BFFCD117
:102F500040F64060C2F20000002101700D20C8F868
:102F6000000040F69870C2F20000622132E046296B
:102F70007FF445AFBCF14D0F7FF441AF49F294654A
:102F800020A0C0F2980507F0A9FE013D00BFFCD1CA
:102F900040F23410C2F2000040F20111A0F8FE101D
:102FA00040F23421C2F200010122C1E9FE22642272
:102FB00080F8F020C1F8C02301F018FA01F086FB78
:102FC00001F0E8F90D20C8F8000040F69870C2F250
:102FD00000006321017040F69970C2F20000017098
:102FE000C0E54F2A7FF410AF46297FF40DAF40F6BD
:102FF0004C70C2F2000000210160012002F0D2FCFE
:10300000B0E500BF41542B4D465732204F4B0D00C9
:1030100041542B52454F5053204F4B0D00000000A0
:1030200041542B43534F434B3D25640D0A4F4B0DE9
:103030000A00000041542B53464C41473D25642C67
:1030400025642C25642C25642C25640D0A4F4B0D1A
:103050000A00000041542B574454540D0A4F4B0DA5
:103060000000000041542B574454460D0A4F4B0DAD
:1030700000000000464143544F52592052455345E9
:103080005420495320574F524B494E470D000000E2
:1030900041542B4D5645523D25730D0A000000004A
:1030A000B0B54AF6F05041F2000444F64A35C0F695
:1030B0000100C4F20104C0F24C0507F0DFFB20461A
:1030C0004FF4004101F0E2FC284600BF013800BF88
:1030D000FCD120464FF4004101F0DAFC013D00BF75
:1030E000FCD149F294640FA0C0F2980407F0C6FB2B
:1030F000204600BF013800BFFCD114A007F0BEFB82
:10310000204600BF013800BFFCD116A007F0B6FB77
:10311000013C00BFFCD140F64060C2F2000001213A
:103120000170B0BD41542B4754535953434D443D56
:10313000226E76207365742057414E50696E674643
:10314000696C7465723D31220D0A000041542B47B1
:1031500054535953434D443D226E76207361766536
:10316000220D0A0041542B47544C414E454E4142DA
:103170004C453D310D0A00002DE9F04F81B040F281
:103180002801C2F200014FF0FF30086040F2040055
:10319000C2F20000D0F8009042F6A41C40F2D40E17
:1031A0000021C2F2000CC2F2000E00264FF0000A0D
:1031B00005E00819C11C00BF0131494536DA1CF889
:1031C00001003A28F8D101EB0C0515F8010C502844
:1031D000F2D115F8020C4928EED115F8030C4C2851
:1031E000EAD1002403E000BF01340E2CE1D02B19FA
:1031F00032460E195879F71C2C283E4609D03E4617
:103200003AB9BAF1000F3E4603D1DA7800260EF83B
:1032100004202C28E8D11879222808BFBAF1000F21
:10322000E2D1D878BA460EF80400DDE742F6A010E5
:10323000C2F200000021016042F6A410C2F20000B8
:1032400040F63401FCF7A9FF49F29460C0F29800FF
:10325000013800BFFCD140F2D408C2F2000843F6A6
:103260002021C2F2000140460F22FCF7B6FF40F2D7
:10327000F00740F64C7BC2F20007C2F2000B0121BE
:103280003860CBF8001070B140F2D40043F6302122
:10329000C2F20000C2F200010F22FCF79EFF38606C
:1032A0000220CBF80000386870B140F2D40043F639
:1032B0004021C2F20000C2F200010F22FCF78DFF94
:1032C00038600320CBF80000386844F64A3540F6F1
:1032D000987A40F69979C0F24C050028C2F2000AAB
:1032E000C2F200094FF0000012D040F22801CBF8E2
:1032F00000004FF0FF30C2F20001086003208AF89E
:1033000000002846013800BFFCD199F8000009E010
:1033100040F22801C2F2000108602846013800BFCF
:10332000FCD123208AF8000040F67076C2F2000635
:1033300000203A68307040F23410C2F200003AB90E
:1033400090F84C10FF2901D0012901D101213170E1
:1033500090F84C0041F274340130C0B201289CBF97
:1033600001203070D8F80B3098E88300C2F20004D6
:10337000C4F80B303378C4E900012BA04146A760A4
:1033800007F05EFB40F2E400C2F2000001684A1C54
:10339000032902602BDB3078012828D199F800003E
:1033A000073825283AD8DFE800F013393939393998
:1033B00039133939393939393939391339391339EF
:1033C00039393939391339393939393939393913B9
:1033D00040F68C70C2F2000001780131CAB2C82AEE
:1033E00028BF6FF03701017001B0BDE8F08F0020F9
:1033F00040F22801CBF800004FF0FF30C2F200018C
:10340000086003208AF80000013D00BFFCD199F854
:1034100000008AF8000001B0BDE8F08F02F052FF12
:1034200001B0BDE8F08F00BF657874726163746E9F
:10343000756D2043616C6C65726E756D202573200F
:1034400025642025640D0A002DE9F04F87B041F274
:103450000000C4F201004FF4005101F017FB40F6E8
:103460009C74C2F200042046FF21FCF796FE40F255
:103470000400C2F20000D0F800E042F6A4160020DA
:10348000C2F200060021002203E000BF01307045B7
:1034900019DA335C432B10D183195F784D2F08D193
:1034A0009F78542F05D1DB78871D3A2B04BF38460F
:1034B0003A4642F6A416C2F20006002AE6D0335C71
:1034C00073540131E2E740F63962C2F20002002093
:1034D00040F698711070C2F2000108782E2802D0D0
:1034E00008782F2875D141F29C020023C2F2000215
:1034F000F05C412826D198194178542922D181784D
:103500002B291FD1C1784D291CD10079462819D10A
:103510000020194605E000BF0131632800F10100D9
:1035200017DA775C0A2F1754F6D10E4416F8016C9F
:103530000D2E42F6A416C2F2000604BF17546430E2
:10354000EAE700BF1846002333B9431C7345CFDBBD
:1035500002E0481D002BF8D04CF2BC3504F14900C4
:10356000B621C0F2C915FCF718FE4BF24C21C0F68B
:10357000010120464922FCF7F7FD02F09FFF00BF42
:10358000013D00BFFCD14EF2DE10C0F2E40000BFEE
:10359000013800BFFCD140F69C7041F29C0144F61A
:1035A0004A34C2F20000C2F20001FF22C0F24C0411
:1035B000FCF7DAFD013C00BFFCD140F64C70C2F2D2
:1035C000000001210160012002F0ECF907B0BDE824
:1035D000F08F41F2A03392F800B0C2F20003002451
:1035E000AEF10207002000254FF0000A1C70069083
:1035F000CDE9047E705D2B283CD17019984600F10E
:10360000020C6B1C002700210AE000BF2C2E08BF13
:10361000BAF1000F22D001310E2902F101032DD0A1
:103620001CF801606C1838461A462C2EA146274615
:10363000ECD00028A1462746E8D1BAF1000FA146F8
:103640002746E3D10CEB010010F8020C41F2643381
:10365000C2F200030027A9465854D7E70CEB01003B
:1036600010F8020C41F26433C2F20003A24658542F
:10367000D1E700BF4FF000091CE000BF6818851DAE
:10368000AE45C8BF754642F6A416049FC2F20006B6
:1036900043460024B01880790A2805D0901D0132D5
:1036A0007045F7DB02E000BFD51DA94640F6396240
:1036B000C2F2000240F65870C2F20000B9F1000FE9
:1036C0000460446000F0CC8040F69C7C4FF0000E1B
:1036D000C2F2000C0AE000BF8CF800804FF0000E30
:1036E0000135BD420CF1010C80F2BA8016F805805C
:1036F000A8F10A004A2800F26180DFE810F0B1006A
:103700005F005F0077005F005F005F005F005F00A9
:103710005F005F005F005F005F005F005F005F00B1
:103720005F005F005F005F005F005F00A800560061
:103730005F005F005F005F005F005F005F005F0091
:103740005F005F005F005F005F005F005F005F0081
:103750005F005F005F005F005F005F005F005F0071
:103760005F005F005F005F005F005F004B005F0075
:103770005F005F005F004B005F005F005F005F0065
:103780005F005F004B005F004B005F005F005F0069
:103790005F004B000BF1010BB8F1210F82F800B074
:1037A00000F05580B8F1220F08D10698B8F1210F2A
:1037B00000F101000690187000F04980BEF1000F82
:1037C0003FF48AAFAEF10200072809D840F65871DD
:1037D000C2F2000101F800800EF1010E80E700BF87
:1037E000BEF1010F08BF4FF0020E79E77119497859
:1037F0000A2900F035804A28E0D8DFE800F0312FB0
:103800002F2F2F2F2F2F2F2F2F2F2F2F2F2F2F2FC8
:103810002F2F2F2F2F28272F2F2F2F2F2F2F2F2FC7
:103820002F2F2F2F2F2F2F2F2F2F2F2F2F2F2F2FA8
:103830002F2F2F2F2F262F2F2F2F262F2F2F2F2FAA
:103840002F262F262F2F2F2F2600A3E7ADE7069830
:1038500010F0FD0F08BF0EF1010EAFE7AEE700BF9D
:10386000DDF814E0B9F1000F03D101357545FFF61D
:10387000C1AE40F27C00C2F200000A2141F2643382
:1038800001600020C2F20003107093E8070041F2CB
:103890007437D3F80B30C2F2000749F2946687E818
:1038A00007000FF66420C0F29806C7F80B3006F048
:1038B000E5FF3046013800BFFCD142F6A01942F6C0
:1038C000A41044F24224C2F200090025C2F2000012
:1038D0004FF4FA71C0F20F04C9F80050FCF75DFC18
:1038E00040F28008C2F200084FF0FF30C8F8000034
:1038F00040F64C7741F2643043F62021C2F20007D3
:10390000C2F20000C2F200013D60FCF758FC40F238
:10391000F005C2F200052860B0FA80F0400940F6D8
:10392000987B38602046C2F2000B00BF013800BF10
:10393000FCD1386878B941F2643043F63021C2F2E4
:103940000000C2F20001FCF73AFCB0FA80F149092C
:103950002860480038602046013800BFFCD1386834
:1039600080B941F2643043F64021C2F20000C2F255
:103970000001FCF724FC00212860002808BF032177
:10398000396000BF013C00BFFCD13A6840F670705E
:1039900040F2341AC2F200000021C2F2000A0170A3
:1039A0002AB19AF84C10012907D0FF2905D09AF8BE
:1039B0004C100131C9B2012901D8012101700078F0
:1039C000002843D040F6587040F66071C2F2000003
:1039D000C2F200010822FCF700FC054641F6540043
:1039E000C2F2000040F69C74056041F29C10C2F2E5
:1039F0000004C2F200002146C822FCF7B5FB7DB3EB
:103A00004EF2DE152046C0F2E405FCF7D1FB44F28D
:103A10000A52C5F252222118225045F24F20C4F218
:103A20002030486044F24F40C2F2451088600020C8
:103A3000087302F043FD00BF013D00BFFCD140F61A
:103A40009970C2F20000007800F066BB40F69970F1
:103A5000C2F2000000788BF8000007B0BDE8F08FDC
:103A600005F096F86428C8F8000000F24C83DFE8FF
:103A700010F06A007F00A500C900ED0002014A03B2
:103A80004A030E0165006500620182019D01C701C4
:103A9000E501030229024F0270028502DE024A0399
:103AA0002C03580377039A034A034A034A034A0341
:103AB0004A034A034A034A034A034A034A034A039E
:103AC0004A034A034A034A034A034A034A034A038E
:103AD0004A034A034A034A034A034A034A034A037E
:103AE0004A034A034A034A034A034A034A034A036E
:103AF0004A034A034A034A034A034A034A034A035E
:103B00004A034A034A034A034A034A034A034A034D
:103B10004A034A034A034A034A034A034A034A033D
:103B20004A034A034A034A034A034A034A034A032D
:103B30004A034A034A034A034A03CB0302F016FD31
:103B4000FCF742FCD8E240F69C7040F6E0614EF291
:103B5000DE14C2F20000C2F20001FF22C0F2E4044F
:103B6000FCF702FB02F0AAFC013C00BFFCD1C3E25F
:103B700040F69C74C2F200044EF2DE152046FF218E
:103B8000C0F2E405FCF709FB43F640274BF2C811ED
:103B900043F6202243F63023C2F20007C0F60101AB
:103BA000C2F20002C2F200032046009706F058FF5E
:103BB00002F084FC013D00BFFCD19DE240F69C7404
:103BC000C2F200044EF2DE152046FF21C0F2E405E9
:103BD000FCF7E3FA9AF841704BF2181140F2A00298
:103BE00040F2BC03C0F60101C2F20002C2F20003BF
:103BF0002046009706F034FF02F060FC013D00BF54
:103C0000FCD179E24EF2DE1504F10A00F521C0F292
:103C1000E405FCF7C2FA4720208145F24F4044F208
:103C20005251C4F64960C4F64271C4E9001002F072
:103C300045FC013D00BFFCD10D20C8F80000632009
:103C40008BF80000013E00BFFCD15CE240F69C70A6
:103C500040F6E0614EF2DE14C2F20000C2F2000152
:103C6000FF22C0F2E404FCF77FFA02F027FC013CDB
:103C700000BFFCD140E244F64A34C0F24C0402F0EA
:103C800075FCFCF7A1FB013C00BFFCD134E244F61B
:103C90004A34C0F24C0402F069FCFCF795FB013C8D
:103CA00000BFFCD141F2A434C2F200044AF67951BB
:103CB00040F2A0024EF2DE15C0F60101C2F200028F
:103CC0002046C0F2E40506F0CBFE204606F0D6FD05
:103CD000013D00BFFCD141F2A430C2F200004FF41C
:103CE0009661FCF75AFA41F66C00C2F2000040F609
:103CF0009801FCF752FA42F6A410C2F2000040F616
:103D00003401FCF74AFA42F20410C2F2000040F615
:103D10009801FCF742FA40F69972C2F2000242F6AC
:103D20009C1112780020C2F20001C9F8000008605E
:103D30008BF80020E7E140F69C74C2F200044EF2DA
:103D4000DE152046FF21C0F2E405FCF726FA40F21A
:103D50002400C2F200009AF8432003684BF22911B4
:103D6000C0F60101204606F07BFE02F0A7FB013DF4
:103D700000BFFCD1C0E140F69C74C2F200044EF2D8
:103D8000DE152046FF21C0F2E405FCF706FA40F2FA
:103D900008020FF2F451C2F20002204606F060FE63
:103DA00002F08CFB013D00BFFCD1A5E104F1100045
:103DB000EF21FCF7F2F944F6207045F2453144F268
:103DC0004F6245F24143C0F24B00C5F24541C5F296
:103DD0005422C5F22B33C4E90032C4E9021002F0C8
:103DE0006DFB013E00BFFCD144F64A30C0F24C00EE
:103DF000013800BFFCD10D20C8F80000632080E12D
:103E000041F2642440F69C75C2F20004C2F200053F
:103E100044F64A3620462946FF22C0F24C06FCF7FB
:103E2000A3F902F0A3FB28462146FF22FCF79CF9E8
:103E3000FCF7CAFA013E00BFFCD15DE141F2642407
:103E400040F69C75C2F20004C2F2000544F64A3600
:103E500020462946FF22C0F24C06FCF785F902F005
:103E600085FB28462146FF22FCF77EF9FCF7ACFAD9
:103E7000013E00BFFCD13FE140F69C74C2F2000459
:103E80002046FF21FCF789F940F21C10C2F2000025
:103E9000026840F6DC60C2F2000003684AF6856101
:103EA000C0F60101204606F0DBFD02F007FB013EF3
:103EB00000BFFCD144F64A30C0F24C00013800BFCC
:103EC000FCD119E140F69C74C2F200042046FF21A7
:103ED000FCF763F940F21810C2F20000026840F6E5
:103EE000D860C2F2000003684AF67161C0F60101B1
:103EF000204606F0B5FD02F0E1FA013E00BFFCD11C
:103F000044F64A30C0F24C00013800BFFCD1F3E067
:103F100040F69C74C2F200044EF2DE152046FF21EA
:103F2000C0F2E405FCF739F940F64870C2F200002F
:103F3000026840F63C60C2F2000003680FF23841AC
:103F4000204606F08DFD02F0B9FA013D00BFFCD11C
:103F5000D2E040F69C704EF2DE14C2F20000C0F2D5
:103F6000E40406F08BFC4AF66070C0F6010006F02F
:103F700085FC013C00BFFCD12920C2E041F29C003D
:103F80004CF2BC35C2F200002146FF22C0F2C91536
:103F9000FCF7EAF804F13800C721FCF7FEF84BF211
:103FA0009820C0F60100016800F1100E0591816AA9
:103FB000071D0691C16A9EE840500491016B00F113
:103FC0001C0B039105998CCF9BE8000E84E88E00B2
:103FD00004F1100181E8405004F11C0181E8000E59
:103FE0000699406BA1620499E1620399C4E90C103F
:103FF00002F064FA013D00BFFCD142F62850C0F245
:104000003110013800BFFCD140F69C7041F29C0198
:10401000C2F20000C2F20001FF22FCF7A5F8032063
:1040200001F0C0FC40F6987BC2F2000B6BE004F19B
:104030003400CB21FCF7B1F84BF25430C0F601004C
:104040000168071D0591816A8CCF0691C16AD0E98C
:10405000046504910599D0E906CE84E88E0006999E
:10406000D0E9089B006BA1620499C4E90465C4E926
:1040700006CEC4E9089BC4E90B1002F01FFA47F60C
:104080007200C0F27D10013800BFFCD140F2011077
:10409000AAF8FE0040F23420C2F200000121C0E97B
:1040A000FE1164218AF8F010C0F8C01300F09EF9E8
:1040B00000F00CFB00F06EF90D2040F6987BC8F87C
:1040C00000006320C2F2000B15E140F69C74C2F2BE
:1040D00000044EF2DE152046FF21C0F2E405FCF795
:1040E0005CF89AF84C20A1A1204606F0B9FC02F039
:1040F000E5F9013D00BFFCD140F69970C2F2000025
:1041000000788BF80000D8F8000003287FF4A5ACF5
:104110000D20C8F8000063208BF8000007B0BDE850
:10412000F08F41F29C0440F69C75C2F20004C2F28A
:10413000000520462946FF22FCF716F82846FF21F5
:10414000FCF72BF84AF6F371C0F601012846224627
:1041500006F086FC3868002864D002F04BF963E072
:1041600041F29C0440F69C75C2F20004C2F20005C4
:1041700020462946FF22FBF7F7FF2846FF21FCF7E0
:104180000CF86CA12846224606F06AFC4BF2D510CA
:10419000C0F60100294606F053FC386800286FD0AD
:1041A00002F028F96EE040F69C74C2F200044EF270
:1041B000DE152046FF21C0F2E405FBF7EEFF40F6D6
:1041C0009A7040F69B7140F69976C2F20000C2F2F6
:1041D000000141F284379BF80020C2F2000600780B
:1041E0000978C2F2000733783F68CDE900014AA19F
:1041F0002046029706F034FC02F060F9013D00BF52
:10420000FCD130788BF8000040F69C70C2F20000C0
:1042100006F034FB4AF66070C0F6010006F02EFB93
:104220001A206EE702F04AF94EF2DE10C0F2E40006
:10423000013800BFFCD140F69C74C2F2000441F288
:104240009C01C2F200012046FF22FBF78DFFFCF724
:10425000BBF82046FF21FBF7A0FF42F6A410C2F2F4
:10426000000040F63401FBF798FF40F69971C2F266
:10427000000109780020C9F800008BF8001042E71F
:1042800002F01CF94EF2DE10C0F2E400013800BF6B
:10429000FCD140F69C74C2F2000441F29C01C2F2CF
:1042A00000012046FF22FBF75FFF2046FF21FBF7BE
:1042B00074FF42F6A410C2F2000040F63401FBF78E
:1042C0006CFF0020C9F8000040F2C800C2F20000F4
:1042D000642101604AF6A450C0F6010006F0CEFA4F
:1042E00046F65610C0F27840013800BFFCD10D20D0
:1042F000C8F80000622040F69971C2F200018BF804
:1043000000000870FFE600BF41542B434D47443D79
:10431000312C340D0A00000041542B53464C4147C8
:104320003D25642C2025642C2025642C2025642C1C
:104330002025640025732E200D0A574F524B494EFD
:10434000472E205265736574204D6F64656D204E55
:104350006F772E20506C65617365205761697420FA
:10436000696E2033206D696E7321000041542B4526
:104370004E574C3D2564000041542B4D474E45544B
:104380003D25642C2564000041542B4D5645523D7B
:104390002573000080B540F22001C2F200010A68D6
:1043A00040F2000E40F6747CC0F6020EC2F2000C21
:1043B000002ACCF800E008BF80BD40F23411C2F200
:1043C00000014B1E40F23421C2F20001043900BF4B
:1043D0005EF8040BFF2841F8040F28BFFF20013AC4
:1043E00003F8010FF4D1CCF800E080BD70B500F007
:1043F000FDF940F2053000F057F84FF4417000F03D
:1044000053F840F2023000F04FF840F21805C2F2C3
:1044100000052868C8B100240026C0F6020400BFC9
:10442000204600F067F840F2053000F03DF84FF408
:10443000417000F039F840F2023000F035F8286899
:104440000136864204F58064EAD300F03DF870BD81
:1044500080B540F22000C2F200000068002240F661
:104460007471C0F60202C2F2000100280A6008BF9F
:1044700080BD043252F8043C013305D10A60013892
:1044800002F10402F6D180BD40F2B400C2F2000095
:104490000121016041F20000C4F201004FF48041AB
:1044A00000F0F6FA80BD000042F2000300F01F01A8
:1044B0008009C4F202034FF0010CC2580CFA01F15A
:1044C0001143C1507047000042F21000C4F20200D4
:1044D000016841F0800101604FF2E071C1F6FF71A7
:1044E0000988B1F5007F98BF7047016C41F08001E9
:1044F0000164704780B54FF2E071C1F6FF71098821
:104500008446B1F5007F70D94FF6FF700121C0F6E7
:104510000700CFF2010142F20C02C4F202024FF096
:10452000020E0B4684451BD21068C0070AD11068E2
:10453000C0065ABF10680EEA50000320012804D0BC
:1045400007E000BF0120012803D1002B03F1010384
:10455000EAD1012808BF0420002800F0958080BD22
:10456000106CC0070AD1106CC0065ABF106C0EEA5E
:1045700050000320012804D007E000BF01200128DB
:1045800003D1002B03F10103EAD1012808BF042065
:104590000028E4D1506C022340F002005064C2F8BD
:1045A00048C01069800748BFC2F808C0506C40F08E
:1045B00040005064106CC0070AD1106CC0065ABF8E
:1045C000106C03EA50000320012804D007E000BF6C
:1045D0000120012803D1002901F10101EAD10128BC
:1045E00008BF042002F1440149E00121CFF201019A
:1045F00042F20C02C4F202024FF0020E0B4600BF60
:104600001068C0070AD11068C0065ABF10680EEAC9
:1046100050000320012804D007E000BF012001283A
:1046200003D1002B03F10103EAD1012808BF0420C4
:10463000002818BF80BD5068022340F0020050607F
:10464000C2F808C0506840F0400050601068C007D1
:104650000AD11068C0065ABF106803EA5000032050
:10466000012804D007E000BF0120012803D1002960
:1046700001F10101EAD1111D012808BF04200A68D7
:1046800022F002020A6080BD5068022340F002005E
:104690005060C2F808C0506840F04000506000BF51
:1046A0001068C0070AD11068C0065ABF106803EA34
:1046B00050000320012804D0DDE700BF01200128BD
:1046C000D9D1002901F10101EAD1D4E72DE9F04166
:1046D00000F08CF840F2342840F23411C2F20008A5
:1046E000C2F20001A8F104000139642211F8013F6F
:1046F000013A40F8043FF9D10020C0F6020040F230
:10470000C40540F28406C2F20005C2F2000621216F
:10471000002700F580642860316000BF58F827103A
:10472000316000F08BF8286801370430B7F5807FDE
:1047300088BFFF27286040F20530FFF7B5FE4FF431
:104740004170FFF7B1FE40F20230FFF7ADFE28687E
:10475000A042E3D3FFF7B8FEBDE8F0812DE9F041B8
:1047600000F044F840F2342840F23411C2F200085C
:10477000C2F20001A8F104000139632211F8013FDF
:10478000013A40F8043FF9D10020C0F6020040F29F
:10479000C40540F28406C2F20005C2F200062121DF
:1047A000002700F580642860316000BF58F82710AA
:1047B000316000F043F8286801370430B7F5807F96
:1047C00088BFFF27286040F20530FFF76DFE4FF4E9
:1047D0004170FFF769FE40F20230FFF765FE28687E
:1047E000A042E3D3FFF770FEBDE8F08142F204007F
:1047F000C4F20200C168090609D540F22311C4F2CF
:104800006751016048F6AB11CCF6EF5101604FF2F1
:10481000E071C1F6FF710988B1F5007F0DD9C16C57
:10482000090658BF704740F22311C4F26751016472
:1048300048F6AB11CCF6EF510164704710B54FF25A
:10484000E072C1F6FF7212888446B2F5007F68D923
:1048500001224FF6FF70CFF20102C0F6070042F2CC
:104860000C038445C4F202034FF0020E14461BD21F
:104870001868C0070AD11868C0065ABF18680EEA3F
:1048800050000320012804D007E000BF01200128C8
:1048900003D1002C04F10104EAD1012808BF04204F
:1048A000002800F0898010BD186CC0070AD1186C70
:1048B000C0065ABF186C0EEA50000320012804D02D
:1048C00007E000BF0120012803D1002C04F10104FE
:1048D000EAD1012808BF04200028E4D1586C40F038
:1048E00001005864CCF80010022100BF186CC0070A
:1048F0000AD1186CC0065ABF186C01EA5000032098
:10490000012804D007E000BF0120012803D1002ABC
:1049100002F10102EAD1012808BF042003F1440199
:1049200045E00123CFF2010342F20C02C4F202027D
:104930004FF0020E1C4600BF1068C0070AD1106875
:10494000C0065ABF10680EEA50000320012804D0A8
:1049500007E000BF0120012803D1002C04F101046D
:10496000EAD1012808BF0420002818BF10BD5068F4
:1049700040F001005060CCF8001002211068C00720
:104980000AD11068C0065ABF106801EA500003201F
:10499000012804D007E000BF0120012803D1002B2B
:1049A00003F10103EAD1111D012808BF04200A68A0
:1049B00022F001020A6010BD586840F00100586002
:1049C000CCF80010022100BF1868C0070AD118688F
:1049D000C0065ABF186801EA50000320012804D01D
:1049E00007E000BF0120012803D1002A02F10102E3
:1049F000EAD1012808BF0420191DD8E7F0B581B01D
:104A000040F2B000C2F2000001210160FFF7EEFEAB
:104A100040F20530FFF748FD4FF44170FFF744FDC9
:104A200040F20230FFF740FD40F21804C2F20004E9
:104A30002068D8B140F294060025C2F20006002793
:104A400030682844FFF756FD40F20530FFF72CFD93
:104A50004FF44170FFF728FD40F20230FFF724FDCC
:104A600020680137874205F58065E9D3FFF72CFD03
:104A700001B0F0BD10B50446C1B243F60000C4F267
:104A8000010005F04DFF204610BD00004161704758
:104A9000016170472DE9F047CF0601F00F0C09D5F1
:104AA000042A05D1C26B4CF0030C1A43C26301E027
:104AB0004CEA020C00F1100E00F1140A00244FF031
:104AC00001094FF00F0800270EE000BF166008FA3A
:104AD00004F225EA02020CFA04F52A4302600137C7
:104AE000082F04F104040CD009FA07F212EA0306B5
:104AF000F5D0056828295246E8D04829E7D1724602
:104B0000E4E7082400254FF001094FF00F080FE0FB
:104B1000176008FA05F226EA02020CFA05F632439B
:104B200042600134102C05F1040508BFBDE8F08790
:104B300009FA04F212EA0307F3D04668282952461C
:104B4000E6D04829E5D17246E2E7000080680840D7
:104B500018BF0120704700002DE9F04F81B041F2ED
:104B6000000749F2946B4FF000604FF48031C4F2BB
:104B70000107C0F2980B01F031F940F68C70C2F2D7
:104B800000004FF0000880F8008040F2E400C2F21C
:104B9000000040F6C861C0F80080C2F200010220A7
:104BA000087040F21410C2F20000C0F8008040F615
:104BB000D460C2F20000C0F8008040F64C60C2F23F
:104BC00000004FF0FF31016040F69470C2F2000027
:104BD000C0F8008040F2C800C2F20000C0F80080B7
:104BE00040F2046001F03EFB38464FF46041FFF7AD
:104BF0004DFF3846102103224FF46043FFF74AFF70
:104C000040F6506540F6987A40F2800440F674769B
:104C1000C2F20005C2F2000AC2F20004C2F20006AB
:104C200038464FF46041B946FFF732FF40F2026068
:104C300001F018FB40F2036001F014FB40F68C70A9
:104C4000C2F2000080F8008040F2F400C2F20000DE
:104C5000C0F8008040F64060C2F2000080F800809A
:104C600040F2B800C2F20000C0F8008040F6507078
:104C7000C2F2000080F8008040F65170C2F20000DD
:104C800080F8008040F2B400C2F20000C0F800805A
:104C900040F64870C2F20000C0F8008040F2FC000C
:104CA000C2F20000C0F8008040F20010C2F2000022
:104CB000C0F8008040F69070C2F2000085F80080D5
:104CC000C0F8008040F69970C2F200008AF80080B7
:104CD00080F8008040F22000C2F2000042F6A011ED
:104CE0000068C2F20001C4F80080C1F80080002111
:104CF00040F23414FF27C0F60201C2F20004316012
:104D0000A0B140F23422C2F200020023611E043A34
:104D1000C0F6020353F8045BFF2D42F8045F28BF7E
:104D20003D46013801F8015FF4D1336040F2342090
:104D3000C2F20000D0F8F803012847D0FFF756FB75
:104D400040F22000C2F2000000680021C0F602011B
:104D50003160D0B10021C0F602014B46043100BFE2
:104D600051F8042C013205D13160013801F1040100
:104D7000F6D10AE040F2B400C2F200000121016065
:104D800018464FF48041FFF783FE40F22000C2F244
:104D9000000000680021C0F602014FF0FF073160FB
:104DA000A0B140F23422C2F200020023611E043A94
:104DB000C0F6020353F8045BFF2D42F8045F28BFDE
:104DC0003D46013801F8015FF4D133602078FF28B7
:104DD0001ED06178FF291BD0A278FF2A18D0B8B165
:104DE000B1B1AAB140F2A0064FF0FF30C2F2000606
:104DF0004F4600BF211849783318A1F130024B2AE1
:104E000000F1010028BF41460E285970F2D114E08C
:104E100040F2A00043F24D21C2F20000C5F24D0164
:104E2000016044F64C61C4F6415141605221017267
:104E3000C0F80980A0F80D804F46E07B0130C0B279
:104E400002280BD240F2BC0043F23101C2F2000052
:104E5000C3F23001016080F8048008E0E07CD4F8FF
:104E60000F1040F2BC02C2F2000210711160207DEE
:104E70000130C0B2022811D3607EFF280ED068B185
:104E8000D4E90501D4F81F2043F62026C2F200061B
:104E9000E369C6F80B200BC616E000BF43F62020DE
:104EA000C2F2000043F23801818143F22B61C3F664
:104EB0003201016043F23521C3F23831416043F2DF
:104EC0003531C3F63011816094F823000130C0B24F
:104ED000022815D394F82800FF2811D080B1D4F807
:104EE0002300D4F82E2043F63026C2F20006D4F870
:104EF0002710D4F82B30C6F80B200BC616E000BFE5
:104F000043F63021C2F2000143F63910888143F2A2
:104F10002B60C3F63200086043F23230C3F2310036
:104F2000486043F63210C3F23310886094F83200C0
:104F30000130C0B2022815D394F83700FF2811D0F1
:104F400080B1D4F83200D4F83D2043F64026C2F2B6
:104F50000006D4F83610D4F83A30C6F80B200BC649
:104F600015E000BF43F64021C2F2000132208881E3
:104F700043F22B60C3F63200086043F23110C3F2F3
:104F80003230486043F23430C3F23170886094F8B4
:104F9000431040F2D003C2F2000304290AD84FF4B0
:104FA0001650DFE801F017030E1114004FF496407D
:104FB00010E000BF40F22400C2F200000068FF29A8
:104FC00008E04FF4164005E04FF4614002E04FF472
:104FD000E13000BF186044F64A30C0F24C0000BF18
:104FE000013800BFFCD194F844000130C0B202285F
:104FF0000AD240F6607044F24541C2F20000C4F6A5
:105000004D11C0E9001107E0D4E9110140F66072CA
:10501000C2F20002C2E90001186805F041FC47F243
:10502000EF00C0F2720000BF013800BFFCD1A7F54D
:1050300080694846042103220123FFF72BFD4846DF
:10504000102103220223FFF725FD48460221FFF726
:105050001FFD4FF2E400C0F2FA2000BF013800BF8C
:10506000FCD148460221FFF711FD04F08BF847F60A
:105070007200C0F27D1000BF013800BFFCD107F5FF
:10508000E0500021C82204F059F803F0F1FE384640
:105090004FF400518AF80080FFF7F8FC40F2B400AA
:1050A000C2F20000C0F8008038464FF48041FFF79C
:1050B000EDFC38464FF40041FFF7E8FC94F841005E
:1050C000411CC9B2012911D840F28C00C2F2000083
:1050D000006840F2CC01C2F20001087040F21C11DD
:1050E000C2F20001086084F8410009E040F2CC01FE
:1050F000C2F20001087040F21C11C2F20001086007
:1051000094F84200411CC9B201290DD840F2880030
:10511000C2F20000006840F21811C2F200010860FB
:1051200084F8420005E000BF40F21811C2F200010D
:10513000086041F654045E46C2F200040FF65C0BB0
:10514000FDF7DCF940F208010FF2EC70C2F2000149
:1051500005F076FC4CF29030C0F6EB30013800BF21
:10516000FCD140F20410C2F2000080F8008040F64A
:10517000E060C2F200006421FBF70FF840F2B400D7
:10518000C2F200000121016038464FF40051FFF7E0
:105190007FFC40F21C00C2F20000006844F6D351CC
:1051A000C1F26201A0FB010140F29800C2F20000CE
:1051B00002684FF0FF3000EB911041F66001B0F152
:1051C000807FC2F200010A6080F09A834EF21001E3
:1051D000CEF2000148604EF60C50CEF20000F022F4
:1051E000C2750722C1F808800A6080F81780C4F8E9
:1051F000008000BF48460121FFF7A8FC40F650712F
:10520000C2F20001002818BF012008709AF80010AF
:105210009AF80000002937D001382D2800F2C28208
:10522000DFE810F02E00660069006C006F00C0021D
:1052300082008500C002C002C002C002C00290000D
:10524000C0029300C0029C00BE00E800EB00EE002C
:105250000B010E01250128013A013D0140016B01BE
:1052600085018801C002B901BC01C201D1010E0251
:10527000C002C00265028302C002A502A802B202F7
:1052800001F0D2F98EE200BF40F2F402C2F2000255
:10529000116840F69973C2F200031870481C362951
:1052A00010601CDB584605F0E9FA3046013800BFB3
:1052B000FCD140F2F400C2F20000C0F8008040F2DD
:1052C000B400C2F20000C0F8008038464FF48041BC
:1052D000FFF7DCFB38464FF40041FFF7D7FB44F6FD
:1052E0004A30C0F24C0000BF013800BFFCD181E75A
:1052F00001F0D2FB56E202F0A5FB53E202F036FFCA
:1053000050E240F2B4010020C2F2000108603846C9
:105310004FF48041FFF7BAFB38464FF40041FFF7E6
:10532000B5FBFDF729FF3DE203F0BAFB3AE244F694
:105330004A30C0F24C0000BF013800BFFCD1FDF77D
:10534000F5F92FE201F03CFA2CE242F62850C0F2C7
:10535000311000BF013800BFFCD120E220684FF4BB
:1053600000410428C7BF01208AF8000001302060F6
:105370003846FFF78BFB44F64A30C0F24C0000BFC2
:10538000013800BFFCD138464FF40041FFF780FBE5
:1053900044F64A30C0F24C00013800BFFCD101E2B3
:1053A00038464FF40041FFF771FB44F64A30C0F233
:1053B0004C0000BF013800BFFCD138464FF400411B
:1053C000FFF766FB44F64A30C0F24C00013800BFDC
:1053D000FCD140F2B4010120C2F20001086038465D
:1053E0004FF48041FFF754FB304600BF013800BF47
:1053F000FCD1D7E101F00EFDD4E101F03BFFD1E19A
:105400009AF80000162805D14AF66660C0F6010039
:1054100005F034FA4EF2DE10C0F2E400013800BFAD
:10542000FCD140F69970C2F20000007802288CBFCF
:10543000192017208AF80000B4E101F0A7FFB1E1BC
:1054400040F20C1540F2B402C2F20005C2F20002B2
:105450002868116801300029286000F0BA81002016
:10546000106038464FF48041FFF710FBB8E102F0BE
:105470002DF997E147F67200C0F27D10013800BFA8
:10548000FCD101F01BF84EF2DE10C0F2E40000BFC8
:10549000013800BFFCD18EE002F08EF982E102F00B
:1054A0000BFA7FE14EF2DE10C0F2E400013800BFDB
:1054B000FCD140F69C7B4AF65E70C2F2000BC0F64F
:1054C0000100594605F0BCFA5846FF21FAF765FE7F
:1054D00044F64A30C0F24C00013800BFFCD140F61F
:1054E0009970C2F20000007849F294668AF80000D0
:1054F000C0F298060FF2A44B54E147F67200C0F2D6
:105500007D1000BF013800BFFCD142F6A410C2F2EA
:10551000000005F0B3F944F64A30C0F24C0000BF79
:10552000013800BFFCD11F208AF800003AE102F0E8
:10553000E9FC37E19AF8000003283CD34EF2DE1074
:10554000C0F2E400013800BFFCD140F2E800C2F232
:105550000000006801282ED140F69C704AF699613F
:10556000C2F20000C0F60101012205F079FA00F054
:1055700041FF4FF2E400C0F2FA2000BF013800BF43
:10558000FCD1622040F280018AF800000D20C2F2B6
:105590000001086006E102F075FD03E1304600BF3E
:1055A000013800BFFCD1FDE047F67200C0F27D106B
:1055B000013800BFFCD140F69970C2F200000078BB
:1055C0008AF80000EEE04AF6F050C0F60100A3466B
:1055D00005F054F94EF2DE10C0F2E400013800BFCD
:1055E000FCD140F64C70C2F20000012101604BF288
:1055F000D020C0F6010090E8AE0040F69C74C2F2E4
:10560000000484E8AE00818A807DA182A07500F04C
:10561000F1FE42F62850C0F2311000BF013800BF41
:10562000FCD140F69970C2F20000007841F2000708
:105630008AF80000C4F201075C460FF2603BB1E05B
:105640004AF6F050C0F6010005F018F94EF2DE10EF
:10565000C0F2E400013800BFFCD140F64C70C2F249
:105660000000012101604BF22C30C0F60100D0E9AE
:1056700000E2D0E90237D0E90454D0E9066CD0E961
:10568000081040F69C7BC2F2000BCBE90810CBE976
:1056900000E2CBE90237CBE90454CBE9066C00F019
:1056A000A9FE49F29460C0F2980000BF013800BF23
:1056B000FCD140F2C8010120C2F20001086040F2B2
:1056C00080010D20C2F200010860622041F2000753
:1056D00049F2946641F654048AF80000C4F20107C6
:1056E000C0F29806C2F200040FF2B02B5AE040F26A
:1056F000C8010220C2F2000108604EF2DE10C0F2C2
:10570000E40000BF013800BFFCD140F2C801022014
:10571000C2F20001086040F280010D20C2F20001D7
:10572000086062208AF800003CE09AF8000040F629
:105730009971C2F2000108704EF67E20013800BF58
:10574000FCD140F65061C2F20001087803283DD335
:1057500040F280010D20C2F20001086040F699710C
:105760006220C2F200018AF8000008701AE002F01C
:1057700001FF17E000F0A6FD44F64A30C0F24C00ED
:10578000013800BFFCD10DE06DA005F0A7FA40F68E
:10579000F060C0F2277000BF013800BFFCD1FDF7F8
:1057A00053FE00BF9AF800002B2808BF02F058FEF5
:1057B0009AF8000062282FD09AF8000061282BD0B8
:1057C0009AF8000063287FF415AD25E000200870EA
:1057D000E8E70120106038464FF48041FFF758F9A0
:1057E00044F24220C0F20F00013800BFFCD140F665
:1057F000C861C2F20001286809788842D2DB40F211
:10580000FC010020C2F200010860642028600E2024
:105810008AF80000C6E700BF9AF8000040F650651D
:10582000B3466228C2F200050DD1287803280AD3B6
:105830004BA005F005F944F64A30C0F24C0000BF19
:10584000013800BFFCD138464FF46041FFF71EF924
:1058500042F6285040F2800440F67476C0F23110CF
:10586000C2F20004C2F20006013800BFFCD1206879
:105870000D280FD003282CD14AF64B60C0F601004A
:1058800004F0FCFF48F21860C5F2A340013800BFE5
:10589000FCD11EE040F69C7040F20802C2F200000B
:1058A00032A1C2F2000205F0DBF800F0A3FD4FF2D6
:1058B000E400C0F2FA2000BF013800BFFCD14AF674
:1058C0004B60C0F6010004F0D9FF5846013800BF14
:1058D000FCD15846013800BFFCD12068032818D0FD
:1058E0009AF8000061280CD09AF8000063287FF431
:1058F00097A900BFBBF1010B00BFFBD109E000BFBE
:10590000FEE746F6E800C1F6CD5000BF013800BF03
:10591000FCD14EF60C52CEF20002BFF34F8F10684E
:10592000042100F4E060C0F2FA5108431060BFF3B4
:105930004F8F00BFFEE700BF474F2025730D0A00C1
:105940005245434549564520464F54412046524F03
:105950004D2045434D20534F4654574152450D006D
:10596000444953434F4E4E4543540000524553540F
:1059700041525420425920534F46545245534554A6
:1059800020434F4E4649472E2043757272656E7410
:10599000204D4355205665722025730041540D0A51
:1059A000000000002DE9F04F81B08246032818DB8B
:1059B00042F6A010C2F200000021016042F6A410DD
:1059C000C2F2000040F63401FAF7E7FB40F69C70A3
:1059D00041F29C01C2F20000C2F20001FF22FAF77C
:1059E000C3FB40F69C76C2F20006707A222864D18E
:1059F00040F69871C2F200012B20087040F6586002
:105A0000C2F200003221FAF7C8FB43F60C2840F638
:105A1000787B40F2201941F2A430C2F20008002441
:105A2000C2F2000BC2F20009C2F200004FF496610C
:105A3000C8E90044C8E90244C8F81040CBE9004472
:105A4000CBE90244CBF81040C9E90044C9E902445B
:105A5000C9F81040FAF7A1FB0A254FF0000C00210D
:105A60000022002304E000BF642D05F1010535DAB2
:105A7000705D2C38B0FA80F040090544775D222F24
:105A80002CD00444032CEFD8DFE804F0060F1302F7
:105A900009F803700133E7E740F65860C2F20000EE
:105AA00000F80C700CF1010CDEE708F80170013110
:105AB000DAE70BF802700132D6E7BAF1000F72D0C4
:105AC0004AF68670C0F6010005F008F949F29460C4
:105AD000C0F29800013800BFFCD17CE04AF6A45027
