:020000040801F1
:10000000483E00204501010859020108510201083B
:100010005502010849020108C5030108000000005B
:100020000000000000000000000000006102010864
:100030004D020108000000005D0201086502010890
:100040005F0101085F0101085F0101085F0101080C
:100050005F0101085F0101085F0101085F010108FC
:100060005F0101085F0101085F0101085F010108EC
:100070005F0101085F0101085F0101085F010108DC
:100080005F0101085F0101085F0101085F010108CC
:100090005F0101085F0101085F0101085F010108BC
:1000A0005F0101085F0101085F0101085F010108AC
:1000B0005F0101085F0101085F0101085F0101089C
:1000C0005F0101085F0101085F0101085F0101088C
:1000D0005F010108B5030108BD0301085F010108C4
:1000E0005F0101085F0101085F0101085F0101086C
:1000F0005F0101085F0101085F0101085F0101085C
:100100005F0101085F0101085F0101085F0101084B
:100110005F0101085F0101085F0101085F0101083B
:100120005F0101085F0101085F0101085F0101082B
:10013000DFF80CD000F076F800480047494B010882
:10014000483E00200648804706480047FEE7FEE795
:10015000FEE7FEE7FEE7FEE7FEE7FEE7FEE7FEE777
:100160006D0201083101010840EA01039B0703D039
:1001700009E008C9121F08C0042AFAD203E011F8E6
:10018000013B00F8013B521EF9D27047D2B201E0A8
:1001900000F8012B491EFBD270470022F6E710B58C
:1001A00013460A4604461946FFF7F0FF204610BDE5
:1001B000421C10F8011B0029FBD1801A704710B5B2
:1001C000002200E0521C835C8C5CA34201D1002B16
:1001D000F8D1D8B2E1B2401A10BD30B505460020C2
:1001E000034600E05B1C934205D2EC5CC85C201A1D
:1001F00001D1002CF6D130BD30B50B4601460020B0
:100200002022012409E021FA02F59D4205D303FAD8
:1002100002F5491B04FA02F52844151EA2F1010259
:10022000F1DC30BD064C074D06E0E06840F001030C
:1002300094E8070098471034AC42F6D3FFF77CFFF0
:10024000ACAE0108CCAE0108FEE70000704700002C
:10025000FEE70000FEE70000704700007047000066
:100260007047000080B508F001FC80BD81B04EF6FB
:100270008851CEF200010A6841F2040042F4700293
:10028000C4F202000A6050F8041C4FF0000C41F068
:10029000010140F8041C016844F61F6341F080012D
:1002A0000160CDF800C0009A9A4207D844F6206257
:1002B000009B01330093009B9342F9D3C0F800C028
:1002C000C0F828C050F8042C4FF6FF73CFF6F66341
:1002D0001A4040F8042C4FF41F02426050F8042CDE
:1002E00022F4802240F8042C50F8042C42F480328E
:1002F00040F8042C4FF6FE7250F8041C013A4CF101
:100300000003890301D4002BF6D150F8041C8903A3
:1003100001D400BFFEE7826947F2000142F080523B
:10032000C4F2000182610A684FF6FF7342F4404252
:100330000A600268CBF2C37302600268026002685E
:1003400042F480620260026822F440320260026875
:1003500042F44032026002681A400260026842F4CD
:10036000C012026050F8042C42F0807240F8042C55
:1003700050F8042C9201FBD50A6842F480320A60DE
:100380004A68D203FCD50A6842F400320A6000BF12
:100390004A689203FCD5016821F0030101600168FD
:1003A00041F00201016000BF01680907FCD501B0FE
:1003B0007047000080B508F0DFFE80BD80B508F012
:1003C000EFFF80BDFEE700002DE9F04F85B040F261
:1003D000301E40F68C7BC2F2000E40F2302C40F210
:1003E00004030024C2F2000B4FF00108C2F2000C1B
:1003F0000EF144004FF0FF0AC2F200034FF0000973
:1004000000250490042DC0F221831BF805103D291E
:1004100040F01C8305EB0B0010F8012C432A29D176
:1004200010F8022C502A25D110F8032C4D2A21D186
:10043000049A05F10800691C42F201478EF8FE801B
:10044000CCF8F8830BE000BFB9F1000F01F1010512
:1004500018BF147001328142294680F20B811BF8CB
:1004600001300D2B1370EFD808FA03F33B4218BF8D
:100470008946E9E73D2940F0E98210F8012C442A39
:100480005AD110F8022C552A56D16F1C1BF80700C0
:1004900041F644013D2808BFAF1C1BF80700C2F21B
:1004A0000001303808608EF843008EF8FE80CCF8EA
:1004B000F88303F093FF04F001F940F22000C2F248
:1004C0000000006840F2301E002140F664720024F3
:1004D000C2F2000EC0F60201C2F200021160C8B101
:1004E00040F23022C2F200020023AEF10101043AD0
:1004F000C0F6020353F8045BFF2D42F8045F28BFE7
:100500005546013801F8015FF4D140F66470C2F23B
:10051000000003609EF844000130C0B2022880F061
:10052000258140F6507044F24541C2F20000C4F605
:100530004D11C0E9001121E13D2940F0878210F8FA
:10054000012C4C2A2CD110F8022C572A28D110F853
:10055000032C4D2A24D105F10E010EF114026B1C5F
:10056000002042F201468EF8FE80CCF8F8830CE0C1
:100570002C2F08BF18460028A3F1010718BF1470DC
:10058000013301328F4280F275811BF803700D2F09
:100590001770EDD808FA07F53542E9D01846EAE7B2
:1005A0003D2940F0538210F8012C4C2A40F0A580E0
:1005B00010F8022C572A40F0A08010F8032C4E2A85
:1005C00040F09B8010F8042C452A40F096800135BD
:1005D0001BF8050041F644013038C2F200018EF8E4
:1005E000FE80CCF8F883086098BF20468EF84C0057
:1005F00003F0F4FE04F062F840F22000C2F20000C2
:10060000006840F2301E002140F66472C2F2000E13
:10061000C0F60201C2F200021160C8B140F23022FD
:10062000C2F200020023AEF10101043AC0F6020357
:1006300053F8047BFF2F42F8047F28BF5746013848
:1006400001F8017FF4D140F66470C2F2000003604B
:100650009EF844000130C0B2022880F0CC8340F6FE
:10066000507044F24541C2F20000C4F64D11C0E999
:100670000011C8E303F0B2FE04F020F840F22000BD
:10068000C2F20000006840F2302C40F2301E00211F
:1006900040F66472C2F2000CC2F2000EC0F6020113
:1006A000C2F200021160B8B10023AEF10101ACF159
:1006B0000402C0F6020300BF53F8047BFF2F42F888
:1006C000047F28BF5746013801F8017FF4D140F676
:1006D0006470C2F2000003609EF844000130C0B2B2
:1006E000022838D240F6507044F24541C2F2000070
:1006F000C4F64D11C0E9001135E03D2940F0A68156
:1007000010F8012C472A44D110F8022C462A40D177
:1007100010F8032C432A3CD1681C002100228EF8DB
:10072000FE80CCF8F8830EE0002A06BF0EF80130F8
:1007300000220EF80140002A01F1010108BF01303A
:100740000F2900F0E8821BF800302C2BECD10EF8BA
:1007500001400246EFE7DEE9110140F65072C2F2B5
:100760000002C2E90001002000240DE0DEE91101D1
:1007700040F65072C2F20002C2E9000101203D467B
:1007800040F2302CC2F2000C40F20403C2F200032B
:100790005DE13D2940F05A8110F8012C542A40F0C7
:1007A000D38010F8022C532A40F0CE8010F8032C8E
:1007B000522A40F0C98010F8042C572A40F0C48017
:1007C0004078AE1C41F644041BF806103038C2F2E3
:1007D000000420604FF0000498BF20462C298EF8BA
:1007E000FE80CCF8F88308BFEE1C1BF8061041F21F
:1007F0009435C2F200058EF841002C2928464FF4AA
:10080000966108BF0136FFF7C8FC40F6C46C0027AC
:100810000BEB06004FF00009C2F2000C029600BF7D
:10082000015D2F55002912BF2129B9F1000FA14602
:10083000B9F1000F18BF394629550134052CEFD105
:10084000A9F101000328CCF80070039400F25D8345
:1008500041F64406C2F20006DFE810F004009D03F2
:10086000AA03C90328783038306088BFCCF800006C
:1008700000F0F9BB1BF800100EF123032C2908BF70
:1008800001301BF800102C2908BF013000F10E02C6
:1008900000210BE02C2F08BF0146002918BF1C7057
:1008A000904200F1010003F101030ADA1BF8007025
:1008B0000D2F1F70EED808FA07F53542EAD0014631
:1008C000EBE71BF801000EF132022C2808BF0131C2
:1008D0001BF801004FF000092C2808BF013101F17D
:1008E0000E0009E0B9F1000F01F1010518BF147005
:1008F0000132814229460ADA1BF801300D2B1370B0
:10090000F0D808FA03F3334218BF8946EAE79EF8A5
:1009100014000130C0B20228C0F0A3809EF8190074
:10092000FF2800F09E80002800F09B80DEE9050192
:10093000DEF81F2043F61027C2F20007DEF81C3055
:10094000C7F80B200BC7A2E03D2940F07F8010F8CC
:10095000011C542940F07A8010F8021C532975D1EB
:1009600010F8031C522971D110F8041C48296DD1CC
:10097000407841F644043038C2F2000405F102091F
:1009800020604FF000071BF8091098BF38468EF81A
:100990004200C0B22C298EF8FE80CCF8F883CCF847
:1009A000080108BF05F103091BF8091040F21412F1
:1009B000C2F2000210602C290FF67830594608BFA9
:1009C00009F1010909F0F4FD41F29435C2F2000584
:1009D00028464FF49661FFF7E0FB2B4600224D4678
:1009E0004FF000091BF80510B9F1000F484608BF89
:1009F000B946002918BF8146B9F1000F18BF11464A
:100A0000D95507F1010708BF0135052FEAD1A9F132
:100A1000010040F6C06E0328C2F2000ECEF800209E
:100A200000F25C84DFE810F00400E203F7031E0428
:100A3000187840F23017303840F230262060C2F289
:100A40000007C2F2000600F0A1BC00BF0120002890
:100A500000F06685186801358542FFF6D3AC00F0DA
:100A60005FBD43F61020C2F2000043F238018181DD
:100A700043F22B61C3F63201016043F23521C3F228
:100A80003831416043F23531C3F6301181609EF850
:100A900023000130C0B2022814D39EF82800FF289A
:100AA00010D078B1DEF82300DEF82E2043F62027A0
:100AB000C2F20007DEF82710DEF82B30C7F80B2053
:100AC0000BC715E043F62021C2F2000143F63910AE
:100AD000888143F22B60C3F63200086043F2323063
:100AE000C3F23100486043F63210C3F2331088601D
:100AF0009EF832000130C0B2022814D39EF83700AD
:100B0000FF2810D078B1DEF83200DEF83D2043F641
:100B10003027C2F20007DEF83610DEF83A30C7F8A8
:100B20000B200BC714E043F63021C2F20001322043
:100B3000888143F22B60C3F63200086043F2311023
:100B4000C3F23230486043F23430C3F2317088600F
:100B500003F044FC03F0B2FD40F22000C2F20000BA
:100B60000068002140F6647240F2301E40F2302CE2
:100B7000C0F60201C2F20002C2F2000EC2F2000C84
:100B80001160B8B10023AEF10101ACF10402C0F66E
:100B9000020300BF53F8047BFF2F42F8047F28BFF5
:100BA0005746013801F8017FF4D140F66470C2F273
:100BB000000003609EF814000130C0B2022812D376
:100BC0009EF81900FF280ED068B1DEE90501DEF8B5
:100BD0001F2043F61024C2F20004DEF81C30C4F8D3
:100BE0000B200BC415E043F61020C2F2000043F2C4
:100BF0003801818143F22B61C3F63201016043F277
:100C00003521C3F23831416043F23531C3F630113A
:100C100081609EF8230000240130C0B2022814D362
:100C20009EF82800FF2810D078B1DEF82300DEF807
:100C30002E2043F62026C2F20006DEF82710DEF84A
:100C40002B30C6F80B200BC615E043F62021C2F26C
:100C5000000143F63910888143F22B60C3F632005D
:100C6000086043F23230C3F23100486043F632107C
:100C7000C3F2331088609EF832000130C0B20228FF
:100C800014D39EF83700FF2810D078B1DEF8320078
:100C9000DEF83D2043F63026C2F20006DEF83610BC
:100CA000DEF83A30C6F80B200BC614E043F63021CC
:100CB000C2F200013220888143F22B60C3F6320079
:100CC000086043F23110C3F23230486043F23430EE
:100CD000C3F2317088609EF8440040F20403013092
:100CE000C0B2C2F2000302280BD240F6507044F2A8
:100CF0004541C2F20000C4F64D11C0E900110020C8
:100D0000A5E6DEE9110140F65072C2F20002C2E926
:100D1000000100209BE60EF10E00511C4FF000096F
:100D2000052200BF1BF801302C2B08BF8946B9F102
:100D3000000F14BF23460131013A00F8013FF1D101
:100D400009F101051BF8050041F644012C2808BFF4
:100D500009F102051BF80500C2F200012C2808BFAA
:100D600001351BF805003038086003F037FB03F04D
:100D7000A5FC40F22000C2F200000068002140F60D
:100D8000647240F2301E40F2302C40F2A006C0F6F1
:100D90000201C2F20002C2F2000EC2F2000CC2F264
:100DA00000061160B0B10023AEF10101ACF1040204
:100DB000C0F6020353F8047BFF2F42F8047F28BFDC
:100DC0005746013801F8017FF4D140F66470C2F251
:100DD000000003609EF844000130C0B2022817D220
:100DE00040F6507044F24541C2F20000C4F64D1185
:100DF000C0E9001114E0DEE9110140F65072C2F2C0
:100E00000002C2E9000101204FF000090024B7E40C
:100E1000DEE9110140F65072C2F20002C2E900019F
:100E20009EF800000024FF281BD09EF80110FF2927
:100E300017D09EF80220FF2A13D090B189B182B159
:100E40004FF0FF300EEB000149783318A1F130026A
:100E50004B2A00F1010028BF21460E285970F1D11C
:100E60000FE043F24D20C5F24D00306044F64C6077
:100E7000C4F64150706052203072C6F80940A6F89E
:100E80000D409EF80F000130C0B202280AD240F295
:100E9000BC0043F23101C2F20000C3F23001016034
:100EA000047109E09EF81300DEF80F1040F2BC0256
:100EB000C2F20002107111609EF8410040F204037A
:100EC000411CC9B2C2F20003012912D840F28C00C1
:100ED000C2F20000006840F2CC01C2F200010870CA
:100EE00040F21811C2F2000108608EF841000020A3
:100EF000ADE540F2CC01C2F20001087040F21811D9
:100F0000C2F2000108600020A1E52878697844F267
:100F10008044303842F210724FF47A73CFF6FF7487
:100F200041F64406504301FB03F211FB03414BF62B
:100F30008133C2F20006CCF800009A42316024BF2F
:100F40000844CCF80000A87864224EF6405300FB19
:100F500002F1CFF6FF7310FB0230B1F5965F3060FF
:100F600004D9DCF800100844CCF80000E8784FF60B
:100F7000206200EB80004100CFF6FF7202EB4000E0
:100F8000B1F5F07F306004D9DCF800100844CCF8EB
:100F9000000029795DE02978A1F130003129306025
:100FA00022BF00EB80004000CCF80000697850E0E0
:100FB00029784FF62062A1F130003129306022BF3C
:100FC00064214843CCF800006878CFF6FF7200EB4C
:100FD0008000410002EB4000B1F5F07F306004D9A1
:100FE000DCF800100844CCF80000A97831E029783A
:100FF0006422A1F130003129306022BF4FF47A71B0
:101000004843CCF8000068784EF6405300FB02F1EC
:10101000CFF6FF7310FB0230B1F5965F306004D954
:10102000DCF800100844CCF80000A8784FF62062E5
:1010300000EB80004100CFF6FF7202EB4000B1F5FB
:10104000F07F306004D9DCF800100844CCF80000D0
:10105000E978A1F130003129306004D3DCF80010C8
:101060000844CCF80000DCF8000048F68904A0F23F
:10107000A15111F5B46F30603CBF4FF4B461CCF8AE
:101080000010DCF80030C8F6880454FB033140F649
:10109000D0654A1102EBD17100EE101AB8EEC00A09
:1010A000BDEEC00A54FB0001C2F2000510EE102A8A
:1010B0002B603B2BD8BF3A464F1140F2181407EB78
:1010C000D171C2F2000440F63C66C1EB0111276801
:1010D000C2F20006A0EB81010FF288403260CCF82A
:1010E0000010009709F064FA286840F2302740F2B7
:1010F0003013C2F20007C2F200033168C7F8900152
:1011000093F8410040F6C462C2F20002C7F894119D
:10111000411C1268C9B20129C7F898210DD840F2C4
:101120008C00C2F20000006840F2CC01C2F2000163
:101130000870206083F8410005E040F2CC01C2F263
:1011400000010870206003F049F903F0FFFA40F253
:101150002000C2F200000068002140F66472039E85
:10116000C0F60201C2F200021160E0B140F230119B
:1011700040F23022C2F20001C2F200020023013923
:10118000043AC0F6020353F8047BFF2F42F8047FB1
:1011900028BF5746013801F8017FF4D140F664704A
:1011A000C2F2000003600298851901F0A7F940F22D
:1011B000301EC2F2000E9EF844000130C0B2022878
:1011C0000AD240F6507044F24541C2F20000C4F623
:1011D0004D11C0E9001107E0DEE9110140F650723F
:1011E000C2F20002C2E9000100200FE6197840F2C5
:1011F0003017A1F130003129206022BF00EB8000C0
:101200004000CEF8000040F230265978C2F20007C4
:10121000C2F20006B2E019784FF62062A1F1300068
:101220003129206022BF64214843CEF8000058785D
:1012300040F2301700EB800040F230264100CFF63C
:10124000FF72C2F20007C2F2000602EB4000B1F5E5
:10125000F07F206004D9DEF800100844CEF80000CA
:1012600099788BE019784FF0640CA1F130003129A6
:10127000206022BF4FF47A714843CEF800005878BE
:101280004EF6405240F2301740F2302600FB0CF18F
:10129000CFF6FF72C2F20007C2F2000610FB0C206C
:1012A000B1F5965F206004D9DEF800100844CEF84E
:1012B000000098784FF6206200EB80004100CFF6E6
:1012C000FF7202EB4000B1F5F07F206004D9DEF838
:1012D00000100844CEF80000D9784FE0197844F2A5
:1012E0008047A1F130003129206022BF42F2107105
:1012F0004843CEF8000058784FF47A72CFF6FF7763
:1013000000FB02F110FB02704BF6813240F2301705
:1013100040F230269142C2F20007C2F2000620607D
:1013200004D3DEF800100844CEF8000098784FF09F
:10133000640C4EF6405200FB0CF1CFF6FF7210FB2E
:101340000C20B1F5965F206004D9DEF80010084447
:10135000CEF80000D8784FF6206200EB8000410004
:10136000CFF6FF7202EB4000B1F5F07F206004D9A8
:10137000DEF800100844CEF800001979A1F1300021
:101380003129206004D3DEF800100844CEF80000B4
:10139000DEF8000042F261714DF6A002411ACFF66C
:1013A000FF72914240F6CC61C2F2000120600860F9
:1013B0003CBF42F26071216021684DF6A00342F209
:1013C0006072CFF6FF738A1A01339A421AD240F242
:1013D0000C10C2F20000C0F8008040F63860C2F283
:1013E0000000172202603B20CEF8000040F6CC60DF
:1013F0004FF43461C2F20000C6F8A481C6F8A81107
:10140000016026E045F606334A09C0F2B05348F6BB
:101410008904A2FB0323C8F6880454FB000040F2B1
:101420000C12C2F2000213604211C6E9693102EBEC
:10143000D07054FB011240F63863C2F2000318600A
:10144000501100EBD270C0EB0010A1EB8000CEF881
:10145000000040F63C60C2F20000016897F84200CC
:10146000C6F89C11411CDEF80020C9B20129C6F85B
:10147000A0210CD840F28800C2F20000006840F2BF
:101480001411C2F20001086087F8420004E040F243
:101490001411C2F20001086002F0A0FF03F056F937
:1014A00040F22000C2F200000068002140F66472A1
:1014B000C0F60201C2F200021160E0B140F2301148
:1014C00040F23022C2F20001C2F2000200230139D0
:1014D000043AC0F6020353F8047BFF2F42F8047F5E
:1014E00028BF5746013801F8017FF4D140F66470F7
:1014F000C2F20000036001F001F840F23024C2F2B1
:10150000000404F5CE778ECF0EA0009709F050F8B6
:1015100040F2301EA4460020C2F2000EFFF724B9AC
:1015200040F68C70C2F20000FF21FEF736FE05B0D7
:10153000BDE8F08F0D0A48525354202573200D0A40
:101540000000000032304852535420464D4342437D
:101550004B55503A202564202564202564202564BD
:101560000D0A0000323057525354206D5F685F6D92
:10157000745F656E737273743A202564202564204D
:1015800025642025640D0A002DE9F04F87B040F254
:10159000301A40F2000B40F68C78C2F2000A40F29A
:1015A000302C41F6440540F2040403464FF0000E8F
:1015B000C0F6020BC2F20008C2F2000C0AF14400AD
:1015C000C2F20005C2F2000400270026059006932F
:1015D000042FC0F25F8118F807103D2940F05A81AE
:1015E00007EB080010F8012C432A2BD110F8022C2D
:1015F000502A27D110F8032C4D2A23D1514601201F
:10160000059A8AF8FE00CCF8F803012507F10800D6
:10161000791C42F201440AE0002E01F1010718BFD3
:1016200082F800E001328142394680F2CD8018F81C
:1016300001300D2B1370EFD805FA03F3234218BFC6
:101640000E46E9E73D2940F0258110F8012C442A97
:1016500052D110F8022C552A4ED1781C18F80010DF
:101660004FF001093D2908BFB81C18F800100746C3
:10167000A1F1300028608AF843008AF8FE90CCF887
:10168000F893654602F0AAFE03F018F840F2200035
:10169000C2F20000006840F664710028C2F2000146
:1016A000C1F800B000F00F81AAF101012A1F5B46CA
:1016B000AC46FF2553F8044BFF2C42F8044F28BFDB
:1016C0002C46013801F8014FF4D140F66470C2F2A3
:1016D0000000036040F2301A41F64405069B40F2D8
:1016E00004044FF00109C2F2000AC2F200054FF0F3
:1016F000000EC2F20004CFE03D2940F0CB8010F88C
:10170000012C4C2A31D110F8022C572A2DD110F877
:10171000032C4D2A29D10120A9468AF8FE00CCF8D5
:10172000F803012507F10E010AF114027B1C0020C9
:1017300042F201440EE000BF2C2F08BF18460028DB
:10174000A3F1010718BF82F800E0013301328F4294
:1017500080F2C28018F803700D2F1770ECD805FACC
:1017600007F62642E8D01846E9E73D2940F0928086
:1017700010F8012C472A67D110F8022C462A63D1B1
:1017800010F8032C432A5FD140F664790121C2F29C
:1017900000098AF8FE10CCF8F8130130791C0027F4
:1017A00000220AE0002F06BF0AF8023000270AF8DC
:1017B00002E001320F2A00F03682835C2C2BF1D13B
:1017C0008F180AF802E0F4E702F008FE02F076FF54
:1017D00040F22000C2F20000006840F66471002868
:1017E000C2F20001C1F800B060D040F2302CAAF182
:1017F0000101C2F2000C41F6440AACF104025B465E
:10180000C2F2000AFF2500BF53F8044BFF2C42F838
:10181000044F28BF2C46013801F8014FF4D140F69F
:101820006470C2F20000036040F23010C2F20000A7
:1018300040F20404069B4FF000094FF0000EC2F284
:1018400000045546824627E03D2923D110F8012C9B
:10185000542A0CD110F8022C532A08D110F8032C6A
:10186000522A04D110F8042C572A00F0C7823D29CF
:1018700010D110F8011C54290CD110F8021C532966
:1018800008D110F8031C522904D110F8040C482880
:1018900000F0B4824FF00109B9F1000F00F0AE8200
:1018A000206801378742FFF693AEA7E240F2302C62
:1018B00041F644054FF00009C2F2000C4FF0000E53
:1018C000C2F20005A9E1AC4641F64405069BC2F20E
:1018D00000054FF0000EDFE718F800100AF12303AF
:1018E0002C2908BF013018F800102C2908BF01303E
:1018F00000F10E0200210CE02C2F08BF0146002948
:1019000018BF83F800E0904200F1010003F10103E9
:101910000ADA18F800700D2F1F70EDD805FA07F6D7
:101920002642E9D00146EAE718F801000AF132023E
:101930002C2808BF013118F8010000262C2808BF08
:10194000013101F10E0009E0002E01F1010718BF7D
:1019500082F800E00132814239460ADA18F8013093
:101960000D2B1370F0D805FA03F3234218BF0E466F
:10197000EAE79AF814000130C0B2022812D39AF8AC
:101980001900FF280ED068B1DAE90501DAF81F2046
:1019900043F61025C2F20005DAF81C30C5F80B201A
:1019A0000BC515E043F61020C2F2000043F23801E7
:1019B000818143F22B61C3F63201016043F235218C
:1019C000C3F23831416043F23531C3F630118160E2
:1019D0009AF823000130C0B2022814D39AF82800E4
:1019E000FF2810D078B1DAF82300DAF82E2043F679
:1019F0002025C2F20005DAF82710DAF82B30C5F8F6
:101A00000B200BC515E043F62021C2F2000143F67E
:101A10003910888143F22B60C3F63200086043F22C
:101A20003230C3F23100486043F63210C3F2331053
:101A300088609AF832000130C0B2022814D39AF8B4
:101A40003700FF2810D078B1DAF83200DAF83D20FC
:101A500043F63025C2F20005DAF83610DAF83A30EB
:101A6000C5F80B200BC514E043F63021C2F200018B
:101A70003220888143F22B60C3F63200086043F2C3
:101A80003110C3F23230486043F23430C3F2317067
:101A900088604D4602F0A2FC02F010FE40F22000E9
:101AA000C2F20000006840F6647140F2302CC2F2CD
:101AB0000001C2F2000C4FF0000EC1F800B0D0B12E
:101AC000AAF10101ACF104025B46FF2553F8044B77
:101AD000FF2C42F8044F28BF2C46013801F8014F73
:101AE000F4D140F6647040F2301AC2F20000C2F243
:101AF000000A4D4603609AF814000130C0B2022873
:101B000012D39AF81900FF280ED068B1DAE905015E
:101B1000DAF81F2043F61024C2F20004DAF81C3071
:101B2000C4F80B200BC415E043F61020C2F20000ED
:101B300043F23801818143F22B61C3F63201016027
:101B400043F23521C3F23831416043F23531C3F6F7
:101B5000301181609AF823000130C0B2022814D3FA
:101B60009AF82800FF2810D078B1DAF82300DAF8C4
:101B70002E2043F62024C2F20004DAF82710DAF807
:101B80002B30C4F80B200BC415E043F62021C2F221
:101B9000000143F63910888143F22B60C3F632000E
:101BA000086043F23230C3F23100486043F632102D
:101BB000C3F2331088609AF832000130C0B20228B4
:101BC00014D39AF83700FF2810D078B1DAF8320031
:101BD000DAF83D2043F63024C2F20004DAF8361079
:101BE000DAF83A30C4F80B200BC414E043F6302185
:101BF000C2F200013220888143F22B60C3F632002A
:101C0000086043F23110C3F23230486043F234309E
:101C1000C3F2317088604FF0000940F20404069B63
:101C2000C2F2000438E60026002400BF013718F88D
:101C3000075040F23010C2F200002C2D20444FF02B
:101C4000000208BF3E46002E08BF2A46C2730FF6A8
:101C5000640039463346009508F0AAFC44F242205D
:101C6000C0F20F00013800BFFCD10134052CDDD1DA
:101C7000771C18F8070041F644052C2808BFB71C4C
:101C800018F80700C2F200052C2808BF013718F821
:101C900007003038286002F0A1FB02F00FFD40F28F
:101CA0002000C2F20000006840F2301A40F2302CEE
:101CB00040F2A004069BC2F2000AC2F2000C4FF0F0
:101CC000000EC2F200044946C9F800B0E0B1AAF122
:101CD0000101ACF104025B464FF0FF0A53F8045BCC
:101CE000FF2D42F8045F28BF5546013801F8015F17
:101CF000F4D1C9F8003041F64405069B40F2301A91
:101D0000C2F20005C2F2000A9AF80000FF281CD0B7
:101D10009AF80110FF2918D09AF80220FF2A14D04F
:101D200098B191B18AB199464FF0FF300AEB0001AA
:101D300049782318A1F130024B2A00F1010028BF95
:101D400071460E285970F1D110E043F24D20C5F2D2
:101D50004D00206044F64C60C4F641506060522053
:101D600099462072C4F809E0A4F80DE09AF80F0033
:101D70000130C0B202280BD240F2BC0043F2310164
:101D8000C2F20000C3F23001016080F804E009E013
:101D90009AF81300DAF80F1040F2BC02C2F2000207
:101DA000107111609AF8410040F20404411CC9B25C
:101DB000C2F200044B46012913D840F28C00C2F253
:101DC0000000006840F2CC01C2F20001087040F24D
:101DD0001811C2F2000108608AF841004FF00009B2
:101DE0005AE540F2CC01C2F20001087040F218112D
:101DF000C2F2000108604FF000094DE5082B5BD0EE
:101E0000072B40F04D8398F8087001208AF8FE00F7
:101E1000CCF8F80398F80900B7F130095146AA4602
:101E2000C5F800904FF009054FF0000698BFB14685
:101E30002C2808BF0A2518F8050041F29434C2F294
:101E4000000481F841902C2820464FF4966108BF89
:101E50000135FEF7A2F908EB05000021002200BFC2
:101E6000835C00290D4608BF1546002B08BF294694
:101E7000002918BF3346A3540132052AF0D140F699
:101E8000C4600139C2F2000000220329026000F29E
:101E9000738040F2302CC2F2000CDFE801F002B097
:101EA000BDDB217840F230143039CAF80010C2F29C
:101EB000000488BF01600AE101208AF8FE00CCF826
:101EC000F80398F8080098F80910303828604FF0A7
:101ED000000698BF30468AF84200C0B20927CCF805
:101EE000080140F214122C2908BF0A2718F807101D
:101EF00041F29434C2F20002C2F2000410602C29B4
:101F000020464FF4966108BF0137FEF746F90020DE
:101F1000002100BF18F807206654212A12BF002AAA
:101F200000280846002818BF3246625401F101011A
:101F300008BF01370529EDD140F6C0680138C2F26B
:101F4000000800210328C8F8001000F23F8140F289
:101F5000302C40F66476C2F2000CC2F20006DFE8D4
:101F600010F0040085019201B1012078303828601A
:101F700088BFC8F80000E1E121786278303942F288
:101F8000107344F2804659434FF47A73CFF6FF76CC
:101F900002FB03F712FB03624BF6813301609F42A1
:101FA000CAF8002024BF11440160A17864224EF6D3
:101FB000405740F2302C01FB02F3CFF6FF77C2F21C
:101FC000000C11FB0271B3F5965FCAF8001002D93C
:101FD000026811440160E1784FF6206301EB810152
:101FE0004A00CFF6FF7303EB4101B2F5F07FCAF868
:101FF000001002D902681144016022795AE0227867
:10200000A2F13001312ACAF8001022BF01EB810190
:102010004900016062784DE0312F03D321783039D7
:10202000CAF80010DAF8002064215143012A016047
:1020300003DB6278303ACAF80020DAF8003003EBAC
:1020400083025200012BCAF80020A4BF1144016092
:10205000A2782FE022784EF64057A2F13001312AC3
:10206000CAF8001022BF4FF47A72514301606178C0
:10207000642201FB02F3CFF6FF7711FB0271B3F587
:10208000965FCAF8001002D9026811440160A17875
:102090004FF6206301EB81014A00CFF6FF7303EB9B
:1020A0004101B2F5F07FCAF8001002D9026811446C
:1020B0000160E27840F23014A2F13001312AC2F21C
:1020C0000004CAF8001002D30268114401600168DC
:1020D00048F68907B1F5B46FCAF80010C4BF4FF4D1
:1020E000B46202600268C8F68807002ADCBF4FF4B9
:1020F000B4620260026840F6D06357FB0226C2F267
:1021000000031A60731100253B2AC8BF03EBD67584
:1021100040F63C6357FB0117C2F200031D607B11C0
:1021200003EBD773C3EB0313A1EB8301016009F148
:102130000100C0B20128CCE96425CCF8981111D86F
:1021400040F28C00C2F20000006840F2CC01C2F202
:102150000001087040F21811C2F20001086084F812
:1021600041000CE040F2CC00C2F2000040F2181135
:1021700080F800905FFA89F0C2F20001086040F632
:10218000647AC2F2000A02F029F902F0DFFA40F2A2
:102190002000C2F200000068CAF800B098B140F216
:1021A0003022C2F20002611E043A00BF5BF8043B19
:1021B000FF2B42F8043F28BFFF23013801F8013FFD
:1021C000F4D1CAF800B000F099F969E1217844F23D
:1021D0008043A1F130003129286022BF42F2107102
:1021E0004843C8F8000060784FF47A71CFF6FF7367
:1021F00040F2302C40F6647600FB01F210FB013017
:102200004BF68131C2F2000CC2F200068A4228600D
:1022100004D3D8F800100844C8F80000A07864215E
:102220004EF6405300FB01F2CFF6FF7310FB013076
:10223000B2F5965F286004D9D8F800100844C8F8B1
:102240000000E0784FF6206200EB80004100CFF6FE
:10225000FF7202EB4000B1F5F07F286004D9D8F896
:1022600000100844C8F8000021795DE02178A1F150
:1022700030003129286022BF00EB80004000C8F800
:102280000000617850E021784FF62062A1F1300023
:102290003129286022BF64214843C8F800006078D3
:1022A000CFF6FF7200EB8000410002EB4000B1F579
:1022B000F07F286004D9D8F800100844C8F800005E
:1022C000A17831E021784EF64053A1F13000312958
:1022D000286022BF4FF47A714843C8F80000607844
:1022E000642100FB01F2CFF6FF7310FB0130B2F561
:1022F000965F286004D9D8F800100844C8F8000098
:10230000A0784FF6206200EB80004100CFF6FF720C
:1023100002EB4000B1F5F07F286004D9D8F8001036
:102320000844C8F80000E178A1F1300031292860A4
:1023300004D3D8F800100844C8F80000D8F800000A
:102340004DF6A00240F6CC6442F26171CFF6FF7206
:10235000C2F20004411A2860914220603CBF42F260
:1023600060712960296842F26073CB1A013240F62D
:10237000386A40F20C179342C2F2000AC2F2000718
:102380000BD24FF434600121CCE96910062038608B
:102390001720CAF800003B2033E045F606334A090F
:1023A000C0F2B053A2FB03234FF4B462C146A84667
:1023B00003FB12059FED431A00EE105AB8EEC00A57
:1023C00080EE010ACCE969313B60C9F8005008F0A1
:1023D00013F948F68900C8F6880050FB055040F212
:1023E000302C411101EBD070C0EB0010C2F2000C98
:1023F000BDEEC00AC8F80050C846A5EB80008AEDC3
:10240000000A40F63C61C2F200010968C8F8000009
:10241000CCF89C11DCF8A811CCF8A001216067462B
:1024200001F0DCFF02F092F940F22000C2F200005D
:102430000068C6F800B090B140F23011C2F200015D
:1024400001393A1F5BF8043BFF2B42F8043F28BFD9
:10245000FF23013801F8013FF4D1C6F800B000F0C5
:102460004DF840F23010C2F2000090F8422040F2E5
:102470001410C2F200000368D8F8000040F20C17F4
:10248000DAF80010C2F200073F6826688DE8830082
:1024900040F68C710CA0C2F20001039608F088F897
:1024A00040F68C70C2F20000FF21FDF776FE07B007
:1024B000BDE8F08F0D0A25642025642025642025C1
:1024C000640D0A0000007042336D7367202573208D
:1024D000666D635F627566665B36365D20256420D7
:1024E000656E61626C656872737420256420256472
:1024F0002025642025642025640D0A002DE9F04F75
:1025000081B040F23024C2F2000404F5C87B9BE89D
:10251000E808D4F8A40140F6D06C40F63C6140F6DF
:10252000C46240F6386940F6C06840F20C1AC2F244
:10253000000CC2F20001C2F20002C2F20009C2F2B3
:102540000008C2F2000ACCF800300D601660C9F82D
:102550000070C8F800B055EA0607CAF8000004BFCA
:102560000C20086008681928A4BF182008600868B3
:10257000B0F1FF3FDCBF00200860B6F1FF3FDCBFD9
:1025800000201060A3F5B46010F5B46F07D840F2D6
:10259000CF20CCF800000B2008603B2010600868BA
:1025A0001368C0EB001003EB8000A0F5B46313F5D3
:1025B000B46FCCF8000007D840F2CF20CCF8000070
:1025C0000B2008603B201060D4F8A80142F2607133
:1025D0004DF6A002411ACFF6FF7240F6CC6691424A
:1025E000C2F200060FD84FF43460012117223B23BA
:1025F000CAF80010C9F80020C8F80030C4E9672301
:10260000C4E9691038E000EE100A9FED221AB8EE16
:10261000400A80EE010A306007F0EEFFBCEEC01AFF
:1026200011EE100A4FF4B46100FB11B59FED1A2AA8
:1026300000EE105AB8EEC00A80EE020A41F64407D6
:1026400084ED691A8AED001AC2F2000707F0D4FF80
:1026500048F68900C8F6880050FB0550BDEEC00A58
:10266000411101EBD070C0EB0010A5EB800089EDAB
:10267000000A3D60C8F80000306842F25F7188428D
:10268000A4BF42F260703060D4F8A801306001B09D
:10269000BDE8F08F0000B44400007042B0B50828D7
:1026A00084BF6420B0BD81B240F2BF1222FA01F1B2
:1026B000C9074FF0640413D00AA113A251F82010E7
:1026C00052F8205040F68C70C2F20000FDF777FD02
:1026D00040F2EC01C2F200010860002808BF2C465D
:1026E0002046B0BD2C000020360000203E00002017
:1026F00047000020520000205E0000202C00002037
:1027000068000020700000200000000001000000B0
:10271000020000000300000004000000120000009E
:102720000000000015000000190000002DE9F0472E
:1027300082B040F6487041F2903640F68C74C2F296
:1027400000000021C2F20006C2F200040022C0E92B
:102750000011317004E000BFFD2901F1010114DA1C
:10276000635C222B04BF01323270212BF4D1EF299C
:10277000F2DCD3B2012BEFD02144D1F80130D1F8F3
:102780000510C0E90031FF21E6E740F6487040F649
:102790005071C2F20000C2F200010822FDF71DFDD7
:1027A00041F6440540F2E809C2F2000540F2800813
:1027B000C2F2000964212860C2F200080020C9F8B2
:1027C000001000220021C8F80000307004E000BFB3
:1027D000FD2A02F1010212DAA35C222B04BF0131AF
:1027E0003170212BF4D1EF2AF2DCCBB2012BEFD0E8
:1027F000A318A050FF22586018819872E8E7617A08
:10280000E079267A44F64A375429C0F24C0708BFCB
:102810004F2E65D0627994F803C02179A3794C2AB0
:1028200008BF572900F080804C2B08BF572A00F0C2
:102830008680472B08BF462A00F09C80442808BFAA
:10284000552B00F00381542B08BF462A00F02A8143
:10285000432A08BF502900F04D81522B08BF452A5A
:1028600000F055814D2B08BF492A00F03C82432BD4
:1028700008BF412A00F0598283F0540682F05305C4
:102880002E4381F052052E4308BFBCF1480F00F0E3
:102890008082ACF15705B6FA86F6B5FA85F5760969
:1028A0006D092E40012E40F08F823D2802D1072075
:1028B000FEF76AFE40F21810C2F20000016840F60E
:1028C000D060C2F2000002684AF6E710C0F60100CC
:1028D00007F06EFE384600BF013800BFFCD137E17B
:1028E0004F2897D14AF60430C0F6010007F0AEFF3A
:1028F000384600BF013800BFFCD140F22800C2F2C8
:102900000000002101600320C9F80000C8F80000A1
:1029100040F68870C2F2000063210170384600BFA3
:10292000013800BFFCD11DE1BCF14D0F7FF47CAF3D
:102930003D2B40F0A180FDF747FD05259DE04E2988
:102940007FF477AF3D2808BFFDF73EFD40F2301021
:10295000C2F2000090F84C104AF671404EF2DE15BB
:10296000C0F60100C0F2E40507F022FE013D00BF01
:10297000FCD1EDE043297FF461AF3D281FD1FDF785
:1029800023FD3846013800BFFCD141F29435C2F234
:1029900000054AF6E90140F2A002C0F60101C2F2C8
:1029A0000002284607F014FE284607F01FFD42F6F5
:1029B0002850C0F2311000BF013800BFFCD141F2F5
:1029C0009430C2F200004FF49661FDF7E6FB41F649
:1029D0005C00C2F2000040F69801FDF7DEFB42F613
:1029E0009410C2F2000040F63401FDF7D6FB42F22B
:1029F000F400C2F2000040F69801FDF7CEFB42F66B
:102A00009010C2F200000021016042F68C10C2F268
:102A10000000016040F68C70C2F20000FF21FDF75B
:102A2000BCFB40F2CC00C2F2000003784AF63C2026
:102A300040F2A00140F2BC02C0F60100C2F2000167
:102A4000C2F2000207F0B4FD02207FE0412A7FF4C9
:102A5000FAAE3D2E68D101202860FDF7B5FC40F2AA
:102A60003010C2F2000090F843104AF6A900C0F6F8
:102A7000010007F09DFD68E001254AF6782043F645
:102A8000102143F6202243F63023C0F60100C2F2A3
:102A90000001C2F20002C2F2000307F089FDC9F88A
:102AA000005055E04F297FF4D3AEBCF1530F7FF4B3
:102AB000CFAE4AF60F30C0F6010007F0C7FE384629
:102AC000013800BFFCD140F22800C2F20000002112
:102AD00001600320C9F800000D20C8F8000040F68E
:102AE0008870C2F20000632101703846013800BFCF
:102AF000FCD137E03D2B08BFFDF766FC4AF68A2083
:102B000040F65071C0F60100C2F2000108E05629FB
:102B10007FF4A8AE40F208010FF27450C2F2000137
:102B200007F046FD052011E040F23010C2F200002F
:102B300090F8431040F22400C2F2000002684AF606
:102B40004F20C0F6010007F033FD0420C9F8000053
:102B500040F68970C2F20000007840F68871C2F237
:102B600000010870207A532840F0AD80E0794D28AC
:102B700040F0A980A0794C2840F0A580A07A2228B6
:102B800040F0778040F6887040F6806AC2F200001C
:102B90002A21C2F2000A017050463221FDF7FDFAE7
:102BA00040F6587541F29430C2F200050026C2F298
:102BB00000004FF49661C5E90066FDF7EEFA0B20C0
:102BC00000210022235C2C2B04BF01260130235C52
:102BD000222B0AD0002E19BFAB5401320AF8013063
:102BE0000131642800F10100ECDB4AF614104EF2CA
:102BF000DE14C0F60100C0F2E40407F0F7FB00BFEA
:102C0000013C00BFFCD141F29434C2F200044AF608
:102C1000261140F68063C0F60101C2F2000320468F
:102C20002A46009507F0D4FC204607F0DFFB4CF263
:102C3000BC30C0F2C91000BF013800BFFCD14AF659
:102C40001D30C0F6010007F001FE3846013800BF14
:102C5000FCD13846013800BFFCD140F22800C2F256
:102C60000000002101600820C9F80010C8F8000029
:102C700018E04AF69620C0F6010007F0E7FD384656
:102C8000013800BFFCD1D8F8000008280AD040F66F
:102C90008970C2F20000007840F68871C2F200012B
:102CA000087000BF013F00BFFCD1D8F80000082821
:102CB00009D040F68970C2F20000007840F68871B1
:102CC000C2F200010870D9F80000032808D10D20D5
:102CD000C8F8000040F68870C2F20000632101705D
:102CE00002B0BDE8F08753297FF4C1AD40F68A7584
:102CF00040F68B76C2F20005C2F2000629783278DF
:102D00004AF61520C0F6010007F052FC0520C9F86C
:102D10000000287840F68871C2F20001087030780F
:102D200040F68971C2F200011BE746297FF4A4AD89
:102D3000BCF1460F7FF4A0AD49F29464CDA0C0F27F
:102D4000980407F083FD01F049FB01F079FB0520B1
:102D5000C9F8000040F68970C2F20000007840F621
:102D60008871C2F200010870013C00BFFCD14EF630
:102D70000C50CEF20000BFF34F8F0168042201F423
:102D8000E061C0F2FA5211430160BFF34F8F00BF00
:102D9000FEE73D2802D10820FEF7F6FB40F21410B2
:102DA000C2F20000016840F6CC60C2F20000026886
:102DB0004AF6D310C0F6010007F0FAFB384600BF10
:102DC000013800BFFCD1C3E6462B08BF542A30D0DF
:102DD000542B08BF542A3BD0472B08BF4C2A53D052
:102DE000432B08BF4F2A00F07B80502B08BF4F2A8F
:102DF00000F08A80322B08BF572A00F0B8804128A3
:102E000008BF542B00F0ED806420C9F80000204674
:102E1000FDF7CEF940F60D222118225200208870CD
:102E2000204607F0E3FA40F68870C2F200001D2148
:102E3000D5E04429CCD1BCF1570FC9D189A007F006
:102E400005FD3846013800BFFCD107F095FB7FE651
:102E50004429C1D1BCF1570FBED17EA007F0F6FCCA
:102E60003846013800BFFCD147F67200C0F27D1031
:102E7000013800BFFCD142F60040C4F2010000213D
:102E8000C82205F079FF63E64629A9D1BCF1530FAA
:102E9000A6D140F6887A40F68A70C2F2000AC2F2E1
:102EA00000009AF80010037840F68B7040F689769F
:102EB000C2F2000041F27435C2F200060078C2F29C
:102EC000000532782D6800905AA0019507F070FB3C
:102ED0003846013800BFFCD130788AF8000041E65E
:102EE00053297FF482AFBCF1430F7FF47EAF41F2F0
:102EF0007430C2F20000016849A007F059FB38465F
:102F0000013800BFFCD123E645297FF473AFBCF143
:102F1000520F7FF46FAF49F294653DA0C0F298055F
:102F200007F094FC013D00BFFCD140F2C800C2F2A2
:102F30000000642101604AF61410C0F6010007F099
:102F400055FA46F65610C0F27840013800BFFCD161
:102F500040F63660C2F20000002101700D20C8F872
:102F6000000040F68870C2F20000622132E046297B
:102F70007FF445AFBCF14D0F7FF441AF49F294654A
:102F800020A0C0F2980507F061FC013D00BFFCD114
:102F900040F23010C2F2000040F20111A0F8FE1021
:102FA00040F23021C2F200010122C1E9FE22642276
:102FB00080F8F020C1F8C02301F010FA01F07EFB88
:102FC00001F0E0F90D20C8F8000040F68870C2F268
:102FD00000006321017040F68970C2F200000170A8
:102FE000C0E54F2A7FF410AF46297FF40DAF40F6BD
:102FF0004070C2F2000000210160012002F076FC66
:10300000B0E500BF41542B4D465732204F4B0D00C9
:1030100041542B52454F5053204F4B0D00000000A0
:1030200041542B43534F434B3D25640D0A4F4B0DE9
:103030000A00000041542B53464C41473D25642C67
:1030400025642C25642C25642C25640D0A4F4B0D1A
:103050000A00000041542B574454540D0A4F4B0DA5
:103060000000000041542B574454460D0A4F4B0DAD
:1030700000000000464143544F52592052455345E9
:103080005420495320574F524B494E470D000000E2
:1030900041542B4D5645523D25730D0A000000004A
:1030A000B0B54AF6601041F2000444F64A35C0F665
:1030B0000100C4F20104C0F24C0507F097F9204664
:1030C0004FF4004101F0DAFC284600BF013800BF90
:1030D000FCD120464FF4004101F0D2FC013D00BF7D
:1030E000FCD149F294640FA0C0F2980407F07EF975
:1030F000204600BF013800BFFCD114A007F076F9CC
:10310000204600BF013800BFFCD116A007F06EF9C1
:10311000013C00BFFCD140F63660C2F20000012144
:103120000170B0BD41542B4754535953434D443D56
:10313000226E76207365742057414E50696E674643
:10314000696C7465723D31220D0A000041542B47B1
:1031500054535953434D443D226E76207361766536
:10316000220D0A0041542B47544C414E454E4142DA
:103170004C453D310D0A00002DE9F04F81B040F281
:103180002801C2F200014FF0FF30086040F2040055
:10319000C2F20000D0F8009042F6941C40F2D40E27
:1031A0000021C2F2000CC2F2000E00264FF0000A0D
:1031B00005E00819C11C00BF0131494536DA1CF889
:1031C00001003A28F8D101EB0C0515F8010C502844
:1031D000F2D115F8020C4928EED115F8030C4C2851
:1031E000EAD1002403E000BF01340E2CE1D02B19FA
:1031F00032460E195879F71C2C283E4609D03E4617
:103200003AB9BAF1000F3E4603D1DA7800260EF83B
:1032100004202C28E8D11879222808BFBAF1000F21
:10322000E2D1D878BA460EF80400DDE742F69010F5
:10323000C2F200000021016042F69410C2F20000C8
:1032400040F63401FCF7A9FF49F29460C0F29800FF
:10325000013800BFFCD140F2D408C2F2000843F6A6
:103260001021C2F2000140460F22FCF7B6FF40F2E7
:10327000EC0740F6407BC2F20007C2F2000B0121CE
:103280003860CBF8001070B140F2D40043F6202132
:10329000C2F20000C2F200010F22FCF79EFF38606C
:1032A0000220CBF80000386870B140F2D40043F639
:1032B0003021C2F20000C2F200010F22FCF78DFFA4
:1032C00038600320CBF80000386844F64A3540F6F1
:1032D000887A40F68979C0F24C050028C2F2000ACB
:1032E000C2F200094FF0000012D040F22801CBF8E2
:1032F00000004FF0FF30C2F20001086003208AF89E
:1033000000002846013800BFFCD199F8000009E010
:1033100040F22801C2F2000108602846013800BFCF
:10332000FCD123208AF8000040F66076C2F2000645
:1033300000203A68307040F23010C2F200003AB912
:1033400090F84C10FF2901D0012901D101213170E1
:1033500090F84C0041F264340130C0B201289CBFA7
:1033600001203070D8F80B3098E88300C2F20004D6
:10337000C4F80B303378C4E900012BA04146A760A4
:1033800007F016F940F2E400C2F2000001684A1C9E
:10339000032902602BDB3078012828D199F800003E
:1033A000073825283AD8DFE800F013393939393998
:1033B00039133939393939393939391339391339EF
:1033C00039393939391339393939393939393913B9
:1033D00040F67C70C2F2000001780131CAB2C82AFE
:1033E00028BF6FF03701017001B0BDE8F08F0020F9
:1033F00040F22801CBF800004FF0FF30C2F200018C
:10340000086003208AF80000013D00BFFCD199F854
:1034100000008AF8000001B0BDE8F08F02F0F6FE6F
:1034200001B0BDE8F08F00BF657874726163746E9F
:10343000756D2043616C6C65726E756D202573200F
:1034400025642025640D0A002DE9F04F87B041F274
:103450000000C4F201004FF4005101F00FFB40F6F0
:103460008C74C2F200042046FF21FCF796FE40F265
:103470000400C2F20000D0F800E042F694160020EA
:10348000C2F200060021002203E000BF01307045B7
:1034900019DA335C432B10D183195F784D2F08D193
:1034A0009F78542F05D1DB78871D3A2B04BF38460F
:1034B0003A4642F69416C2F20006002AE6D0335C81
:1034C00073540131E2E740F63562C2F20002002097
:1034D00040F688711070C2F2000108782E2802D0E0
:1034E00008782F2875D141F28C020023C2F2000225
:1034F000F05C412826D198194178542922D181784D
:103500002B291FD1C1784D291CD10079462819D10A
:103510000020194605E000BF0131632800F10100D9
:1035200017DA775C0A2F1754F6D10E4416F8016C9F
:103530000D2E42F69416C2F2000604BF17546430F2
:10354000EAE700BF1846002333B9431C7345CFDBBD
:1035500002E0481D002BF8D04CF2BC3504F14900C4
:10356000B621C0F2C915FCF718FE4AF67051C0F634
:10357000010120464922FCF7F7FD02F043FF00BF9E
:10358000013D00BFFCD14EF2DE10C0F2E40000BFEE
:10359000013800BFFCD140F68C7041F28C0144F63A
:1035A0004A34C2F20000C2F20001FF22C0F24C0411
:1035B000FCF7DAFD013C00BFFCD140F64070C2F2DE
:1035C000000001210160012002F090F907B0BDE880
:1035D000F08F41F2903392F800B0C2F20003002461
:1035E000AEF10207002000254FF0000A1C70069083
:1035F000CDE9047E705D2B283CD17019984600F10E
:10360000020C6B1C002700210AE000BF2C2E08BF13
:10361000BAF1000F22D001310E2902F101032DD0A1
:103620001CF801606C1838461A462C2EA146274615
:10363000ECD00028A1462746E8D1BAF1000FA146F8
:103640002746E3D10CEB010010F8020C41F2543391
:10365000C2F200030027A9465854D7E70CEB01003B
:1036600010F8020C41F25433C2F20003A24658543F
:10367000D1E700BF4FF000091CE000BF6818851DAE
:10368000AE45C8BF754642F69416049FC2F20006C6
:1036900043460024B01880790A2805D0901D0132D5
:1036A0007045F7DB02E000BFD51DA94640F6356244
:1036B000C2F2000240F64870C2F20000B9F1000FF9
:1036C0000460446000F0CC8040F68C7C4FF0000E2B
:1036D000C2F2000C0AE000BF8CF800804FF0000E30
:1036E0000135BD420CF1010C80F2BA8016F805805C
:1036F000A8F10A004A2800F26180DFE810F0B1006A
:103700005F005F0077005F005F005F005F005F00A9
:103710005F005F005F005F005F005F005F005F00B1
:103720005F005F005F005F005F005F00A800560061
:103730005F005F005F005F005F005F005F005F0091
:103740005F005F005F005F005F005F005F005F0081
:103750005F005F005F005F005F005F005F005F0071
:103760005F005F005F005F005F005F004B005F0075
:103770005F005F005F004B005F005F005F005F0065
:103780005F005F004B005F004B005F005F005F0069
:103790005F004B000BF1010BB8F1210F82F800B074
:1037A00000F05580B8F1220F08D10698B8F1210F2A
:1037B00000F101000690187000F04980BEF1000F82
:1037C0003FF48AAFAEF10200072809D840F64871ED
:1037D000C2F2000101F800800EF1010E80E700BF87
:1037E000BEF1010F08BF4FF0020E79E77119497859
:1037F0000A2900F035804A28E0D8DFE800F0312FB0
:103800002F2F2F2F2F2F2F2F2F2F2F2F2F2F2F2FC8
:103810002F2F2F2F2F28272F2F2F2F2F2F2F2F2FC7
:103820002F2F2F2F2F2F2F2F2F2F2F2F2F2F2F2FA8
:103830002F2F2F2F2F262F2F2F2F262F2F2F2F2FAA
:103840002F262F262F2F2F2F2600A3E7ADE7069830
:1038500010F0FD0F08BF0EF1010EAFE7AEE700BF9D
:10386000DDF814E0B9F1000F03D101357545FFF61D
:10387000C1AE40F27C00C2F200000A2141F2543392
:1038800001600020C2F20003107093E8070041F2CB
:103890006437D3F80B30C2F2000749F2946687E828
:1038A00007000FF64820C0F29806C7F80B3006F064
:1038B0009DFD3046013800BFFCD142F6901942F61A
:1038C000941044F24224C2F200090025C2F2000022
:1038D0004FF4FA71C0F20F04C9F80050FCF75DFC18
:1038E00040F28008C2F200084FF0FF30C8F8000034
:1038F00040F6407741F2543043F61021C2F20007FF
:10390000C2F20000C2F200013D60FCF758FC40F238
:10391000EC05C2F200052860B0FA80F0400940F6DC
:10392000887B38602046C2F2000B00BF013800BF20
:10393000FCD1386878B941F2543043F62021C2F204
:103940000000C2F20001FCF73AFCB0FA80F149092C
:103950002860480038602046013800BFFCD1386834
:1039600080B941F2543043F63021C2F20000C2F275
:103970000001FCF724FC00212860002808BF032177
:10398000396000BF013C00BFFCD13A6840F660706E
:1039900040F2301AC2F200000021C2F2000A0170A7
:1039A0002AB19AF84C10012907D0FF2905D09AF8BE
:1039B0004C100131C9B2012901D8012101700078F0
:1039C000002842D040F6487040F65071C2F2000024
:1039D000C2F200010822FCF700FC054641F6440053
:1039E000C2F2000040F68C74056041F28C10C2F205
:1039F0000004C2F200002146C822FCF7B5FB75B3F3
:103A00004EF2DE152046C0F2E405FCF7D1FB44F28D
:103A10000A52C5F252222118225045F24F20C4F218
:103A20002030486044F24F40C2F2451088600020C8
:103A3000087302F0E7FC00BF013D00BFFCD140F677
:103A40008970C2F2000000785EE340F68970C2F22D
:103A5000000000788BF8000007B0BDE8F08F04F09C
:103A6000B5FE6428C8F8000000F24583DFE810F0D6
:103A70006A007F00A500C700EB0000014303430379
:103A80000C0165006500600180019B01C501E30137
:103A9000010227024D0269027E02D7024303250379
:103AA000510370039303430343034303430343035B
:103AB00043034303430343034303430343034303D6
:103AC00043034303430343034303430343034303C6
:103AD00043034303430343034303430343034303B6
:103AE00043034303430343034303430343034303A6
:103AF0004303430343034303430343034303430396
:103B00004303430343034303430343034303430385
:103B10004303430343034303430343034303430375
:103B20004303430343034303430343034303430365
:103B30004303430343034303BE0302F0BBFCFCF710
:103B400043FCD1E240F68C7040F6D4614EF2DE14B4
:103B5000C2F20000C2F20001FF22C0F2E404FCF74E
:103B600003FB02F04FFC013C00BFFCD1BCE240F67D
:103B70008C74C2F200044EF2DE152046FF21C0F222
:103B8000E405FCF70AFB43F630274AF6E94143F621
:103B9000102243F62023C2F20007C0F60101C2F250
:103BA0000002C2F200032046009706F011FD02F069
:103BB00029FC013D00BFFCD196E240F68C74C2F2B4
:103BC00000044EF2DE152046FF21C0F2E405FCF7AA
:103BD000E4FA9AF8417040F2A00240F2BC030FF2FE
:103BE0009071C2F20002C2F200032046009706F074
:103BF000EFFC02F007FC013D00BFFCD174E24EF285
:103C0000DE1504F10A00F521C0F2E405FCF7C5FA5F
:103C10004720208145F24F4044F25251C4F649609A
:103C2000C4F64271C4E9001002F0ECFB013D00BF94
:103C3000FCD10D20C8F8000063208BF80000013E85
:103C400000BFFCD157E240F68C7040F6D4614EF2D2
:103C5000DE14C2F20000C2F20001FF22C0F2E4044E
:103C6000FCF782FA02F0CEFB013C00BFFCD13BE244
:103C700044F64A34C0F24C0402F01CFCFCF7A4FBEE
:103C8000013C00BFFCD12FE244F64A34C0F24C04A0
:103C900002F010FCFCF798FB013C00BFFCD141F2A4
:103CA0009434C2F200044AF6E90140F2A0024EF256
:103CB000DE15C0F60101C2F200022046C0F2E405A2
:103CC00006F086FC204606F091FB013D00BFFCD1CA
:103CD00041F29430C2F200004FF49661FCF75DFAB5
:103CE00041F65C00C2F2000040F69801FCF755FA7C
:103CF00042F69410C2F2000040F63401FCF74DFA8F
:103D000042F2F400C2F2000040F69801FCF745FAD6
:103D100040F68972C2F2000242F68C11127800203D
:103D2000C2F20001C9F8000008608BF80020E2E14F
:103D300040F68C74C2F200044EF2DE152046FF21DC
:103D4000C0F2E405FCF729FA40F22400C2F20000B8
:103D50009AF8432003684AF64B41C0F60101204619
:103D600006F036FC02F04EFB013D00BFFCD1BBE18A
:103D700040F68C74C2F200044EF2DE152046FF219C
:103D8000C0F2E405FCF709FA40F208020FF2D45140
:103D9000C2F20002204606F01BFC02F033FB013D9C
:103DA00000BFFCD1A0E104F11000EF21FCF7F5F910
:103DB00044F6207045F2453144F24F6245F24143EA
:103DC000C0F24B00C5F24541C5F25422C5F22B3377
:103DD000C4E90032C4E9021002F014FB013E00BF46
:103DE000FCD144F64A30C0F24C00013800BFFCD18F
:103DF0000D20C8F8000063207BE141F2542440F616
:103E00008C75C2F20004C2F2000544F64A36204620
:103E10002946FF22C0F24C06FCF7A6F902F04AFB45
:103E200028462146FF22FCF79FF9FCF7CDFA013E18
:103E300000BFFCD158E141F2542440F68C75C2F227
:103E40000004C2F2000544F64A3620462946FF2205
:103E5000C0F24C06FCF788F902F02CFB28462146FC
:103E6000FF22FCF781F9FCF7AFFA013E00BFFCD15D
:103E70003AE140F68C74C2F200042046FF21FCF7C0
:103E80008CF940F21810C2F20000026840F6D060CF
:103E9000C2F2000003684AF6E711C0F601012046AD
:103EA00006F096FB02F0AEFA013E00BFFCD144F6EC
:103EB0004A30C0F24C00013800BFFCD114E140F69A
:103EC0008C74C2F200042046FF21FCF766F940F230
:103ED0001410C2F20000026840F6CC60C2F200008A
:103EE00003684AF6D311C0F60101204606F070FBC4
:103EF00002F088FA013E00BFFCD144F64A30C0F21D
:103F00004C00013800BFFCD1EEE040F68C74C2F2E8
:103F100000044EF2DE152046FF21C0F2E405FCF756
:103F20003CF940F63C70C2F2000002680FF22841F2
:103F3000204606F04DFB02F065FA013D00BFFCD1C2
:103F4000D2E040F68C704EF2DE14C2F20000C0F2F5
:103F5000E40406F04BFA4AF69320C0F6010006F09E
:103F600045FA013C00BFFCD12920C2E041F28C009F
:103F70004CF2BC35C2F200002146FF22C0F2C91546
:103F8000FCF7F2F804F13800C721FCF706F94AF60D
:103F9000BC50C0F60100016800F1100E0591816A65
:103FA000071D0691C16A9EE840500491016B00F123
:103FB0001C0B039105998CCF9BE8000E84E88E00C2
:103FC00004F1100181E8405004F11C0181E8000E69
:103FD0000699406BA1620499E1620399C4E90C104F
:103FE00002F010FA013D00BFFCD142F62850C0F2A9
:103FF0003110013800BFFCD140F68C7041F28C01C9
:10400000C2F20000C2F20001FF22FCF7ADF803206B
:1040100001F06CFC40F6887BC2F2000B6BE004F10F
:104020003400CB21FCF7B9F84AF67860C0F60100FD
:104030000168071D0591816A8CCF0691C16AD0E99C
:10404000046504910599D0E906CE84E88E000699AE
:10405000D0E9089B006BA1620499C4E90465C4E936
:1040600006CEC4E9089BC4E90B1002F0CBF947F671
:104070007200C0F27D10013800BFFCD140F2011087
:10408000AAF8FE0040F23020C2F200000121C0E98F
:10409000FE1164218AF8F010C0F8C01300F09EF9F8
:1040A00000F00CFB00F06EF90D2040F6887BC8F89C
:1040B00000006320C2F2000B0FE140F68C74C2F2E4
:1040C00000044EF2DE152046FF21C0F2E405FCF7A5
:1040D00064F89AF84C209DA1204606F079FA02F087
:1040E00091F9013D00BFFCD140F68970C2F2000099
:1040F00000788BF80000D8F8000003287FF4ACACFF
:104100000D20C8F8000063208BF8000007B0BDE860
:10411000F08F41F28C0440F68C75C2F20004C2F2BA
:10412000000520462946FF22FCF71EF82846FF21FD
:10413000FCF733F84AF62631C0F60101284622463C
:1041400006F046FA386800285ED002F0F7F85DE025
:1041500041F28C0440F68C75C2F20004C2F20005F4
:1041600020462946FF22FBF7FFFF2846FF21FCF7E8
:1041700014F868A12846224606F02AFA4AF6F640C4
:10418000C0F60100294606F013FA3868002869D005
:1041900002F0D4F868E040F68C74C2F200044EF2EB
:1041A000DE152046FF21C0F2E405FBF7F6FF40F6DE
:1041B0008A7040F68976C2F2000040F68B719BF857
:1041C0000020C2F200060078C2F2000133780F78B6
:1041D00000904AA12046019706F0FAF902F012F980
:1041E000013D00BFFCD130788BF8000040F68C70A8
:1041F000C2F2000006F0FAF84AF69320C0F6010079
:1042000006F0F4F81A2074E702F0FCF84EF2DE1023
:10421000C0F2E400013800BFFCD140F68C74C2F259
:10422000000441F28C01C2F200012046FF22FBF79C
:104230009BFFFCF7C9F82046FF21FBF7AEFF42F6D3
:104240009410C2F2000040F63401FBF7A6FF40F6DE
:104250008971C2F2000109780020C9F800008BF8CA
:10426000001048E702F0CEF84EF2DE10C0F2E40093
:10427000013800BFFCD140F68C74C2F2000441F258
:104280008C01C2F200012046FF22FBF76DFF2046A1
:10429000FF21FBF782FF42F69410C2F2000040F6C5
:1042A0003401FBF77AFF0020C9F8000040F2C80093
:1042B000C2F20000642101604AF61410C0F6010049
:1042C00006F094F846F65610C0F27840013800BF68
:1042D000FCD10D20C8F80000622040F68971C2F2BE
:1042E00000018BF80000087005E700BF41542B4324
:1042F0004D47443D312C340D0A00000041542B53EE
:10430000464C41473D25642C2025642C2025642CF7
:104310002025640025732E200D0A574F524B494E1D
:10432000472E205265736574204D6F64656D204E75
:104330006F772E20506C656173652057616974201A
:10434000696E2033206D696E7321000041542B4546
:104350004E574C3D2564000041542B4D474E45546B
:104360003D25640041542B4D5645523D25730000B8
:1043700041542B4D4346473D25732C25732C256412
:104380000000000080B540F22001C2F200010A687E
:1043900040F2000E40F6647CC0F6020EC2F2000C41
:1043A000002ACCF800E008BF80BD40F23011C2F214
:1043B00000014B1E40F23021C2F20001043900BF5F
:1043C0005EF8040BFF2841F8040F28BFFF20013AD4
:1043D00003F8010FF4D1CCF800E080BD70B500F017
:1043E000FDF940F2053000F057F84FF4417000F04D
:1043F00053F840F2023000F04FF840F21805C2F2D4
:1044000000052868C8B100240026C0F6020400BFD9
:10441000204600F067F840F2053000F03DF84FF418
:10442000417000F039F840F2023000F035F82868A9
:104430000136864204F58064EAD300F03DF870BD91
:1044400080B540F22000C2F200000068002240F671
:104450006471C0F60202C2F2000100280A6008BFBF
:1044600080BD043252F8043C013305D10A600138A2
:1044700002F10402F6D180BD40F2B400C2F20000A5
:104480000121016041F20000C4F201004FF48041BB
:1044900000F0F6FA80BD000042F2000300F01F01B8
:1044A0008009C4F202034FF0010CC2580CFA01F16A
:1044B0001143C1507047000042F21000C4F20200E4
:1044C000016841F0800101604FF2E071C1F6FF71B7
:1044D0000988B1F5007F98BF7047016C41F08001F9
:1044E0000164704780B54FF2E071C1F6FF71098831
:1044F0008446B1F5007F70D94FF6FF700121C0F6F8
:104500000700CFF2010142F20C02C4F202024FF0A6
:10451000020E0B4684451BD21068C0070AD11068F2
:10452000C0065ABF10680EEA50000320012804D0CC
:1045300007E000BF0120012803D1002B03F1010394
:10454000EAD1012808BF0420002800F0958080BD32
:10455000106CC0070AD1106CC0065ABF106C0EEA6E
:1045600050000320012804D007E000BF01200128EB
:1045700003D1002B03F10103EAD1012808BF042075
:104580000028E4D1506C022340F002005064C2F8CD
:1045900048C01069800748BFC2F808C0506C40F09E
:1045A00040005064106CC0070AD1106CC0065ABF9E
:1045B000106C03EA50000320012804D007E000BF7C
:1045C0000120012803D1002901F10101EAD10128CC
:1045D00008BF042002F1440149E00121CFF20101AA
:1045E00042F20C02C4F202024FF0020E0B4600BF70
:1045F0001068C0070AD11068C0065ABF10680EEADA
:1046000050000320012804D007E000BF012001284A
:1046100003D1002B03F10103EAD1012808BF0420D4
:10462000002818BF80BD5068022340F0020050608F
:10463000C2F808C0506840F0400050601068C007E1
:104640000AD11068C0065ABF106803EA5000032060
:10465000012804D007E000BF0120012803D1002970
:1046600001F10101EAD1111D012808BF04200A68E7
:1046700022F002020A6080BD5068022340F002006E
:104680005060C2F808C0506840F04000506000BF61
:104690001068C0070AD11068C0065ABF106803EA44
:1046A00050000320012804D0DDE700BF01200128CD
:1046B000D9D1002901F10101EAD1D4E72DE9F04176
:1046C00000F08CF840F2302840F23011C2F20008BD
:1046D000C2F20001A8F104000139642211F8013F7F
:1046E000013A40F8043FF9D10020C0F6020040F240
:1046F000C40540F28406C2F20005C2F20006212180
:10470000002700F580642860316000BF58F827104A
:10471000316000F08BF8286801370430B7F5807FEE
:1047200088BFFF27286040F20530FFF7B5FE4FF441
:104730004170FFF7B1FE40F20230FFF7ADFE28688E
:10474000A042E3D3FFF7B8FEBDE8F0812DE9F041C8
:1047500000F044F840F2302840F23011C2F2000874
:10476000C2F20001A8F104000139632211F8013FEF
:10477000013A40F8043FF9D10020C0F6020040F2AF
:10478000C40540F28406C2F20005C2F200062121EF
:10479000002700F580642860316000BF58F82710BA
:1047A000316000F043F8286801370430B7F5807FA6
:1047B00088BFFF27286040F20530FFF76DFE4FF4F9
:1047C0004170FFF769FE40F20230FFF765FE28688E
:1047D000A042E3D3FFF770FEBDE8F08142F204008F
:1047E000C4F20200C168090609D540F22311C4F2DF
:1047F0006751016048F6AB11CCF6EF5101604FF202
:10480000E071C1F6FF710988B1F5007F0DD9C16C67
:10481000090658BF704740F22311C4F26751016482
:1048200048F6AB11CCF6EF510164704710B54FF26A
:10483000E072C1F6FF7212888446B2F5007F68D933
:1048400001224FF6FF70CFF20102C0F6070042F2DC
:104850000C038445C4F202034FF0020E14461BD22F
:104860001868C0070AD11868C0065ABF18680EEA4F
:1048700050000320012804D007E000BF01200128D8
:1048800003D1002C04F10104EAD1012808BF04205F
:10489000002800F0898010BD186CC0070AD1186C80
:1048A000C0065ABF186C0EEA50000320012804D03D
:1048B00007E000BF0120012803D1002C04F101040E
:1048C000EAD1012808BF04200028E4D1586C40F048
:1048D00001005864CCF80010022100BF186CC0071A
:1048E0000AD1186CC0065ABF186C01EA50000320A8
:1048F000012804D007E000BF0120012803D1002ACD
:1049000002F10102EAD1012808BF042003F14401A9
:1049100045E00123CFF2010342F20C02C4F202028D
:104920004FF0020E1C4600BF1068C0070AD1106885
:10493000C0065ABF10680EEA50000320012804D0B8
:1049400007E000BF0120012803D1002C04F101047D
:10495000EAD1012808BF0420002818BF10BD506804
:1049600040F001005060CCF8001002211068C00730
:104970000AD11068C0065ABF106801EA500003202F
:10498000012804D007E000BF0120012803D1002B3B
:1049900003F10103EAD1111D012808BF04200A68B0
:1049A00022F001020A6010BD586840F00100586012
:1049B000CCF80010022100BF1868C0070AD118689F
:1049C000C0065ABF186801EA50000320012804D02D
:1049D00007E000BF0120012803D1002A02F10102F3
:1049E000EAD1012808BF0420191DD8E7F0B581B02D
:1049F00040F2B000C2F2000001210160FFF7EEFEBC
:104A000040F20530FFF748FD4FF44170FFF744FDD9
:104A100040F20230FFF740FD40F21804C2F20004F9
:104A20002068D8B140F294060025C2F200060027A3
:104A300030682844FFF756FD40F20530FFF72CFDA3
:104A40004FF44170FFF728FD40F20230FFF724FDDC
:104A500020680137874205F58065E9D3FFF72CFD13
:104A600001B0F0BD10B50446C1B243F60000C4F277
:104A7000010005F00DFD204610BD000041617047AA
:104A8000016170472DE9F047CF0601F00F0C09D501
:104A9000042A05D1C26B4CF0030C1A43C26301E037
:104AA0004CEA020C00F1100E00F1140A00244FF041
:104AB00001094FF00F0800270EE000BF166008FA4A
:104AC00004F225EA02020CFA04F52A4302600137D7
:104AD000082F04F104040CD009FA07F212EA0306C5
:104AE000F5D0056828295246E8D04829E7D1724612
:104AF000E4E7082400254FF001094FF00F080FE00C
:104B0000176008FA05F226EA02020CFA05F63243AB
:104B100042600134102C05F1040508BFBDE8F087A0
:104B200009FA04F212EA0307F3D04668282952462C
:104B3000E6D04829E5D17246E2E7000080680840E7
:104B400018BF0120704700002DE9F04F81B041F2FD
:104B5000000749F2946B4FF000604FF48031C4F2CB
:104B60000107C0F2980B01F0DDF840F67C70C2F24C
:104B700000004FF0000880F8008040F2E400C2F22C
:104B8000000040F6BC61C0F80080C2F200010220C3
:104B9000087040F21010C2F20000C0F8008040F629
:104BA000C860C2F20000C0F8008040F64060C2F267
:104BB00000004FF0FF31016040F68470C2F2000047
:104BC000C0F8008040F2C800C2F20000C0F80080C7
:104BD00040F2046001F0EAFA38464FF46041FFF712
:104BE0004DFF3846102103224FF46043FFF74AFF80
:104BF00040F6446540F6887A40F2800440F66476D8
:104C0000C2F20005C2F2000AC2F20004C2F20006BB
:104C100038464FF46041B946FFF732FF40F2026078
:104C200001F0C4FA40F2036001F0C0FA40F67C7073
:104C3000C2F2000080F8008040F2F000C2F20000F2
:104C4000C0F8008040F63660C2F2000080F80080B4
:104C500040F2B800C2F20000C0F8008040F6447094
:104C6000C2F2000080F8008040F64570C2F20000F9
:104C700080F8008040F2B400C2F20000C0F800806A
:104C800040F63C70C2F20000C0F8008040F2F8002C
:104C9000C2F20000C0F8008040F2FC00C2F2000046
:104CA000C0F8008040F68070C2F2000085F80080F5
:104CB000C0F8008040F68970C2F200008AF80080D7
:104CC00080F8008040F22000C2F2000042F690110D
:104CD0000068C2F20001C4F80080C1F80080002121
:104CE00040F23014FF27C0F60201C2F20004316026
:104CF000A0B140F23022C2F200020023611E043A49
:104D0000C0F6020353F8045BFF2D42F8045F28BF8E
:104D10003D46013801F8015FF4D1336040F23020A4
:104D2000C2F20000D0F8F803012847D0FFF756FB85
:104D300040F22000C2F2000000680021C0F602012B
:104D40003160D0B10021C0F602014B46043100BFF2
:104D500051F8042C013205D13160013801F1040110
:104D6000F6D10AE040F2B400C2F200000121016075
:104D700018464FF48041FFF783FE40F22000C2F254
:104D8000000000680021C0F602014FF0FF0731600B
:104D9000A0B140F23022C2F200020023611E043AA8
:104DA000C0F6020353F8045BFF2D42F8045F28BFEE
:104DB0003D46013801F8015FF4D133602078FF28C7
:104DC0001ED06178FF291BD0A278FF2A18D0B8B175
:104DD000B1B1AAB140F2A0064FF0FF30C2F2000616
:104DE0004F4600BF211849783318A1F130024B2AF1
:104DF00000F1010028BF41460E285970F2D114E09D
:104E000040F2A00043F24D21C2F20000C5F24D0174
:104E1000016044F64C61C4F6415141605221017277
:104E2000C0F80980A0F80D804F46E07B0130C0B289
:104E300002280BD240F2BC0043F23101C2F2000062
:104E4000C3F23001016080F8048008E0E07CD4F80F
:104E50000F1040F2BC02C2F2000210711160207DFE
:104E60000130C0B2022811D3607EFF280ED068B195
:104E7000D4E90501D4F81F2043F61026C2F200063B
:104E8000E369C6F80B200BC616E000BF43F61020FE
:104E9000C2F2000043F23801818143F22B61C3F674
:104EA0003201016043F23521C3F23831416043F2EF
:104EB0003531C3F63011816094F823000130C0B25F
:104EC000022815D394F82800FF2811D080B1D4F817
:104ED0002300D4F82E2043F62026C2F20006D4F890
:104EE0002710D4F82B30C6F80B200BC616E000BFF5
:104EF00043F62021C2F2000143F63910888143F2C3
:104F00002B60C3F63200086043F23230C3F2310046
:104F1000486043F63210C3F23310886094F83200D0
:104F20000130C0B2022815D394F83700FF2811D001
:104F300080B1D4F83200D4F83D2043F63026C2F2D6
:104F40000006D4F83610D4F83A30C6F80B200BC659
:104F500015E000BF43F63021C2F200013220888103
:104F600043F22B60C3F63200086043F23110C3F203
:104F70003230486043F23430C3F23170886094F8C4
:104F8000431040F2D003C2F2000304290AD84FF4C0
:104F90001650DFE801F017030E1114004FF496408D
:104FA00010E000BF40F22400C2F200000068FF29B8
:104FB00008E04FF4164005E04FF4614002E04FF482
:104FC000E13000BF186044F64A30C0F24C0000BF28
:104FD000013800BFFCD194F844000130C0B202286F
:104FE0000AD240F6507044F24541C2F20000C4F6C5
:104FF0004D11C0E9001107E0D4E9110140F65072EB
:10500000C2F20002C2E90001186805F001FA47F295
:10501000EF00C0F2720000BF013800BFFCD1A7F55D
:1050200080694846042103220123FFF72BFD4846EF
:10503000102103220223FFF725FD48460221FFF736
:105040001FFD4FF2E400C0F2FA2000BF013800BF9C
:10505000FCD148460221FFF711FD03F0B1FE47F6EF
:105060007200C0F27D1000BF013800BFFCD107F50F
:10507000E0500021C82203F07FFE03F017FD384600
:105080004FF400518AF80080FFF7F8FC40F2B400BA
:10509000C2F20000C0F8008038464FF48041FFF7AC
:1050A000EDFC38464FF40041FFF7E8FC94F841006E
:1050B000411CC9B2012911D840F28C00C2F2000093
:1050C000006840F2CC01C2F20001087040F21811F1
:1050D000C2F20001086084F8410009E040F2CC010E
:1050E000C2F20001087040F21811C2F2000108601B
:1050F00094F84200411CC9B201290DD840F2880041
:10510000C2F20000006840F21411C2F2000108600F
:1051100084F8420005E000BF40F21411C2F2000121
:10512000086041F644045E46C2F200040FF2B47B0C
:10513000FDF7E4F940F208010FF24470C2F20001F9
:1051400005F036FA4CF29030C0F6EB30013800BF73
:10515000FCD140F20010C2F2000080F8008040F65E
:10516000D460C2F200006421FBF717F840F2B400EB
:10517000C2F200000121016038464FF40051FFF7F0
:105180007FFC40F21C00C2F20000006844F6D351DC
:10519000C1F26201A0FB010140F29800C2F20000DE
:1051A00002684FF0FF3000EB911041F65001B0F172
:1051B000807FC2F200010A6080F046834EF2100147
:1051C000CEF2000148604EF60C50CEF20000F02204
:1051D000C2750722C1F808800A6080F81780C4F8F9
:1051E000008000BF48460121FFF7A8FC40F644714B
:1051F000C2F20001002818BF012008709AF80010C0
:105200009AF80000002937D001382D2800F2748266
:10521000DFE810F02E00660069006C006F0072027B
:1052200082008500720272027202720272029000A3
:105230007202930072029C00BE00E800EB00EE00D8
:105240000B010E01250128013A013D0140017202C6
:105250007202720272026B016E0174018301C0015D
:105260007202720217023502720257025A02640277
:1052700001F07EF940E200BF40F2F002C2F200020B
:10528000116840F68973C2F200031870481C362971
:1052900010601CDB584605F0A9F83046013800BF05
:1052A000FCD140F2F000C2F20000C0F8008040F2F1
:1052B000B400C2F20000C0F8008038464FF48041CC
:1052C000FFF7DCFB38464FF40041FFF7D7FB44F60D
:1052D0004A30C0F24C0000BF013800BFFCD181E76A
:1052E00001F03CFB08E202F0FDFA05E202F0A4FD49
:1052F00002E240F2B4010020C2F200010860384628
:105300004FF48041FFF7BAFB38464FF40041FFF7F6
:10531000B5FBFDF731FFEFE103F0E6F9ECE144F610
:105320004A30C0F24C0000BF013800BFFCD1FDF78D
:10533000FDF9E1E101F0E8F9DEE142F62850C0F2C2
:10534000311000BF013800BFFCD1D2E120684FF41A
:1053500000410428C7BF01208AF800000130206006
:105360003846FFF78BFB44F64A30C0F24C0000BFD2
:10537000013800BFFCD138464FF40041FFF780FBF5
:1053800044F64A30C0F24C00013800BFFCD1B3E112
:1053900038464FF40041FFF771FB44F64A30C0F243
:1053A0004C0000BF013800BFFCD138464FF400412B
:1053B000FFF766FB44F64A30C0F24C00013800BFEC
:1053C000FCD140F2B4010120C2F20001086038466D
:1053D0004FF48041FFF754FB304600BF013800BF57
:1053E000FCD189E101F078FC86E101F0A5FE83E1C2
:1053F0009AF80000162805D14AF6C810C0F6010038
:1054000004F0F4FF4EF2DE10C0F2E400013800BFF9
:10541000FCD140F68970C2F20000007802288CBFEF
:10542000192017208AF8000066E101F011FF63E1FE
:1054300040F2081540F2B402C2F20005C2F20002C6
:105440002868116801300029286000F06C81002074
:10545000106038464FF48041FFF710FB6AE102F01C
:1054600091F849E147F67200C0F27D10013800BFA3
:10547000FCD100F0C7FF4EF2DE10C0F2E40000BF26
:10548000013800BFFCD140E002F0F2F834E102F054
:1054900069F931E14EF2DE10C0F2E400013800BFDC
:1054A000FCD140F68C7B4AF69120C2F2000BC0F68C
:1054B0000100594605F07CF85846FF21FAF76DFEC9
:1054C00044F64A30C0F24C00013800BFFCD140F62F
:1054D0008970C2F20000007849F294668AF80000F0
:1054E000C0F298060FF2FC3B06E102F039FC03E142
:1054F000304600BF013800BFFCD1FDE047F6720026
:10550000C0F27D10013800BFFCD140F68970C2F2B4
:10551000000000788AF80000EEE04AF66010C0F65D
:105520000100A34604F062FF4EF2DE10C0F2E40078
:10553000013800BFFCD140F64070C2F200000121EA
:1055400001604AF6F450C0F6010090E8AE0040F663
:105550008C74C2F2000484E8AE00818A807DA1824E
:10556000A07500F0EBFE42F62850C0F2311000BFEB
:10557000013800BFFCD140F68970C2F2000000780B
:1055800041F200078AF80000C4F201075C460FF2FE
:10559000543BB1E04AF66010C0F6010004F026FF6B
:1055A0004EF2DE10C0F2E400013800BFFCD140F63C
:1055B0004070C2F20000012101604AF65060C0F65E
:1055C0000100D0E900E2D0E90237D0E90454D0E983
:1055D000066CD0E9081040F68C7BC2F2000BCBE9D8
:1055E0000810CBE900E2CBE90237CBE90454CBE960
:1055F000066C00F0A3FE49F29460C0F2980000BF70
:10560000013800BFFCD140F2C8010120C2F2000104
:10561000086040F280010D20C2F2000108606220A3
:1056200041F2000749F2946641F644048AF800000A
:10563000C4F20107C0F29806C2F200040FF2A42BD4
:105640005AE040F2C8010220C2F2000108604EF2A6
:10565000DE10C0F2E40000BF013800BFFCD140F210
:10566000C8010220C2F20001086040F280010D2052
:10567000C2F20001086062208AF800003CE09AF85B
:10568000000040F68971C2F2000108704EF67E20DB
:10569000013800BFFCD140F64461C2F20001087835
:1056A00003283DD340F280010D20C2F200010860C2
:1056B00040F689716220C2F200018AF80000087089
:1056C0001AE002F07BFD17E000F0A0FD44F64A303E
:1056D000C0F24C00013800BFFCD10DE06AA005F01B
:1056E000B5F840F6F060C0F2277000BF013800BF87
:1056F000FCD1FDF7A9FE00BF9AF800002B2808BFD7
:1057000002F0D2FC9AF80000622829D09AF8000032
:10571000612825D09AF8000063287FF463AD1FE06C
:1057200000200870E8E70120106038464FF48041FF
:10573000FFF7A6F944F24220C0F20F00013800BF83
:10574000FCD140F6BC61C2F20001286809788842A9
:10575000D2DB642028600E208AF80000CCE700BF6E
:105760009AF8000040F64465B3466228C2F200058C
:105770000DD1287803280AD34BA004F019FF44F672
:105780004A30C0F24C0000BF013800BFFCD138469F
:105790004FF46041FFF772F942F6285040F280045E
:1057A00040F66476C0F23110C2F20004C2F2000684
:1057B000013800BFFCD120680D280FD003282CD160
:1057C0004AF6BB10C0F6010004F010FE48F2186063
:1057D000C5F2A340013800BFFCD11EE040F68C703A
:1057E00040F20802C2F2000032A1C2F2000204F04C
:1057F000EFFE00F0A3FD4FF2E400C0F2FA2000BF7C
:10580000013800BFFCD14AF6BB10C0F6010004F01D
:10581000EDFD5846013800BFFCD15846013800BFA5
:10582000FCD12068032818D09AF8000061280CD019
:105830009AF8000063287FF4EBA900BFBBF1010BCD
:1058400000BFFBD109E000BFFEE746F6E800C1F665
:10585000CD5000BF013800BFFCD14EF60C52CEF245
:105860000002BFF34F8F1068042100F4E060C0F223
:10587000FA5108431060BFF34F8F00BFFEE700BF2F
:10588000474F2025730D0A00524543454956452090
:10589000464F54412046524F4D2045434D20534FD3
:1058A0004654574152450D00444953434F4E4E45CF
:1058B00043540000524553544152542042592053FE
:1058C0004F4654524553455420434F4E4649472E68
:1058D0002043757272656E74204D43552056657273
:1058E0002025730041540D0A000000002DE9F04FFF
:1058F00081B08246032818DB42F69010C2F2000005
:105900000021016042F69410C2F2000040F634011A
:10591000FAF743FC40F68C7041F28C01C2F20000B1
:10592000C2F20001FF22FAF71FFC40F68C76C2F2A9
:105930000006707A222864D140F68871C2F2000114
:105940002B20087040F64C60C2F200003221FAF7BA
:1059500024FC43F6FC1840F6687B40F21C1941F227
:105960009430C2F200080024C2F2000BC2F2000917
:10597000C2F200004FF49661C8E90044C8E902444D
:10598000C8F81040CBE90044CBE90244CBF8104002
:10599000C9E90044C9E90244C9F81040FAF7FDFB1F
:1059A0000A254FF0000C00210022002304E000BF74
:1059B000642D05F1010535DA705D2C38B0FA80F000
:1059C00040090544775D222F2CD00444032CEFD8E6
:1059D000DFE804F0060F130209F803700133E7E76C
:1059E00040F64C60C2F2000000F80C700CF1010CA3
:1059F000DEE708F801700131DAE70BF802700132D6
:105A0000D6E7BAF1000F72D04AF6B920C0F601000D
:105A100004F01CFF49F29460C0F29800013800BF06
:105A2000FCD17CE04AF61410C0F6010004F0DEFC64
:105A300046F65610C0F27840013800BFFCD141F262
:105A4000943540F68879C2F2000545F63A2744F6C7
:105A50004A362B24C2F2000928464FF49661C0F260
:105A60007377C0F24C0689F80040FAF796FB40F6CF
:105A70004C6243F6FC1371A1C2F20002C2F20003B1
:105A80002846CDF800B004F0A3FD41F64408BAF171
:105A9000000FC2F200084FD041F294354AF691202F
:105AA000C2F20005C0F60100294604F081FD284637
:105AB00004F09CFC002089F80040C8F8000000BFFA
:105AC000013F00BFFCD12B2089F8000041F64800BF
:105AD000C2F20000002101605FA004F0B7FE304672
