:020000040800F2
:10000000583C002045010008D1020008C902000840
:10001000CD020008C10200083904000800000000F9
:10002000000000000000000000000000D9020008ED
:10003000C502000800000000D5020008DD0200082B
:100040005F0100085F0100085F0100085F01000810
:100050005F0100085F0100085F0100085F01000800
:100060005F0100085F0100085F0100085F010008F0
:100070005F0100085F0100085F0100085F010008E0
:100080005F0100085F0100085F0100085F010008D0
:100090005F0100085F0100085F0100085F010008C0
:1000A0005F0100085F0100085F0100085F010008B0
:1000B0005F0100085F0100085F0100085F010008A0
:1000C0005F0100085F0100085F0100085F01000890
:1000D0005F01000829040008310400085F010008DE
:1000E0005F0100085F0100085F0100085F01000870
:1000F0005F0100085F0100085F0100085F01000860
:100100005F0100085F0100085F0100085F0100084F
:100110005F0100085F0100085F0100085F0100083F
:100120005F0100085F0100085F0100085F0100082F
:10013000DFF80CD000F092F800480047C1480008F2
:10014000583C00200648804706480047FEE7FEE787
:10015000FEE7FEE7FEE7FEE7FEE7FEE7FEE7FEE777
:10016000E10200083101000840EA01039B0703D0C7
:1001700009E008C9121F08C0042AFAD203E011F8E6
:10018000013B00F8013B521EF9D27047D2B201E0A8
:1001900000F8012B491EFBD270470022F6E710B58C
:1001A00013460A4604461946FFF7F0FF204610BDE5
:1001B000421C10F8011B0029FBD1801A704710B5B2
:1001C000002200E0521C835C8C5CA34201D1002B16
:1001D000F8D1D8B2E1B2401A10BD30B505460020C2
:1001E000034600E05B1C934205D2EC5CC85C201A1D
:1001F00001D1002CF6D130BD2DE9F05F054600207D
:1002000092469B4688460646814640241BE0284687
:1002100041464746224600F042F853465A46C01A25
:10022000914110D311461846224600F029F82D1AA4
:1002300067EB01084F4622460120002100F020F81C
:1002400017EB00094E41201EA4F10104DFDC4846F3
:1002500031462A464346BDE8F09F0000064C074D54
:1002600006E0E06840F0010394E807009847103486
:10027000AC42F6D3FFF760FF0CA500082CA50008E0
:10028000202A04DB203A00FA02F100207047914056
:10029000C2F1200320FA03F3194390407047202A4B
:1002A00004DB203A21FA02F00021704721FA02F320
:1002B000D040C2F120029140084319467047000027
:1002C000FEE7000070470000FEE70000FEE70000C8
:1002D0007047000070470000704700007047000042
:1002E00081B04EF68851CEF200010A6841F2040056
:1002F00042F47002C4F202000A6050F8041C4FF08D
:10030000000C41F0010140F8041C016844F61F6331
:1003100041F080010160CDF800C0009A9A4207D8F0
:1003200044F62062009B01330093009B9342F9D373
:10033000C0F800C0C0F828C050F8042C4FF6FF7376
:10034000CFF6F6631A4040F8042C4FF41F024260C7
:1003500050F8042C22F4802240F8042C50F8042C8D
:1003600042F4803240F8042C4FF6FE7250F8041C20
:10037000013A4CF10003890301D4002BF6D150F867
:10038000041C890301D400BFFEE7826947F2000123
:1003900042F08052C4F2000182610A684FF6FF7396
:1003A00042F440420A600268CBF2C3730260026802
:1003B0000260026842F480620260026822F4403205
:1003C0000260026842F44032026002681A40026031
:1003D000026842F4C012026050F8042C42F08072AD
:1003E00040F8042C50F8042C9201FBD50A6842F422
:1003F00080320A604A68D203FCD50A6842F40032AF
:100400000A6000BF4A689203FCD5016821F003012D
:100410000160016841F00201016000BF0168090745
:10042000FCD501B07047000080B508F0B1F980BD7F
:1004300080B508F081FA80BDFEE700002DE9F04F9D
:1004400085B040F2181C40F66875C2F2000C40F20C
:10045000182E40F2880640F204030027C2F200057D
:100460004FF0010AC2F2000E0CF144004FF0FF08F9
:1004700042F20149C2F20006C2F200034FF0000B43
:1004800000240490042CC0F20183295D3D2940F032
:10049000FD82601910F8012C432A27D110F8022C94
:1004A000502A23D110F8032C4D2A1FD1049A04F1AD
:1004B0000800611C8CF8FEA0CEF8F8A30BE000BF8A
:1004C000BBF1000F01F1010418BF17700132814226
:1004D000214680F20B816B5C0D2B1370F0D80AFA69
:1004E00003F313EA090F18BF8B46E9E73D2940F0F3
:1004F000CD8210F8012C442A58D110F8022C552A2C
:1005000054D1661CA85D41F220713D2808BFA61C8D
:10051000A85DC2F20001303808608CF843008CF806
:10052000FEA0CEF8F8A303F0B1FD03F01FFF40F2E8
:100530001C00C2F20000006840F2181C002140F6C6
:100540004472C2F2000CC0F60201C2F20002116055
:10055000D0B140F21822C2F200020023ACF1010136
:10056000043AC0F6020300BF53F8044BFF2C42F8D4
:10057000044F28BF4446013801F8014FF4D140F63A
:100580004470C2F2000003609CF844000130C0B225
:10059000022880F02B8140F6307044F24541C2F2CF
:1005A0000000C4F64D11C0E9001127E13D2940F0DB
:1005B0006D8210F8012C4C2A2AD110F8022C572AEF
:1005C00026D110F8032C4D2A22D104F10E010CF192
:1005D0001402631C00208CF8FEA0CEF8F8A30CE0F7
:1005E0002C2E08BF18460028A3F1010618BF17706B
:1005F000013301328E4280F27981EE5C0D2E16704D
:10060000EED80AFA06F414EA090FE9D01846EAE728
:100610003D2940F03B8210F8012C4C2A40F0AE807E
:1006200010F8022C572A40F0A98010F8032C4E2A0B
:1006300040F0A48010F8042C452A40F09F8001343B
:10064000285D41F220713038C2F200018CF8FEA022
:10065000CEF8F8A3086098BF38468CF84C0003F039
:1006600015FD03F083FE40F21C00C2F2000000689A
:1006700040F2181C002140F64472C2F2000CC0F691
:100680000201C2F200021160F0B140F21822C2F27F
:1006900000020023ACF10101043AC0F6020300BFDE
:1006A00053F8046BFF2E42F8046F28BF464601380A
:1006B00001F8016FF4D140F6447040F28806C2F2AE
:1006C0000000C2F2000603609CF844000130C0B292
:1006D000022880F0AC8340F6307044F24541C2F20B
:1006E0000000C4F64D11C0E90011A8E303F0CEFCF0
:1006F00003F03CFE40F21C00C2F20000006840F231
:10070000182E40F2181C002140F64472C2F2000E6E
:10071000C2F2000CC0F60201C2F200021160D8B1B0
:100720000023ACF10101AEF10402C0F6020300BFE8
:1007300053F8046BFF2E42F8046F28BF4646013879
:1007400001F8016FF4D140F6447040F28806C2F21D
:100750000000C2F2000603609CF844000130C0B201
:10076000022839D240F6307044F24541C2F200000E
:10077000C4F64D11C0E90011002049E03D2940F0C8
:10078000858110F8012C472A47D110F8022C462AFF
:1007900043D110F8032C432A3FD1601C00210022D2
:1007A0008CF8FEA0CEF8F8A30FE000BF002A06BF29
:1007B0000CF8013000220CF80170002A01F101014F
:1007C00008BF01300F2900F0C6822B5C2C2BEDD125
:1007D0000CF801700246F0E7DCE9110140F63072D6
:1007E000C2F20002C2E90001002011E0DCE91101BF
:1007F00040F63072C2F20002C2E90001344640F213
:10080000182E40F288060120C2F2000EC2F2000645
:1008100040F20403C2F2000339E13D2940F0368181
:1008200010F8012C542A40F0C78010F8022C532AEB
:1008300040F0C28010F8032C522A40F0BD8010F81E
:10084000042C572A40F0B880407841F220713038AB
:10085000C2F2000104F102020860A95C8CF8FEA05B
:10086000CEF8F8A34FF0000798BF38462C2908BFF0
:10087000E21CA95C41F2702400268CF841002C296E
:1008800008BF0132A9184FF0000BC2F20004039216
:10089000CB5DBBF1000F5A4608BFBB46002B18BF0B
:1008A0009346BBF1000F18BF3346E3550137052FC0
:1008B000EED1ABF1010140F6A8620329C2F20002B9
:1008C000166000F24E83164641F22074C2F2000414
:1008D000DFE811F004006B037B038D0341F270210C
:1008E000C2F200010978303921609FE3295C0CF1E4
:1008F00023032C2908BF0130295C2C2908BF0130B3
:1009000000F10E0200210BE02C2E08BF0146002949
:1009100018BF1F70904200F1010003F101030ADAD1
:100920002E5C0D2E1E70EFD80AFA06F414EA090F99
:10093000EAD00146EBE7685C0CF132022C2808BFD4
:100940000131685C4FF0000B2C2808BF013101F128
:100950000E0009E0BBF1000F01F1010418BF177090
:100960000132814221460ADA6B5C0D2B1370F1D8FB
:100970000AFA03F313EA090F18BF8B46EAE79CF85B
:1009800014000130C0B20228C0F08B809CF819001E
:10099000FF2800F08680002800F08380DCE9050154
:1009A000DCF81F2043F62006C2F20006DCF81C30FB
:1009B000C6F80B200BC689E03D2967D110F8011C51
:1009C000542963D110F8021C53295FD110F8031C7D
:1009D00052295BD110F8041C482957D140788CF873
:1009E000FEA0B0F1300241F22070C2F20000CEF859
:1009F000F8A302604FF0000198BF0A46A31C8CF8D0
:100A000042200192D6B2EA5C40F2FC00CEF80861C6
:100A10002C2A08BFE31CEA5CC2F20000066041F227
:100A2000702000962C2A08BF0133EA184FF0000B03
:100A3000C2F200000293565CBBF1000F5B4608BF98
:100A40008B46002E18BF9B46BBF1000F18BF3E46D9
:100A5000465401310529EED1ABF1010240F6A46400
:100A6000032AC2F200042760039100F28983DFE8C1
:100A700012F00400A403B103C003027841F2207015
:100A8000303AC2F200000260D5E300BF0120002826
:100A900000F08284186801348442FFF6F3AC00F061
:100AA0007BBC43F62000C2F200003221017343F206
:100AB0002B61C3F63201016043F23561C3F2381194
:100AC000416043F23311C3F2384181609CF8230046
:100AD0000130C0B2022814D39CF82800FF2810D09F
:100AE00078B1DCF82300DCF82E2043F63006C2F2A1
:100AF0000006DCF82710DCF82B30C6F80B200BC6FC
:100B000015E043F63001C2F2000143F63910888146
:100B100043F22B60C3F63200086043F23230C3F276
:100B20003100486043F63210C3F2331088609CF8FD
:100B300032000130C0B2022814D39CF83700FF28DD
:100B400010D078B1DCF83200DCF83D2043F64006E6
:100B5000C2F20006DCF83610DCF83A30C6F80B209A
:100B60000BC614E043F640013220C2F20001888136
:100B700043F22B60C3F63200086043F23110C3F237
:100B80003230486043F23430C3F23170886003F091
:100B90007DFA03F0EBFB40F21C00C2F2000000689B
:100BA000002140F6447240F2181C40F2182EC0F6A4
:100BB0000201C2F20002C2F2000CC2F2000E116089
:100BC000B0B10023ACF10101AEF10402C0F60203A2
:100BD00053F8046BFF2E42F8046F28BF46460138D5
:100BE00001F8016FF4D140F64470C2F200000360D6
:100BF0009CF814000130C0B2022812D39CF81900EE
:100C0000FF280ED068B1DCE90501DCF81F2043F6AF
:100C10002006C2F20006DCF81C30C6F80B200BC61A
:100C200014E043F62000C2F200003221017343F2C7
:100C30002B61C3F63201016043F23561C3F2381112
:100C4000416043F23311C3F2384181609CF82300C4
:100C50000130C0B2022814D39CF82800FF2810D01D
:100C600078B1DCF82300DCF82E2043F63006C2F21F
:100C70000006DCF82710DCF82B30C6F80B200BC67A
:100C800015E043F63001C2F2000143F639108881C5
:100C900043F22B60C3F63200086043F23230C3F2F5
:100CA0003100486043F63210C3F2331088609CF87C
:100CB00032000130C0B2022814D39CF83700FF285C
:100CC00010D078B1DCF83200DCF83D2043F6400665
:100CD000C2F20006DCF83610DCF83A30C6F80B2019
:100CE0000BC614E043F640013220C2F200018881B5
:100CF00043F22B60C3F63200086043F23110C3F2B6
:100D00003230486043F23430C3F2317088609CF86E
:100D1000440040F28806013040F20403C0B2C2F23F
:100D20000006C2F2000302280BD240F6307044F2F3
:100D30004541C2F20000C4F64D11C0E90011002087
:100D4000A5E6DCE9110140F63072C2F20002C2E908
:100D5000000100209BE60CF10E00511C4FF0000B2F
:100D6000052200BF6B5C2C2B08BF8B46BBF1000F2C
:100D700014BF3B460131013A00F8013FF2D10BF1BB
:100D80000104285D41F220712C2808BF0BF10204F8
:100D9000285DC2F200012C2808BF0134285D3038DC
:100DA000086003F073F903F0E1FA40F21C00C2F2AC
:100DB00000000068002140F6447240F2181C40F226
:100DC000182EC0F60201C2F20002C2F2000CC2F2FA
:100DD000000E1160D0B10023ACF10101AEF10402AC
:100DE000C0F6020353F8046BFF2E42F8046F28BFCD
:100DF0004646013801F8016FF4D140F6447040F2E4
:100E00008806C2F20000C2F2000603609CF84400AB
:100E10000130C0B202281AD240F6307044F2454187
:100E2000C2F20000C4F64D11C0E9001117E0DCE980
:100E3000110140F63072C2F20002C2E90001012045
:100E40004FF0000B40F2182EC2F2000EE0E4DCE995
:100E5000110140F63072C2F20002C2E900019CF8B2
:100E60000000FF281BD09CF80110FF2917D09CF828
:100E70000220FF2A13D090B189B182B14FF0FF3028
:100E80000CEB000149783318A1F130024B2A00F134
:100E9000010028BF39460E285970F1D10FE043F206
:100EA0004D20C5F24D00306044F64C60C4F6415010
:100EB000706052203072C6F80970A6F80D709CF868
:100EC0000F20501CC0B2022818D240F2AC0143F2ED
:100ED0003100C2F20001C3F2300008604AF2DC00C7
:100EE000C0F600000F7108F057FD40F2182E40F2D6
:100EF000181CC2F2000EC2F2000C09E09CF81300AC
:100F0000DCF80F1040F2AC02C2F200021071116066
:100F10009CF8410040F20403411CC9B2C2F2000334
:100F2000012912D840F27C00C2F20000006840F2B1
:100F3000BC01C2F20001087040F20011C2F20001CF
:100F400008608CF841000020A1E540F2BC01C2F22B
:100F50000001087040F20011C2F200010860002098
:100F600095E5A3782178627802934FF47A7330394B
:100F70005A4342F21073E67811FB0321029B64226C
:100F800013FB021106EB860201EB42014DF2200237
:100F9000891A227940F6A86341F22074C2F2000354
:100FA000303AC2F2000419603EE041F27022C2F20F
:100FB000000211784FF62063527801EB8101CFF6E1
:100FC000FF7303EB410131602DE041F27023C2F267
:100FD000000319785A789B7802EB8202029364230B
:100FE000594301EB4201A1F5A55131601AE041F2EC
:100FF0007026C2F2000631787278B378F67830390C
:101000000296642672434FF47A7611FB062103EBB5
:10101000830201EB420140F6A862A1F5A551C2F29C
:1010200000021160029A303A11442260A1F2A152EA
:1010300012F5B46F0A4638BF4FF4B462226048F626
:101040008904C8F6880454FB011140F6B463C2F267
:1010500000031A604B1103EBD17154FB022340F6DD
:101060002464C2F200045E11216006EBD373CEE962
:101070006421411CC3EB031340F6A864C9B2A2EB80
:101080008303C2F2000401292360CEF8983111D8FD
:1010900040F27C00C2F20000006840F2BC01C2F2E3
:1010A0000001087040F20011C2F2000108608CF8E3
:1010B00041000AE040F2BC01C2F20001087040F2B7
:1010C0000011C0B2C2F20001086040F28806039C21
:1010D000C2F2000602F0DAFF03F048F940F21C0009
:1010E000C2F200000068002140F64472C0F602011E
:1010F000C2F20002116000B340F2181140F218224F
:10110000C2F20001C2F2000200230139043AC0F623
:10111000020353F8046BFF2E42F8046F28BF4646C3
:10112000013801F8016FF4D140F6447040F28806AE
:10113000C2F20000C2F2000603603C4401F03AF93A
:1011400040F2181CC2F2000C9CF844000130C0B2FE
:1011500002280AD240F6307044F24541C2F2000043
:10116000C4F64D11C0E9001107E0DCE9110140F6B9
:101170003072C2F20002C2E900010020002761E6DD
:10118000027843784FF47A7486780146C078303A12
:10119000634342F2107412FB0432642316FB0322F1
:1011A00000EB800340F6A46402EB43024DF2200002
:1011B0000B79C2F20004121A09E0027843784FF664
:1011C000206002EB8202CFF6FF7000EB4202303B60
:1011D00022602AE00278437886786420424303EB59
:1011E000830302EB4302A2F5A5522260A6F130036D
:1011F0001BE0027843788678C4786420303A434311
:101200004FF47A7012FB003206EB860302EB4302C6
:1012100040F6A460A2F5A552C2F20000A4F130038A
:1012200040F6A4640260C2F2000441F22070C2F2EF
:1012300000001A440360226042F261734DF6A0047C
:10124000D31ACFF6FF74A342134642F2607138BF3F
:1012500042F260735E1A0134A64203600FD2062088
:10126000CEE9690140F2F401C2F20001086040F6E3
:101270002060C2F20000172101603B2224E045F605
:1012800006305E09C0F2B050A6FB006448F6890043
:10129000C8F6880050FB022240F2F401561106EB1A
:1012A000D27250FB033640F62060C2F200000260AA
:1012B000721102EBD672C2EB0212C2F20001A3EB72
:1012C0008202CEE969430C6040F62460C2F200005D
:1012D000036840F6A460C2F200000260019840F288
:1012E0008806411CC9B2C2F200060129CEF89C3121
:1012F000CEF8A0210CD840F27800C2F200000068BD
:1013000040F2FC01C2F2000108608CF8420005E0E6
:1013100040F2FC000099C2F20000016002F0B6FE4B
:1013200003F024F840F21C00C2F200000068002123
:1013300040F64472C0F60201C2F20002116000B32E
:1013400040F2181140F21822C2F20001C2F200026B
:1013500000230139043AC0F6020353F8046BFF2E50
:1013600042F8046F28BF4646013801F8016FF4D1F6
:1013700040F6447040F28806C2F20000C2F2000655
:101380000360DDE902100C1801F014F840F2181C9B
:101390000020C2F2000C55E540F66870C2F2000071
:1013A000FF21FEF7FAFE05B0BDE8F08F2DE9F04F02
:1013B00087B040F2181640F2000940F6687AC2F28F
:1013C000000640F2182C41F2207B40F20404034650
:1013D0004FF0000EC0F60209C2F2000AC2F2000C81
:1013E00006F14400C2F2000BC2F2000400250027FF
:1013F00005900693042DC0F259811AF805103D2975
:1014000040F0548105EB0A0010F8012C432A2BD13F
:1014100010F8022C502A27D110F8032C4D2A23D182
:101420000120059AB34686F8FE00CCF8F8030126A1
:1014300005F10800691C42F201440AE0002F01F1A5
:10144000010518BF82F800E001328142294680F28E
:10145000CE801AF801300D2B1370EFD806FA03F383
:10146000234218BF0F46E9E73D2940F01F8110F8DD
:10147000012C442A54D110F8022C552A50D1681C52
:101480001AF800104FF001083D2908BFA81C1AF8EF
:1014900000100546A1F13000CBF8000086F84300AB
:1014A00086F8FE80CCF8F883B346664602F0EEFD7F
:1014B00002F05CFF40F21C00C2F20000006840F63F
:1014C00044710028C2F20001C1F8009000F00C81C4
:1014D000ABF10101321F4B46B446FF2653F8044BD3
:1014E000FF2C42F8044F28BF3446013801F8014F61
:1014F000F4D140F64470C2F20000036040F21816C6
:1015000041F2207B069B40F204044FF00108C2F236
:101510000006C2F2000B4FF0000EC2F20004C7E05A
:101520003D2940F0C38010F8012C4C2A31D110F82D
:10153000022C572A2DD110F8032C4D2A29D1012035
:1015400086F8FE00CCF8F8033046012605F10E01BE
:10155000844600F114026B1C002042F201440DE0AD
:101560002C2F08BF18460028A3F1010718BF82F8E6
:1015700000E0013301328F4280F2C1801AF803701B
:101580000D2F1770ECD806FA07F52542E8D018465B
:10159000E9E73D2940F08A8010F8012C472A5ED106
:1015A00010F8022C462A5AD110F8032C432A56D19F
:1015B000012140F6447886F8FE10CCF8F81301308B
:1015C000691C00230022C2F2000809E0002B06BFBC
:1015D000B754002306F802E001320F2A00F03282ED
:1015E000875C2C2FF2D18B1806F802E0F4E702F0AA
:1015F0004DFD02F0BBFE40F21C00C2F2000000688C
:1016000040F644710028C2F20001C1F8009059D0A0
:1016100040F2182CABF10101C2F2000C41F2207B28
:10162000ACF104024B46C2F2000BFF2653F8044B08
:10163000FF2C42F8044F28BF3446013801F8014F0F
:10164000F4D140F64470C2F2000040F21816036074
:101650004FF00008C2F200064FF0000EECE13D2909
:1016600024D110F8012C542A0CD110F8022C532A42
:1016700008D110F8032C522A04D110F8042C572A50
:1016800000F0F9823D2911D110F8011C54290DD127
:1016900010F8021C532909D110F8031C522905D156
:1016A00010F8040C482800F0E68200BF4FF0010853
:1016B000B8F1000F00F0DF82206801358542FFF6A7
:1016C00099AED8E240F2182C41F2207040F20404A6
:1016D000069B4FF00008C2F2000C4FF0000EC2F261
:1016E0000000C2F2000407E041F22070069BB446FD
:1016F000C2F200004FF0000E5E468346D8E71AF8AB
:1017000000100CF123032C2908BF01301AF8001037
:101710002C2908BF013000F10E0200210DE000BFAE
:101720002C2F08BF0146002918BF83F800E0904223
:1017300000F1010003F101030ADA1AF800700D2F1D
:101740001F70EDD806FA07F52542E9D00146EAE711
:101750001AF801000CF132022C2808BF01311AF8E6
:10176000010000272C2808BF013101F10E0009E01B
:10177000002F01F1010518BF82F800E0013281421B
:1017800029460ADA1AF801300D2B1370F0D806FA40
:1017900003F3234218BF0F46EAE79CF8140066469D
:1017A0000130C0B2022811D3707EFF280ED068B17C
:1017B000D6E90501D6F81F20F36943F62006C2F2E8
:1017C0000006C6F80B200BC6664614E043F6200060
:1017D000C2F200003221017343F22B61C3F63201E1
:1017E000016043F23561C3F23811416043F23311B5
:1017F000C3F23841816096F823000130C0B202285C
:1018000015D396F82800FF2811D080B1D6F8230010
:10181000D6F82710D6F82E20D6F82B3043F630060F
:10182000C2F20006C6F80B200BC6664615E043F66A
:101830003001C2F2000143F63910888143F22B6077
:10184000C3F63200086043F23230C3F23100486020
:1018500043F63210C3F23310886096F8320001303C
:10186000C0B2022815D396F83700FF2811D080B1F6
:10187000D6F83200D6F83610D6F83D20D6F83A30F1
:1018800043F64006C2F20006C6F80B200BC66646B9
:1018900014E043F640013220C2F20001888143F295
:1018A0002B60C3F63200086043F23110C3F23230CD
:1018B000486043F23430C3F23170886002F0E6FBD6
:1018C00002F054FD40F21C00C2F20000006840F635
:1018D000447140F2182CC2F20001C2F2000C4FF029
:1018E000000EC1F80090C8B1711EACF104024B4665
:1018F000FF2600BF53F8044BFF2C42F8044F28BFCB
:101900003446013801F8014FF4D140F6447040F2FA
:101910001816C2F20000C2F200060360307D0130EA
:10192000C0B2022810D3707EFF280DD060B1D6E976
:101930000501D6F81F2043F62004C2F20004F36923
:10194000C4F80B200BC414E043F62000C2F20000E0
:101950003221017343F22B61C3F63201016043F27D
:101960003561C3F23811416043F23311C3F238419B
:10197000816096F823000130C0B2022814D396F893
:101980002800FF2810D078B1D6F82300D6F82E20F2
:1019900043F63004C2F20004D6F82710D6F82B30F4
:1019A000C4F80B200BC415E043F63001C2F200016D
:1019B00043F63910888143F22B60C3F63200086089
:1019C00043F23230C3F23100486043F63210C3F2C2
:1019D0003310886096F832000130C0B2022814D368
:1019E00096F83700FF2810D078B1D6F83200D6F834
:1019F0003D2043F64004C2F20004D6F83610D6F873
:101A00003A30C4F80B200BC414E043F640013220F6
:101A1000C2F20001888143F22B60C3F632000860F5
:101A200043F23110C3F23230486043F23430C3F233
:101A3000317088604FF0000840F20404069BC2F247
:101A4000000435E65D1C03EB0A021AF805009778DE
:101A5000F17BD47892F804C0CDE900070FF6D400EA
:101A60002A460294CDF80CC007F096FF0027002408
:101A70001AF8056040F21810C2F200002C2E204423
:101A80004FF0000208BF2F46002F08BF3246C27336
:101A90000FF6C00029463B46009607F07DFF44F252
:101AA0004220C0F20F0000BF013800BFFCD101345A
:101AB000052C05F10105DBD17D1C1AF8050040F26B
:101AC000181B2C2808BFBD1C1AF80500C2F2000B19
:101AD0002C2808BF01351AF8050041F2207630386D
:101AE0009BF80F109BF810209BF811309BF812C048
:101AF000C2F2000630600FF66C00CDF800C007F0AF
:101B00004BFF02F0C3FA02F031FC40F21C00C2F2BB
:101B10000000006840F2182C40F28804C2F2000C69
:101B20004FF0000EC2F200044146C8F80090C0B168
:101B3000ABF10101ACF104024B464FF0FF0B00BFCB
:101B400053F8046BFF2E42F8046F28BF5E4601383D
:101B500001F8016FF4D140F2181BC2F2000BC8F873
:101B600000309BF800005B46FF281DD05978FF2904
:101B70001AD09A78FF2A17D0B0B1A9B1A2B141F218
:101B8000207B4FF0FF30C2F2000B1E46311849781F
:101B90002318A1F130024B2A00F1010028BF714641
:101BA0000E285970F2D114E043F24D20C5F24D00D9
:101BB000206044F64C60C4F641506060522041F20F
:101BC000207B2072C4F809E0A4F80DE0C2F2000BFB
:101BD0001E46F27B501CC0B2022817D240F2AC0164
:101BE00043F23100C2F20001C3F2300008604AF251
:101BF000DC00C0F6000081F804E007F0CDFE40F202
:101C0000182C4FF0000EC2F2000C08E0F07CD6F861
:101C10000F1040F2AC02C2F200021071116096F88F
:101C2000410040F20404411C069BC9B2C2F2000408
:101C3000012913D840F27C00C2F20000006840F293
:101C4000BC01C2F20001087040F20011C2F20001B2
:101C5000086086F841004FF0000829E540F2BC0119
:101C6000C2F20001087040F20011C2F200010860E7
:101C70004FF000081CE5082B5AD0072B40F050838A
:101C800001209AF8087086F8FE00CCF8F8039AF85C
:101C90000900B7F1300831464FF00906CBF8008053
:101CA0004FF0000598BFA8462C2808BF0A261AF84E
:101CB000060041F27024C2F2000481F841802C2811
:101CC00020464FF4966108BF0136FEF766FA0AEB2C
:101CD00006000021002200BF835C00290E4608BFD9
:101CE0001646002B08BF3146002918BF2B46A354C7
:101CF0000132052AF0D140F6A8600139C2F2000095
:101D000000220329026000F2708040F2182CC2F217
:101D1000000CDFE801F002ADBAD8217840F21814C7
:101D20003039CBF80010C2F2000488BF016007E12F
:101D3000012086F8FE00CCF8F8039AF808009AF81B
:101D400009103038CBF800004FF0000598BF284646
:101D500086F84200C0B20927CCF8080140F2FC0224
:101D60002C2908BF0A271AF8071041F27024C2F282
:101D70000002C2F2000410602C2920464FF4966144
:101D800008BF0137FEF709FA002000211AF80720E2
:101D90006554212A12BF002A00280846002818BFCF
:101DA0002A46625401F1010108BF01370529EDD12E
:101DB00040F6A46C0138C2F2000C00210328CCF8D4
:101DC000001000F23B8140F21825C2F20005DFE866
:101DD00010F0040085019301B40120783038CBF86D
:101DE000000088BFCCF80000E7E121786278303944
:101DF00042F2107344F2804659434FF47A73CFF69F
:101E0000FF7602FB03F712FB03624BF6813301609E
:101E10009F42CBF8002024BF11440160A1786422C6
:101E20004EF6405740F2182C01FB02F3CFF6FF7735
:101E3000C2F2000C11FB0271B3F5965FCBF80010F3
:101E400002D9026811440160E1784FF6206301EB8A
:101E500081014A00CFF6FF7303EB4101B2F5F07F39
:101E6000CBF8001002D902681144016022795AE0CF
:101E70002278A2F13001312ACBF8001022BF01EB09
:101E800081014900016062784DE0312F03D3217850
:101E90003039CBF80010DBF8002064215143012ACF
:101EA000016003DB6278303ACBF80020DBF80030C9
:101EB00003EB83025200012BCBF80020A4BF114496
:101EC0000160A2782FE022784EF64057A2F130014F
:101ED000312ACBF8001022BF4FF47A7251430160CF
:101EE0006178642201FB02F3CFF6FF7711FB0271E8
:101EF000B3F5965FCBF8001002D902681144016077
:101F0000A1784FF6206301EB81014A00CFF6FF7301
:101F100003EB4101B2F5F07FCBF8001002D9026863
:101F200011440160E27840F21814A2F13001312A24
:101F3000C2F20004CBF8001002D302681144016021
:101F4000016848F68907B1F5B46FCBF80010C4BF3B
:101F50004FF4B46202600268C8F68807002ADCBF4A
:101F60004FF4B4620260026840F6B46357FB022685
:101F7000C2F200031A60731100253B2AC8BF03EBAD
:101F8000D67540F6246357FB0117C2F200031D60AB
:101F90007B1103EBD773C3EB0313A1EB8301016048
:101FA00008F10100C0B20128CCE96425CCF89811F1
:101FB00011D840F27C00C2F20000006840F2BC017F
:101FC000C2F20001087040F20011C2F20001086084
:101FD00084F841000CE040F2BC00C2F2000040F284
:101FE000001180F800805FFA88F0C2F200010860FA
:101FF00040F6447BC2F2000B02F048F802F0FEF912
:1020000040F21C00C2F200000068CBF8009090B1D2
:1020100040F21822C2F20002611E043A59F8043B51
:10202000FF2B42F8043F28BFFF23013801F8013F8E
:10203000F4D1CBF8009000F0BDF971E1217844F2C1
:102040008043A1F130003129CBF8000022BF42F2D9
:1020500010714843CCF8000060784FF47A71CFF6E5
:10206000FF7340F2182500FB01F210FB01304BF624
:102070008131C2F200058A42CBF8000004D3DCF8BB
:1020800000100844CCF80000A07864214EF64053BC
:1020900000FB01F2CFF6FF7310FB0130B2F5965F43
:1020A000CBF8000004D9DCF800100844CCF800009C
:1020B000E0784FF6206200EB80004100CFF6FF721F
:1020C00002EB4000B1F5F07FCBF8000004D9DCF85A
:1020D00000100844CCF80000217963E02178A1F1D8
:1020E00030003129CBF8000022BF00EB8000400017
:1020F000CCF80000617855E021784FF62062A1F11C
:1021000030003129CBF8000022BF64214843CCF8CD
:1021100000006078CFF6FF7200EB8000410002EB18
:102120004000B1F5F07FCBF8000004D9DCF80010D6
:102130000844CCF80000A17834E021784EF64053F2
:10214000A1F130003129CBF8000022BF4FF47A71A1
:102150004843CCF800006078642100FB01F2CFF620
:10216000FF7310FB0130B2F5965FCBF8000004D985
:10217000DCF800100844CCF80000A0784FF620628C
:1021800000EB80004100CFF6FF7202EB4000B1F59A
:10219000F07FCBF8000004D9DCF800100844CCF83C
:1021A0000000E178A1F130003129CBF8000004D320
:1021B000DCF800100844CCF80000DCF800004DF614
:1021C000A00240F6B06442F26171CFF6FF72C2F233
:1021D0000004411ACBF80000914220603CBF42F25B
:1021E0006071CBF80010DBF8001042F26073CF1A78
:1021F0000132974240F62067DA4640F2F40BC2F211
:102200000007C2F2000BE04608D20620C5E96903C8
:10221000CBF80000172038603B2032E045F606334B
:102220004A09C0F2B053A2FB03234FF4B46203FB8C
:1022300012069FED521A00EE106AB8EEC00A80EE48
:10224000010AC5E96931CBF80030CCF8006007F02D
:10225000C7FB48F68900C8F6880050FB066040F2CC
:102260001825411101EBD070C0EB0010C446C2F23A
:102270000005BDEEC00AA6EB800087ED000ACAF893
:10228000006040F62461C2F20001096840F644761D
:10229000C5F89C11D5F8A811C2F20006CCF80000D0
:1022A000C5F8A001216001F0F1FE02F0A7F840F2AC
:1022B0001C00C2F200000068C6F8009098B140F21D
:1022C0001811C2F2000101392A1F00BF59F8043B5E
:1022D000FF2B42F8043F28BFFF23013801F8013FDC
:1022E000F4D1C6F8009000F065F840F21810C2F280
:1022F000000090F8422040F2FC00C2F200000368A7
:10230000D8F800003968DBF8007026688DE8830093
:1023100040F668711AA0C2F20001039607F03CFB78
:1023200040F66870C2F20000FF21FDF736FF07B0EB
:10233000BDE8F08F0D0A626566666F722025642025
:10234000256420256420256420256420256420251B
:10235000640D0A000D0A25642025642025642025CB
:10236000640D0A000D0A62656673202564202564E9
:102370002025642025640D0A000000000000704242
:10238000336D736720257320666D635F62756666C3
:102390005B36365D20256420656E61626C6568720F
:1023A000737420256420256420256420256420255D
:1023B000640D0A002DE9F04F81B040F21829C2F2F5
:1023C000000940F6206409F5CC76C2F20004D9E990
:1023D00064024ACED9F8A45140F6B46B40F62467A3
:1023E00040F6A868236040F6A46A40F2F404C2F202
:1023F000000BC2F20007C2F20008C2F2000AC2F2E9
:102400000004CBF800003A60C8F80010CAF8006079
:102410000A43256004BF18223A603A68A0F5B46008
:10242000192AA4BF18223A603A68B2F1FF3FDCBF14
:1024300000223A60B1F1FF3FDCBF0021C8F8001074
:1024400010F5B46F08D84FF4B460CBF80000172033
:1024500038603B20C8F80000DBF80010D8F80020F6
:102460003B6849A007F098FA3868D8F80010C0EB2C
:10247000001001EB8000A0F5B46111F5B46FCBF84A
:10248000000008D84FF4B460CBF800001720386083
:102490003B20C8F80000DBF80010D8F800203B68AB
:1024A0003EA007F079FAD9F8A81142F260704DF613
:1024B000A0030A1ACFF6FF7340F6B0659A42C2F243
:1024C00000050FD840F620631722C2F20003062150
:1024D0001A603B232160CAF80030C9E96723C9E9C3
:1024E00069103EE000EE101A9FED311AB8EE400A76
:1024F00080EE010A296007F073FABCEEC01ADAF820
:10250000001011EE100A4FF4B46200FB12169FED9A
:10251000292A00EE106AB8EEC00A80EE020A41F2E3
:10252000207789ED691A84ED001AC2F2000707F0DE
:1025300057FA40F62060BDEEC00AC2F2000080EDFE
:10254000000A48F68900C8F6880050FB06603E6025
:10255000411101EBD070C0EB0010A6EB8000CAF86F
:102560000000286842F25F71884204BF42F2607046
:10257000286009F5CE778ECF0FA02F60009707F067
:102580000BFA01B0BDE8F08F31575253543A202571
:10259000642025642025640D0A0000003257525340
:1025A000543A2025642025642025640D0A0000008B
:1025B0000000B4440000704232485253543A20257F
:1025C000642025642025642025640D0A0000000095
:1025D000B0B5072884BF6420B0BDC1B2BF2222FAC3
:1025E00001F1C9074FF0640413D00BA112A251F8F6
:1025F000201052F8205040F66870C2F20000FDF73B
:10260000DEFD40F2D801C2F200010860002808BFD8
:102610002C462046B0BD00BF28000020320000201C
:102620003A000020430000204E0000205A00002005
:1026300028000020640000200000000001000000CD
:10264000020000000300000004000000120000006F
:1026500000000000150000002DE9F04782B040F6B0
:10266000287041F26C2740F66874C2F20000002125
:10267000C2F20007C2F200040022C0E90011397062
:1026800004E000BFFD2901F1010114DA635C222B93
:1026900004BF01323A70212BF4D1EF29F2DCD3B21E
:1026A000012BEFD02144D1F80130D1F80510C0E959
:1026B0000031FF21E6E740F62875C2F2000540F63A
:1026C0003071C2F2000128460822FDF786FD41F272
:1026D0002076C2F20006024630600FF20C702946E6
:1026E00007F05AF9316840F2700940F2D408C2F29A
:1026F000000900200029C2F20008C9F8000000F01B
:102700008880207A532840F00F81E0794D2840F0EE
:102710000B81A0794C2840F00781A07A44F64A3713
:102720002228C0F24C0740F0318140F6647040F638
:10273000646AC2F200002A21C2F2000A0170504607
:102740003221FDF72AFD40F6387541F27020C2F2C1
:1027500000050026C2F200004FF49661C5E900664C
:10276000FDF71BFD0B200021002200BF235C2C2B5A
:1027700004BF01260130235C222B0AD0002E19BF92
:10278000AB5401320AF801300131642800F1010034
:10279000ECDB49F6D4704EF2DE14C0F60000C0F255
:1027A000E40407F033F800BF013C00BFFCD141F264
:1027B0007024C2F2000440F664630FF27061C2F24A
:1027C000000320462A46009507F0F6F8204607F059
:1027D0001DF84CF2BC30C0F2C91000BF013800BF78
:1027E000FCD10FF2646007F079FB3846013800BF76
:1027F000FCD13846013800BFFCD140F22400C2F2BF
:102800000000002101600820C8F80010C9F800008D
:10281000D4E06421C8F8001000220021387003E0E1
:10282000FD2A02F1010212DAA35C222B04BF01315E
:102830003970212BF4D1EF2AF2DCCBB2012BEFD08F
:10284000A318A050FF22586018819872E8E7617AB7
:10285000E079257A542908BF4F2D72D06279E77844
:102860002179A3794C2A08BF572900F0B0804C2B5E
:1028700008BF572A00F0B580472B08BF462A00F052
:10288000CB80442808BF552B00F03E81542B08BF55
:10289000462A00F06581432A08BF502900F08C8148
:1028A000522B08BF452A00F094814D2B08BF492ABE
:1028B00000F0C981432B08BF412A00F0E68183F074
:1028C000540682F053052E4381F052052E4308BF73
:1028D000482F00F00C82A7F15705B6FA86F6B5FA34
:1028E00085F576096D092E40012E40F01D823D28A8
:1028F00002D10720FEF75AFD40F20010C2F200009C
:10290000016840F6B460C2F2000002684AF28B002F
:1029100044F64A34C0F60000C0F24C0407F03CF81C
:10292000013C00BFFCD177E10FF2C84007F0D6FAB6
:10293000D9F800000B210828C8F8001040F06C817D
:1029400074E14F288AD14AF2CF1044F64A34C0F6D7
:102950000000C0F24C0407F0C1FA2046013800BF65
:10296000FCD140F22400C2F20000002101600320EB
:10297000C8F80000C9F8000040F66470C2F2000018
:1029800062210170013C00BFFCD14FE10FF27840A1
:1029900007F0A4FA384600BF013800BFFCD1D9F8CF
:1029A000000008280AD040F66570C2F200000078E6
:1029B00040F66471C2F20001087000BF013F00BF21
:1029C000FCD1D9F80000082840F026812EE14D2FD7
:1029D0007FF44DAF3D2B40F0AD80FDF72FFD05247A
:1029E000A9E04E297FF448AF3D2808BFFDF726FD3A
:1029F00040F21810C2F2000090F84C104AF2FF208A
:102A00004EF2DE14C0F60000C0F2E40406F0C4FF8B
:102A1000013C00BFFCD1FFE043297FF432AF3D28E9
:102A20002BD144F64A34C0F24C04FDF707FD00BF39
:102A3000013C00BFFCD141F27024C2F2000449F60F
:102A4000A97140F28802C0F60001C2F200022046DD
:102A500006F0B2FF204606F0D9FE42F62850C0F23A
:102A6000311000BF013800BFFCD141F270210FF2DC
:102A70000C40C2F2000106F08FFF41F27020C2F25A
:102A800000004FF49661FDF788FB41F23470C2F20A
:102A9000000040F63401FDF780FB42F2A470C2F260
:102AA000000040F63401FDF778FB41F66870C2F291
:102AB000000040F63401FDF770FB42F2A070C2F254
:102AC00000000021016042F29C70C2F2000001602F
:102AD00040F66870C2F20000FF21FDF75EFB40F295
:102AE000BC00C2F2000003784AF2FD0040F2880107
:102AF00040F2AC02C0F60000C2F20001C2F20002D5
:102B000006F04AFF022085E0412A7FF4BFAE3D2D4A
:102B10006ED101203060FDF791FC40F21810C2F236
:102B2000000090F8431049F66970C0F6000006F006
:102B300033FF6EE001244AF2591043F6200143F6B8
:102B4000300243F64003C0F60000C2F20001C2F2B8
:102B50000002C2F2000306F01FFFC8F800405BE06D
:102B60004F297FF498AE532F7FF495AE4AF2DA10D6
:102B700044F64A34C0F60000C0F24C0407F0AEF947
:102B8000204600BF013800BFFCD140F22400C2F251
:102B90000000002101600320C8F800000D20C9F8E2
:102BA000000040F66470C2F200006221017000BFB4
:102BB000013C00BFFCD139E03D2B08BFFDF73EFCD6
:102BC0004AF26B1040F63071C0F60000C2F200010C
:102BD0000AE056297FF469AE4AF2771040F2080104
:102BE000C0F60000C2F2000106F0D6FE052011E09A
:102BF00040F21810C2F2000090F8431040F220009A
:102C0000C2F2000002684AF21010C0F6000006F09E
:102C1000C3FE0420C8F8000040F66570C2F2000050
:102C2000007840F66471C2F200010870D8F8000024
:102C3000032805D140F66470C2F2000062210170E1
:102C400002B0BDE8F08753297FF434AE40F66674D5
:102C500040F66775C2F20004C2F2000521782A78B6
:102C60004AF2C800C0F6000006F096FE0520C8F83B
:102C70000000207840F66471C2F2000108702878E4
:102C800040F66571C2F20001CFE746297FF417AE26
:102C9000462F7FF414AE49F2946471A0C0F29804F8
:102CA00007F01CF901F0F2F901F022FA0520C8F84A
:102CB000000040F66570C2F20000007840F66471D2
:102CC000C2F200010870013C00BFFCD14EF60C506E
:102CD000CEF20000BFF34F8F0168042201F4E061DF
:102CE000C0F2FA5211430160BFF34F8FFEE73D2857
:102CF00002D10820FEF75AFB40F2FC00C2F20000AD
:102D0000016840F6B060C2F2000002684AF2770043
:102D100044F64A34C0F60000C0F24C0406F03CFE13
:102D2000013C00BFFCD177E7322B08BF572A19D0EE
:102D3000412808BF542B49D06420C8F80000204621
:102D4000FDF736FA40F60D22211822520020887035
:102D5000204606F05BFD40F66470C2F200001D21C3
:102D6000017063E74629E3D14D2FE1D149F2946424
:102D700038A0C0F2980407F0B1F8013C00BFFCD1C4
:102D800040F21810C2F2000040F20111A0F8FE104B
:102D900040F21821C2F200010122C1E9FE226422A0
:102DA00080F8F020C1F8C02301F070F901F0DEFADC
:102DB00001F040F940F66470C2F200006321017036
:102DC00040F66570C2F2000001702FE74F2AB3D1C0
:102DD0004629B1D140F62070C2F200000021016006
:102DE000012002F0F9FB21E750433A20257320250A
:102DF000640D0A004552524F522050415353434FE5
:102E00004445210D000000004552524F522E2053E0
:102E1000594E5441582041542B4454444C4D533D39
:102E20002249502C504F5254220D000041542B4D3A
:102E300049504F50454E3D312C25732C222573228D
:102E40002C25732C300D0A00434F4E4E4543540D34
:102E50000000000041542B4D465732204F4B0D00CF
:102E6000464143544F5259205245534554204953EB
:102E700020574F524B494E470D000000257300006C
:102E8000B0B54AF2040041F2000444F64A35C0F6F7
:102E90000000C4F20104C0F24C0506F0B7FC204665
:102EA0004FF4004101F0A6FC284600BF013800BFE6
:102EB000FCD120464FF4004101F09EFC013D00BFD3
:102EC000FCD149F294640FA0C0F2980406F09EFC75
:102ED000204600BF013800BFFCD114A006F096FCCC
:102EE000204600BF013800BFFCD116A006F08EFCC2
:102EF000013C00BFFCD140F61E60C2F2000001217F
:102F00000170B0BD41542B4754535953434D443D78
:102F1000226E76207365742057414E50696E674665
:102F2000696C7465723D31220D0A000041542B47D3
:102F300054535953434D443D226E76207361766558
:102F4000220D0A0041542B47544C414E454E4142FC
:102F50004C453D310D0A00002DE9F04740F22408B0
:102F6000C2F200084FF0FF30C8F8000040F2040041
:102F7000C2F20000D0F8009042F2A47C40F2C40EED
:102F80000021C2F2000CC2F2000E00244FF0000A31
:102F900005E0C819C11C00BF0131494536DA1CF8EB
:102FA00001003A28F8D101EB0C0616F8010C502864
:102FB000F2D116F8020C4928EED116F8030C4C2871
:102FC000EAD1002703E000BF01370E2FE1D0F3194B
:102FD0002246CC195879E51C2C282C4609D02C46C1
:102FE0003AB9BAF1000F2C4603D1DA7800240EF872
:102FF00007202C28E8D11879222808BFBAF1000F41
:10300000E2D1D878AA460EF80700DDE742F2A070B8
:10301000C2F200000021016042F2A470C2F200007E
:1030200040F63401FDF7B9F849F29460C0F2980017
:10303000013800BFFCD140F2C404C2F2000443F6E0
:103040002001C2F2000120460F22FDF7C6F840F22F
:10305000D80540F62076C2F20005C2F20006012132
:103060002860316068B140F2C40043F63001C2F21A
:103070000000C2F200010F22FDF7AFF82860022025
:103080003060286868B140F2C40043F64001C2F2E3
:103090000000C2F200010F22FDF79FF82860032014
:1030A0003060286844F64A31002840F66470C0F267
:1030B0004C01C2F200004FF0000210D032604FF01D
:1030C000FF32C8F800200322027000BF013900BFA0
:1030D000FCD140F66571C2F20001097806E0C8F83B
:1030E000002000BF013900BFFCD12321017040F254
:1030F0001811C2F2000191F84C102A6881F0010306
:103100001343B3FA83F3013140F640705B09C9B24F
:103110000027C2F20000022938BF012747EA030155
:10312000017094E80B0041F24026D4F80B70C2F213
:10313000000686E80B0004A02146C6F80B7006F0D6
:103140002BFCBDE8F08700BF657874726163746E14
:10315000756D2043616C6C65726E756D20257320F2
:1031600025640D0A000000002DE9F04F87B041F200
:103170000000C4F201004FF4005101F03BFB40F6A7
:103180006874C2F200042046FF21FDF706F80FF232
:10319000184006F0A3FE40F20406C2F200063068B2
:1031A00042F2A4750021C2F200050022002302E0D1
:1031B0000131814219DA6F5C432F10D14F197D78AC
:1031C0004D2D08D1BD78542D05D1FF788D1D3A2F96
:1031D00004BF29462B4642F2A475C2F20005002B1B
:1031E000E6D06F5CAF540132E2E740F61D67C2F2F1
:1031F0000007002140F664723970C2F200021178B3
:103200002E2903D011782F2940F0818041F26801E6
:103210000027C2F2000100BFEA5D412A26D17A19D7
:103220005378542B22D193782B2B1FD1D3784D2B4D
:103230001CD11279462A19D100233A4605E000BF75
:103240000132632B03F1010317DAAE5C0A2ECE5470
:10325000F6D1154415F8015C0D2D42F2A475C2F2A9
:10326000000504BFCE546433EAE700BF3A460027A6
:1032700037B9571C8742CFDB02E00532002FF8D068
:103280004AF2391041F268014CF2BC35C0F6000038
:10329000C2F20001C0F2C91506F07EFB04F149003C
:1032A000B621FCF77AFF4AF2FC31C0F60001204655
:1032B0004922FCF759FF02F031FE00BF013D00BF7B
:1032C000FCD14EF2DE10C0F2E40000BF013800BFB6
:1032D000FCD140F6687041F2680144F64A34C2F20B
:1032E0000000C2F20001FF22C0F24C04FCF73CFFD8
:1032F000013C00BFFCD140F62070C2F20000012169
:103300000160012002F068F907B0BDE8F08F0FF20C
:10331000A42006F0E3FD316841F26C23084697F8DB
:1033200000B0C2F2000300248E1E002000224FF0E5
:1033300000091C7005910690049600BFA85C41F23C
:10334000302A2B28C2F2000A36D1A818BE4600F156
:10335000020C501C002100250AE000BF2C2C08BFE5
:10336000B9F1000F20D001350E2D06F1010027D054
:103370001CF8054057190B4606462C2CB846394612
:10338000ECD0002BB8463946E8D1B9F1000FB84669
:103390003946E3D10CEB050010F8020C00219046F1
:1033A0000AF80500DAE700BF0CEB050010F8020C84
:1033B000B9460AF80500D6E74FF000081EE000BF46
:1033C0005019059942F2A475821DC2F20005774694
:1033D0009142C8BF0A4600BFA81980790A2805D0C3
:1033E000B01D01368842F7DB02E000BFF21D9046B7
:1033F00041F26C23049EC2F20003002440F62870C0
:10340000C2F20000B8F1000F0460446000F0DC80FC
:1034100040F6687C4FF0000AC2F2000C0AE000BFE0
:103420008CF800E04FF0000A0132B2420CF1010CBE
:1034300080F2CA8015F802E0AEF10A004A2800F2D4
:103440006180DFE810F0C1005F005F0077005F007F
:103450005F005F005F005F005F005F005F005F0074
:103460005F005F005F005F005F005F005F005F0064
:103470005F005F00A80056005F005F005F005F0014
:103480005F005F005F005F005F005F005F005F0044
:103490005F005F005F005F005F005F005F005F0034
:1034A0005F005F005F005F005F005F005F005F0024
:1034B0005F005F004B005F005F005F005F004B003C
:1034C0005F005F005F005F005F005F004B005F0018
:1034D0004B005F005F005F005F004B000BF1010BD2
:1034E000BEF1210F87F800B000F05580BEF1220F29
:1034F00008D10698BEF1210F00F101000690187066
:1035000000F04980BAF1000F3FF48AAFAAF102003F
:10351000072809D840F62871C2F2000101F800E03E
:103520000AF1010A80E700BFBAF1010F08BF4FF0AE
:10353000020A79E7A91849780A2900F045804A2843
:10354000E0D8DFE800F0412F2F2F2F2F2F2F2F2F24
:103550002F2F2F2F2F2F2F2F2F2F2F2F2F28272F8A
:103560002F2F2F2F2F2F2F2F2F2F2F2F2F2F2F2F6B
:103570002F2F2F2F2F2F2F2F2F2F2F2F2F262F2F64
:103580002F2F262F2F2F2F2F2F262F262F2F2F2F66
:103590002600A3E7ADE7069810F0FD0F08BF0AF17B
:1035A000010AAFE7AEE700BF46494C544552434DD0
:1035B000540D0000696E20456C7365205346343607
:1035C0002D34370D00000000B8F1000F04D105982C
:1035D00001328242FFF6B2AE40F26C00C2F200004D
:1035E0000A21016041F230210020C2F2000138704E
:1035F00091E80D00D1F80B7041F24021C2F20001B8
:1036000049F2946A81E80D000FF6B410C0F2980AEE
:10361000C1F80B7006F0C0F90FF6C01006F0F6F80E
:10362000504600BF013800BFFCD142F2A070C2F288
:1036300000000026066042F2A47044F24225C2F265
:1036400000004FF4FA71C0F20F05FCF7A6FD40F23E
:103650007001C2F200014FF0FF30086040F62074A4
:1036600041F2302043F62001C2F20004C2F2000011
:10367000C2F200012660FCF7A2FD40F2D806C2F2B9
:1036800000063060B0FA80F040092060284600BF94
:10369000013800BFFCD1206878B941F2302043F6F0
:1036A0003001C2F20000C2F20001FCF788FDB0FA5E
:1036B00080F149093060480020602846013800BF89
:1036C000FCD1206880B941F2302043F64001C2F2BB
:1036D0000000C2F20001FCF772FD002130600028FA
:1036E00008BF0321216000BF013D00BFFCD140F2B3
:1036F0001811C2F2000191F84C1022684B1EB3FA67
:1037000083F340F64070002A18BF01225B09C2F221
:1037100000001A424FF00002027003D10131C9B219
:10372000012901D8012101700078002860D040F6FD
:10373000287540F63076C2F20005C2F2000628462F
:10374000314608224FF0080BFCF747FD41F2207983
:10375000C2F2000940F668780746C9F8000041F255
:103760006810C2F20008C2F200004146C822FCF70D
:10377000FBFC41F230210FF67400C2F20001424618
:103780002B46CDE900B6029706F006F9D9F80000FD
:10379000002865D04EF2DE144046C0F2E404FCF787
:1037A00007FD44F20A52C5F2522208EB000148F824
:1037B000002045F24F20C4F22030486044F24F40D0
:1037C000C2F2451088600020087302F0A7FB00BF1A
:1037D000013C00BFFCD140F66570C2F200000078E9
:1037E00040F66471C2F20001087007B0BDE8F08FC6
:1037F00040F6687549F6087041F2302141F24022E6
:10380000C2F200054EF2DE14C0F60000C2F2000162
:10381000C2F200022B46C0F2E40406F0BDF82846CE
:10382000FCF7C6FC44F20A52C5F2522229182A506B
:1038300045F24F20C0F22100486002F06FFB00BF4C
:10384000013C00BFFCD140F66570C2F20000007878
:1038500040F66471C2F20001087007B0BDE8F08F55
:1038600004F012FC40F2700740F664766428C2F25D
:103870000007C2F20006386000F23D83DFE810F076
:103880006A007F00A600CE00F00005013B033B0369
:1038900011016500650067018B01A601CE01DB0106
:1038A000E8010F02360251026602BC023B03130319
:1038B00044033B033B033B033B033B033B033B030F
:1038C0003B033B033B033B033B033B033B033B0308
:1038D0003B033B033B033B033B033B033B033B03F8
:1038E0003B033B033B033B033B033B033B033B03E8
:1038F0003B033B033B033B033B033B033B033B03D8
:103900003B033B033B033B033B033B033B033B03C7
:103910003B033B033B033B033B033B033B033B03B7
:103920003B033B033B033B033B033B033B033B03A7
:103930003B033B033B033B033B033B033B033B0397
:103940003B033B033B033B03620302F08FFBFCF7AB
:1039500075FDC3E240F6687040F6B8614EF2DE14C1
:10396000C2F20000C2F20001FF22C0F2E404FCF740
:10397000FBFB02F0D3FA013C00BFFCD1AEE240F603
:103980006874C2F200044EF2DE152046FF21C0F238
:10399000E405FCF702FC43F6400C4AF2783143F6AA
:1039A000200243F63003C2F2000CC0F60001C2F25E
:1039B0000002C2F200032046CDF800C005F0FCFF73
:1039C00002F0ACFA013D00BFFCD187E240F6687816
:1039D000C2F200084EF2DE154046FF21C0F2E405B7
:1039E000FCF7DBFB40F21810C2F2000090F84140F7
:1039F0004AF2C82140F2880240F2AC03C0F600014E
:103A0000C2F20002C2F200034046009405F0D4FF67
:103A100002F084FA013D00BFFCD15FE24EF2DE14F9
:103A200008F10A00F521C0F2E404FCF7B6FB4720D8
:103A3000A8F8080045F24F4044F25251C4F64960DC
:103A4000C4F64271C8E9001002F068FA013C00BFF8
:103A5000FCD162203070BAF1010A00BFFBD143E211
:103A600040F6687040F6B8614EF2DE14C2F2000013
:103A7000C2F20001FF22C0F2E404FCF775FB02F081
:103A80004DFA013C00BFFCD128E244F64A34C0F2B2
:103A90004C0402F0EBFAFCF7D1FC013C00BFFCD176
:103AA0001CE244F64A34C0F24C0402F0DFFAFCF7A0
:103AB000C5FC013C00BFFCD141F27024C2F20004FD
:103AC00049F6A97140F288024EF2DE15C0F60001F7
:103AD000C2F200022046C0F2E40505F06DFF204668
:103AE00005F094FE42F2A074C2F20004013D00BF52
:103AF000FCD141F27020C2F200004FF49661FCF755
:103B00004CFB41F23470C2F2000040F63401FCF785
:103B100044FB42F2A470C2F2000040F63401FCF70C
:103B20003CFB41F66870C2F2000040F63401FCF73D
:103B300034FB40F66572C2F2000242F29C711278C8
:103B40000020C2F20001206008603270CCE140F633
:103B50006874C2F200044EF2DE152046FF21C0F266
:103B6000E405FCF71AFB40F21810C2F2000090F8CE
:103B7000432040F22000C2F2000003684AF2D9213B
:103B8000C0F60001204605F017FF02F0C7F9013D1D
:103B900000BFFCD1A2E140F66874C2F200044EF20C
:103BA000DE152046FF21C0F2E405FCF7F6FA40F2EC
:103BB00008020FF27441C2F20002204605F0FCFE3A
:103BC00002F0ACF9013D00BFFCD187E108F1100023
:103BD000EF21FCF7E2FA44F6207045F2453144F259
:103BE0004F6245F24143C0F24B00C5F24541C5F278
:103BF0005422C5F22B33C8E90032C8E9021002F0A2
:103C00008DF9BAF1010A00BFFBD144F64A30C0F287
:103C10004C00013800BFFCD1622064E144F64A3414
:103C2000C0F24C0402F022FA0720FDF7BFFB013C72
:103C300000BFFCD152E144F64A34C0F24C0402F019
:103C400015FA0820FDF7B2FB013C00BFFCD145E1AD
:103C500040F66874C2F200042046FF21FCF79DFA8A
:103C600040F20010C2F20000026840F6B460C2F2F6
:103C7000000003684AF28B01C0F60001204605F0FF
:103C80009BFE02F04BF9BAF1010A00BFFBD144F6EA
:103C90004A30C0F24C00013800BFFCD11EE140F6B2
:103CA0006874C2F200042046FF21FCF776FA40F265
:103CB000FC00C2F20000026840F6B060C2F20000F0
:103CC00003684AF27701C0F60001204605F074FE51
:103CD00002F024F9BAF1010A00BFFBD144F64A30E0
:103CE000C0F24C00013800BFFCD1F7E040F6687428
:103CF000C2F200044EF2DE152046FF21C0F2E405B8
:103D0000FCF74BFA40F61C70C2F200000268C3A137
:103D1000204605F051FE02F001F9013D00BFFCD143
:103D2000DCE040F668704EF2DE14C2F20000C0F231
:103D3000E40405F06BFD4AF28110C0F6000005F0C6
:103D400065FD013C00BFFCD12920CCE041F26800B8
:103D50004CF2BC34C2F200004146FF22C0F2C9144A
:103D6000FCF702FA08F13800C721FCF716FA4AF20C
:103D70004840C0F60000016800F1200B0591C16ABF
:103D8000071D0691016B9BE8000E049105998CCFED
:103D900088E88E0008F1200181E8000E0699D0E93C
:103DA0000465D0E906CE406BC8F82C100499C8E928
:103DB0000465C8E906CEC8E90C1002F0AFF8013C72
:103DC00000BFFCD142F62850C0F23110013800BFCC
:103DD000FCD140F6687041F26801C2F20000C2F204
:103DE0000001FF22FCF7C0F9032001F0F5FB40F6CB
:103DF0006476C2F2000651E008F13400CB21FCF7F2
:103E0000CCF94AF2D840C0F6000090E88E0000F1EC
:103E1000180E9EE8105000F1240BD0E904659BE8D1
:103E2000000E006B88E88E0008F1180181E8105040
:103E300008F12401C8E9046581E8000EC8F83000E3
:103E400002F06CF847F67200C0F27D10013800BF36
:103E5000FCD140F2181240F20110C2F20002A2F8A6
:103E6000FE0040F21820C2F200000121C0E9FE115C
:103E7000642182F8F010C0F8C01300F007F900F0D8
:103E800075FA00F0D7F840F6647640F66571632065
:103E9000C2F20006C2F200013070087040F27007F2
:103EA000C2F2000720E040F66874C2F200044EF24D
:103EB000DE152046FF21C0F2E405FCF76EF940F262
:103EC0001810C2F2000090F84C2051A1204605F0D5
:103ED00073FD02F023F8013D00BFFCD140F6657090
:103EE000C2F200000078307039684AF29F00C0F6D4
:103EF000000005F051FD386803287FF4AEAC622065
:103F0000307007B0BDE8F08F41F2680840F6687580
:103F1000C2F20008C2F2000540462946FF22FCF723
:103F200023F92846FF21FCF738F94AF2E811C0F6D8
:103F300000012846424605F03FFD206880B101F0AF
:103F400089FF0FE040F66870C2F2000005F05EFCE9
:103F50004AF28110C0F6000005F058FC1A20C2E7B2
:103F600001F0DCFF42F2A0754EF2DE10C2F2000555
:103F7000C0F2E400013800BFFCD140F66874C2F220
:103F8000000441F26801C2F200012046FF22FCF762
:103F9000EBF8FCF753FA2046FF21FCF7FEF842F25B
:103FA000A470C2F2000040F63401FCF7F6F840F6C7
:103FB0006571C2F20001097800202860317093E732
:103FC00041542B434D47443D312C340D0A736D73DE
:103FD0006E756D312025730D0A00000041542B438E
:103FE0004D47443D312C340D0A0000000D0A736D1D
:103FF000736E756D0D0A25730D0A736D730D0A25A9
:10400000732025732025642025732025640D0A0064
:1040100041542B454E574C3D2564000041542B4DD7
:10402000474E45543D25640041542B4D5645523D65
:104030002573000080B540F21C01C2F200010A683D
:1040400040F2000E40F6447CC0F6020EC2F2000CB4
:10405000002ACCF800E008BF80BD40F21811C2F27F
:1040600000014B1E40F21821C2F20001043900BFCA
:104070005EF8040BFF2841F8040F28BFFF20013A27
:1040800003F8010FF4D1CCF800E080BD70B500F06A
:10409000FDF940F2053000F057F84FF4417000F0A0
:1040A00053F840F2023000F04FF840F21805C2F227
:1040B00000052868C8B100240026C0F6020400BF2D
:1040C000204600F067F840F2053000F03DF84FF46C
:1040D000417000F039F840F2023000F035F82868FD
:1040E0000136864204F58064EAD300F03DF870BDE5
:1040F00080B540F21C00C2F200000068002240F6C9
:104100004471C0F60202C2F2000100280A6008BF32
:1041100080BD043252F8043C013305D10A600138F5
:1041200002F10402F6D180BD40F2A400C2F2000008
:104130000121016041F20000C4F201004FF480410E
:1041400000F05AFB80BD000042F2000300F01F01A6
:104150008009C4F202034FF0010CC2580CFA01F1BD
:104160001143C1507047000042F21000C4F2020037
:10417000016841F0800101604FF2E071C1F6FF710A
:104180000988B1F5007F98BF7047016C41F080014C
:104190000164704780B54FF2E071C1F6FF71098884
:1041A0008446B1F5007F70D94FF6FF700121C0F64B
:1041B0000700CFF2010142F20C02C4F202024FF0FA
:1041C000020E0B4684451BD21068C0070AD1106846
:1041D000C0065ABF10680EEA50000320012804D020
:1041E00007E000BF0120012803D1002B03F10103E8
:1041F000EAD1012808BF0420002800F0958080BD86
:10420000106CC0070AD1106CC0065ABF106C0EEAC1
:1042100050000320012804D007E000BF012001283E
:1042200003D1002B03F10103EAD1012808BF0420C8
:104230000028E4D1506C022340F002005064C2F820
:1042400048C01069800748BFC2F808C0506C40F0F1
:1042500040005064106CC0070AD1106CC0065ABFF1
:10426000106C03EA50000320012804D007E000BFCF
:104270000120012803D1002901F10101EAD101281F
:1042800008BF042002F1440149E00121CFF20101FD
:1042900042F20C02C4F202024FF0020E0B4600BFC3
:1042A0001068C0070AD11068C0065ABF10680EEA2D
:1042B00050000320012804D007E000BF012001289E
:1042C00003D1002B03F10103EAD1012808BF042028
:1042D000002818BF80BD5068022340F002005060E3
:1042E000C2F808C0506840F0400050601068C00735
:1042F0000AD11068C0065ABF106803EA50000320B4
:10430000012804D007E000BF0120012803D10029C3
:1043100001F10101EAD1111D012808BF04200A683A
:1043200022F002020A6080BD5068022340F00200C1
:104330005060C2F808C0506840F04000506000BFB4
:104340001068C0070AD11068C0065ABF106803EA97
:1043500050000320012804D0DDE700BF0120012820
:10436000D9D1002901F10101EAD1D4E72DE9F041C9
:1043700000F08CF840F2182840F21811C2F2000840
:10438000C2F20001A8F104000139642211F8013FD2
:10439000013A40F8043FF9D10020C0F6020040F293
:1043A000B40540F27406C2F20005C2F200062121F3
:1043B000002700F580642860316000BF58F827109E
:1043C000316000F08BF8286801370430B7F5807F42
:1043D00088BFFF27286040F20530FFF7B5FE4FF495
:1043E0004170FFF7B1FE40F20230FFF7ADFE2868E2
:1043F000A042E3D3FFF7B8FEBDE8F0812DE9F0411C
:1044000000F044F840F2182840F21811C2F20008F7
:10441000C2F20001A8F104000139632211F8013F42
:10442000013A40F8043FF9D10020C0F6020040F202
:10443000B40540F27406C2F20005C2F20006212162
:10444000002700F580642860316000BF58F827100D
:10445000316000F043F8286801370430B7F5807FF9
:1044600088BFFF27286040F20530FFF76DFE4FF44C
:104470004170FFF769FE40F20230FFF765FE2868E1
:10448000A042E3D3FFF770FEBDE8F08142F20400E2
:10449000C4F20200C168090609D540F22311C4F232
:1044A0006751016048F6AB11CCF6EF5101604FF255
:1044B000E071C1F6FF710988B1F5007F0DD9C16CBB
:1044C000090658BF704740F22311C4F267510164D6
:1044D00048F6AB11CCF6EF510164704710B54FF2BE
:1044E000E072C1F6FF7212888446B2F5007F68D987
:1044F00001224FF6FF70CFF20102C0F6070042F230
:104500000C038445C4F202034FF0020E14461BD282
:104510001868C0070AD11868C0065ABF18680EEAA2
:1045200050000320012804D007E000BF012001282B
:1045300003D1002C04F10104EAD1012808BF0420B2
:10454000002800F0898010BD186CC0070AD1186CD3
:10455000C0065ABF186C0EEA50000320012804D090
:1045600007E000BF0120012803D1002C04F1010461
:10457000EAD1012808BF04200028E4D1586C40F09B
:1045800001005864CCF80010022100BF186CC0076D
:104590000AD1186CC0065ABF186C01EA50000320FB
:1045A000012804D007E000BF0120012803D1002A20
:1045B00002F10102EAD1012808BF042003F14401FD
:1045C00045E00123CFF2010342F20C02C4F20202E1
:1045D0004FF0020E1C4600BF1068C0070AD11068D9
:1045E000C0065ABF10680EEA50000320012804D00C
:1045F00007E000BF0120012803D1002C04F10104D1
:10460000EAD1012808BF0420002818BF10BD506857
:1046100040F001005060CCF8001002211068C00783
:104620000AD11068C0065ABF106801EA5000032082
:10463000012804D007E000BF0120012803D1002B8E
:1046400003F10103EAD1111D012808BF04200A6803
:1046500022F001020A6010BD586840F00100586065
:10466000CCF80010022100BF1868C0070AD11868F2
:10467000C0065ABF186801EA50000320012804D080
:1046800007E000BF0120012803D1002A02F1010246
:10469000EAD1012808BF0420191DD8E7F0B581B080
:1046A00040F29800C2F2000001210160FFF7EEFE27
:1046B00040F20530FFF748FD4FF44170FFF744FD2D
:1046C00040F20230FFF740FD40F21804C2F200044D
:1046D0002068D8B140F284060025C2F20006002707
:1046E00030682844FFF756FD40F20530FFF72CFDF7
:1046F0004FF44170FFF728FD40F20230FFF724FD30
:1047000020680137874205F58065E9D3FFF72CFD66
:1047100001B0F0BD2DE9F04387B040F2186940F2D6
:104720008408C2F20009C2F20008D9F80000D9F8E2
:10473000D037D8F80020D9F800140026CDE90006BB
:1047400004931CA00023CDE90216059605F024F978
:10475000FFF79CFED8F8000040F2B404C2F2000457
:1047600040F2740740F280052060C2F20007212069
:10477000C2F20005386000BF2068296888420BD269
:1047800059F826103960FFF7A9FE20680136043079
:10479000B6F5006F2060EFD1D8F800104FF400603C
:1047A000386001F50060C8F80000FFF7DDFC07B0D5
:1047B000BDE8F083464F5441464D4350524F472089
:1047C0002530386A78202530386A78202530386AD4
:1047D00078202530386A780D0A00000010B50446AC
:1047E000C1B243F60000C4F2010005F061F82046B2
:1047F00010BD000041617047016170472DE9F0472D
:10480000CF0601F00F0C09D5042A05D1C26B4CF07C
:10481000030C1A43C26301E04CEA020C00F1100ED3
:1048200000F1140A00244FF001094FF00F0800278F
:104830000EE000BF166008FA04F225EA02020CFA44
:1048400004F52A4302600137082F04F104040CD058
:1048500009FA07F212EA0306F5D00568282952463C
:10486000E8D04829E7D17246E4E7082400254FF054
:1048700001094FF00F080FE0176008FA05F226EA69
:1048800002020CFA05F6324342600134102C05F1A5
:10489000040508BFBDE8F08709FA04F212EA03072D
:1048A000F3D0466828295246E6D04829E5D1724619
:1048B000E2E700008068084018BF01207047000050
:1048C0002DE9F04F81B040F6A061C2F20001022054
:1048D000087040F2F800C2F200000026066040F6C0
:1048E000AC60C2F20000066040F62860C2F2000030
:1048F0004FF0FF31016040F66070C2F200000660C8
:1049000040F2B800C2F2000041F20009066040F235
:104910000460C4F2010901F06DFA48464FF46041A9
:10492000FFF768FF4846102103224FF46043FFF76A
:1049300065FF40F62C6440F6447A40F21C0840F2D1
:10494000181B40F66475C2F20004C2F2000AC2F2FB
:104950000008C2F2000BC2F2000500BF48464FF447
:104960006041FFF749FF40F2026001F043FA40F274
:10497000036001F03FFA40F2DC00C2F20000066082
:1049800040F61E60C2F20000067040F2A800C2F2BB
:104990000000066040F62470C2F20000067040F687
:1049A0002570C2F20000067040F2A400C2F20000BE
:1049B000066040F61C70C2F2000040F2E40106609E
:1049C000D8F80000C2F200010E600021FF27C0F6F7
:1049D00002012670CAF80010B8B140F21822C2F2E3
:1049E00000020023ABF10101043AC0F6020300BF4C
:1049F00053F8044BFF2C42F8044F28BF3C460138C3
:104A000001F8014FF4D1CAF8003040F21820C2F288
:104A10000000D0F8F803012843D0FFF737FBD8F89F
:104A200000000021C0F60201CAF80010C0B1042144
:104A3000C0F6020151F8042C013206D1CAF8001068
:104A4000013801F10401F5D10AE040F2A400C2F2FC
:104A500000000121016048464FF48041FFF7CCFE81
:104A6000D8F800000021C0F602014FF0FF07CAF895
:104A70000010B0B140F21822C2F200020023ABF1E4
:104A80000101043AC0F6020353F8044BFF2C42F82C
:104A9000044F28BF3C46013801F8014FF4D1CAF851
:104AA00000309BF8F000642818D104200022CFF6D3
:104AB000FF70C0F60202105840F29C01C2F20001E1
:104AC000086040F2A001C2F2000108600020CFF6A9
:104AD000FF70105880F30888086880479BF8000032
:104AE00040F28807FF28C2F200071DD09BF8011092
:104AF000FF2919D09BF80220FF2A15D0A0B199B147
:104B000092B14FF0FF3000BF0BEB000149783B182A
:104B1000A1F130024B2A00F1010028BF31460E28D6
:104B20005970F1D110E000BF43F24D20C5F24D00A5
:104B3000386044F64C60C4F64150786052203872B8
:104B4000C7F80960A7F80D609BF80F20501CC0B291
:104B5000022811D240F2AC0143F23100C2F200014E
:104B6000C3F2300008604AF2DC00C0F600000E71AB
:104B700004F012FF0AE000BF9BF81300DBF80F10EF
:104B800040F2AC02C2F20002107111609BF81400F6
:104B90000130C0B2022813D39BF81900FF280FD0B0
:104BA00070B1DBE90501DBF81F2043F62007C2F2F4
:104BB0000007DBF81C30C7F80B200BC715E000BF5F
:104BC00043F62000C2F200003221017343F22B6150
:104BD000C3F63201016043F23561C3F2381141601E
:104BE00043F23311C3F2384181609BF82300013056
:104BF000C0B2022814D39BF82800FF2810D078B147
:104C0000DBF82300DBF82E2043F63007C2F2000762
:104C1000DBF82710DBF82B30C7F80B200BC715E0AB
:104C200043F63001C2F2000143F63910888143F2A5
:104C30002B60C3F63200086043F23230C3F2310019
:104C4000486043F63210C3F2331088609BF832009C
:104C50000130C0B2022815D39BF83700FF2811D0CD
:104C600080B1DBF83200DBF83D2043F64007C2F2AA
:104C70000007DBF83610DBF83A30C7F80B200BC71B
:104C800015E000BF43F640013220C2F200018881E6
:104C900043F22B60C3F63200086043F23110C3F2D6
:104CA0003230486043F23430C3F2317088609BF890
:104CB000431040F66577C2F2000704290AD84FF482
:104CC0001650DFE801F017030E1114004FF4964060
:104CD00010E000BF40F22000C2F200000068FF298F
:104CE00008E04FF4164005E04FF4614002E04FF455
:104CF000E13000BF40F2C001C2F20001086044F69A
:104D00004A30C0F24C0000BF013800BFFCD19BF814
:104D100044000130C0B202280AD240F6307044F29A
:104D20004541C2F20000C4F64D11C0E9001107E090
:104D3000DBE9110140F63072C2F20002C2E9000163
:104D400040F2C000C2F20000006804F071FD47F2BA
:104D5000EF00C0F2720000BF013800BFFCD1A9F51E
:104D600080684046042103220123FFF747FD4046A7
:104D7000102103220223FFF741FD40460221FFF7E5
:104D80003BFD4FF2E400C0F2FA2000BF013800BF43
:104D9000FCD140460221FFF72DFD03F0EBFB47F667
:104DA0007200C0F27D1000BF013800BFFCD109F5D0
:104DB000E0500021C82203F0B9FB002448464FF41C
:104DC00000512C70FFF716FD40F2A400C2F2000063
:104DD000046048464FF480410026FFF70BFD48462B
:104DE0004FF40041FFF706FD9BF84100411CC9B29A
:104DF000012911D840F27C00C2F20000006840F2A4
:104E0000BC01C2F20001087040F20011C2F20001C0
:104E100008608BF8410009E040F2BC01C2F20001D9
:104E2000087040F20011C2F2000108609BF84200D5
:104E300040F2FC04411CC9B2C2F20004012909D8A5
:104E400040F27800C2F20000006820608BF8420057
:104E500001E000BF2060FDF7ADFA40F20010C2F2A1
:104E60000000016840F6B460C2F20000026840F63B
:104E7000B060C2F20000236804680FF2147000945E
:104E800004F08AFD40F208010FF21070C2F2000136
:104E900004F082FD4CF29030C0F6EB30013800BFD8
:104EA000FCD140F2E800C2F20000067040F6B860A3
:104EB000C2F200006421FBF770F940F2A400C2F2D4
:104EC00000000121016048464FF40051FFF794FCB7
:104ED00040F2DC06C2F2000640460121FFF7EAFC80
:104EE00040F62471C2F20001002818BF01200870AA
:104EF00029782878002937D001382D2800F2C4827B
:104F0000DFE810F02E0068006B006E007100C20236
:104F100084008700C202C202C202C202C202920020
:104F2000C2029500C2029E00C200EE00F100F40031
:104F30000B010E01250128013A013D014001C20289
:104F4000C202C202C2025E0161016A017401AD01C6
:104F5000C202C202FE011A02C202320235027A0203
:104F600001F0A8F890E200BF612800F0A182287843
:104F7000622800F09D822878632800F099822878C2
:104F800031683870481C362930601BDB0FF2346002
:104F900004F03CFC49F29460C0F29800013800BF74
:104FA000FCD140F2A4010020C2F200013060086090
:104FB00048464FF48041FFF71DFC48464FF400413E
:104FC000FFF718FC44F64A30C0F24C00013800BF2D
:104FD000FCD181E701F05AFA56E202F013F953E2EC
:104FE00002F0A4FB50E240F2A4010020C2F2000152
:104FF000086048464FF48041FFF7FCFB48464FF4F9
:105000000041FFF7F7FBFDF7A7FF3DE202F0CAFF03
:105010003AE244F64A30C0F24C0000BF013800BF0B
:10502000FCD1FDF719FB2FE201F010F92CE242F65A
:105030002850C0F2311000BF013800BFFCD1E6E1BA
:1050400041F22070C2F2000001680429C7BF0120AC
:1050500028700131016048464FF40041FFF7CAFB58
:1050600044F64A30C0F24C00013800BFFCD148463B
:105070004FF40041FFF7C0FB44F64A30C0F24C0049
:10508000013800BFFCD1FFE148464FF40041FFF773
:10509000B1FB44F64A30C0F24C0000BF013800BFFB
:1050A000FCD148464FF40041FFF7A6FB44F64A30D6
:1050B000C0F24C00013800BFFCD140F2A401012035
:1050C000C2F20001086048464FF48041FFF794FBAC
:1050D00049F29460C0F29800013800BFFCD1D3E1DE
:1050E00001F04EFBD0E101F005FDCDE12878162856
:1050F00005D14AF26C00C0F6000004F087FB4EF2C6
:10510000DE10C0F2E40000BF013800BFFCD13878E7
:1051100002288CBF1920172066E001F077FDB3E16B
:1051200040F2F00440F2A402C2F20004C2F2000213
:105130002068116801300029206000F08D81002076
:10514000106048464FF48041FFF754FB8BE101F0BB
:10515000EDFE99E147F67200C0F27D10013800BF04
:10516000FCD100F0DBFE4EF2DE10C0F2E40000BF26
:10517000013800BFFCD136E001F04EFF84E101F0C0
:10518000BDFF81E14EF2DE10C0F2E400013800BF45
:10519000FCD140F668744AF27F10C2F20004C0F6F7
:1051A0000000214604F0F8FB2046FF21FAF7F5FF46
:1051B00044F64A30C0F24C00013800BFFCD112E086
:1051C00002F048FA60E149F29460C0F2980000BF32
:1051D000013800BFFCD157E147F67200C0F27D10E4
:1051E000013800BFFCD1387828704DE14AF2040044
:1051F000C0F6000004F00AFB4EF2DE10C0F2E4003C
:10520000013800BFFCD140F62070C2F2000001213D
:1052100001604AF28040C0F6000090E85E0040F66F
:105220006877C2F2000787E85E00818A807DB982D4
:10523000B87500F00FFE42F62850C0F2311000BFE2
:10524000013800BFFCD140F66571C2F20001087858
:1052500040F2DC0628700F46C2F2000614E14AF262
:105260000400C0F6000004F0D1FA4EF2DE10C0F2E5
:10527000E40000BF013800BFFCD140F62070C2F24C
:105280000000012101604AF29840C0F6000090E859
:105290008E00D0E90464D0E906CE40F6687AD0E901
:1052A0000890C2F2000ACAE908908AE88E00CAE9AA
:1052B0000464CAE906CE00F0CDFD49F29460C0F264
:1052C000980000BF013800BFFCD140F2B8010120B6
:1052D000C2F20001086040F270010D20C2F200012C
:1052E0000860622041F2000940F2DC0640F6657772
:1052F0002870C4F20109C2F20006C2F20007C3E03E
:1053000040F2B8010220C2F2000108604EF2DE1045
:10531000C0F2E400013800BFFCD140F2B801022025
:10532000C2F200010860622040F27001287005207E
:10533000C2F200010860A7E0287838704EF67E209F
:10534000013800BFFCD140F62C61C2F200010878A0
:1053500003285FD340F2700262200121C2F20002F2
:105360002870116038708FE002F092FB8CE040F6FC
:10537000407240F2C400C2F20002C2F200000021FA
:105380001278C0F80B10C0E90011816040F22400CF
:10539000012AC2F2000040D144F64A31C0F24C0169
:1053A000013900BFFCD14FF0FF3101604AF2C0402B
:1053B000C0F6000090E81E5040F66870C2F200008F
:1053C00080E81E5000F0AAFD4FF2E400C0F2FA207F
:1053D000013800BFFCD140F270010320C2F200018D
:1053E00008606220287044F64A30C0F24C0000BFCA
:1053F000013800BFFCD115E06AA004F06FFD40F653
:10540000F060C0F2277000BF013800BFFCD1FDF78B
:10541000ABFE39E00020087036E03A784FF0FF31FB
:1054200001602A7042F2A07040F20401C2F2000052
:105430000022C2F200010968026042F2A470C2F2C6
:105440000000FAF7AAFE44F64A30C0F24C0000BF52
:10545000013800BFFCD117E00120106048464FF42E
:105460008041FFF7C9F944F24220C0F20F0000BFAB
:10547000013800BFFCD140F6A061C2F200012068F3
:105480000978884210DA00BF28782B2808BF02F07C
:105490007BFA287862280BD02878612808D02878F1
:1054A00063287FF419AD03E0642020600E209BE6A2
:1054B000287840F62C646228C2F200040DD12078CE
:1054C00003280AD341A004F067FA44F64A30C0F238
:1054D0004C0000BF013800BFFCD148464FF460418A
:1054E000FFF788F942F6285040F6447A40F21C084B
:1054F000C0F231100026C2F2000AC2F2000800BF5A
:10550000013800BFFCD140F27000C2F20000006818
:1055100003280CD14AF25F00C0F6000004F076F9CF
:1055200048F21860C5F2A340013800BFFCD149F22F
:105530009460C0F2980000BF013800BFFCD140F277
:105540007000C2F20000006803280ED0287861289D
:1055500004D0287863287FF401AA06E046F6E80024
:10556000C1F6CD50013800BFFCD14EF60C50CEF242
:105570000000BFF34F8F0168042201F4E061C0F224
:10558000FA5211430160BFF34F8F00BFFEE700BF27
:10559000256420256420256420256400474F2025AC
:1055A000730D0A005245434549564520464F544124
:1055B0002046524F4D2045434D20534F46545741AE
:1055C00052450D0041540D0A000000004449534368
:1055D0004F4E4E45435400002DE9F04F81B08246B6
:1055E000032818DB42F2A070C2F200000021016023
:1055F00042F2A470C2F2000040F63401FAF7CDFD89
:1056000040F6687041F26801C2F20000C2F2000187
:10561000FF22FAF7A9FD40F66876C2F20006707A1A
:1056200022286CD140F284000021C2F20000C0F6B2
:105630000101016040F66471C2F200012B20087084
:1056400040F63060C2F200003221FAF7A6FD43F6C0
:105650000C0840F6487B40F2041941F27020C2F277
:1056600000080024C2F2000BC2F20009C2F20000DE
:105670004FF49661C8E90044C8E90244C8F81040F4
:10568000CBE90044CBE90244CBF81040C9E900441F
:10569000C9E90244C9F81040FAF77FFD0A254FF026
:1056A000000C00210022002304E000BF642D05F15E
:1056B000010535DA705D2C38B0FA80F040090544F8
:1056C000775D222F2CD00444032CEFD8DFE804F0C0
:1056D000060F130209F803700133E7E740F6306064
:1056E000C2F2000000F80C700CF1010CDEE708F8C3
:1056F00001700131DAE70BF802700132D6E7BAF136
:10570000000F72D04AF28410C0F6000004F0E6FBED
:1057100049F29460C0F29800013800BFFCD17CE0EF
:1057200049F6D470C0F6000004F070F846F6561042
:10573000C0F27840013800BFFCD141F2702540F63C
:105740006479C2F2000545F63A2744F64A362B241E
:10575000C2F2000928464FF49661C0F27377C0F296
:105760004C0689F80040FAF718FD40F6306243F61F
:105770000C0371A1C2F20002C2F200032846CDF868
:1057800000B004F019F941F22078BAF1000FC2F22A
:1057900000084FD041F270254AF27F10C2F2000596
:1057A000C0F60000294604F0F7F8284604F02EF869
:1057B000002089F80040C8F8000000BF013F00BF8A
:1057C000FCD12B2089F8000041F22470C2F20000C5
:1057D000002101605FA004F081FB3046013800BF6A
:1057E000FCD1BAF1030F40DA61E040F668704AF28A
:1057F0001D2140F20802C2F20000C0F60001C2F210
:10580000000204F0D9F800F089FB42F62850C0F2FB
:10581000311000BF013800BFFCD140F66570C2F204
:105820000000007840F66471C2F20001087001B017
:10583000BDE8F08F41F27020C2F2000003F0E6FFF5
:10584000002089F80040C8F8000000BF013F00BFF9
:10585000FCD12B2089F8000041F22470C2F2000034
:1058600000210160BAF1030F21DB40F66870C2F23B
:105870000000FF21FAF791FC42F2A070C2F2000092
:105880000021016042F2A470C2F2000040F634012F
:10589000FAF783FC013E00BFFCD14AF27F1041F2CF
:1058A0007021C0F60000C2F2000104F075F841F268
:1058B00070250020C2F2000540F20412C8F8000072
:1058C00028A1C2F20002284604F076F82B2089F8BD
:1058D0000000284603F09AFF49F26860C0F6BA203B
:1058E000013800BFFCD1BAF1000F09D04AF27F1095
:1058F00042F2A471C0F60000C2F2000104F04CF8BC
:1059000040F22400C2F200000021016040F2D40005
:10591000C2F20000016040F27000C2F200000822F2
:1059200002602B2089F8000041F22870C2F20000CA
:10593000016001B0BDE8F08F41542B4654504F50E8
:10594000454E3D222573222C222573222C222573BD
:10595000220D0A004D464F544120535441525449A0
:105960004E470D0041542B4654504745543D222587
:1059700073222C300D0A00004EF60C5CCEF2000CA7
:10598000DCF8003003F4E063B3F5E06F01D10423E9
:105990002AE0DCF8003003F4E063B3F5C06F01D116
:1059A000032321E0DCF8003003F4E063B3F5A06FDB
:1059B00001D1022318E0DCF8003003F4E063B3F512
:1059C000806F01D101230FE0DCF8003003F4E063C5
:1059D000B3F5407F01D1002306E040F20053C0F24E
:1059E000FA53CCF80030022301FA03FCC3F104039C
:1059F0000F21D94011404EF2001241EA0C01CEF2C3
:105A00000002090140EA020383F8001300F01F01BD
:105A1000012303FA01F11C2303EAD00081507047EF
:105A20002DE9F04F87B040F2A401C2F200010A68EC
:105A3000054652B10020086041F20000C4F20100A6
:105A40004FF48041FEF7D6FE09E00120086041F2E4
:105A50000000C4F201004FF48041FEF7CDFE41F298
:105A60007024C2F2000420464FF49661FAF795FBC9
:105A7000012D00F08080032D00F09780022D40F072
:105A8000838042F2A47740F6186A40F218694FF01A
:105A90000008C2F20007C2F2000AC2F200090025A3
:105AA000002009E0B0F5C86FC8BF40F20970B0F53A
:105AB000E16F00F1010067DA411FB1F5F77FF1D81E
:105AC000002DEFD1395C522910D1C1194A78452AED
:105AD0000CD18A78432A09D1CA78562A06D1097985
