:020000040801F1
:10000000583D00204501010859020108510201082C
:100010005502010849020108C1030108000000005F
:100020000000000000000000000000006102010864
:100030004D020108000000005D0201086502010890
:100040005F0101085F0101085F0101085F0101080C
:100050005F0101085F0101085F0101085F010108FC
:100060005F0101085F0101085F0101085F010108EC
:100070005F0101085F0101085F0101085F010108DC
:100080005F0101085F0101085F0101085F010108CC
:100090005F0101085F0101085F0101085F010108BC
:1000A0005F0101085F0101085F0101085F010108AC
:1000B0005F0101085F0101085F0101085F0101089C
:1000C0005F0101085F0101085F0101085F0101088C
:1000D0005F010108B1030108B90301085F010108CC
:1000E0005F0101085F0101085F0101085F0101086C
:1000F0005F0101085F0101085F0101085F0101085C
:100100005F0101085F0101085F0101085F0101084B
:100110005F0101085F0101085F0101085F0101083B
:100120005F0101085F0101085F0101085F0101082B
:10013000DFF80CD000F076F8004800474D48010881
:10014000583D00200648804706480047FEE7FEE786
:10015000FEE7FEE7FEE7FEE7FEE7FEE7FEE7FEE777
:10016000690201083101010840EA01039B0703D03D
:1001700009E008C9121F08C0042AFAD203E011F8E6
:10018000013B00F8013B521EF9D27047D2B201E0A8
:1001900000F8012B491EFBD270470022F6E710B58C
:1001A00013460A4604461946FFF7F0FF204610BDE5
:1001B000421C10F8011B0029FBD1801A704710B5B2
:1001C000002200E0521C835C8C5CA34201D1002B16
:1001D000F8D1D8B2E1B2401A10BD30B505460020C2
:1001E000034600E05B1C934205D2EC5CC85C201A1D
:1001F00001D1002CF6D130BD30B50B4601460020B0
:100200002022012409E021FA02F59D4205D303FAD8
:1002100002F5491B04FA02F52844151EA2F1010259
:10022000F1DC30BD064C074D06E0E06840F001030C
:1002300094E8070098471034AC42F6D3FFF77CFFF0
:100240000CA201082CA20108FEE700007047000084
:10025000FEE70000FEE70000704700007047000066
:10026000704700007047000081B04EF68851CEF212
:1002700000010A6841F2040042F47002C4F2020074
:100280000A6050F8041C4FF0000C41F0010140F8E6
:10029000041C016844F61F6341F080010160CDF841
:1002A00000C0009A9A4207D844F62062009B0133AE
:1002B0000093009B9342F9D3C0F800C0C0F828C057
:1002C00050F8042C4FF6FF73CFF6F6631A4040F84F
:1002D000042C4FF41F02426050F8042C22F48022B8
:1002E00040F8042C50F8042C42F4803240F8042CDE
:1002F0004FF6FE7250F8041C013A4CF100038903DA
:1003000001D4002BF6D150F8041C890301D400BF9E
:10031000FEE7826947F2000142F08052C4F2000118
:1003200082610A684FF6FF7342F440420A60026835
:10033000CBF2C373026002680260026842F480621A
:100340000260026822F440320260026842F44032E5
:10035000026002681A400260026842F4C012026041
:1003600050F8042C42F0807240F8042C50F8042C11
:100370009201FBD50A6842F480320A604A68D203CF
:10038000FCD50A6842F400320A6000BF4A68920352
:10039000FCD5016821F003010160016841F0020110
:1003A000016000BF01680907FCD501B0704700007B
:1003B00080B508F039FA80BD80B508F003FB80BD38
:1003C000FEE700002DE9F04F83B040F2141E002735
:1003D00040F66874C2F2000E40F2142C40F204039E
:1003E0000025C0F60207C2F200044FF0010AC2F273
:1003F000000C0EF14409C2F200034FF0000B4FF065
:100400000008CDF8089000BFB8F1040FC0F23683A1
:1004100014F808103D2940F0318308EB040010F86F
:10042000012C432A2AD110F8022C502A26D110F888
:10043000032C4D2A22D13E4608F1080008F10101A3
:100440004A4642F201478EF8FEA0CCF8F8A30AE033
:10045000BBF1000F01F1010818BF15700132814294
:10046000414680F20E81635C0D2B1370F0D80AFABE
:1004700003F33B4218BF8B46EAE700BF3D2940F03B
:10048000FD8210F8012C442A58D110F8022C552A6C
:1004900054D108F1010914F8090041F620023D2861
:1004A00008BF08F1020914F80900C2F2000230384E
:1004B00010608EF8430001208EF8FEA0E246CCF8D2
:1004C000F80303F00DFE03F07BFF40F21C00C2F2C4
:1004D0000000006840F2141E40F64471C2F2000EA3
:1004E000C2F200014FF0FF050F60A8B1AEF10101AB
:1004F000AAF104023B4600BF53F8046BFF2E42F8FA
:10050000046F28BF2E46013801F8016FF4D140F680
:100510004470C2F2000003609EF844000130C0B293
:10052000022880F0298140F6307044F24541C2F241
:100530000000C4F64D11C0E9001125E13D2940F04D
:100540009D8210F8012C4C2A31D110F8022C572A28
:100550002DD110F8032C4D2A29D16046BC46C0F895
:10056000F8A308F10E010EF1140208F101030020B6
:100570008EF8FEA00DE000BF2C2E08BF1846002804
:10058000A3F1010718BF1570013301328F4280F2C9
:100590008381E65C0D2E1670EED80AFA06F742F259
:1005A00001452F424FF00005E6D01846E7E73D2908
:1005B00040F0648210F8012C4C2A40F0A08010F822
:1005C000022C572A40F09B8010F8032C4E2A40F052
:1005D000968010F8042C452A40F0918008F101081B
:1005E00014F8080041F620013038C2F200018EF8FC
:1005F000FEA0CCF8F8A3086098BF28468EF84C00FF
:1006000003F06EFD03F0DCFE40F21C00C2F20000BD
:10061000006840F2141E40F64471C2F2000EC2F2AD
:1006200000014FF0FF040F60C8B140F21422C2F283
:100630000002AEF10101043A3E463B4653F8047B0A
:10064000FF2F42F8047F28BF2746013801F8017FB9
:10065000F4D140F64470C2F20000374603609EF8C1
:1006600044000130C0B2022880F0DE8340F63070D2
:1006700044F24541C2F20000C4F64D11C0E9001138
:10068000DAE3644603F02CFD03F09AFE40F21C000E
:10069000C2F20000006840F2141E40F64471A44605
:1006A000C2F2000EC2F2000137464FF0FF040E60A6
:1006B000A0B1AEF10101ACF104023B4653F8046B6A
:1006C000FF2E42F8046F28BF2646013801F8016F5B
:1006D000F4D140F64470C2F2000003609EF844007A
:1006E0000130C0B2022839D240F6307044F24541A0
:1006F000C2F20000C4F64D11C0E9001136E03D29F8
:1007000040F0BC8110F8012C472A4AD110F8022C85
:10071000462A46D110F8032C432A42D108F10100A1
:10072000002100228EF8FEA0CCF8F8A30FE000BF55
:10073000002A06BF0EF8013000220EF80150002AF0
:1007400001F1010108BF01300F2900F0FF82235C95
:100750002C2BEDD10EF801500246F0E7DEE9110135
:1007600040F63072C2F20002C2E9000140F668743D
:100770000020C2F200040FE0DEE9110140F6307201
:10078000C2F20002C2E90001C846DDF8089001206B
:100790000025D4464FF0010A40F20403C2F20003E0
:1007A0006DE13D2940F06A8110F8012C542A40F097
:1007B000DE8010F8022C532A40F0D98010F8032C68
:1007C000522A40F0D48010F8042C572A40F0CF80F1
:1007D000407841F620013038C2F2000108F10206EB
:1007E0000860A15D4FF0000298BF10462C298EF8DA
:1007F000FEA0CCF8F8A308BF08F10306A15D41F202
:100800007035C2F200058EF841002C2928464FF4BD
:10081000966108BF01360027FFF7BFFC0196A019BB
:1008200040F2FC0640F6A8644FF000094FF0000BC0
:10083000C2F20006C2F2000410F8091005F80970AF
:10084000002912BF2129BBF1000FCB46BBF1000FDD
:100850004FF0000718BF394605F8091009F10109E2
:10086000B9F1050FE8D1ABF1010003284FF0000CFE
:10087000276000F28A8341F62002C2F20002DFE81C
:1008800010F00400C403D003EC0328783038106063
:1008900088BF206000F016BC215C0EF123032C29D8
:1008A00008BF0130215C2C2908BF013000F10E0285
:1008B00000210BE02C2E08BF0146002918BF1D7037
:1008C000904200F1010003F101030DDA265C0D2EC8
:1008D0001E70EFD80AFA06F742F201452F424FF098
:1008E0000005E7D00146E8E7605C0EF132022C28F3
:1008F00008BF0131605C4FF0000B2C2808BF0131AC
:1009000001F10E000AE000BFBBF1000F01F1010888
:1009100018BF15700132814241460BDA635C0D2B22
:100920001370F1D80AFA03F342F20146334218BFBA
:100930008B46E9E79EF814000130C0B20228C0F0EF
:10094000A9809EF81900FF2800F0A480002800F07C
:10095000A180DEE90501DEF81F2043F62014C2F273
:100960000004DEF81C30C4F80B200BC4A7E03D29BE
:1009700040F0848010F8011C542940F07F8010F86A
:10098000021C532940F07A8010F8031C522975D1BB
:1009900010F8041C482971D1407841F62001303804
:1009A000C2F2000108F1020708604FF00006E15DA5
:1009B00098BF30468EF84200C0B22C298EF8FEA0B7
:1009C000CCF8F8A3CCF8080108BF08F10307E15DF3
:1009D00040F2F802C2F2000210602C290FF6C43077
:1009E000214608BF013709F01DF841F27035C2F207
:1009F000000528464FF496614FF00009FFF7CDFB44
:100A0000B8464FF0000B14F80810BBF1000F584621
:100A100008BFB346002918BF8346BBF1000F18BFBB
:100A20004946A95506F1010608BF08F10108052E3F
:100A3000E9D1ABF1010040F6A46C0328C2F2000C2E
:100A400042F2607ECCF8009000F27C8441F62002F5
:100A5000C2F20002DFE810F00400F90314043B04C2
:100A6000287840F21417303840F214291060C2F28E
:100A70000007C2F2000900F0C0BC00BF012000283E
:100A800000F08585186808F101088045FFF6BCACC8
:100A900000F07DBD43F62010C2F200003221017348
:100AA00043F22B61C3F63201016043F23561C3F2B8
:100AB0003811416043F23311C3F2384181609EF82E
:100AC000230066460130C0B2022814D39EF82800E5
:100AD000FF2810D078B1DEF82300DEF82E2043F690
:100AE0003017C2F20007DEF82710DEF82B30C7F807
:100AF0000B200BC715E043F63011C2F2000143F69C
:100B00003910888143F22B60C3F63200086043F24B
:100B10003230C3F23100486043F63210C3F2331072
:100B200088609EF832000130C0B2022814D39EF8CB
:100B30003700FF2810D078B1DEF83200DEF83D2013
:100B400043F64017C2F20007DEF83610DEF83A30FE
:100B5000C7F80B200BC714E043F640113220C2F255
:100B60000001888143F22B60C3F63200086043F233
:100B70003110C3F23230486043F23430C3F2317086
:100B80008860374603F0ACFA03F01AFC40F21C0010
:100B9000C2F20000006840F6447140F2141EDDF815
:100BA000089040F2142CC2F20001C2F2000E4FF085
:100BB000FF04C2F2000C0E60A0B1AEF10101ACF175
:100BC00004023B4653F8047BFF2F42F8047F28BF02
:100BD0002746013801F8017FF4D140F64470C2F293
:100BE000000003609EF814000130C0B2022812D346
:100BF0009EF81900FF280ED068B1DEE90501DEF885
:100C00001F2043F62017C2F20007DEF81C30C7F899
:100C10000B200BC714E043F62010C2F20000322173
:100C2000017343F22B61C3F63201016043F2356177
:100C3000C3F23811416043F23311C3F2384181608D
:100C40009EF8230040F668740130C0B2C2F200047E
:100C5000022814D39EF82800FF2810D078B1DEF8BF
:100C60002300DEF82E2043F63017C2F20007DEF82C
:100C70002710DEF82B30C7F80B200BC715E043F622
:100C80003011C2F2000143F63910888143F22B6023
:100C9000C3F63200086043F23230C3F231004860DC
:100CA00043F63210C3F2331088609EF832000130F0
:100CB000C0B2022814D39EF83700FF2810D078B1B4
:100CC000DEF83200DEF83D2043F64017C2F200079E
:100CD000DEF83610DEF83A30C7F80B200BC714E008
:100CE00043F640113220C2F20001888143F22B60AA
:100CF000C3F63200086043F23110C3F2323048606C
:100D000043F23430C3F2317088609EF8440040F200
:100D100004030130C0B2C2F20003374602280BD2EE
:100D200040F6307044F24541C2F20000C4F64D1165
:100D3000C0E900110020A2E6DEE9110140F63072A0
:100D4000C2F20002C2E90001002098E60EF10E0096
:100D5000511C4FF0000B0522635C2C2B08BF8B4607
:100D6000BBF1000F14BF2B460131013A00F8013FDF
:100D7000F2D10BF1010814F8080041F620012C28EB
:100D800008BF0BF1020814F80800C2F200012C2879
:100D900008BF08F1010814F808003038086003F0B3
:100DA0009FF903F00DFB40F21C00C2F20000006846
:100DB00040F6447140F2141E40F2880540F2142CB3
:100DC000C2F20001C2F2000E4FF0FF04C2F20005B1
:100DD000C2F2000C0F60B0B1AEF10101ACF104023F
:100DE0003E463B4653F8047BFF2F42F8047F28BF62
:100DF0002746013801F8017FF4D140F64470C2F271
:100E00000000374603609EF844000130C0B202285B
:100E100022D240F6307044F24541C2F20000C4F6DE
:100E20004D11C0E900111FE0DEE9110140F63072FA
:100E3000C2F20002C2E9000140F6687440F2040305
:100E400001204FF0000BC2F20004C2F2000340F296
:100E5000142CC2F2000C12E6DEE9110140F63072E9
:100E6000C2F20002C2E900019EF8000040F6687478
:100E7000C2F200043E46FF281DD09EF80110FF2953
:100E800019D09EF80220FF2A15D0A0B199B192B1D5
:100E90004FF0FF30002700BF0EEB000149782B1800
:100EA000A1F130024B2A00F1010028BF39460E287B
:100EB0005970F1D110E043F24D20C5F24D00286089
:100EC00044F64C60C4F641506860522028720020FD
:100ED000C5F80900A5F80D009EF80F20501CC0B2FF
:100EE00002281DD240F2A40143F23100C2F20001F7
:100EF000C3F23000086049F689600025C0F60100A1
:100F00000D7108F08FFD40F2142C40F2141E40F2D7
:100F10000403C2F2000CC2F2000EC2F200030EE0A3
:100F20009EF81300DEF80F1040F2A402C2F2000295
:100F300040F2040310711160C2F2000300259EF814
:100F400041003746411CC9B2012912D840F27C0049
:100F5000C2F20000006840F2B401C2F20001087061
:100F600040F2FC01C2F2000108608EF8410000204E
:100F700085E540F2B401C2F20001087040F2FC01C4
:100F8000C2F200010860002079E52878697844F20F
:100F90008047303842F210724FF47A73CFF6FF7701
:100FA000504301FB03F211FB03714BF681339A426C
:100FB00041F62002C2F200022060116024BF084402
:100FC0002060A87864234EF6405700FB03F1CFF66B
:100FD000FF7710FB0370B1F5965F106002D92168AE
:100FE00008442060E8784FF6206300EB8000410061
:100FF000CFF6FF7303EB4000B1F5F07F106002D92C
:10100000216808442060297954E02978A1F1300052
:101010003129106022BF00EB800040002060697819
:1010200048E029784FF62063A1F1300031291060A3
:1010300022BF6421484320606878CFF6FF7300EB3D
:101040008000410003EB4000B1F5F07F106002D951
:10105000216808442060A9782CE029786423A1F154
:1010600030003129106022BF4FF47A71484320606C
:1010700068784EF6405700FB03F1CFF6FF7710FB80
:101080000370B1F5965F106002D9216808442060B2
:10109000A8784FF6206300EB80004100CFF6FF7385
:1010A00003EB4000B1F5F07F106002D921680844DD
:1010B0002060E978A1F130003129106002D3216865
:1010C00008442060206848F68907A0F2A15111F574
:1010D000B46F10603CBF4FF4B46121602368C8F660
:1010E000880757FB033140F6B4654A1102EBD17112
:1010F00000EE101A57FB0001B8EEC00ABDEEC00AA0
:101100004F11C2F2000510EE102A07EBD1712B60CF
:101110003B2BD8BF624640F62068C1EB011137680F
:10112000C2F20008A0EB81010FF2A840C8F800202D
:101130002160009708F076FC286840F2142740F2FE
:101140001413C2F20007C2F20003D8F80010C7F867
:10115000900193F84100C7F89411411C2268C9B26C
:101160000129C7F898210DD840F27C00C2F2000096
:10117000006840F2B401C2F200010870306083F8E8
:10118000410005E040F2B401C2F200010870306095
:101190000027C0F6020702F0A3FF03F059F940F25E
:1011A0001C00C2F20000006840F64471C2F2000167
:1011B0004FF000050F60F0B140F2141140F214221C
:1011C000C2F20001C2F200020139043A3B46FF2498
:1011D00053F8047BFF2F42F8047F28BF27460138CD
:1011E00001F8017FF4D140F644700027C2F20000FC
:1011F000C0F602070360019800EB090801F0BCF992
:1012000040F2141EC2F2000E9EF844000130C0B23B
:1012100002280AD240F6307044F24541C2F2000082
:10122000C4F64D11C0E9001107E0DEE9110140F6F6
:101230003072C2F20002C2E9000140F6687440F266
:101240000403DDF808900020FDE5297840F214172A
:10125000A1F130003129106022BF00EB8000400076
:10126000CCF80000697840F21429C2F20007A1F11D
:1012700030003129C2F20009106080F0BB80BEE06E
:1012800029784FF62063A1F130003129106022BF88
:1012900064214843CCF80000687840F2141700EB52
:1012A00080004100CFF6FF7340F21429C2F200071C
:1012B00003EB4000B1F5F07FC2F20009106004D9E1
:1012C000DCF800100844CCF80000A9788DE02978FB
:1012D0006423A1F130003129106022BF4FF47A71EC
:1012E0004843CCF8000068784EF6405440F214179A
:1012F00000FB03F1CFF6FF7440F21429C2F200079D
:1013000010FB0340B1F5965FC2F20009106004D9EA
:10131000DCF800100844CCF80000A8784FF62063F1
:1013200000EB80004100CFF6FF7303EB4000B1F506
:10133000F07F106004D9DCF800100844CCF80000FD
:10134000E97852E0297841F62002A1F13000C2F29A
:1013500000023129106022BF42F210714843CCF8DC
:101360000000687844F280474FF47A73CFF6FF7735
:1013700000FB03F110FB03704BF6813340F21417AE
:101380009942C2F20007106004D3DCF80010084450
:10139000CCF80000A87864234EF6405400FB03F11B
:1013A000CFF6FF7440F2142910FB0340B1F5965FAD
:1013B000C2F20009106004D9DCF800100844CCF82F
:1013C0000000E8784FF6206300EB80004100CFF684
:1013D000FF7303EB4000B1F5F07F106004D9DCF837
:1013E00000100844CCF800002979A1F1300031291F
:1013F000106004D3DCF800100844CCF80000DCF8DE
:10140000000042F261714DF6A003411ACFF6FF735E
:10141000994240F6B061C2F200011060086038BF26
:10142000C2F800E011684DF6A003CFF6FF73A1EB00
:101430000E0201339A4240F6B062C2F2000211601D
:1014400010D240F2F0010620C2F20001C9E9690E93
:10145000086040F61C60C2F2000017214C46016093
:101460003B2025E045F606334A09C0F2B05348F662
:101470008905A2FB0323C8F6880555FB000040F24E
:10148000F002C2F2000213604211C9E9693102EBB5
:10149000D07055FB011240F61C63C2F200031860C5
:1014A000501100EBD270C0EB00104C46A1EB800055
:1014B00040F62061C2F200010A6897F84210C4F8B1
:1014C0009C214A1CD2B20025012ACCF80000C4F8A5
:1014D000A0010CD840F27800C2F20000006840F28F
:1014E000F801C2F20001086087F8420004E040F20F
:1014F000F800C2F20000016002F0F2FD02F0A8FF65
:1015000040F21C00C2F20000006840F64471002264
:10151000C2F20001C0F602020A60D0B140F214111A
:10152000C2F2000100230139A9F10402C0F602034E
:10153000FF2453F8047BFF2F42F8047F28BF27467F
:10154000013801F8017FF4D140F64470C2F2000086
:10155000036001F011F809F5CE778ECF15A0009742
:1015600008F060FACC4640F2141E40F6687440F26F
:101570000403DDF8089000270020C2F2000EC2F23A
:101580000004C2F20003C0F60207FFF778BA40F683
:101590006870C2F20000FF21FEF7FFFD03B0BDE856
:1015A000F08F00BF0D0A48525354202573200D0AB6
:1015B0000000000032304852535420464D4342430D
:1015C0004B55503A2025642025642025642025644D
:1015D0000D0A0000323057525354206D5F685F6D22
:1015E000745F656E737273743A20256420256420DD
:1015F00025642025640D0A002DE9F04F87B040F2E4
:10160000141840F2000940F6687AC2F2000840F26D
:10161000142C41F6200540F2040403464FF0000E5E
:10162000C0F60209C2F2000AC2F2000C08F144003E
:10163000C2F20005C2F200040026002705900693BE
:10164000042EC0F25F811AF806103D2940F05A813D
:1016500006EB0A0010F8012C432A2BD110F8022CBB
:10166000502A27D110F8032C4D2A23D141460120BE
:10167000059A88F8FE00CCF8F803012506F1080069
:10168000711C42F201440AE0002F01F1010618BF6B
:1016900082F800E001328142314680F2CD801AF8B2
:1016A00001300D2B1370EFD805FA03F3234218BF56
:1016B0000F46E9E73D2940F0258110F8012C442A26
:1016C00052D110F8022C552A4ED1701C1AF8001075
:1016D0004FF0010B3D2908BFB01C1AF80010064658
:1016E000A1F13000286088F8430088F8FEB0CCF8FB
:1016F000F8B3654602F0F4FC02F062FE40F21C0012
:10170000C2F20000006840F644710028C2F20001F5
:10171000C1F8009000F00F81A8F101012A1F4B468B
:10172000AC46FF2553F8044BFF2C42F8044F28BF6A
:101730002C46013801F8014FF4D140F64470C2F252
:101740000000036040F2141841F62005069B40F2A9
:1017500004044FF0010BC2F20008C2F200054FF082
:10176000000EC2F20004CFE03D2940F0CB8010F81B
:10177000012C4C2A31D110F8022C572A2DD110F807
:10178000032C4D2A29D10120AB4688F8FE00CCF865
:10179000F803012506F10E0108F11402731C002064
:1017A00042F201440EE000BF2C2F08BF184600286B
:1017B000A3F1010718BF82F800E0013301328F4224
:1017C00080F2C2801AF803700D2F1770ECD805FA5A
:1017D00007F62642E8D01846E9E73D2940F0928016
:1017E00010F8012C472A67D110F8022C462A63D141
:1017F00010F8032C432A5FD140F6447B0121C2F24A
:10180000000B88F8FE10CCF8F8130130711C00268C
:1018100000220AE0002E06BF08F80230002608F871
:1018200002E001320F2A00F03582835C2C2BF1D1CB
:101830008E1808F802E0F4E702F052FC02F0C0FD56
:1018400040F21C00C2F20000006840F6447100281B
:10185000C2F20001C1F8009060D040F2142CA8F14F
:101860000101C2F2000C41F62008ACF104024B4623
:10187000C2F20008FF2500BF53F8044BFF2C42F8CA
:10188000044F28BF2C46013801F8014FF4D140F62F
:101890004470C2F20000036040F21410C2F2000073
:1018A00040F20404069B4FF0000B4FF0000EC2F212
:1018B00000044546804627E03D2923D110F8012C3D
:1018C000542A0CD110F8022C532A08D110F8032CFA
:1018D000522A04D110F8042C572A00F0D1823D2955
:1018E00010D110F8011C54290CD110F8021C5329F6
:1018F00008D110F8031C522904D110F8040C482810
:1019000000F0BE824FF0010BBBF1000F00F0B88277
:10191000206801368642FFF693AEB1E240F2142C05
:1019200041F620054FF0000BC2F2000C4FF0000E04
:10193000C2F20005A8E1AC4641F62005069BC2F2C2
:1019400000054FF0000EDFE71AF8001008F123033E
:101950002C2908BF01301AF800102C2908BF0130CB
:1019600000F10E0200210CE02C2F08BF01460029D7
:1019700018BF83F800E0904200F1010003F1010379
:101980000ADA1AF800700D2F1F70EDD805FA07F665
:101990002642E9D00146EAE71AF8010008F13202CE
:1019A0002C2808BF01311AF8010000272C2808BF95
:1019B000013101F10E0009E0002F01F1010618BF0D
:1019C00082F800E00132814231460ADA1AF8013029
:1019D0000D2B1370F0D805FA03F3234218BF0F46FE
:1019E000EAE798F814000130C0B2022812D398F840
:1019F0001900FF280ED068B1D8E90501D8F81F20DA
:101A000043F62015C2F20005D8F81C30C5F80B20AB
:101A10000BC514E043F62010C2F20000322101731E
:101A200043F22B61C3F63201016043F23561C3F228
:101A30003811416043F23311C3F23841816098F8A4
:101A400023000130C0B2022814D398F82800FF28E0
:101A500010D078B1D8F82300D8F82E2043F63015EE
:101A6000C2F20005D8F82710D8F82B30C5F80B20A3
:101A70000BC515E043F63011C2F2000143F63910F0
:101A8000888143F22B60C3F63200086043F23230A3
:101A9000C3F23100486043F63210C3F2331088605D
:101AA00098F832000130C0B2022814D398F83700F9
:101AB000FF2810D078B1D8F83200D8F83D2043F68E
:101AC0004015C2F20005D8F83610D8F83A30C5F8FB
:101AD0000B200BC514E043F640113220C2F2000186
:101AE000888143F22B60C3F63200086043F2311064
:101AF000C3F23230486043F23430C3F23170886050
:101B00005D4602F0EDFA02F05BFC40F21C00C2F20E
:101B10000000006840F6447140F2142CC2F200014B
:101B2000C2F2000C4FF0000EC1F80090D8B1A8F13D
:101B30000101ACF104024B46FF2500BF53F8044BF2
:101B4000FF2C42F8044F28BF2C46013801F8014F02
:101B5000F4D140F6447040F21418C2F20000C2F210
:101B600000085D46036098F814000130C0B20228F6
:101B700012D398F81900FF280ED068B1D8E90501F2
:101B8000D8F81F2043F62014C2F20004D8F81C3005
:101B9000C4F80B200BC414E043F62010C2F200007E
:101BA0003221017343F22B61C3F63201016043F22B
:101BB0003561C3F23811416043F23311C3F2384149
:101BC000816098F823000130C0B2022814D398F83D
:101BD0002800FF2810D078B1D8F82300D8F82E209C
:101BE00043F63014C2F20004D8F82710D8F82B308E
:101BF000C4F80B200BC415E043F63011C2F200010B
:101C000043F63910888143F22B60C3F63200086036
:101C100043F23230C3F23100486043F63210C3F26F
:101C20003310886098F832000130C0B2022814D313
:101C300098F83700FF2810D078B1D8F83200D8F8DB
:101C40003D2043F64014C2F20004D8F83610D8F80C
:101C50003A30C4F80B200BC414E043F64011322094
:101C6000C2F20001888143F22B60C3F632000860A3
:101C700043F23110C3F23230486043F23430C3F2E1
:101C8000317088604FF0000B40F20404069BC2F2F2
:101C9000000439E60027002401361AF8065040F205
:101CA0001410C2F200002C2D20444FF0000208BF97
:101CB0003746002F08BF2A46C2730FF6740031461C
:101CC0003B46009507F0AEFE44F24220C0F20F0002
:101CD000013800BFFCD10134052CDDD17E1C1AF87F
:101CE000060041F620052C2808BFBE1C1AF8060085
:101CF000C2F200052C2808BF01361AF80600303859
:101D0000286002F0EDF902F05BFB40F21C00C2F229
:101D10000000006840F2141840F2142C40F28804CD
:101D2000069BC2F20008C2F2000C4FF0000EC2F295
:101D300000045946CBF80090E0B1A8F10101ACF1E4
:101D400004024B464FF0FF0853F8045BFF2D42F8A6
:101D5000045F28BF4546013801F8015FF4D1CBF894
:101D6000003041F62005069B40F21418C2F200052F
:101D7000C2F2000898F80000FF281CD098F8011063
:101D8000FF2918D098F80220FF2A14D098B191B1F9
:101D90008AB19B464FF0FF3008EB000149782318C9
:101DA000A1F130024B2A00F1010028BF71460E2834
:101DB0005970F1D110E043F24D20C5F24D00206082
:101DC00044F64C60C4F64150606052209B4620723D
:101DD000C4F809E0A4F80DE098F80F20501CC0B238
:101DE000022817D240F2A40143F23100C2F20001EE
:101DF000C3F23000086049F68960C0F6010081F83E
:101E000004E007F00FFE40F2142C4FF0000EC2F277
:101E1000000C09E098F81300D8F80F1040F2A40263
:101E2000C2F200021071116098F8410040F20404FF
:101E3000411CC9B2C2F200045B46012913D840F22A
:101E40007C00C2F20000006840F2B401C2F200015E
:101E5000087040F2FC01C2F20001086088F84100FD
:101E60004FF0000B50E540F2B401C2F200010870DF
:101E700040F2FC01C2F2000108604FF0000B43E5A4
:101E8000082B5BD0072B40F048839AF8087001209C
:101E900088F8FE00CCF8F8039AF809004146B7F13B
:101EA0003008AB46C5F800804FF009054FF000063A
:101EB00098BFB0462C2808BF0A251AF8050041F241
:101EC0007034C2F2000481F841802C2820464FF47F
:101ED000966108BF0135FEF760F90AEB05000021A5
:101EE000002200BF835C00290D4608BF1546002B69
:101EF00008BF2946002918BF3346A3540132052ADA
:101F0000F0D140F6A8600139C2F200000022032996
:101F1000026000F26F8040F2142CC2F2000CDFE885
:101F200001F002ACB9D7217840F214143039CBF863
:101F30000010C2F2000488BF016006E1012088F8A9
:101F4000FE00CCF8F8039AF808009AF80910303827
:101F500028604FF0000698BF304688F84200C0B2B3
:101F60000927CCF8080140F2F8082C2908BF0A27F5
:101F70001AF8071041F27034C2F20008C2F20004ED
:101F8000C8F800002C2920464FF4966108BF01379D
:101F9000FEF703F9002000211AF807206654212AD1
:101FA00012BF002A00280846002818BF3246625493
:101FB00001F1010108BF01370529EDD140F6A46AFE
:101FC0000138C2F2000A00210328CAF8001000F20A
:101FD0003B8140F21426C2F20006DFE810F0040054
:101FE00081018E01AD0120783038286088BFCAF8A1
:101FF0000000DDE121786278303942F2107344F25A
:10200000804659434FF47A73CFF6FF7602FB03F70D
:1020100012FB03624BF6813301609F42CBF8002034
:1020200024BF11440160A17864224EF6405740F26B
:10203000142C01FB02F3CFF6FF77C2F2000C11FB68
:102040000271B3F5965FCBF8001002D90268114413
:102050000160E1784FF6206301EB81014A00CFF681
:10206000FF7303EB4101B2F5F07FCBF8001002D90A
:1020700002681144016022795AE02278A2F130010D
:10208000312ACBF8001022BF01EB81014900016029
:1020900062784DE0312F03D321783039CBF800102E
:1020A000DBF8002064215143012A016003DB6278E0
:1020B000303ACBF80020DBF8003003EB830252000B
:1020C000012BCBF80020A4BF11440160A2782FE0BF
:1020D00022784EF64057A2F13001312ACBF8001099
:1020E00022BF4FF47A72514301606178642201FB90
:1020F00002F3CFF6FF7711FB0271B3F5965FCBF8D1
:10210000001002D9026811440160A1784FF62063E3
:1021100001EB81014A00CFF6FF7303EB4101B2F5F9
:10212000F07FCBF8001002D9026811440160E27818
:1021300040F21414A2F13001312AC2F20004CBF8AB
:10214000001002D3026811440160016848F6890753
:10215000B1F5B46FCBF80010C4BF4FF4B4620260A5
:102160000268C8F68807002ADCBF4FF4B462026038
:10217000026840F6B46357FB0226C2F200031A60FD
:10218000731100253B2AC8BF03EBD67540F62063C8
:1021900057FB0117C2F200031D607B1103EBD773DD
:1021A000C3EB0313A1EB8301016008F10100C0B28E
:1021B0000128CCE96425CCF8981111D840F27C00B4
:1021C000C2F20000006840F2B401C2F200010870DF
:1021D00040F2FC01C2F20001086084F841000CE00A
:1021E00040F2B400C2F2000040F2FC0180F800802E
:1021F0005FFA88F0C2F20001086040F6447BC2F248
:10220000000B01F06DFF02F023F940F21C00C2F256
:1022100000000068CBF8009098B140F21422C2F29E
:102220000002611E043A00BF59F8043BFF2B42F83C
:10223000043F28BFFF23013801F8013FF4D1CBF858
:10224000009000F099F968E1217844F28043A1F10F
:1022500030003129286022BF42F210714843CAF889
:10226000000060784FF47A71CFF6FF7340F21426C5
:1022700000FB01F210FB01304BF68131C2F2000687
:102280008A42286004D3DAF800100844CAF8000033
:10229000A07864214EF6405300FB01F2CFF6FF73A5
:1022A00010FB0130B2F5965F286004D9DAF800100F
:1022B0000844CAF80000E0784FF6206200EB800086
:1022C0004100CFF6FF7202EB4000B1F5F07F2860CD
:1022D00004D9DAF800100844CAF8000021795DE05A
:1022E0002178A1F130003129286022BF00EB800065
:1022F0004000CAF80000617850E021784FF6206273
:10230000A1F130003129286022BF64214843CAF876
:1023100000006078CFF6FF7200EB8000410002EB16
:102320004000B1F5F07F286004D9DAF800100844C5
:10233000CAF80000A17831E021784EF64053A1F1AF
:1023400030003129286022BF4FF47A714843CAF81F
:1023500000006078642100FB01F2CFF6FF7310FBF0
:102360000130B2F5965F286004D9DAF8001008440D
:10237000CAF80000A0784FF6206200EB8000410010
:10238000CFF6FF7202EB4000B1F5F07F286004D970
:10239000DAF800100844CAF80000E178A1F1300032
:1023A0003129286004D3DAF800100844CAF8000084
:1023B000DAF800004DF6A00240F6B06342F2617117
:1023C000CFF6FF72C2F20003411A286091421860F2
:1023D0003CBF42F260712960296842F26073CF1AF3
:1023E0000132974240F61C6440F2F007C2F200044A
:1023F000C2F2000708D20620C6E969033860172038
:10240000BB4620603B2038E045F606334A09C0F25F
:10241000B053A2FB03234FF4B462D046AA4603FB99
:1024200012059FED471A00EE105AB8EEC00A80EE72
:10243000010AC6E96931BB463B60C8F8005007F0A5
:1024400015FB48F68900C8F6880050FB055040F29D
:102450001426411101EBD070CAF80050C24640F278
:10246000F808C0EB0010C2F20006BDEEC00AC2F2CE
:102470000008A5EB800084ED000A40F62061C2F25E
:10248000000109682746C6F89C11D6F8A81140F645
:10249000B06440F64475C2F20004C2F20005CAF806
:1024A0000000C6F8A001216001F01AFE01F0D0FF83
:1024B00040F21C00C2F200000068C5F8009090B124
:1024C00040F21411C2F200010139321F59F8043BE5
:1024D000FF2B42F8043F28BFFF23013801F8013FDA
:1024E000F4D1C5F8009000F047F840F21410C2F2A1
:1024F000000090F84220DAF800003968D8F800307F
:10250000DBF8007026688DE8830040F668710DA046
:10251000C2F20001039607F085FA40F66870C2F235
:102520000000FF21FDF739FE07B0BDE8F08F00BFC6
:102530000D0A25642025642025642025640D0A00E9
:1025400000007042336D736720257320666D635FF2
:10255000627566665B36365D20256420656E616255
:102560006C656872737420256420256420256420BE
:1025700025642025640D0A002DE9F04F81B040F25A
:102580001424C2F2000404F5C87B9BE8E808D4F8E0
:10259000A40140F6B46C40F6206140F6A86240F613
:1025A0001C6940F6A46840F2F00AC2F2000CC2F2C4
:1025B0000001C2F20002C2F20009C2F20008C2F237
:1025C000000ACCF800300D601660C9F80070C8F839
:1025D00000B055EA0607CAF8000004BF18200860DA
:1025E00008681928A4BF182008600868B0F1FF3FE8
:1025F000DCBF00200860B6F1FF3FDCBF00201060A8
:10260000A3F5B46010F5B46F07D84FF4B460CCF8FC
:102610000000172008603B20106008681368C0EBBA
:10262000001003EB8000A0F5B46313F5B46FCCF891
:10263000000007D84FF4B460CCF800001720086001
:102640003B201060D4F8A81142F260704DF6A00350
:102650000A1ACFF6FF7340F6B0669A42C2F200063D
:102660000DD8062117223B23CAF80010C9F8002014
:10267000C8F80030C4E96723C4E9691038E000EE07
:10268000101A9FED221AB8EE400A80EE010A31605E
:1026900007F0ECF9BCEEC01A11EE100A4FF4B46169
:1026A00000FB11B59FED1A2A00EE105AB8EEC00AD1
:1026B00080EE020A41F6200784ED691A8AED001ABD
:1026C000C2F2000707F0D2F948F68900C8F6880080
:1026D00050FB0550BDEEC00A411101EBD070C0EBBC
:1026E0000010A5EB800089ED000A3D60C8F80000ED
:1026F000306842F25F71884204BF42F2607030601D
:10270000D4F8A801306001B0BDE8F08F0000B444F7
:1027100000007042B0B5072884BF6420B0BDC1B2CC
:10272000BF2222FA01F1C9074FF0640413D00BA1B4
:1027300012A251F8201052F8205040F66870C2F2F0
:102740000000FDF73CFD40F2D401C2F20001086038
:10275000002808BF2C462046B0BD00BF280000203E
:10276000320000203A000020430000204E000020EC
:102770005A00002028000020640000200000000013
:10278000010000000200000003000000040000003F
:102790001200000000000000150000002DE9F047C5
:1027A00082B040F6287041F26C3640F66874C2F28E
:1027B00000000021C2F20006C2F200040022C0E9BB
:1027C0000011317004E000BFFD2901F1010114DAAC
:1027D000635C222B04BF01323270212BF4D1EF292C
:1027E000F2DCD3B2012BEFD02144D1F80130D1F883
:1027F0000510C0E90031FF21E6E740F6287040F6F9
:102800003071C2F20000C2F200010822FDF7E5FCBF
:1028100041F6200540F2D009C2F2000540F27008EE
:10282000C2F2000964212860C2F200080020C9F841
:10283000001000220021C8F80000307004E000BF42
:10284000FD2A02F1010212DAA35C222B04BF01313E
:102850003170212BF4D1EF2AF2DCCBB2012BEFD077
:10286000A318A050FF22586018819872E8E7617A97
:10287000E079267A44F64A375429C0F24C0708BF5B
:102880004F2E65D0627994F803C02179A3794C2A40
:1028900008BF572900F080804C2B08BF572A00F052
:1028A0008680472B08BF462A00F09C80442808BF3A
:1028B000552B00F00381542B08BF462A00F02A81D3
:1028C000432A08BF502900F04B81522B08BF452AEC
:1028D00000F051814D2B08BF492A00F03382432B71
:1028E00008BF412A00F04D8283F0540682F0530560
:1028F0002E4381F052052E4308BFBCF1480F00F073
:102900007482ACF15705B6FA86F6B5FA85F5760904
:102910006D092E40012E40F083823D2802D1072010
:10292000FEF76AFE40F2FC00C2F20000016840F6C9
:10293000B460C2F20000026849F65B60C0F60100B4
:1029400007F070F8384600BF013800BFFCD131E114
:102950004F2897D149F63D70C0F6010007F0B0F955
:10296000384600BF013800BFFCD140F22400C2F25B
:102970000000002101600320C9F80000C8F8000031
:1029800040F66470C2F2000062210170384600BF58
:10299000013800BFFCD117E1BCF14D0F7FF47CAFD3
:1029A0003D2B40F0A180FDF70DFD05259DE04E2952
:1029B0007FF477AF3D2808BFFDF704FD40F2141007
:1029C000C2F2000090F84C104AF23F004EF2DE15C1
:1029D000C0F60100C0F2E40507F024F8013D00BF95
:1029E000FCD1E7E043297FF461AF3D281FD1FDF71B
:1029F000E9FC3846013800BFFCD141F27035C2F223
:102A0000000549F65D5140F28802C0F60101C2F2AC
:102A10000002284607F016F8284606F03DFF42F669
:102A20002850C0F2311000BF013800BFFCD141F284
:102A30007030C2F200004FF49661FDF7AEFB41F634
:102A40003400C2F2000040F63401FDF7A6FB42F666
:102A5000A400C2F2000040F63401FDF79EFB42F2F2
:102A60006800C2F2000040F63401FDF796FB42F622
:102A7000A000C2F200000021016042F69C00C2F2F8
:102A80000000016040F66870C2F20000FF21FDF70F
:102A900084FB40F2B400C2F20000037849F6AA6059
:102AA00040F2880140F2A402C0F60100C2F2000127
:102AB000C2F2000206F0B6FF022079E0412A7FF45C
:102AC000FAAE3D2E64D101202860FDF77BFC40F278
:102AD0001410C2F2000090F8431049F61D50C0F6E1
:102AE000010006F09FFF62E0012549F6BD6043F654
:102AF000201143F6301243F64013C0F60100C2F233
:102B00000001C2F20002C2F2000306F08BFFC9F816
:102B100000504FE04F297FF4D3AEBCF1530F7FF448
:102B2000CFAE0FF2144007F0CBF83846013800BFA3
:102B3000FCD140F22400C2F2000000210160032019
:102B4000C9F800000D20C8F8000040F66470C2F219
:102B50000000622101703846013800BFFCD133E02B
:102B60003D2B08BFFDF72EFC40F630710FF2BC3054
:102B7000C2F2000108E056297FF4ACAE40F2080131
:102B80000FF29830C2F2000106F04CFF05200FE072
:102B900040F21410C2F2000090F8431040F22000FE
:102BA000C2F2000002680FF2A03006F03BFF0420E2
:102BB000C9F8000040F66570C2F20000007840F6E7
:102BC0006471C2F200010870207A532840F0AD8091
:102BD000E0794D2840F0A980A0794C2840F0A580EC
:102BE000A07A222840F0778040F6647040F6646A4C
:102BF000C2F200002A21C2F2000A017050463221BE
:102C0000FDF7CBFA40F6387541F27030C2F200059C
:102C10000026C2F200004FF49661C5E90066FDF798
:102C2000BCFA0B2000210022235C2C2B04BF0126C0
:102C30000130235C222B0AD0002E19BFAB54013285
:102C40000AF801300131642800F10100ECDB49F69B
:102C500088504EF2DE14C0F60100C0F2E40406F023
:102C60001BFE00BF013C00BFFCD141F27034C2F238
:102C7000000449F69A5140F66463C0F60101C2F2BD
:102C8000000320462A46009506F0DCFE204606F0AA
:102C900003FE4CF2BC30C0F2C91000BF013800BFC7
:102CA000FCD149F64870C0F6010007F009F8384633
:102CB000013800BFFCD13846013800BFFCD140F2DA
:102CC0002400C2F20000002101600820C9F80010B1
:102CD000C8F8000018E049F6CF60C0F6010006F021
:102CE000EFFF3846013800BFFCD1D8F800000828B3
:102CF0000AD040F66570C2F20000007840F66471B8
:102D0000C2F20001087000BF013F00BFFCD1D8F83B
:102D10000000082809D040F66570C2F20000007873
:102D200040F66471C2F200010870D9F8000003286F
:102D300005D140F66470C2F200006221017002B059
:102D4000BDE8F08753297FF4CAAD40F6667540F6BA
:102D50006776C2F20005C2F20006297832786AA0CE
:102D600006F060FE0520C9F80000287840F664717E
:102D7000C2F200010870307840F66571C2F20001BD
:102D800021E746297FF4B0ADBCF1460F7FF4ACAD2E
:102D900049F2946455A0C0F2980406F091FF01F046
:102DA0009FF901F0CFF90520C9F8000040F66570E1
:102DB000C2F20000007840F66471C2F200010870AF
:102DC000013C00BFFCD14EF60C50CEF20000BFF328
:102DD0004F8F0168042201F4E061C0F2FA521143FE
:102DE0000160BFF34F8F00BFFEE73D2802D10820EE
:102DF000FEF702FC40F2F800C2F20000016840F663
:102E0000B060C2F20000026849F64760C0F60100F7
:102E100006F008FE384600BF013800BFFCD1C9E605
:102E2000322B08BF572A18D0412808BF542B49D04D
:102E30006420C9F800002046FDF7BAF940F60D22DB
:102E40002118225200208870204606F025FD40F609
:102E50006470C2F200001D2132E04629E4D1BCF1C9
:102E60004D0FE1D149F294651DA0C0F2980506F01E
:102E700027FF013D00BFFCD140F21410C2F2000058
:102E800040F20111A0F8FE1040F21421C2F200013C
:102E90000122C1E9FE22642280F8F020C1F8C0239B
:102EA00001F01EF901F08CFA01F0EEF840F66470C2
:102EB000C2F200006321017040F66570C2F20000AA
:102EC000017081E64F2AB3D14629B1D140F6207076
:102ED000C2F2000000210160012002F0C7FA73E68F
:102EE00041542B4D465732204F4B0D004641435421
:102EF0004F525920524553455420495320574F5261
:102F00004B494E470D00000041542B4D53494D464F
:102F10004C41473D25642025640D0A0041542B4D4A
:102F20005645523D25730D0A0000000041542B4DBB
:102F300050433D25730D0A00534F465452455345A7
:102F400054204F4B0D00000041542B4D424155443D
:102F50003D25642E2042617564726174652044656C
:102F60006661756C745B3235355D203D25640D0AF4
:102F700000000000B0B549F6D45041F2000444F618
:102F80004A35C0F60100C4F20104C0F24C0506F057
:102F900083FC20464FF4004101F0F2FB284600BFBD
:102FA000013800BFFCD120464FF4004101F0EAFB9C
:102FB000013D00BFFCD149F294640FA0C0F2980417
:102FC00006F06AFC204600BF013800BFFCD114A007
:102FD00006F062FC204600BF013800BFFCD116A0FD
:102FE00006F05AFC013C00BFFCD140F61A60C2F268
:102FF000000001210170B0BD41542B475453595377
:10300000434D443D226E76207365742057414E50E7
:10301000696E6746696C7465723D31220D0A000065
:1030200041542B4754535953434D443D226E76200F
:1030300073617665220D0A0041542B47544C414E72
:10304000454E41424C453D310D0A00002DE9F04707
:1030500040F22408C2F200084FF0FF30C8F8000028
:1030600040F20400C2F20000D0F8009042F6A40C36
:1030700040F2BC0E0021C2F2000CC2F2000E00248D
:103080004FF0000A05E0C819C11C00BF01314945D5
:1030900036DA1CF801003A28F8D101EB0C0616F8D4
:1030A000010C5028F2D116F8020C4928EED116F87E
:1030B000030C4C28EAD1002703E000BF01370E2F94
:1030C000E1D0F3192246CC195879E51C2C282C465E
:1030D00009D02C463AB9BAF1000F2C4603D1DA7860
:1030E00000240EF807202C28E8D11879222808BFE0
:1030F000BAF1000FE2D1D878AA460EF80700DDE752
:1031000042F6A000C2F200000021016042F6A400D5
:10311000C2F2000040F63401FDF73FF849F2946036
:10312000C0F29800013800BFFCD140F2BC04C2F2EA
:10313000000443F62011C2F2000120460F22FDF7E1
:103140004CF840F2D40540F62076C2F20005C2F2F7
:10315000000601212860316068B140F2BC0043F6EE
:103160003011C2F20000C2F200010F22FDF735F863
:10317000286002203060286868B140F2BC0043F645
:103180004011C2F20000C2F200010F22FDF725F843
:10319000286003203060286844F64A31002840F651
:1031A0006470C0F24C01C2F200004FF0000210D077
:1031B00032604FF0FF32C8F800200322027000BFD7
:1031C000013900BFFCD140F66571C2F200010978F7
:1031D00006E0C8F8002000BF013900BFFCD1232160
:1031E000017040F21410C2F2000090F84C202868E0
:1031F00082F001030343B3FA83F3013240F64071D6
:103200005B09D2B20027C2F20001022A38BF0127AF
:1032100047EA03020A7094E80E0041F24036C2F217
:10322000000686E80E0040F2CC01C2F200010A68F6
:10323000D4F80B70531C032AC6F80B700B6005DB27
:10324000002818BFBDE8F08702F0A8FDBDE8F087B0
:103250002DE9F04F85B041F20000C4F201004FF4B7
:10326000005101F08DFA40F66874C2F20004204665
:10327000FF21FCF792FF40F20400C2F20000D0F8F8
:1032800000E042F6A4060020C2F20006002100225F
:1032900003E000BF0130704516DA335C432B0DD1DB
:1032A00083195F784D2F09D19F78542F06D1DB7891
:1032B000871D3A2B04BF38463A4600BF002AE9D0A2
:1032C000335C73540131E5E740F61962C2F2000243
:1032D000002040F664711070C2F2000108782E28B8
:1032E00002D008782F2876D141F268020023C2F27A
:1032F000000200BFF05C412826D19819417854297A
:1033000022D181782B291FD1C1784D291CD1007978
:10331000462819D10020194605E000BF0131632875
:1033200000F1010017DA775C0A2F1754F6D10E442A
:1033300016F8016C0D2E42F6A406C2F2000604BF78
:1033400017546430EAE700BF1846002333B9431C22
:103350007345CFDB02E0481D002BF8D04CF2BC35A2
:1033600004F14900B621C0F2C915FCF716FF4AF274
:103370004811C0F6010120464922FCF7F5FE02F093
:1033800009FE00BF013D00BFFCD14EF2DE10C0F2CD
:10339000E40000BF013800BFFCD140F6687041F284
:1033A000680144F64A34C2F20000C2F20001FF2272
:1033B000C0F24C04FCF7D8FE013C00BFFCD140F643
:1033C0002070C2F2000001210160012002F04EF8DD
:1033D00005B0BDE8F08F41F26C3392F800B0C2F254
:1033E00000030024AEF10207002000254FF0000A80
:1033F0001C700490CDE9027E705D2B283CD17019C1
:10340000994600F1020C6B1C002700210AE000BF66
:103410002C2C08BFBAF1000F22D001310E2902F185
:1034200001032DD01CF801406E1838461A462C2C8A
:10343000B0463746ECD00028B0463746E8D1BAF15E
:10344000000FB0463746E3D10CEB010010F8020C38
:1034500041F23033C2F200030027A8465854D7E7A0
:103460000CEB010010F8020C41F23033C2F2000301
:10347000B2465854D1E700BF4FF000081CE000BF2F
:103480006818851DAE45C8BF754642F6A406029F62
:10349000C2F200064B460024B01880790A2805D0F5
:1034A000901D01327045F7DB02E000BFD51DA84634
:1034B00040F61962C2F2000240F62870C2F2000023
:1034C000B8F1000F0460446000F0CC8040F6687CE6
:1034D0004FF00009C2F2000C0AE000BF8CF800E0D7
:1034E0004FF000090135BD420CF1010C80F2BA80A9
:1034F00016F805E0AEF10A004A2800F26180DFE824
:1035000010F0B1005F005F0077005F005F005F00B8
:103510005F005F005F005F005F005F005F005F00B3
:103520005F005F005F005F005F005F005F005F00A3
:10353000A80056005F005F005F005F005F005F0053
:103540005F005F005F005F005F005F005F005F0083
:103550005F005F005F005F005F005F005F005F0073
:103560005F005F005F005F005F005F005F005F0063
:103570004B005F005F005F005F004B005F005F007B
:103580005F005F005F005F004B005F004B005F006B
:103590005F005F005F004B000BF1010BBEF1210FDC
:1035A00082F800B000F05580BEF1220F08D10498D7
:1035B000BEF1210F00F101000490187000F0498065
:1035C000B9F1000F3FF48AAFA9F10200072809D82A
:1035D00040F62871C2F2000101F800E009F101098A
:1035E00080E700BFB9F1010F08BF4FF0020979E78A
:1035F000711949780A2900F035804A28E0D8DFE8B7
:1036000000F0312F2F2F2F2F2F2F2F2F2F2F2F2F36
:103610002F2F2F2F2F2F2F2F2F28272F2F2F2F2FC9
:103620002F2F2F2F2F2F2F2F2F2F2F2F2F2F2F2FAA
:103630002F2F2F2F2F2F2F2F2F262F2F2F2F262FAC
:103640002F2F2F2F2F262F262F2F2F2F2600A3E7A8
:10365000ADE7049810F0FD0F08BF09F10109AFE7CD
:10366000AEE700BFDDF80CE0B8F1000F03D1013583
:103670007545FFF6C1AE40F26C00C2F200000A21AF
:1036800041F2303301600020C2F20003107093E871
:10369000070041F24037D3F80B30C2F2000749F27D
:1036A000946687E807000FF65810C0F29806C7F82E
:1036B0000B3006F0F1F83046013800BFFCD142F67D
:1036C000A00842F6A40044F24224C2F200080025F9
:1036D000C2F200004FF4FA71C0F20F04C8F80050B3
:1036E000FCF75BFD40F2700AC2F2000A4FF0FF30B7
:1036F000CAF8000040F6207741F2303043F620113E
:10370000C2F20007C2F20000C2F200013D60FCF705
:1037100056FD40F2D405C2F200052860B0FA80F0F0
:10372000400940F6647B38602046C2F2000B00BFBF
:10373000013800BFFCD1386878B941F2303043F627
:103740003011C2F20000C2F20001FCF738FDB0FAFD
:1037500080F149092860480038602046013800BFE0
:10376000FCD1386880B941F2303043F64011C2F2E2
:103770000000C2F20001FCF722FD002128600028B1
:1037800008BF0321396000BF013C00BFFCD140F2FB
:103790001419C2F2000999F84C103A684B1EB3FA9A
:1037A00083F340F64070002A18BF01225B09C2F281
:1037B00000001A424FF00002027003D10131C9B279
:1037C000012901D8012101700078002844D040F679
:1037D000287040F63071C2F20000C2F200010822E7
:1037E000FCF7FBFC054641F62000C2F2000040F663
:1037F0006874056041F26810C2F20004C2F2000071
:103800002146C822FCF7B0FC002D4AD04EF2DE154E
:103810002046C0F2E405FCF7CBFC44F20A52C5F2A4
:1038200052222118225045F24F20C4F22030486025
:1038300044F24F40C2F2451088600020087302F045
:10384000A9FB00BF013D00BFFCD140F66570C2F28C
:103850000000007800F077BB40F66875C2F2000502
:103860004EF2DE142846C0F2E404FCF7A1FC44F258
:103870000A52C5F2522229182A5045F24F20C0F2AE
:103880002100486002F086FB013C00BFFCD140F6FD
:103890006570C2F2000000788BF8000005B0BDE84A
:1038A000F08F04F025FC6428CAF8000000F245837C
:1038B000DFE810F06A007F00A500C900EA00FF0001
:1038C000430343030B01650065005F017F019C0119
:1038D000C301E101FF0125024B0269027E02D7020A
:1038E000430325034E0343034303430343034303BB
:1038F0004303430343034303430343034303430398
:103900004303430343034303430343034303430387
:103910004303430343034303430343034303430377
:103920004303430343034303430343034303430367
:103930004303430343034303430343034303430357
:103940004303430343034303430343034303430347
:103950004303430343034303430343034303430337
:103960004303430343034303430343034303430327
:10397000430343034303430343034303690302F045
:1039800061FBFCF71FFDD1E240F6687040F6B861BC
:103990004EF2DE14C2F20000C2F20001FF22C0F2B9
:1039A000E404FCF7E1FB02F0F5FA013C00BFFCD1B6
:1039B000BCE240F66874C2F200044EF2DE15204606
:1039C000FF21C0F2E405FCF7E8FB43F640174AF29A
:1039D000B80143F6201243F63013C2F20007C0F6D6
:1039E0000101C2F20002C2F200032046009706F075
:1039F00029F802F0CFFA013D00BFFCD196E240F673
:103A00006874C2F200044EF2DE152046FF21C0F2B7
:103A1000E405FCF7C2FB99F8417049F6FC7140F2ED
:103A2000880240F2A403C0F60101C2F20002C2F211
:103A300000032046009706F005F802F0ABFA013DBE
:103A400000BFFCD172E24EF2DE1504F10A00F5214E
:103A5000C0F2E405FCF7A1FB4720208145F24F406E
:103A600044F25251C4F64960C4F64271C4E90010F0
:103A700002F090FA013D00BFFCD162208BF80000FB
:103A8000013E00BFFCD158E240F6687040F6B861D4
:103A90004EF2DE14C2F20000C2F20001FF22C0F2B8
:103AA000E404FCF761FB02F075FA013C00BFFCD1B5
:103AB0003CE244F64A34C0F24C0402F0C3FAFCF78C
:103AC00081FC013C00BFFCD130E244F64A34C0F234
:103AD0004C0402F0B7FAFCF775FC013C00BFFCD1C6
:103AE00041F27034C2F2000449F65D5140F288029E
:103AF0004EF2DE15C0F60101C2F200022046C0F20D
:103B0000E40505F09FFF204605F0C6FE013D00BF1D
:103B1000FCD141F27030C2F200004FF49661FCF724
:103B20003CFB41F63400C2F2000040F63401FCF7E1
:103B300034FB42F6A400C2F2000040F63401FCF768
:103B40002CFB42F26800C2F2000040F63401FCF7A0
:103B500024FB40F66572C2F2000242F69C01127824
:103B60000020C2F20001C8F8000008608BF80020B5
:103B7000E3E140F66874C2F200044EF2DE1520461E
:103B8000FF21C0F2E405FCF708FB40F22000C2F27E
:103B9000000099F8432003684AF21901C0F60101B8
:103BA000204605F04FFF02F0F5F9013D00BFFCD1C2
:103BB000BCE140F66874C2F200044EF2DE15204605
:103BC000FF21C0F2E405FCF7E8FA4AF2C80140F22E
:103BD0000802C0F60101C2F20002204605F032FFE1
:103BE00002F0D8F9013D00BFFCD19FE104F11000C3
:103BF000EF21FCF7D2FA44F6207045F2453144F249
:103C00004F6245F24143C0F24B00C5F24541C5F257
:103C10005422C5F22B33C4E90032C4E9021002F089
:103C2000B9F9013E00BFFCD144F64A30C0F24C0065
:103C3000013800BFFCD162207DE141F2302440F622
:103C40006875C2F20004C2F2000544F64A36204606
:103C50002946FF22C0F24C06FCF786FA02F0F2F980
:103C600028462146FF22FCF77FFAFCF7ABFB013E1A
:103C700000BFFCD15AE141F2302440F66875C2F22F
:103C80000004C2F2000544F64A3620462946FF22C7
:103C9000C0F24C06FCF768FA02F0D4F92846214637
:103CA000FF22FCF761FAFCF78DFB013E00BFFCD15F
:103CB0003CE140F66874C2F200042046FF21FCF7A4
:103CC0006CFA40F2FC00C2F20000026840F6B460F8
:103CD000C2F20000036849F65B61C0F601012046AC
:103CE00005F0B0FE02F056F9013E00BFFCD144F6EB
:103CF0004A30C0F24C00013800BFFCD116E140F65A
:103D00006874C2F200042046FF21FCF746FA40F234
:103D1000F800C2F20000026840F6B060C2F2000093
:103D2000036849F64761C0F60101204605F08AFEA6
:103D300002F030F9013E00BFFCD144F64A30C0F237
:103D40004C00013800BFFCD1F0E040F66874C2F2CC
:103D500000044EF2DE152046FF21C0F2E405FCF718
:103D60001CFA40F61C70C2F2000002684AF20D0113
:103D7000C0F60101204605F065FE02F00BF9013D99
:103D800000BFFCD1D2E040F668704EF2DE14C2F201
:103D90000000C0F2E40405F07FFD49F6CC60C0F6F7
:103DA000010005F079FD013C00BFFCD12920C2E0F3
:103DB00041F268004CF2BC35C2F200002146FF22FD
:103DC000C0F2C915FCF7D0F904F13800C721FCF79F
:103DD000E4F94AF29410C0F60100016800F1100EF7
:103DE0000391816A071D0491C16A9EE840500291C7
:103DF000016B00F11C0B019103998CCF9BE8000B28
:103E000084E88E0004F1100181E8405004F11C01A7
:103E100081E8000B0499406BA1620299E16201996B
:103E2000C4E90C1002F0B6F8013D00BFFCD142F627
:103E30002850C0F23110013800BFFCD140F6687044
:103E400041F26801C2F20000C2F20001FF22FCF759
:103E50008BF9032001F00AFB40F6647BC2F2000BF1
:103E60006BE004F13400CB21FCF797F979A1886964
:103E70000F1D0490C86A8CCF03907648D1E907E8FB
:103E800084E88D000498D1E90465C4E9060E04F1C4
:103E90002000D1E909BC096B80E800190398C4E946
:103EA0000465C4E90B0102F075F847F67200C0F230
:103EB0007D10013800BFFCD140F20110A9F8FE00CE
:103EC00040F21420C2F200000121C0E9FE11642179
:103ED00089F8F010C0F8C01300F002F900F070FA91
:103EE00000F0D2F840F6647B40F665716320C2F2C0
:103EF000000BC2F200018BF8000008701DE040F6D4
:103F00006874C2F200044EF2DE152046FF21C0F2B2
:103F1000E405FCF742F999F84C204BA1204605F046
:103F200091FD02F037F8013D00BFFCD140F665700D
:103F3000C2F2000000788BF80000DAF800000328D5
:103F40007FF4ACAC62208BF8000005B0BDE8F08FC8
:103F500041F2680440F66875C2F20004C2F200053E
:103F600020462946FF22FCF7FFF82846FF21FCF7F0
:103F700014F927A12846224605F064FD386880B16F
:103F800001F0A4FF0FE040F66870C2F2000005F0F7
:103F900083FC49F6CC60C0F6010005F07DFC1A20D8
:103FA000C9E701F0F7FF4EF2DE10C0F2E40001387D
:103FB00000BFFCD140F66874C2F2000441F268010F
:103FC000C2F200012046FF22FCF7CEF8FCF7FAF916
:103FD0002046FF21FCF7E1F842F6A400C2F20000FF
:103FE00040F63401FCF7D9F840F66571C2F20001E1
:103FF00009780020C8F800008BF800109DE700BF8A
:1040000041542B434D47443D312C340D0A000000F0
:1040100025732E200D0A574F524B494E472E2052E2
:1040200065626F6F74696E67204E6F772E20506CDB
:1040300065617365205761697420696E2033206D56
:10404000696E73210000000041542B454E574C3DD2
:104050002564000041542B4D465732204F4B0D0A2A
:104060005245424F4F54494E47204E4F570D0A502C
:104070006C65617365205761697420696E20352015
:104080004D696E757465730080B540F21C01C2F213
:1040900000010A6840F2000E40F6447CC0F6020EB1
:1040A000C2F2000C002ACCF800E008BF80BD40F24C
:1040B0001411C2F200014B1E40F21421C2F20001A1
:1040C000043900BF5EF8040BFF2841F8040F28BF35
:1040D000FF20013A03F8010FF4D1CCF800E080BDD5
:1040E00070B500F0FDF940F2053000F057F84FF4DC
:1040F000417000F053F840F2023000F04FF840F207
:104100001805C2F200052868C8B100240026C0F6D0
:10411000020400BF204600F067F840F2053000F0CE
:104120003DF84FF4417000F039F840F2023000F0F1
:1041300035F828680136864204F58064EAD300F039
:104140003DF870BD80B540F21C00C2F2000000686E
:10415000002240F64471C0F60202C2F200010028BB
:104160000A6008BF80BD043252F8043C013305D117
:104170000A60013802F10402F6D180BD40F29C00D1
:10418000C2F200000121016041F20000C4F201000E
:104190004FF4804100F0F6FA80BD000042F20003C7
:1041A00000F01F018009C4F202034FF0010CC25855
:1041B0000CFA01F11143C1507047000042F21000A7
:1041C000C4F20200016841F0800101604FF2E07129
:1041D000C1F6FF710988B1F5007F98BF7047016C87
:1041E00041F080010164704780B54FF2E071C1F683
:1041F000FF7109888446B1F5007F70D94FF6FF70D2
:104200000121C0F60700CFF2010142F20C02C4F214
:1042100002024FF0020E0B4684451BD21068C00705
:104220000AD11068C0065ABF10680EEA5000032079
:10423000012804D007E000BF0120012803D1002B92
:1042400003F10103EAD1012808BF0420002800F08F
:10425000958080BD106CC0070AD1106CC0065ABF93
:10426000106C0EEA50000320012804D007E000BFC4
:104270000120012803D1002B03F10103EAD1012819
:1042800008BF04200028E4D1506C022340F0020053
:104290005064C2F848C01069800748BFC2F808C01F
:1042A000506C40F040005064106CC0070AD1106C94
:1042B000C0065ABF106C03EA50000320012804D046
:1042C00007E000BF0120012803D1002901F101010D
:1042D000EAD1012808BF042002F1440149E001218C
:1042E000CFF2010142F20C02C4F202024FF0020EC0
:1042F0000B4600BF1068C0070AD11068C0065ABF3D
:1043000010680EEA50000320012804D007E000BF27
:104310000120012803D1002B03F10103EAD1012878
:1043200008BF0420002818BF80BD5068022340F059
:1043300002005060C2F808C0506840F04000506071
:104340001068C0070AD11068C0065ABF106803EA97
:1043500050000320012804D007E000BF01200128FD
:1043600003D1002901F10101EAD1111D012808BF83
:1043700004200A6822F002020A6080BD506802230D
:1043800040F002005060C2F808C0506840F04000A1
:10439000506000BF1068C0070AD11068C0065ABF3D
:1043A000106803EA50000320012804D0DDE700BFB5
:1043B00001200128D9D1002901F10101EAD1D4E776
:1043C0002DE9F04100F08CF840F2142840F214116D
:1043D000C2F20008C2F20001A8F10400013964220F
:1043E00011F8013F013A40F8043FF9D10020C0F62E
:1043F000020040F2AC0540F27406C2F20005C2F2BF
:1044000000062121002700F580642860316000BF8C
:1044100058F82710316000F08BF828680137043015
:10442000B7F5807F88BFFF27286040F20530FFF78F
:10443000B5FE4FF44170FFF7B1FE40F20230FFF7D6
:10444000ADFE2868A042E3D3FFF7B8FEBDE8F081D7
:104450002DE9F04100F044F840F2142840F2141124
:10446000C2F20008C2F20001A8F10400013963227F
:1044700011F8013F013A40F8043FF9D10020C0F69D
:10448000020040F2AC0540F27406C2F20005C2F22E
:1044900000062121002700F580642860316000BFFC
:1044A00058F82710316000F043F8286801370430CD
:1044B000B7F5807F88BFFF27286040F20530FFF7FF
:1044C0006DFE4FF44170FFF769FE40F20230FFF7D6
:1044D00065FE2868A042E3D3FFF770FEBDE8F081D7
:1044E00042F20400C4F20200C168090609D540F294
:1044F0002311C4F26751016048F6AB11CCF6EF51BD
:1045000001604FF2E071C1F6FF710988B1F5007FDB
:104510000DD9C16C090658BF704740F22311C4F28F
:104520006751016448F6AB11CCF6EF510164704756
:1045300010B54FF2E072C1F6FF7212888446B2F5F0
:10454000007F68D901224FF6FF70CFF20102C0F65A
:10455000070042F20C038445C4F202034FF0020E3E
:1045600014461BD21868C0070AD11868C0065ABF83
:1045700018680EEA50000320012804D007E000BFAD
:104580000120012803D1002C04F10104EAD1012803
:1045900008BF0420002800F0898010BD186CC007F7
:1045A0000AD1186CC0065ABF186C0EEA50000320DE
:1045B000012804D007E000BF0120012803D1002C0E
:1045C00004F10104EAD1012808BF04200028E4D145
:1045D000586C40F001005864CCF80010022100BF74
:1045E000186CC0070AD1186CC0065ABF186C01EAD3
:1045F00050000320012804D007E000BF012001285B
:1046000003D1002A02F10102EAD1012808BF0420E7
:1046100003F1440145E00123CFF2010342F20C0211
:10462000C4F202024FF0020E1C4600BF1068C00721
:104630000AD11068C0065ABF10680EEA5000032065
:10464000012804D007E000BF0120012803D1002C7D
:1046500004F10104EAD1012808BF0420002818BF92
:1046600010BD506840F001005060CCF800100221ED
:104670001068C0070AD11068C0065ABF106801EA66
:1046800050000320012804D007E000BF01200128CA
:1046900003D1002B03F10103EAD1111D012808BF4A
:1046A00004200A6822F001020A6010BD586840F038
:1046B00001005860CCF80010022100BF1868C00744
:1046C0000AD11868C0065ABF186801EA50000320D2
:1046D000012804D007E000BF0120012803D1002AEF
:1046E00002F10102EAD1012808BF0420191DD8E710
:1046F000F0B581B040F29800C2F2000001210160E3
:10470000FFF7EEFE40F20530FFF748FD4FF4417031
:10471000FFF744FD40F20230FFF740FD40F218047D
:10472000C2F200042068D8B140F284060025C2F22B
:104730000006002730682844FFF756FD40F2053098
:10474000FFF72CFD4FF44170FFF728FD40F20230D7
:10475000FFF724FD20680137874205F58065E9D31E
:10476000FFF72CFD01B0F0BD10B50446C1B243F611
:104770000000C4F2010005F0E1F8204610BD000081
:1047800041617047016170472DE9F047CF0601F0A4
:104790000F0C09D5042A05D1C26B4CF0030C1A4347
:1047A000C26301E04CEA020C00F1100E00F1140AA1
:1047B00000244FF001094FF00F0800270EE000BF62
:1047C000166008FA04F225EA02020CFA04F52A43FC
:1047D00002600137082F04F104040CD009FA07F233
:1047E00012EA0306F5D0056828295246E8D0482980
:1047F000E7D17246E4E7082400254FF001094FF0A5
:104800000F080FE0176008FA05F226EA02020CFA18
:1048100005F6324342600134102C05F1040508BF4F
:10482000BDE8F08709FA04F212EA0307F3D04668FC
:1048300028295246E6D04829E5D17246E2E7000031
:104840008068084018BF0120704700002DE9F04F34
:1048500081B041F2000947F672084FF000604FF452
:104860008031C4F20109C0F27D1801F023F840F252
:10487000CC00C2F20000002240F6A0610260C2F249
:1048800000010220087040F2F400C2F20000026051
:1048900040F6AC60C2F20000026040F62460C2F252
:1048A00000004FF0FF31016040F66070C2F200007E
:1048B000026040F2B000C2F20000026040F2046008
:1048C00001F03CFA48464FF46041FFF759FF484673
:1048D000102103224FF46043FFF756FF40F628648F
:1048E00040F6447640F21C0B40F2141A40F6647510
:1048F000C2F20004C2F20006C2F2000BC2F2000AC9
:10490000C2F2000548464FF46041FFF73BFF40F21A
:10491000026001F013FA40F2036001F00FFA40F276
:10492000D8000022C2F20000026040F61A60C2F213
:104930000000027040F2A000C2F20000026040F6E7
:104940002470C2F20000027040F62570C2F200002E
:10495000027040F29C00C2F20000026040F61C703F
:10496000C2F2000040F2E0010260DBF80000C2F297
:1049700000010A600021FF27C0F6020122703160A9
:10498000B0B140F21422C2F200020023AAF10101E8
:10499000043AC0F6020300BF53F8044BFF2C42F860
:1049A000044F28BF3C46013801F8014FF4D1336071
:1049B00040F21420C2F20000D0F8F803012841D0E0
:1049C000FFF78EFBDBF800000021C0F6020131602A
:1049D000C8B10021C0F60201043100BF51F8042C17
:1049E000013205D13160013801F10401F6D10AE04C
:1049F00040F29C00C2F200000121016048464FF4E1
:104A00008041FFF7BFFEDBF800000021C0F6020185
:104A10004FF0FF073160A8B140F21422C2F2000249
:104A20000023AAF10101043AC0F6020353F8044B33
:104A3000FF2C42F8044F28BF3C46013801F8014FD3
:104A4000F4D133609AF80000FF2821D09AF80110C1
:104A5000FF291DD09AF80220FF2A19D0C0B1B9B1A0
:104A6000B2B140F288064FF0FF30C2F200060027D4
:104A70000AEB000149783318A1F130024B2A00F10A
:104A8000010028BF39460E285970F1D115E000BF4A
:104A900040F2880043F24D21C2F20000C5F24D0100
:104AA000016044F64C61C4F6415141605221002737
:104AB0000172C0F80970A0F80D709AF80F20501C10
:104AC000C0B2022810D240F2A40143F23100C2F277
:104AD0000001C3F23000086049F68960C0F60100A9
:104AE0000F7104F09FFF09E09AF81300DAF80F1035
:104AF00040F2A402C2F20002107111609AF8140090
:104B00000130C0B2022813D39AF81900FF280FD041
:104B100070B1DAE90501DAF81F2043F62016C2F277
:104B20000006DAF81C30C6F80B200BC615E000BFF3
:104B300043F62010C2F200003221017343F22B61D0
:104B4000C3F63201016043F23561C3F238114160AE
:104B500043F23311C3F2384181609AF823000130E7
:104B6000C0B2022814D39AF82800FF2810D078B1D8
:104B7000DAF82300DAF82E2043F63016C2F20006E7
:104B8000DAF82710DAF82B30C6F80B200BC615E040
:104B900043F63011C2F2000143F63910888143F226
:104BA0002B60C3F63200086043F23230C3F23100AA
:104BB000486043F63210C3F2331088609AF832002E
:104BC0000130C0B2022815D39AF83700FF2811D05F
:104BD00080B1DAF83200DAF83D2043F64016C2F22E
:104BE0000006DAF83610DAF83A30C6F80B200BC6B1
:104BF00015E000BF43F640113220C2F20001888167
:104C000043F22B60C3F63200086043F23110C3F266
:104C10003230486043F23430C3F2317088609AF821
:104C2000431040F66576C2F2000604290AD84FF414
:104C30001650DFE801F017030E1114004FF49640F0
:104C400010E000BF40F22000C2F200000068FF291F
:104C500008E04FF4164005E04FF4614002E04FF4E5
:104C6000E13000BF40F2B801C2F20001086044F632
:104C70004A30C0F24C0000BF013800BFFCD19AF8A6
:104C800044000130C0B202280AD240F6307044F22B
:104C90004541C2F20000C4F64D11C0E9001107E021
:104CA000DAE9110140F63072C2F20002C2E90001F5
:104CB00040F2B800C2F20000006804F0FFFD47F2C5
:104CC000EF00C0F2720000BF013800BFFCD1A9F5AF
:104CD000806B5846042103220123FFF755FD5846F7
:104CE000102103220223FFF74FFD58460221FFF750
:104CF00049FD4FF2E400C0F2FA2000BF013800BFC6
:104D0000FCD158460221FFF73BFD03F07FFC4046F3
:104D1000013800BFFCD109F5E0500021C82203F0A2
:104D200051FC48464FF400512F70FFF729FD40F227
:104D30009C00C2F20000076048464FF48041FFF734
:104D40001FFD48464FF40041FFF71AFD9AF8410055
:104D5000411CC9B2012911D840F27C00C2F2000006
:104D6000006840F2B401C2F20001087040F2FC0198
:104D7000C2F2000108608AF8410009E040F2B40183
:104D8000C2F20001087040F2FC01C2F200010860AA
:104D90009AF84200411CC9B201290DD840F27800AE
:104DA000C2F20000006840F2F801C2F2000108609F
:104DB0008AF8420005E000BF40F2F801C2F20001AB
:104DC0000860FDF7D9FB40F208010FF26460C2F2FF
:104DD000000104F027FE4CF29030C0F6EB3000BF2B
:104DE000013800BFFCD140F2E400C2F200000770BD
:104DF00040F6B860C2F200006421FBF7CEF940F241
:104E00009C00C2F200000121016048464FF40051AD
:104E1000FFF7B8FC58460121FFF712FD40F6247158
:104E2000C2F20001002818BF0120087029782878F4
:104E3000002937D001382D2800F27882DFE810F001
:104E40002E00700073007600790076028C008F00CF
:104E5000760276027602760276029A0076029D004B
:104E60007602A600CA00F600F900FC001301160144
:104E70002D0130014001430146017602760276029F
:104E800076026A016D0176017C01B6017602760236
:104E90000C0228027602400243024E0201F030F971
:104EA00044E200BF612800F055822878622800F0B3
:104EB00051822878632800F04D8240F2D802C2F275
:104EC0000002287811683070481C362910601EDBFB
:104ED0000FF2845004F0E0FC49F29460C0F29800B4
:104EE000013800BFFCD140F2D800C2F200000760D8
:104EF00040F29C00C2F20000076048464FF4804137
:104F0000FFF73EFC48464FF40041FFF739FC44F6FA
:104F10004A30C0F24C0000BF013800BFFCD179E735
:104F200001F0DAFA02E202F0A1F9FFE102F032FC4C
:104F3000FCE140F29C010020C2F2000108604846FA
:104F40004FF48041FFF71CFC48464FF40041FFF747
:104F500017FCFEF77BF8E9E103F058F8E6E144F6C8
:104F60004A30C0F24C0000BF013800BFFCD1FDF751
:104F700015FCDBE101F090F9D8E142F62850C0F2CF
:104F8000311000BF013800BFFCD1B2E141F6200072
:104F9000C2F2000001680429C7BF01202870013156
:104FA000016048464FF40041FFF7EAFB44F64A30FF
:104FB000C0F24C00013800BFFCD148464FF400411C
:104FC000FFF7E0FB44F64A30C0F24C00013800BF66
:104FD000FCD1ABE148464FF40041FFF7D1FB44F66A
:104FE0004A30C0F24C0000BF013800BFFCD1484637
:104FF0004FF40041FFF7C6FB44F64A30C0F24C00C4
:10500000013800BFFCD140F29C010120C2F2000136
:10501000086048464FF48041FFF7B4FB49F29460C2
:10502000C0F29800013800BFFCD17FE101F0CEFB57
:105030007CE101F085FD79E12878162805D149F653
:105040003C60C0F6010004F027FC4EF2DE10C0F216
:10505000E40000BF013800BFFCD1307802288CBFCB
:1050600019201720A0E001F0F7FD5FE140F2EC0409
:1050700040F29C02C2F20004C2F2000220681168F1
:1050800001300029206000F03A810020106048467D
:105090004FF48041FFF774FB38E101F06DFF45E10B
:1050A000404600BF013800BFFCD100F073FF4EF254
:1050B000DE10C0F2E40000BF013800BFFCD172E096
:1050C00001F0D0FF32E102F047F82FE14EF2DE109E
:1050D000C0F2E400013800BFFCD140F6687849F620
:1050E000CA60C2F20008C0F60100414604F09AFC12
:1050F0004046FF21FBF751F844F64A30C0F24C001D
:10510000013800BFFCD1307847F672082870C0F231
:105110007D180BE102F0D2FA08E149F29460C0F286
:10512000980000BF013800BFFCD1FFE0404600BF3F
:10513000013800BFFCD136E049F6D450C0F601007A
:1051400004F0AAFB4EF2DE10C0F2E400013800BF0A
:10515000FCD140F62070C2F20000012101604AF249
:10516000CC10C0F60100D0E900C200F1080640F6FC
:10517000687158CEC2F20001C1E900C201F1080213
:1051800058C2828A807D8A82887500F09FFE42F62E
:105190002850C0F2311000BF013800BFFCD140F6EA
:1051A0006576C2F2000630782870BFE049F6D45028
:1051B000C0F6010004F070FB4EF2DE10C0F2E40015
:1051C000013800BFFCD140F62070C2F2000001217E
:1051D00001604AF2E410C0F601000168061D00916A
:1051E00000F1100ED0F81C8040F66879D0E9081064
:1051F000C2F20009C9E9081000989EE810504CCE90
:1052000089E84D0009F1100080E81050C9F81C80B1
:1052100000F05CFE49F29460C0F29800013800BFD3
:10522000FCD140F2B0010120C2F20001086040F25E
:1052300070010D20C2F200010860622041F20009F5
:1052400047F6720840F665762870C4F20109C0F28C
:105250007D18C2F2000669E040F2B0010220C2F2FD
:10526000000108604EF2DE10C0F2E400013800BF19
:10527000FCD140F2B0010220C2F2000108606220BD
:1052800040F2700128700520C2F2000108604DE074
:10529000287830704EF67E20013800BFFCD140F6F1
:1052A0002861C2F200010878032825D340F2700279
:1052B00062200121C2F2000228701160307035E0D6
:1052C00002F01AFC32E000F069FD44F64A30C0F208
:1052D0004C0000BF013800BFFCD127E056A004F00D
:1052E000EFFC40F6F060C0F2277000BF013800BF4D
:1052F000FCD1FDF7ADFF19E00020087016E0012099
:10530000106048464FF48041FFF73CFA44F24220D7
:10531000C0F20F00013800BFFCD140F6A061C2F21C
:10532000000120680978884210DA00BF28782B280D
:1053300008BF02F05DFB287862280BD0287861282E
:1053400008D0287863287FF465AD03E064202060EE
:105350000E2029E7287840F628646228C2F200046B
:105360000DD1207803280AD33DA004F05BFB44F65E
:105370004A30C0F24C0000BF013800BFFCD14846A3
:105380004FF46041FFF7FCF942F6285040F64476AE
:1053900040F21C0BC0F23110C2F20006C2F2000B48
:1053A000013800BFFCD140F27000C2F2000000687A
:1053B00003280CD149F62F60C0F6010004F06CFA06
:1053C00048F21860C5F2A340013800BFFCD149F291
:1053D0009460C0F2980000BF013800BFFCD140F2D9
:1053E0007000C2F20000006803280ED028786128FF
:1053F00004D0287863287FF485AA06E046F6E80002
:10540000C1F6CD50013800BFFCD14EF60C50CEF2A3
:105410000000BFF34F8F0168042201F4E061C0F285
:10542000FA5211430160BFF34F8F00BFFEE700BF88
:10543000474F2025730D0A005245434549564520E4
:10544000464F54412046524F4D2045434D20534F27
:105450004654574152450D0041540D0A00000000CA
:10546000444953434F4E4E45435400002DE9F04FFD
:1054700081B08246032818DB42F6A000C2F2000089
:105480000021016042F6A400C2F2000040F634019F
:10549000FAF783FE40F6687041F26801C2F200003C
:1054A000C2F20001FF22FAF75FFE40F66876C2F210
:1054B0000006707A22286CD140F284000021C2F2EA
:1054C0000000C0F60101016040F66471C2F2000103
:1054D0002B20087040F63060C2F200003221FAF74B
:1054E0005CFE43F60C1840F6487B40F2001941F28E
:1054F0007030C2F200080024C2F2000BC2F20009B0
:10550000C2F200004FF49661C8E90044C8E90244C1
:10551000C8F81040CBE90044CBE90244CBF8104076
:10552000C9E90044C9E90244C9F81040FAF735FE58
:105530000A254FF0000C00210022002304E000BFE8
:10554000642D05F1010535DA705D2C38B0FA80F074
:1055500040090544775D222F2CD00444032CEFD85A
:10556000DFE804F0060F130209F803700133E7E7E0
:1055700040F63060C2F2000000F80C700CF1010C33
:10558000DEE708F801700131DAE70BF8027001324A
:10559000D6E7BAF1000F72D049F6F260C0F601000A
:1055A00004F08EFB49F29460C0F29800013800BF0D
:1055B000FCD17CE049F68850C0F6010004F06CF99B
:1055C00046F65610C0F27840013800BFFCD141F2D7
:1055D000703540F66479C2F2000545F63A2744F684
:1055E0004A362B24C2F2000928464FF49661C0F2D5
:1055F0007377C0F24C0689F80040FAF7CEFD40F60A
:10560000306243F60C1371A1C2F20002C2F2000331
:105610002846CDF800B004F015FA41F62008BAF19A
:10562000000FC2F200084FD041F2703549F6CA604F
:10563000C2F20005C0F60100294604F0F3F928463D
:1056400004F02AF9002089F80040C8F8000000BFE3
:10565000013F00BFFCD12B2089F8000041F6240057
:10566000C2F20000002101605FA004F029FB304677
:10567000013800BFFCD1BAF1030F40DA61E040F617
:10568000687049F6517140F20802C2F20000C0F69B
:105690000101C2F2000204F0D5F900F07BFC42F6F1
:1056A0002850C0F2311000BF013800BFFCD140F6D5
:1056B0006570C2F20000007840F66471C2F2000129
:1056C000087001B0BDE8F08F41F27030C2F2000006
:1056D00004F0E2F8002089F80040C8F8000000BF9C
:1056E000013F00BFFCD12B2089F8000041F62400C7
:1056F000C2F2000000210160BAF1030F21DB40F685
:105700006870C2F20000FF21FAF747FD42F6A000E0
:10571000C2F200000021016042F6A400C2F20000C3
:1057200040F63401FAF739FD013E00BFFCD149F6DD
:10573000CA6041F27031C0F60100C2F2000104F00B
:1057400071F941F270350020C2F2000540F20012FA
:10575000C8F8000028A1C2F20002284604F072F93D
:105760002B2089F80000284604F096F849F268607A
:10577000C0F6BA20013800BFFCD1BAF1000F09D041
:1057800049F6CA6042F6A401C0F60100C2F2000167
:1057900004F048F940F22400C2F200000021016048
:1057A00040F2D000C2F20000016040F27000C2F28C
:1057B0000000082202602B2089F8000041F6280032
:1057C000C2F20000016001B0BDE8F08F41542B46E9
:1057D00054504F50454E3D222573222C22257322D2
:1057E0002C222573220D0A004D464F54412053545C
:1057F000415254494E470D0041542B4654504745A1
:10580000543D222573222C300D0A00004EF60C5C0C
:10581000CEF2000CDCF8003003F4E063B3F5E06F87
:1058200001D104232AE0DCF8003003F4E063B3F58F
:10583000C06F01D1032321E0DCF8003003F4E06302
:10584000B3F5A06F01D1022318E0DCF8003003F4B7
:10585000E063B3F5806F01D101230FE0DCF8003085
:1058600003F4E063B3F5407F01D1002306E040F28A
:105870000053C0F2FA53CCF80030022301FA03FCC3
:10588000C3F104030F21D94011404EF2001241EA46
:105890000C01CEF20002090140EA020383F8001372
:1058A00000F01F01012303FA01F11C2303EAD000D9
:1058B000815070474FF68072C1F6FF721140084365
:1058C0004EF60851CEF20001086070472DE9F04F06
:1058D00081B040F29C01C2F200010A68054652B153
:1058E0000020086041F20000C4F201004FF4804142
:1058F000FEF746FF09E00120086041F20000C4F213
:1059000001004FF48041FEF73DFF41F2703AC2F2D0
:10591000000A50464FF49661FAF73FFC012D00F063
:10592000C380032D00F0DA80022D40F0C68042F6DD
:10593000A40740F2146840F2840B40F2AC06C2F2B5
:105940000007C2F20008C2F2000BC2F200064FF0DC
:10595000000900200BE000BFB0F5C86FC8BF40F2DF
:105960000970B0F5E16F00F1010080F2A680411FDF
:10597000B1F5F77FF0D8B9F1000FEDD1395C5229BC
:1059800012D1C1194A78452A0ED18A78432A0BD1FF
:10599000CA78562A08D109793A2905D105304FF03D
:1059A000010900210AE000BF4FF00009D9E700BF5C
:1059B000994610460D2901F101010EDA3A5C09F110
:1059C00001030D2A00F10102F2D1BC5C0A2CEFD1D7
:1059D00009F1020902301431ECE7391850464FF44E
:1059E0008062FAF7C1FB40F61465C2F20005286830
:1059F000AAF1030308EB800104390022D3F8034025
:105A0000013A043341F8044F12F5807FF6D1801A31
:105A1000411EB1F5FF7F286043DB5446FEF768FE68
:105A200044F62A60013800BFFCD1FEF759FDDBF8CF
:105A3000000040F274053060C2F2000521204FF0F2
:105A4000000A286040F28001C2F200013068096853
:105A500088420CD258F82A102960FEF769FD306898
:105A60000AF1010A0430BAF5006F3060EAD1DBF8C0
:105A700000004FF4006100F500602960CBF80000E1
:105A8000FEF79CFB40464FF40061FAF786FB40F6B8
:105A900014610020C2F20001086040F20970A246C1
:105AA0005FE740F209705CE740F21460C2F2000068
:105AB0004FF40061FF22FAF769FB42F6A000C2F240
:105AC00000000021016042F6A400C2F2000040F68E
:105AD0003401FAF762FB01B0BDE8F08F41F6200017
