:020000040800F2
:10000000B04B0020450100082D0200082502000821
:10001000290200081D0200089503000800000000E6
:100020000000000000000000000000003502000891
:100030002102000800000000310200083902000817
:100040005F0100085F0100085F0100085F01000810
:100050005F0100085F0100085F0100085F01000800
:100060005F0100085F0100085F0100085F010008F0
:100070005F0100085F0100085F0100085F010008E0
:100080005F0100085F0100085F0100085F010008D0
:100090005F0100085F0100085F0100085F010008C0
:1000A0005F0100085F0100085F0100085F010008B0
:1000B0005F0100085F0100085F0100085F010008A0
:1000C0005F0100085F0100085F0100085F01000890
:1000D0005F010008850300088D0300085F01000828
:1000E0005F0100085F0100085F0100085F01000870
:1000F0005F0100085F0100085F0100085F01000860
:100100005F0100085F0100085F0100085F0100084F
:100110005F0100085F0100085F0100085F0100083F
:100120005F0100085F0100085F0100085F0100082F
:10013000DFF80CD000F060F8004800478D09000897
:10014000B04B00200648804706480047FEE7FEE720
:10015000FEE7FEE7FEE7FEE7FEE7FEE7FEE7FEE777
:100160003D0200083101000840EA01039B0703D06B
:1001700009E008C9121F08C0042AFAD203E011F8E6
:10018000013B00F8013B521EF9D27047D2B201E0A8
:1001900000F8012B491EFBD270470022F6E710B58C
:1001A00013460A4604461946FFF7F0FF204610BDE5
:1001B00010B5002200E0521C835C8C5CA34201D18C
:1001C000002BF8D1D8B2E1B2401A10BD30B50B46C1
:1001D000014600202022012409E021FA02F59D4277
:1001E00005D303FA02F5491B04FA02F52844151E4B
:1001F000A2F10102F1DC30BD064C074D06E0E068DB
:1002000040F0010394E8070098471034AC42F6D35D
:10021000FFF792FFBC1A0008DC1A0008FEE7000096
:1002200070470000FEE70000FEE700007047000096
:1002300070470000704700007047000081B04EF624
:100240008851CEF200010A6841F2040042F47002C3
:10025000C4F202000A6050F8041C4FF0000C41F098
:10026000010140F8041C016844F61F6341F080015D
:100270000160CDF800C0009A9A4207D844F6206287
:10028000009B01330093009B9342F9D3C0F800C058
:10029000C0F828C050F8042C4FF6FF73CFF6F66371
:1002A0001A4040F8042C4FF41F02426050F8042C0E
:1002B00022F4802240F8042C50F8042C42F48032BE
:1002C00040F8042C4FF6FE7250F8041C013A4CF131
:1002D0000003890301D4002BF6D150F8041C8903D4
:1002E00001D400BFFEE7826947F2000142F080526C
:1002F000C4F2000182610A684FF6FF7342F4404283
:100300000A600268CBF2C37302600268026002688E
:1003100042F480620260026822F4403202600268A5
:1003200042F44032026002681A400260026842F4FD
:10033000C012026050F8042C42F0807240F8042C85
:1003400050F8042C9201FBD50A6842F480320A600E
:100350004A68D203FCD50A6842F400320A6000BF42
:100360004A689203FCD5016821F00301016001682D
:1003700041F00201016000BF01680907FCD501B02E
:100380007047000080B500F08BFE80BD80B500F0A6
:10039000FFFE80BDFEE70000F0B581B041F2F80439
:1003A000C2F2000420464FF4FA61FFF7F6FE40F275
:1003B0003006C2F200063068012840F23800C2F26E
:1003C00000001DDB00210DE0A2F14103DBB2062B92
:1003D00038BF373A134603F00F02425432680131F6
:1003E00091420DDA425CA2F13003DFB20A2FF2D360
:1003F000A2F16103DBB2052BE6D8A2F15703EAE7CD
:10040000316801EBD17149103160316801290FDB8E
:10041000002100BF00EB4102527810F8113002F0C9
:100420000F0242EA03126254326801319142F1DB59
:10043000306801280CDB43F600050027C4F20105F3
:10044000E15D284601F09CF9306801378742F7DB0F
:1004500001B0F0BD2DE9F04140F23001C2F20001DF
:100460000A6840F2380341F2F00E41F2F40C40F217
:100470002C08012AC2F20003C2F2000EC2F2000CE4
:10048000C2F2000825DB1C180020002512E000BF86
:100490005F1917F8017C302F02BF322E6A1ECCF88C
:1004A0000020302F04BF332EC8F800500A680135F1
:1004B00095420FDA665D002D5E55F7D02C2EE7D100
:1004C0005F1917F8017C302F0CBF681CCEF8007044
:1004D000DEE70020DEF80020CCF80000303ACEF84D
:1004E0000020D8F80020101A0130086008680128A0
:1004F00022DB002004E000BF0A68013090421BDAD2
:100500000028F9D01E1816F8022C2C2A09D116F84A
:10051000012C302A05D11A5C322A04BF421ECCF8C5
:10052000002016F8012C302AE6D11A5C332A04BFC9
:10053000421EC8F80020DFE7DCF800000A68012A44
:1005400012DB00269F191A1817F8015C975D302DF1
:100550009F5501BF332F0020CCF80000C8F8006081
:100560000A6801369642EDDBD8F80000DCF800207E
:10057000801A01300860BDE8F08100002DE9F043E9
:1005800081B042F29C0E40F218080020C2F2000E28
:10059000C2F2000840F69F7C00234FF0000905E0FE
:1005A00028440330604500F1010035DA1EF80010E0
:1005B0003A29F7D100EB0E0414F8011C5029F1D1AF
:1005C00014F8021C4929EDD114F8031C4C29E9D177
:1005D000002502E001350E2DE2D0671919464319B6
:1005E0007A79DE1C2C2A334609D0334639B9B9F161
:1005F000000F334603D1F978002308F805102C2AA0
:10060000E8D13979222908BFB9F1000FE2D1F97890
:10061000B14608F80510DDE742F29800C2F200008A
:100620000021016042F29C00C2F200004FF47A61A6
:10063000FFF7B3FD49F29460C0F29800013800BFA3
:10064000FCD140F2180040F20401C2F20000C2F2F4
:100650000001FFF7ADFD40F22801C2F20001086081
:1006600040B140F6DC70C2F200000321017001B01D
:10067000BDE8F0830EA001F0F7F844F64A30C0F26E
:100680004C0000BF013800BFFCD14EF60C50CEF23A
:100690000000BFF34F8F0168042201F4E061C0F253
:1006A000FA5211430160BFF34F8F00BFFEE700BF56
:1006B00052455345540000002DE9F04FB3B042F2CB
:1006C0009C090021C2F2000940F69F720023002716
:1006D00004E000BF914201F1010119DA19F80100AB
:1006E00043280DD101EB090046784D2E08D18678BC
:1006F000542E05D1C0788E1D3A2804BF31463746A6
:10070000002FE7D019F8010009F803000133E1E7F1
:1007100040F6E07041F2E00EC2F200000023C2F2A7
:10072000000E40F69F78A0F1010C4FF0000A00BFC8
:1007300019F803002B2833D109EB030000F1020B59
:10074000591C0022002704E001370E2F05F101019A
:100750002AD01BF807400D46D91916462C2C0846FE
:100760000A460FD008460A4666B9BAF1000F084695
:100770000A4607D10BEB070010F8020C00220EF816
:10078000070018462C2C08BFBAF1000FDCD10BEB88
:10079000070414F8024C8A460EF80740D4E700BF5D
:1007A000002098B928E000BFD9190531B1F57A6F5A
:1007B000B8BF41464B1C00BF09EB050189790A29E6
:1007C00016D0691D01354145F6DBA8B1624600BF70
:1007D00009EB030119F80340497802F8014F0A298F
:1007E00003F1010109D043450B46F1DB05E000BFF1
:1007F000EB1D18460028E9D1194620B9414501F101
:100800000103FFF695AF25A000F068FF49F2946060
:10081000C0F29800013800BFFCD142F29800C2F249
:1008200000000021016042F29C00C2F200004FF47F
:100830007A61FFF7B2FC41F2E00040F20401C2F23B
:100840000000C2F20001FFF7B3FC40F22801C2F23F
:100850000001086044F64A30C0F24C00013800BF85
:10086000FCD1086828B140F6DC70C2F20000032118
:1008700010E040F6E074C2F200040CA101A8224688
:1008800001F002F8204600F029FF40F6DC70C2F2C9
:1008900000001A21017033B0BDE8F08F41542B43A2
:1008A0004D47443D312C340D0A00000025730D0ADC
:1008B0000000000010B50446C1B243F60000C4F2C7
:1008C000010000F05DFF204610BD0000416170474F
:1008D000016170472DE9F047CF0601F00F0C09D5F3
:1008E000042A05D1C26B4CF0030C1A43C26301E029
:1008F0004CEA020C00F1100E00F1140A00244FF033
:1009000001094FF00F0800270EE000BF166008FA3B
:1009100004F225EA02020CFA04F52A4302600137C8
:10092000082F04F104040CD009FA07F212EA0306B6
:10093000F5D0056828295246E8D04829E7D1724603
:10094000E4E7082400254FF001094FF00F080FE0FD
:10095000176008FA05F226EA02020CFA05F632439D
:1009600042600134102C05F1040508BFBDE8F08792
:1009700009FA04F212EA0307F3D04668282952461E
:10098000E6D04829E5D17246E2E70000B2B041F274
:10099000000444F64A3940F20260C4F20104C0F295
:1009A0004C0900F04DFB40F2036000F049FB40F2BF
:1009B000046000F045FB20464FF46041FFF786FFDE
:1009C0002046102103224FF46043FFF783FF2046A7
:1009D0004FF46041FFF77CFF00F092FE484600BFF5
:1009E000013800BFFCD1A4F580654FF2E40728462A
:1009F0000221C0F2FA27FFF76BFF284610210322DD
:100A00000223FFF767FF3846013800BFFCD12846B4
:100A10000221FFF75BFF4CF29030C0F6EB3000BFD5
:100A2000013800BFFCD120464FF40051FFF74EFFC4
:100A300020464FF48041FFF749FF20464FF4004124
:100A4000FFF744FF40F2340140F6DC7B40F2380807
:100A500040F23005C2F20001C2F2000B4FF0630A0F
:100A6000C2F20008C2F200050E4605E020464FF42F
:100A70000041FFF72DFF31469BF800000028FBD016
:100A80009BF8000001281FD120464FF40051FFF7CA
:100A90001FFF0FF2F43000F021FE4EF2C810C0F23A
:100AA000F55000BF013800BFFCD10FF2E43000F078
:100AB00015FE47F67200C0F27D1031468BF800A09B
:100AC000013800BFFCD1D7E79BF8000002282DD1E8
:100AD0000FF24C3000F002FE38468BF800A000BF49
:100AE000013800BFFCD10FF25C3000F0F7FD484642
:100AF000013800BFFCD10FF2583000F0EFFD48463E
:100B0000013800BFFCD10FF2643000F0E7FD484629
:100B1000013800BFFCD10FF2643000F0DFFD484621
:100B2000314600BF013800BFFCD1A5E79BF80000AB
:100B300003280FD120464FF48041FFF7C9FE20461D
:100B40004FF40041FFF7C2FE31464846013800BF6E
:100B5000FCD191E79BF8000004283FF487AF9BF895
:100B60000000182821D143F23C014046C2F20001A6
:100B70004FF47A62FFF7F8FA286804281DDB002199
:100B8000002004E02A680B1D0131934216DA08EBBD
:100B9000010293783A2BF5D15278502AF2D118F805
:100BA0000120432A08BF081DECE79BF80000052838
:100BB00018D1FFF7E3FC31465EE700202860FFF71D
:100BC00049FCFFF7E9FB04208BF8000020464FF4B6
:100BD0008041FFF77BFE4846314600BF013800BF29
:100BE000FCD149E79BF8000019283FF445AF9BF87A
:100BF000000010280BD149F29460C0F2980000BFA9
:100C0000013800BFFCD1FFF757FD314634E79BF8B0
:100C100000001A284CD147F67200C0F27D1000BFC8
:100C2000013800BFFCD124208BF8000044F24220A0
:100C3000C0F20F00013800BFFCD16846C821FFF7A1
:100C4000ACFA41F69A2140F204026846C0F600016F
:100C5000C2F2000200F018FE684600F03FFD484670
:100C6000013800BFFCD140F6E070C2F2000000F095
:100C700035FDA4F54C401A2100F082FD40F6E070ED
:100C8000C2F20000FF21FFF788FA41F2E000C2F251
:100C900000000021C0F80B10C0E900118160484637
:100CA000013800BFFCD103208BF800003146E3E699
:100CB0009BF8000024280AD147F67200C0F27D108C
:100CC000013800BFFCD103208BF80000D4E69BF86C
:100CD0000000072852D120460D464FF40041FFF78F
:100CE000F5FD43F6DC77C2F2000738464FF4FA61AF
:100CF000FFF753FA41F2F000C2F2000002682B68DD
:100D000041F6A9213846C0F6000100F0BDFD384685
:100D100000F0E4FC484600BF013800BFFCD143F6B8
:100D2000DC70C2F200004FF4FA61FFF736FA306867
:100D300041F6C80531460128C2F200050ADB00274A
:100D4000E95DA4F54C4000F01BFD306801373146E9
:100D50008742F5DB11208BF8000049F294604FF2D6
:100D6000E40740F23005C0F29800C0F2FA27C2F260
:100D7000000500BF013800BFFCD17DE69BF80000F4
:100D8000112839D1484600BF013800BFFCD10320EB
:100D90008BF8000040464FF47A61FFF7FEF941F608
:100DA000C800C2F200004FF4FA61FFF7F6F941F211
:100DB000F800C2F200004FF4FA61FFF7EEF943F2D7
:100DC0003C00C2F200004FF47A61FFF7E6F942F20C
:100DD0009C00C2F200004FF47A61FFF7DEF943F69F
:100DE000DC70C2F200004FF4FA61FFF7D6F9002080
:100DF0002860314630603FE69BF800001B2805D193
:100E0000484600BF013800BFFCD135E69BF8000022
:100E100063287FF431AE4846013800BFFCD12BE691
:100E200041542B4D49504F50454E3D312C313030BF
:100E3000302C22302E302E302E30222C302C300D03
:100E40000A00000041542B434D47463D310D0A0036
:100E500041542B47545345543D2243414C4C42523C
:100E600045414B222C300D0A0000000041542B4319
:100E70004E4D493D302C320D0A00000041542B43A9
:100E80004C49503D310D0A00415445310D0A0000D6
:100E900041542B4D495043414C4C3D312C224D3255
:100EA0004D504C4E414D52220D0A00004EF60C5C46
:100EB000CEF2000CDCF8003003F4E063B3F5E06F31
:100EC00001D104232AE0DCF8003003F4E063B3F539
:100ED000C06F01D1032321E0DCF8003003F4E063AC
:100EE000B3F5A06F01D1022318E0DCF8003003F461
:100EF000E063B3F5806F01D101230FE0DCF800302F
:100F000003F4E063B3F5407F01D1002306E040F233
:100F10000053C0F2FA53CCF80030022301FA03FC6C
:100F2000C3F104030F21D94011404EF2001241EAEF
:100F30000C01CEF20002090140EA020383F800131B
:100F400000F01F01012303FA01F11C2303EAD00082
:100F50008150704710B541F20402C4F202021168D8
:100F6000C1F38101022906D001290CD14BF6802161
:100F7000C0F28C1135E01168C90309D440F6001C99
:100F8000C0F23D0C17E041F20021C0F27A0128E0E6
:100F9000916A46F600434900116845F6405CC0F28C
:100FA000DC23C0F2C60C5CBF4BF68023C0F28C136E
:100FB000890358BF9C4613681168C3F3834E1023FE
:100FC00003EAD15113688E44202101EA5361714430
:100FD0000B463F2918BF01330F2938BF8B1C03FB79
:100FE0000CF11368D2F800C0146803280FD8C3F3BB
:100FF00003130FA2D25C41F6922E21FA02F3C0F63F
:10100000000EDFE800F01302060D184610BD0020A8
:1010100010BDCCF302201EF8000023FA00F010BD32
:10102000C4F3C2201EF8000023FA00F1084610BDE8
:101030000000000000000000010203040607080988
:1010400041F2000300F01F018009C4F202034FF0D7
:10105000010CC2580CFA01F11143C1507047000055
:1010600041F2000300F01F018009C4F202034FF0B7
:10107000010CC2580CFA01F122EA0101C15070477B
:1010800041F2000300F01F018009C4F202034FF097
:10109000010CC2580CFA01F11143C1507047000015
:1010A00010B543F60004C4F2010440F20531C0F269
:1010B0000501204600F0BAFB002808BF10BD2046FD
:1010C00000F05AFB40F6D871C2F200010A6841F6FE
:1010D000C803C2F2000398540A68C0B20132022861
:1010E0000A6010D0032810D1086840F23402C2F21E
:1010F000000210600020086040F6DC70C2F20000C0
:101100000722027001E0012008600868B0F5FA6F5C
:10111000C4BF0020086010BDB0B540F20260FFF708
:101120008FFF40F20E60FFF78BFF43F60004C4F21E
:101130000104A4F540552846182103224FF40073FA
:10114000FFF7C8FB2846042103224FF48063FFF712
:10115000C1FB204600F01CFB20464FF4E13100F0BB
:10116000D5FA2046042100F073FB2046082100F048
:1011700075FB204600F048FB252000210022FFF7E8
:1011800095FE204640F2053100F044FBB0BD000062
:101190002DE9F04381B044F20044C4F2000440F26F
:1011A0000531C0F20501204600F040FB002800F0A8
:1011B0005882204600F0E0FA42F29807C2F2000797
:1011C000396842F29C06C2F200064A1C0329705498
:1011D0003A60C0F23882C0B2A0F13D0240F6DC793C
:1011E0001C2AC2F2000900F25F80DFE802F0415DD4
:1011F0000F5D5D5D5D5D5D5D5D5D5D5D5D5D5D5278
:101200005D5D5D5D5D5D5D5D5D5D23008A1912F86C
:10121000013C4C2B09D112F8023C4C2B05D112F8A1
:10122000032C412A01D1172084E04E2831D03D28DB
:101230001ED039E08A1912F8013C442B11D112F862
:10124000022C412A0DD1012089F8000000203860CD
:1012500042F29C00C2F200004FF47A61FEF79DFF5B
:101260006AE03D2804D04E2813D03F28CED01BE0A2
:101270008A1912F8013C4C2B09D112F8023C4C2B74
:1012800005D112F8032C412A01D10B2052E04E283F
:101290000AD18A1912F8013C452B05D112F8022C0B
:1012A000502A01D10D2045E03A2822D18A1912F89E
:1012B000013C502B0DD112F8023C432B09D112F8FE
:1012C000033C542B05D112F8043C522B01D10E20C3
:1012D00030E03A280DD112F8013C502B09D112F818
:1012E000023C492B05D112F8032C4C2A01D10F20C6
:1012F00020E043280ED18A1912F8013C432B09D172
:1013000012F8023C4C2B05D112F8032C432A01D1D0
:1013100019200FE03A280FD1881910F8011C542920
:101320000AD110F8021C4D2906D110F8030C4328ED
:1013300002D1102089F800003868304410F8011CF0
:101340003A290ED110F8022C502A0AD110F8032C99
:10135000492A06D110F8042C4C2A04BF0F2289F820
:10136000002099F800200B2A08BF0A2900F0088104
:1013700099F800200B2A08BF0A2900F00D8199F87E
:1013800000000D2805D13868304410F8010C0A28F7
:1013900009D099F80000172812D13868304410F8A5
:1013A000010C0A280CD1032089F8000000203860C5
:1013B00042F29C00C2F200004FF47A61FEF7EDFEAB
:1013C00099F800001A2814D13C6840F6E075C2F282
:1013D0000005C4F1FF012819FE2C88BF0021FEF78B
:1013E000DCFE42F29C01C2F2000128462246FEF7D2
:1013F000BBFE99F800001A2830D13C68A01910F8FB
:10140000031C0A292AD110F8041C0D2926D110F832
:10141000011C4B2922D110F8020C4F281ED140F696
:10142000E075C2F20005C4F1FF012819FE2C88BF47
:101430000021FEF7B2FE42F29C08C2F200082846E4
:1014400041462246FEF790FE242089F80000002045
:10145000386040464FF47A61FEF79FFE99F800002D
:101460001A282DD13C68A01910F8031C0A2927D18D
:1014700010F8041C0D2923D110F8011C52291FD18A
:1014800010F8020C4F281BD140F6E075C2F200059F
:10149000C4F1FF012819FE2C88BF0021FEF77DFE54
:1014A00042F29C08C2F20008284641462246FEF756
:1014B0005BFE242089F8000000203860404689E067
:1014C00099F800000E2825D13A68551E705D332822
:1014D00020D1901910F8020C30281BD142F29C0444
:1014E00043F23C00C2F20004C2F200002146FEF7C3
:1014F0003BFE40F23000C2F20000056040F22C00DA
:10150000C2F200000560182089F800000020386051
:1015100020465FE099F800000F2809D13868304470
:1015200010F8010C0A2803D1052089F8000055E0C5
:1015300099F80000192851D13868304410F8010C8E
:101540000A284BD1032089F80000002040F69F7143
:1015500004E000BF884200F1010035DA325C3A2A2B
:10156000F8D1821912F8013C432BF3D112F8023C56
:10157000432BEFD112F8032C4C2A08BF0130E9E7C6
:1015800010F8022C0D2A7FF4F3AE10F8032C522A27
:101590007FF4EEAE01200AE010F8021C0D297FF462
:1015A000EEAE10F8030C4B287FF4E9AE022089F868
:1015B00000000020386042F29C00C2F200004FF4AC
:1015C0007A61FEF7EAFDDAE60020386042F29C001C
:1015D000C2F200004FF47A61FEF7DFFD386804289C
:1015E0002BDB304410F8011C0A2926D110F8022CFC
:1015F0000D2A07D110F8032C4B2A03D110F8042C24
:101600004F2A10D00A2918D110F8021C0D2914D124
:1016100010F8031C522910D110F8040C4F280CD1DB
:10162000012089F800000020386042F29C00C2F2DC
:1016300000004FF47A61FEF7B0FD3868B0F57A6FBC
:10164000A4BF002038603868B0F57A6F09DB00204D
:10165000386042F29C00C2F200004FF47A61FEF75B
:101660009CFD01B0BDE8F083B0B540F20260FFF729
:10167000E7FC40F21170FFF7E3FC44F20044C4F2CF
:10168000000404F544452846182103220423FFF7EB
:1016900021F92846042103220823FFF71BF92046DD
:1016A00000F076F820464FF4E13100F02FF82046A4
:1016B000042100F0CDF82046082100F0CFF82046A4
:1016C00000F0A2F8262000210022FFF7EFFB2046C1
:1016D00040F2053100F09EF8B0BD0000B0B50178D1
:1016E00059B144F20044451EC4F20004204600F003
:1016F00047F8A97801350029F8D10020B0BD0000D5
:1017000080B5FFF709FDFFF7AFFF80BDB0B5044618
:1017100044F6FF30C4F200000D4684424FF0000052
:1017200013DD44F60041C4F200018C4219D045F2A9
:101730000001C4F200018C4213D043F60001C4F250
:1017400001018C4210D103200CE044F20041C4F2AC
:1017500000018C4205D044F60001C4F200018C4225
:1017600002D10220FFF7F6FB00EB5500B0FBF5F0CD
:1017700080B2A060B0BD000040686FF35F2070478A
:101780006FF35F21416000BF01680906FCD5704717
:1017900010B544F6FF31C4F20001884215DD44F66D
:1017A0000041C4F2000188421ED045F20001C4F29B
:1017B000000188421BD043F60001C4F201018842B7
:1017C00018BF10BD40F20E3416E044F20041C4F2DE
:1017D000000188420ED044F60001C4F200018842A4
:1017E00010D140F2124407E040F2134404E040F20A
:1017F000144401E040F211442046FFF741FC20462A
:10180000FFF72EFC10BD0000C16841F40051C1601B
:101810007047000001F01F0289094FF0010C0B58BE
:101820000CFA02F21A430A5070470000C1F3891201
:1018300052F800C08A0D105801F01F03C1F3044193
:10184000C8402CFA03F1084000F001007047000086
:10185000C26822F004021143C1607047C26822F0DE
:1018600008021143C16070470FB4054B10B503A9BE
:10187000044A029800F02CF810BC5DF814FB00003C
:10188000B5080008000000200FB4084B10B504A9EB
:1018900002AA039800F01CF8044602A9002000F0F8
:1018A000F3F8204610BC5DF814FB0000891A00080C
:1018B00002E008C8121F08C1002AFAD17047704719
:1018C000002001E001C1121F002AFBD17047000077
:1018D0002DE9FF4F8BB09A460F460546002606E0DD
:1018E00025280BD052460D9990476D1C761C287800
:1018F0000028F5D10FB03046BDE8F08F0024A04697
:101900000122604900E0044315F8013F203B02FA40
:1019100003F00842F7D128782E2817D115F8010FC7
:1019200044F004042A280ED06FF02F022878A0F18A
:10193000300109290AD808EB880102EB410100EBCC
:1019400001086D1CF2E757F8048B6D1C2878692894
:101950003ED006DC0028CDD063280BD0642804D10B
:1019600036E0732810D075284BD052460D99904719
:10197000761C85E017F8040B8DF8000000208DF828
:101980000100E946012003E057F8049B4FF0FF30C7
:1019900061074FF0000401D40AE0641C44450DDAED
:1019A0008442FADB19F804100029F6D106E0641C21
:1019B0008442FCDB19F804100029F8D1264404E025
:1019C00019F8010B52460D999047641EF8D257E062
:1019D00001CF4FF00A0B002802DA40422D2102E02D
:1019E000210504D52B218DF82410012103E0E10706
:1019F00005D02021F7E70DF1200908910CE0002126
:101A0000F9E701CF4FF00A0BF9E75946FEF7DEFB85
:101A100001F1300209F8012D0028F6D1ADEB0900E3
:101A200000F1200B600701D44FF00108D84502DD1A
:101A3000A8EB0B0000E000208046002406E009A887
:101A40005246005D0D999047641C761C08988442AC
:101A5000F5DB04E0302052460D999047761CB8F132
:101A60000001A8F10108F5DC05E019F8010B524668
:101A70000D999047761CBBF10001ABF1010BF4DC32
:101A80006D1C34E7092801000A68531C0B601070B4
:101A90007047000000000102030441542B434D47EE
:101AA000533D222573220D0A0041542B4D495053BA
:101AB000454E443D25642C25640D0A00E01A0008BB
:101AC0000000002018000000B0180008F81A0008F4
:101AD00018000020984B0000C0180008000000000B
:101AE000000000002B36323832313132363937318E
:081AF000353200000000000087
:0400000508000131BD
:00000001FF
