:020000040800F2
:10000000603E002045010008590200085102000826
:100010005502000849020008C5030008000000005E
:100020000000000000000000000000006102000865
:100030004D020008000000005D0200086502000893
:100040005F0100085F0100085F0100085F01000810
:100050005F0100085F0100085F0100085F01000800
:100060005F0100085F0100085F0100085F010008F0
:100070005F0100085F0100085F0100085F010008E0
:100080005F0100085F0100085F0100085F010008D0
:100090005F0100085F0100085F0100085F010008C0
:1000A0005F0100085F0100085F0100085F010008B0
:1000B0005F0100085F0100085F0100085F010008A0
:1000C0005F0100085F0100085F0100085F01000890
:1000D0005F010008B5030008BD0300085F010008C8
:1000E0005F0100085F0100085F0100085F01000870
:1000F0005F0100085F0100085F0100085F01000860
:100100005F0100085F0100085F0100085F0100084F
:100110005F0100085F0100085F0100085F0100083F
:100120005F0100085F0100085F0100085F0100082F
:10013000DFF80CD000F076F800480047594B000873
:10014000603E00200648804706480047FEE7FEE77D
:10015000FEE7FEE7FEE7FEE7FEE7FEE7FEE7FEE777
:100160006D0200083101000840EA01039B0703D03B
:1001700009E008C9121F08C0042AFAD203E011F8E6
:10018000013B00F8013B521EF9D27047D2B201E0A8
:1001900000F8012B491EFBD270470022F6E710B58C
:1001A00013460A4604461946FFF7F0FF204610BDE5
:1001B000421C10F8011B0029FBD1801A704710B5B2
:1001C000002200E0521C835C8C5CA34201D1002B16
:1001D000F8D1D8B2E1B2401A10BD30B505460020C2
:1001E000034600E05B1C934205D2EC5CC85C201A1D
:1001F00001D1002CF6D130BD30B50B4601460020B0
:100200002022012409E021FA02F59D4205D303FAD8
:1002100002F5491B04FA02F52844151EA2F1010259
:10022000F1DC30BD064C074D06E0E06840F001030C
:1002300094E8070098471034AC42F6D3FFF77CFFF0
:1002400050B3000870B30008FEE7000070470000DC
:10025000FEE70000FEE70000704700007047000066
:100260007047000080B508F0C7FD80BD81B04EF634
:100270008851CEF200010A6841F2040042F4700293
:10028000C4F202000A6050F8041C4FF0000C41F068
:10029000010140F8041C016844F61F6341F080012D
:1002A0000160CDF800C0009A9A4207D844F6206257
:1002B000009B01330093009B9342F9D3C0F800C028
:1002C000C0F828C050F8042C4FF6FF73CFF6F66341
:1002D0001A4040F8042C4FF41F02426050F8042CDE
:1002E00022F4802240F8042C50F8042C42F480328E
:1002F00040F8042C4FF6FE7250F8041C013A4CF101
:100300000003890301D4002BF6D150F8041C8903A3
:1003100001D400BFFEE7826947F2000142F080523B
:10032000C4F2000182610A684FF6FF7342F4404252
:100330000A600268CBF2C37302600268026002685E
:1003400042F480620260026822F440320260026875
:1003500042F44032026002681A400260026842F4CD
:10036000C012026050F8042C42F0807240F8042C55
:1003700050F8042C9201FBD50A6842F480320A60DE
:100380004A68D203FCD50A6842F400320A6000BF12
:100390004A689203FCD5016821F0030101600168FD
:1003A00041F00201016000BF01680907FCD501B0FE
:1003B0007047000080B509F0A5F880BD80B509F050
:1003C000B5F980BDFEE700002DE9F04F85B040F2A1
:1003D0003C1E40F6A47BC2F2000E40F23C2C40F2E0
:1003E00004030024C2F2000B4FF00108C2F2000C1B
:1003F0000EF144004FF0FF0AC2F200034FF0000973
:1004000000250490042DC0F221831BF805103D291E
:1004100040F01C8305EB0B0010F8012C432A29D176
:1004200010F8022C502A25D110F8032C4D2A21D186
:10043000049A05F10800691C42F201478EF8FE801B
:10044000CCF8F8830BE000BFB9F1000F01F1010512
:1004500018BF147001328142294680F20B811BF8CB
:1004600001300D2B1370EFD808FA03F33B4218BF8D
:100470008946E9E73D2940F0E98210F8012C442A39
:100480005AD110F8022C552A56D16F1C1BF80700C0
:1004900041F65C013D2808BFAF1C1BF80700C2F203
:1004A0000001303808608EF843008EF8FE80CCF8EA
:1004B000F88303F09BFF04F009F940F22000C2F238
:1004C0000000006840F23C1E002140F67C720024CF
:1004D000C2F2000EC0F60201C2F200021160C8B101
:1004E00040F23C22C2F200020023AEF10101043AC4
:1004F000C0F6020353F8045BFF2D42F8045F28BFE7
:100500005546013801F8015FF4D140F67C70C2F223
:10051000000003609EF844000130C0B2022880F061
:10052000258140F6687044F24541C2F20000C4F6ED
:100530004D11C0E9001121E13D2940F0878210F8FA
:10054000012C4C2A2CD110F8022C572A28D110F853
:10055000032C4D2A24D105F10E010EF114026B1C5F
:10056000002042F201468EF8FE80CCF8F8830CE0C1
:100570002C2F08BF18460028A3F1010718BF1470DC
:10058000013301328F4280F275811BF803700D2F09
:100590001770EDD808FA07F53542E9D01846EAE7B2
:1005A0003D2940F0538210F8012C4C2A40F0A580E0
:1005B00010F8022C572A40F0A08010F8032C4E2A85
:1005C00040F09B8010F8042C452A40F096800135BD
:1005D0001BF8050041F65C013038C2F200018EF8CC
:1005E000FE80CCF8F883086098BF20468EF84C0057
:1005F00003F0FCFE04F06AF840F22000C2F20000B2
:10060000006840F23C1E002140F67C72C2F2000EEF
:10061000C0F60201C2F200021160C8B140F23C22F1
:10062000C2F200020023AEF10101043AC0F6020357
:1006300053F8047BFF2F42F8047F28BF5746013848
:1006400001F8017FF4D140F67C70C2F20000036033
:100650009EF844000130C0B2022880F0CC8340F6FE
:10066000687044F24541C2F20000C4F64D11C0E981
:100670000011C8E303F0BAFE04F028F840F22000AD
:10068000C2F20000006840F23C2C40F23C1E002107
:1006900040F67C72C2F2000CC2F2000EC0F60201FB
:1006A000C2F200021160B8B10023AEF10101ACF159
:1006B0000402C0F6020300BF53F8047BFF2F42F888
:1006C000047F28BF5746013801F8017FF4D140F676
:1006D0007C70C2F2000003609EF844000130C0B29A
:1006E000022838D240F6687044F24541C2F2000058
:1006F000C4F64D11C0E9001135E03D2940F0A68156
:1007000010F8012C472A44D110F8022C462A40D177
:1007100010F8032C432A3CD1681C002100228EF8DB
:10072000FE80CCF8F8830EE0002A06BF0EF80130F8
:1007300000220EF80140002A01F1010108BF01303A
:100740000F2900F0E8821BF800302C2BECD10EF8BA
:1007500001400246EFE7DEE9110140F66872C2F29D
:100760000002C2E90001002000240DE0DEE91101D1
:1007700040F66872C2F20002C2E9000101203D4663
:1007800040F23C2CC2F2000C40F20403C2F200031F
:100790005DE13D2940F05A8110F8012C542A40F0C7
:1007A000D38010F8022C532A40F0CE8010F8032C8E
:1007B000522A40F0C98010F8042C572A40F0C48017
:1007C0004078AE1C41F65C041BF806103038C2F2CB
:1007D000000420604FF0000498BF20462C298EF8BA
:1007E000FE80CCF8F88308BFEE1C1BF8061041F21F
:1007F000AC35C2F200058EF841002C2928464FF492
:10080000966108BF0136FFF7C8FC40F6D86C002798
:100810000BEB06004FF00009C2F2000C029600BF7D
:10082000015D2F55002912BF2129B9F1000FA14602
:10083000B9F1000F18BF394629550134052CEFD105
:10084000A9F101000328CCF80070039400F25D8345
:1008500041F65C06C2F20006DFE810F004009D03DA
:10086000AA03C90328783038306088BFCCF800006C
:1008700000F0F9BB1BF800100EF123032C2908BF70
:1008800001301BF800102C2908BF013000F10E02C6
:1008900000210BE02C2F08BF0146002918BF1C7057
:1008A000904200F1010003F101030ADA1BF8007025
:1008B0000D2F1F70EED808FA07F53542EAD0014631
:1008C000EBE71BF801000EF132022C2808BF0131C2
:1008D0001BF801004FF000092C2808BF013101F17D
:1008E0000E0009E0B9F1000F01F1010518BF147005
:1008F0000132814229460ADA1BF801300D2B1370B0
:10090000F0D808FA03F3334218BF8946EAE79EF8A5
:1009100014000130C0B20228C0F0A3809EF8190074
:10092000FF2800F09E80002800F09B80DEE9050192
:10093000DEF81F2043F62827C2F20007DEF81C303D
:10094000C7F80B200BC7A2E03D2940F07F8010F8CC
:10095000011C542940F07A8010F8021C532975D1EB
:1009600010F8031C522971D110F8041C48296DD1CC
:10097000407841F65C043038C2F2000405F1020907
:1009800020604FF000071BF8091098BF38468EF81A
:100990004200C0B22C298EF8FE80CCF8F883CCF847
:1009A000080108BF05F103091BF8091040F22012E5
:1009B000C2F2000210602C290FF67830594608BFA9
:1009C00009F101090AF020F841F2AC35C2F2000544
:1009D00028464FF49661FFF7E0FB2B4600224D4678
:1009E0004FF000091BF80510B9F1000F484608BF89
:1009F000B946002918BF8146B9F1000F18BF11464A
:100A0000D95507F1010708BF0135052FEAD1A9F132
:100A1000010040F6D46E0328C2F2000ECEF800208A
:100A200000F25C84DFE810F00400E203F7031E0428
:100A3000187840F23C17303840F23C262060C2F271
:100A40000007C2F2000600F0A1BC00BF0120002890
:100A500000F06685186801358542FFF6D3AC00F0DA
:100A60005FBD43F62820C2F2000043F238018181C5
:100A700043F22B61C3F63201016043F23521C3F228
:100A80003831416043F23531C3F6301181609EF850
:100A900023000130C0B2022814D39EF82800FF289A
:100AA00010D078B1DEF82300DEF82E2043F6382788
:100AB000C2F20007DEF82710DEF82B30C7F80B2053
:100AC0000BC715E043F63821C2F2000143F6391096
:100AD000888143F22B60C3F63200086043F2323063
:100AE000C3F23100486043F63210C3F2331088601D
:100AF0009EF832000130C0B2022814D39EF83700AD
:100B0000FF2810D078B1DEF83200DEF83D2043F641
:100B10004827C2F20007DEF83610DEF83A30C7F890
:100B20000B200BC714E043F64821C2F2000132202B
:100B3000888143F22B60C3F63200086043F2311023
:100B4000C3F23230486043F23430C3F2317088600F
:100B500003F04CFC03F0BAFD40F22000C2F20000AA
:100B60000068002140F67C7240F23C1E40F23C2CB2
:100B7000C0F60201C2F20002C2F2000EC2F2000C84
:100B80001160B8B10023AEF10101ACF10402C0F66E
:100B9000020300BF53F8047BFF2F42F8047F28BFF5
:100BA0005746013801F8017FF4D140F67C70C2F25B
:100BB000000003609EF814000130C0B2022812D376
:100BC0009EF81900FF280ED068B1DEE90501DEF8B5
:100BD0001F2043F62824C2F20004DEF81C30C4F8BB
:100BE0000B200BC415E043F62820C2F2000043F2AC
:100BF0003801818143F22B61C3F63201016043F277
:100C00003521C3F23831416043F23531C3F630113A
:100C100081609EF8230000240130C0B2022814D362
:100C20009EF82800FF2810D078B1DEF82300DEF807
:100C30002E2043F63826C2F20006DEF82710DEF832
:100C40002B30C6F80B200BC615E043F63821C2F254
:100C5000000143F63910888143F22B60C3F632005D
:100C6000086043F23230C3F23100486043F632107C
:100C7000C3F2331088609EF832000130C0B20228FF
:100C800014D39EF83700FF2810D078B1DEF8320078
:100C9000DEF83D2043F64826C2F20006DEF83610A4
:100CA000DEF83A30C6F80B200BC614E043F64821B4
:100CB000C2F200013220888143F22B60C3F6320079
:100CC000086043F23110C3F23230486043F23430EE
:100CD000C3F2317088609EF8440040F20403013092
:100CE000C0B2C2F2000302280BD240F6687044F290
:100CF0004541C2F20000C4F64D11C0E900110020C8
:100D0000A5E6DEE9110140F66872C2F20002C2E90E
:100D1000000100209BE60EF10E00511C4FF000096F
:100D2000052200BF1BF801302C2B08BF8946B9F102
:100D3000000F14BF23460131013A00F8013FF1D101
:100D400009F101051BF8050041F65C012C2808BFDC
:100D500009F102051BF80500C2F200012C2808BFAA
:100D600001351BF805003038086003F03FFB03F045
:100D7000ADFC40F22000C2F200000068002140F605
:100D80007C7240F23C1E40F23C2C40F2A006C0F6C1
:100D90000201C2F20002C2F2000EC2F2000CC2F264
:100DA00000061160B0B10023AEF10101ACF1040204
:100DB000C0F6020353F8047BFF2F42F8047F28BFDC
:100DC0005746013801F8017FF4D140F67C70C2F239
:100DD000000003609EF844000130C0B2022817D220
:100DE00040F6687044F24541C2F20000C4F64D116D
:100DF000C0E9001114E0DEE9110140F66872C2F2A8
:100E00000002C2E9000101204FF000090024B7E40C
:100E1000DEE9110140F66872C2F20002C2E9000187
:100E20009EF800000024FF281BD09EF80110FF2927
:100E300017D09EF80220FF2A13D090B189B182B159
:100E40004FF0FF300EEB000149783318A1F130026A
:100E50004B2A00F1010028BF21460E285970F1D11C
:100E60000FE043F24D20C5F24D00306044F64C6077
:100E7000C4F64150706052203072C6F80940A6F89E
:100E80000D409EF80F000130C0B202280AD240F295
:100E9000C40043F23101C2F20000C3F2300101602C
:100EA000047109E09EF81300DEF80F1040F2C4024E
:100EB000C2F20002107111609EF8410040F204037A
:100EC000411CC9B2C2F20003012912D840F28C00C1
:100ED000C2F20000006840F2D401C2F200010870C2
:100EE00040F22411C2F2000108608EF84100002097
:100EF000ADE540F2D401C2F20001087040F22411C5
:100F0000C2F2000108600020A1E52878697844F267
:100F10008044303842F210724FF47A73CFF6FF7487
:100F200041F65C06504301FB03F211FB03414BF613
:100F30008133C2F20006CCF800009A42316024BF2F
:100F40000844CCF80000A87864224EF6405300FB19
:100F500002F1CFF6FF7310FB0230B1F5965F3060FF
:100F600004D9DCF800100844CCF80000E8784FF60B
:100F7000206200EB80004100CFF6FF7202EB4000E0
:100F8000B1F5F07F306004D9DCF800100844CCF8EB
:100F9000000029795DE02978A1F130003129306025
:100FA00022BF00EB80004000CCF80000697850E0E0
:100FB00029784FF62062A1F130003129306022BF3C
:100FC00064214843CCF800006878CFF6FF7200EB4C
:100FD0008000410002EB4000B1F5F07F306004D9A1
:100FE000DCF800100844CCF80000A97831E029783A
:100FF0006422A1F130003129306022BF4FF47A71B0
:101000004843CCF8000068784EF6405300FB02F1EC
:10101000CFF6FF7310FB0230B1F5965F306004D954
:10102000DCF800100844CCF80000A8784FF62062E5
:1010300000EB80004100CFF6FF7202EB4000B1F5FB
:10104000F07F306004D9DCF800100844CCF80000D0
:10105000E978A1F130003129306004D3DCF80010C8
:101060000844CCF80000DCF8000048F68904A0F23F
:10107000A15111F5B46F30603CBF4FF4B461CCF8AE
:101080000010DCF80030C8F6880454FB033140F649
:10109000E4654A1102EBD17100EE101AB8EEC00AF5
:1010A000BDEEC00A54FB0001C2F2000510EE102A8A
:1010B0002B603B2BD8BF3A464F1140F2241407EB6C
:1010C000D171C2F2000440F65066C1EB01112768ED
:1010D000C2F20006A0EB81010FF288403260CCF82A
:1010E0000010009709F090FC286840F23C2740F27D
:1010F0003C13C2F20007C2F200033168C7F8900146
:1011000093F8410040F6D862C2F20002C7F8941189
:10111000411C1268C9B20129C7F898210DD840F2C4
:101120008C00C2F20000006840F2D401C2F200015B
:101130000870206083F8410005E040F2D401C2F25B
:1011400000010870206003F051F903F007FB40F242
:101150002000C2F200000068002140F67C72039E6D
:10116000C0F60201C2F200021160E0B140F23C118F
:1011700040F23C22C2F20001C2F200020023013917
:10118000043AC0F6020353F8047BFF2F42F8047FB1
:1011900028BF5746013801F8017FF4D140F67C7032
:1011A000C2F2000003600298851901F0A7F940F22D
:1011B0003C1EC2F2000E9EF844000130C0B202286C
:1011C0000AD240F6687044F24541C2F20000C4F60B
:1011D0004D11C0E9001107E0DEE9110140F6687227
:1011E000C2F20002C2E9000100200FE6197840F2C5
:1011F0003C17A1F130003129206022BF00EB8000B4
:101200004000CEF8000040F23C265978C2F20007B8
:10121000C2F20006B2E019784FF62062A1F1300068
:101220003129206022BF64214843CEF8000058785D
:1012300040F23C1700EB800040F23C264100CFF624
:10124000FF72C2F20007C2F2000602EB4000B1F5E5
:10125000F07F206004D9DEF800100844CEF80000CA
:1012600099788BE019784FF0640CA1F130003129A6
:10127000206022BF4FF47A714843CEF800005878BE
:101280004EF6405240F23C1740F23C2600FB0CF177
:10129000CFF6FF72C2F20007C2F2000610FB0C206C
:1012A000B1F5965F206004D9DEF800100844CEF84E
:1012B000000098784FF6206200EB80004100CFF6E6
:1012C000FF7202EB4000B1F5F07F206004D9DEF838
:1012D00000100844CEF80000D9784FE0197844F2A5
:1012E0008047A1F130003129206022BF42F2107105
:1012F0004843CEF8000058784FF47A72CFF6FF7763
:1013000000FB02F110FB02704BF6813240F23C17F9
:1013100040F23C269142C2F20007C2F20006206071
:1013200004D3DEF800100844CEF8000098784FF09F
:10133000640C4EF6405200FB0CF1CFF6FF7210FB2E
:101340000C20B1F5965F206004D9DEF80010084447
:10135000CEF80000D8784FF6206200EB8000410004
:10136000CFF6FF7202EB4000B1F5F07F206004D9A8
:10137000DEF800100844CEF800001979A1F1300021
:101380003129206004D3DEF800100844CEF80000B4
:10139000DEF8000042F261714DF6A002411ACFF66C
:1013A000FF72914240F6E061C2F2000120600860E5
:1013B0003CBF42F26071216021684DF6A00342F209
:1013C0006072CFF6FF738A1A01339A421AD240F242
:1013D0001810C2F20000C0F8008040F64C60C2F263
:1013E0000000172202603B20CEF8000040F6E060CB
:1013F0004FF43461C2F20000C6F8A481C6F8A81107
:10140000016026E045F606334A09C0F2B05348F6BB
:101410008904A2FB0323C8F6880454FB000040F2B1
:101420001812C2F2000213604211C6E9693102EBE0
:10143000D07054FB011240F64C63C2F200031860F6
:10144000501100EBD270C0EB0010A1EB8000CEF881
:10145000000040F65060C2F20000016897F84200B8
:10146000C6F89C11411CDEF80020C9B20129C6F85B
:10147000A0210CD840F28800C2F20000006840F2BF
:101480002011C2F20001086087F8420004E040F237
:101490002011C2F20001086002F0A8FF03F05EF91B
:1014A00040F22000C2F200000068002140F67C7289
:1014B000C0F60201C2F200021160E0B140F23C113C
:1014C00040F23C22C2F20001C2F2000200230139C4
:1014D000043AC0F6020353F8047BFF2F42F8047F5E
:1014E00028BF5746013801F8017FF4D140F67C70DF
:1014F000C2F20000036001F001F840F23C24C2F2A5
:10150000000404F5CE778ECF0EA0009709F07CFA88
:1015100040F23C1EA4460020C2F2000EFFF724B9A0
:1015200040F6A470C2F20000FF21FEF736FE05B0BF
:10153000BDE8F08F0D0A48525354202573200D0A40
:101540000000000032304852535420464D4342437D
:101550004B55503A202564202564202564202564BD
:101560000D0A0000323057525354206D5F685F6D92
:10157000745F656E737273743A202564202564204D
:1015800025642025640D0A002DE9F04F87B040F254
:101590003C1A40F2000B40F6A478C2F2000A40F276
:1015A0003C2C41F65C0540F2040403464FF0000E6B
:1015B000C0F6020BC2F20008C2F2000C0AF14400AD
:1015C000C2F20005C2F2000400270026059006932F
:1015D000042FC0F25F8118F807103D2940F05A81AE
:1015E00007EB080010F8012C432A2BD110F8022C2D
:1015F000502A27D110F8032C4D2A23D1514601201F
:10160000059A8AF8FE00CCF8F803012507F10800D6
:10161000791C42F201440AE0002E01F1010718BFD3
:1016200082F800E001328142394680F2CD8018F81C
:1016300001300D2B1370EFD805FA03F3234218BFC6
:101640000E46E9E73D2940F0258110F8012C442A97
:1016500052D110F8022C552A4ED1781C18F80010DF
:101660004FF001093D2908BFB81C18F800100746C3
:10167000A1F1300028608AF843008AF8FE90CCF887
:10168000F893654602F0B2FE03F020F840F2200025
:10169000C2F20000006840F67C710028C2F200012E
:1016A000C1F800B000F00F81AAF101012A1F5B46CA
:1016B000AC46FF2553F8044BFF2C42F8044F28BFDB
:1016C0002C46013801F8014FF4D140F67C70C2F28B
:1016D0000000036040F23C1A41F65C05069B40F2B4
:1016E00004044FF00109C2F2000AC2F200054FF0F3
:1016F000000EC2F20004CFE03D2940F0CB8010F88C
:10170000012C4C2A31D110F8022C572A2DD110F877
:10171000032C4D2A29D10120A9468AF8FE00CCF8D5
:10172000F803012507F10E010AF114027B1C0020C9
:1017300042F201440EE000BF2C2F08BF18460028DB
:10174000A3F1010718BF82F800E0013301328F4294
:1017500080F2C28018F803700D2F1770ECD805FACC
:1017600007F62642E8D01846E9E73D2940F0928086
:1017700010F8012C472A67D110F8022C462A63D1B1
:1017800010F8032C432A5FD140F67C790121C2F284
:1017900000098AF8FE10CCF8F8130130791C0027F4
:1017A00000220AE0002F06BF0AF8023000270AF8DC
:1017B00002E001320F2A00F03682835C2C2BF1D13B
:1017C0008F180AF802E0F4E702F010FE02F07EFF44
:1017D00040F22000C2F20000006840F67C71002850
:1017E000C2F20001C1F800B060D040F23C2CAAF176
:1017F0000101C2F2000C41F65C0AACF104025B4646
:10180000C2F2000AFF2500BF53F8044BFF2C42F838
:10181000044F28BF2C46013801F8014FF4D140F69F
:101820007C70C2F20000036040F23C10C2F2000083
:1018300040F20404069B4FF000094FF0000EC2F284
:1018400000045546824627E03D2923D110F8012C9B
:10185000542A0CD110F8022C532A08D110F8032C6A
:10186000522A04D110F8042C572A00F0C7823D29CF
:1018700010D110F8011C54290CD110F8021C532966
:1018800008D110F8031C522904D110F8040C482880
:1018900000F0B4824FF00109B9F1000F00F0AE8200
:1018A000206801378742FFF693AEA7E240F23C2C56
:1018B00041F65C054FF00009C2F2000C4FF0000E3B
:1018C000C2F20005A9E1AC4641F65C05069BC2F2F6
:1018D00000054FF0000EDFE718F800100AF12303AF
:1018E0002C2908BF013018F800102C2908BF01303E
:1018F00000F10E0200210CE02C2F08BF0146002948
:1019000018BF83F800E0904200F1010003F10103E9
:101910000ADA18F800700D2F1F70EDD805FA07F6D7
:101920002642E9D00146EAE718F801000AF132023E
:101930002C2808BF013118F8010000262C2808BF08
:10194000013101F10E0009E0002E01F1010718BF7D
:1019500082F800E00132814239460ADA18F8013093
:101960000D2B1370F0D805FA03F3234218BF0E466F
:10197000EAE79AF814000130C0B2022812D39AF8AC
:101980001900FF280ED068B1DAE90501DAF81F2046
:1019900043F62825C2F20005DAF81C30C5F80B2002
:1019A0000BC515E043F62820C2F2000043F23801CF
:1019B000818143F22B61C3F63201016043F235218C
:1019C000C3F23831416043F23531C3F630118160E2
:1019D0009AF823000130C0B2022814D39AF82800E4
:1019E000FF2810D078B1DAF82300DAF82E2043F679
:1019F0003825C2F20005DAF82710DAF82B30C5F8DE
:101A00000B200BC515E043F63821C2F2000143F666
:101A10003910888143F22B60C3F63200086043F22C
:101A20003230C3F23100486043F63210C3F2331053
:101A300088609AF832000130C0B2022814D39AF8B4
:101A40003700FF2810D078B1DAF83200DAF83D20FC
:101A500043F64825C2F20005DAF83610DAF83A30D3
:101A6000C5F80B200BC514E043F64821C2F2000173
:101A70003220888143F22B60C3F63200086043F2C3
:101A80003110C3F23230486043F23430C3F2317067
:101A900088604D4602F0AAFC02F018FE40F22000D9
:101AA000C2F20000006840F67C7140F23C2CC2F2A9
:101AB0000001C2F2000C4FF0000EC1F800B0D0B12E
:101AC000AAF10101ACF104025B46FF2553F8044B77
:101AD000FF2C42F8044F28BF2C46013801F8014F73
:101AE000F4D140F67C7040F23C1AC2F20000C2F21F
:101AF000000A4D4603609AF814000130C0B2022873
:101B000012D39AF81900FF280ED068B1DAE905015E
:101B1000DAF81F2043F62824C2F20004DAF81C3059
:101B2000C4F80B200BC415E043F62820C2F20000D5
:101B300043F23801818143F22B61C3F63201016027
:101B400043F23521C3F23831416043F23531C3F6F7
:101B5000301181609AF823000130C0B2022814D3FA
:101B60009AF82800FF2810D078B1DAF82300DAF8C4
:101B70002E2043F63824C2F20004DAF82710DAF8EF
:101B80002B30C4F80B200BC415E043F63821C2F209
:101B9000000143F63910888143F22B60C3F632000E
:101BA000086043F23230C3F23100486043F632102D
:101BB000C3F2331088609AF832000130C0B20228B4
:101BC00014D39AF83700FF2810D078B1DAF8320031
:101BD000DAF83D2043F64824C2F20004DAF8361061
:101BE000DAF83A30C4F80B200BC414E043F648216D
:101BF000C2F200013220888143F22B60C3F632002A
:101C0000086043F23110C3F23230486043F234309E
:101C1000C3F2317088604FF0000940F20404069B63
:101C2000C2F2000438E60026002400BF013718F88D
:101C3000075040F23C10C2F200002C2D20444FF01F
:101C4000000208BF3E46002E08BF2A46C2730FF6A8
:101C5000640039463346009508F0D6FE44F242202F
:101C6000C0F20F00013800BFFCD10134052CDDD1DA
:101C7000771C18F8070041F65C052C2808BFB71C34
:101C800018F80700C2F200052C2808BF013718F821
:101C900007003038286002F0A9FB02F017FD40F27F
:101CA0002000C2F20000006840F23C1A40F23C2CD6
:101CB00040F2A004069BC2F2000AC2F2000C4FF0F0
:101CC000000EC2F200044946C9F800B0E0B1AAF122
:101CD0000101ACF104025B464FF0FF0A53F8045BCC
:101CE000FF2D42F8045F28BF5546013801F8015F17
:101CF000F4D1C9F8003041F65C05069B40F23C1A6D
:101D0000C2F20005C2F2000A9AF80000FF281CD0B7
:101D10009AF80110FF2918D09AF80220FF2A14D04F
:101D200098B191B18AB199464FF0FF300AEB0001AA
:101D300049782318A1F130024B2A00F1010028BF95
:101D400071460E285970F1D110E043F24D20C5F2D2
:101D50004D00206044F64C60C4F641506060522053
:101D600099462072C4F809E0A4F80DE09AF80F0033
:101D70000130C0B202280BD240F2C40043F231015C
:101D8000C2F20000C3F23001016080F804E009E013
:101D90009AF81300DAF80F1040F2C402C2F20002FF
:101DA000107111609AF8410040F20404411CC9B25C
:101DB000C2F200044B46012913D840F28C00C2F253
:101DC0000000006840F2D401C2F20001087040F245
:101DD0002411C2F2000108608AF841004FF00009A6
:101DE0005AE540F2D401C2F20001087040F2241119
:101DF000C2F2000108604FF000094DE5082B5BD0EE
:101E0000072B40F04D8398F8087001208AF8FE00F7
:101E1000CCF8F80398F80900B7F130095146AA4602
:101E2000C5F800904FF009054FF0000698BFB14685
:101E30002C2808BF0A2518F8050041F2AC34C2F27C
:101E4000000481F841902C2820464FF4966108BF89
:101E50000135FEF7A2F908EB05000021002200BFC2
:101E6000835C00290D4608BF1546002B08BF294694
:101E7000002918BF3346A3540132052AF0D140F699
:101E8000D8600139C2F2000000220329026000F28A
:101E9000738040F23C2CC2F2000CDFE801F002B08B
:101EA000BDDB217840F23C143039CAF80010C2F290
:101EB000000488BF01600AE101208AF8FE00CCF826
:101EC000F80398F8080098F80910303828604FF0A7
:101ED000000698BF30468AF84200C0B20927CCF805
:101EE000080140F220122C2908BF0A2718F8071011
:101EF00041F2AC34C2F20002C2F2000410602C299C
:101F000020464FF4966108BF0137FEF746F90020DE
:101F1000002100BF18F807206654212A12BF002AAA
:101F200000280846002818BF3246625401F101011A
:101F300008BF01370529EDD140F6D4680138C2F257
:101F4000000800210328C8F8001000F23F8140F289
:101F50003C2C40F67C76C2F2000CC2F20006DFE8B0
:101F600010F0040085019201B1012078303828601A
:101F700088BFC8F80000E1E121786278303942F288
:101F8000107344F2804659434FF47A73CFF6FF76CC
:101F900002FB03F712FB03624BF6813301609F42A1
:101FA000CAF8002024BF11440160A17864224EF6D3
:101FB000405740F23C2C01FB02F3CFF6FF77C2F210
:101FC000000C11FB0271B3F5965FCAF8001002D93C
:101FD000026811440160E1784FF6206301EB810152
:101FE0004A00CFF6FF7303EB4101B2F5F07FCAF868
:101FF000001002D902681144016022795AE0227867
:10200000A2F13001312ACAF8001022BF01EB810190
:102010004900016062784DE0312F03D321783039D7
:10202000CAF80010DAF8002064215143012A016047
:1020300003DB6278303ACAF80020DAF8003003EBAC
:1020400083025200012BCAF80020A4BF1144016092
:10205000A2782FE022784EF64057A2F13001312AC3
:10206000CAF8001022BF4FF47A72514301606178C0
:10207000642201FB02F3CFF6FF7711FB0271B3F587
:10208000965FCAF8001002D9026811440160A17875
:102090004FF6206301EB81014A00CFF6FF7303EB9B
:1020A0004101B2F5F07FCAF8001002D9026811446C
:1020B0000160E27840F23C14A2F13001312AC2F210
:1020C0000004CAF8001002D30268114401600168DC
:1020D00048F68907B1F5B46FCAF80010C4BF4FF4D1
:1020E000B46202600268C8F68807002ADCBF4FF4B9
:1020F000B4620260026840F6E46357FB0226C2F253
:1021000000031A60731100253B2AC8BF03EBD67584
:1021100040F6506357FB0117C2F200031D607B11AC
:1021200003EBD773C3EB0313A1EB8301016009F148
:102130000100C0B20128CCE96425CCF8981111D86F
:1021400040F28C00C2F20000006840F2D401C2F2FA
:102150000001087040F22411C2F20001086084F806
:1021600041000CE040F2D400C2F2000040F2241121
:1021700080F800905FFA89F0C2F20001086040F632
:102180007C7AC2F2000A02F031F902F0E7FA40F27A
:102190002000C2F200000068CAF800B098B140F216
:1021A0003C22C2F20002611E043A00BF5BF8043B0D
:1021B000FF2B42F8043F28BFFF23013801F8013FFD
:1021C000F4D1CAF800B000F099F969E1217844F23D
:1021D0008043A1F130003129286022BF42F2107102
:1021E0004843C8F8000060784FF47A71CFF6FF7367
:1021F00040F23C2C40F67C7600FB01F210FB0130F3
:102200004BF68131C2F2000CC2F200068A4228600D
:1022100004D3D8F800100844C8F80000A07864215E
:102220004EF6405300FB01F2CFF6FF7310FB013076
:10223000B2F5965F286004D9D8F800100844C8F8B1
:102240000000E0784FF6206200EB80004100CFF6FE
:10225000FF7202EB4000B1F5F07F286004D9D8F896
:1022600000100844C8F8000021795DE02178A1F150
:1022700030003129286022BF00EB80004000C8F800
:102280000000617850E021784FF62062A1F1300023
:102290003129286022BF64214843C8F800006078D3
:1022A000CFF6FF7200EB8000410002EB4000B1F579
:1022B000F07F286004D9D8F800100844C8F800005E
:1022C000A17831E021784EF64053A1F13000312958
:1022D000286022BF4FF47A714843C8F80000607844
:1022E000642100FB01F2CFF6FF7310FB0130B2F561
:1022F000965F286004D9D8F800100844C8F8000098
:10230000A0784FF6206200EB80004100CFF6FF720C
:1023100002EB4000B1F5F07F286004D9D8F8001036
:102320000844C8F80000E178A1F1300031292860A4
:1023300004D3D8F800100844C8F80000D8F800000A
:102340004DF6A00240F6E06442F26171CFF6FF72F2
:10235000C2F20004411A2860914220603CBF42F260
:1023600060712960296842F26073CB1A013240F62D
:102370004C6A40F218179342C2F2000AC2F20007F8
:102380000BD24FF434600121CCE96910062038608B
:102390001720CAF800003B2033E045F606334A090F
:1023A000C0F2B053A2FB03234FF4B462C146A84667
:1023B00003FB12059FED431A00EE105AB8EEC00A57
:1023C00080EE010ACCE969313B60C9F8005008F0A1
:1023D0003FFB48F68900C8F6880050FB055040F2E4
:1023E0003C2C411101EBD070C0EB0010C2F2000C8C
:1023F000BDEEC00AC8F80050C846A5EB80008AEDC3
:10240000000A40F65061C2F200010968C8F80000F5
:10241000CCF89C11DCF8A811CCF8A001216067462B
:1024200001F0E4FF02F09AF940F22000C2F200004D
:102430000068C6F800B090B140F23C11C2F2000151
:1024400001393A1F5BF8043BFF2B42F8043F28BFD9
:10245000FF23013801F8013FF4D1C6F800B000F0C5
:102460004DF840F23C10C2F2000090F8422040F2D9
:102470002010C2F200000368D8F8000040F21817DC
:10248000DAF80010C2F200073F6826688DE8830082
:1024900040F6A4710CA0C2F20001039608F0B4FA51
:1024A00040F6A470C2F20000FF21FDF776FE07B0EF
:1024B000BDE8F08F0D0A25642025642025642025C1
:1024C000640D0A0000007042336D7367202573208D
:1024D000666D635F627566665B36365D20256420D7
:1024E000656E61626C656872737420256420256472
:1024F0002025642025642025640D0A002DE9F04F75
:1025000081B040F23C24C2F2000404F5C87B9BE891
:10251000E808D4F8A40140F6E46C40F6506140F6B7
:10252000D86240F64C6940F6D46840F2181AC2F2FC
:10253000000CC2F20001C2F20002C2F20009C2F2B3
:102540000008C2F2000ACCF800300D601660C9F82D
:102550000070C8F800B055EA0607CAF8000004BFCA
:102560000C20086008681928A4BF182008600868B3
:10257000B0F1FF3FDCBF00200860B6F1FF3FDCBFD9
:1025800000201060A3F5B46010F5B46F07D840F2D6
:10259000CF20CCF800000B2008603B2010600868BA
:1025A0001368C0EB001003EB8000A0F5B46313F5D3
:1025B000B46FCCF8000007D840F2CF20CCF8000070
:1025C0000B2008603B201060D4F8A80142F2607133
:1025D0004DF6A002411ACFF6FF7240F6E066914236
:1025E000C2F200060FD84FF43460012117223B23BA
:1025F000CAF80010C9F80020C8F80030C4E9672301
:10260000C4E9691038E000EE100A9FED221AB8EE16
:10261000400A80EE010A306008F01AFABCEEC01AD7
:1026200011EE100A4FF4B46100FB11B59FED1A2AA8
:1026300000EE105AB8EEC00A80EE020A41F65C07BE
:1026400084ED691A8AED001AC2F2000708F000FA58
:1026500048F68900C8F6880050FB0550BDEEC00A58
:10266000411101EBD070C0EB0010A5EB800089EDAB
:10267000000A3D60C8F80000306842F25F7188428D
:10268000A4BF42F260703060D4F8A801306001B09D
:10269000BDE8F08F0000B44400007042B0B50828D7
:1026A00084BF6420B0BD81B240F2BF1222FA01F1B2
:1026B000C9074FF0640413D00AA113A251F82010E7
:1026C00052F8205040F6A470C2F20000FDF777FDEA
:1026D00040F2F801C2F200010860002808BF2C4651
:1026E0002046B0BD2C000020360000203E00002017
:1026F00047000020520000205E0000202C00002037
:1027000068000020700000200000000001000000B0
:10271000020000000300000004000000120000009E
:102720000000000015000000190000002DE9F0472E
:1027300082B040F6607041F2A83640F6A474C2F24E
:1027400000000021C2F20006C2F200040022C0E92B
:102750000011317004E000BFFD2901F1010114DA1C
:10276000635C222B04BF01323270212BF4D1EF299C
:10277000F2DCD3B2012BEFD02144D1F80130D1F8F3
:102780000510C0E90031FF21E6E740F6607040F631
:102790006871C2F20000C2F200010822FDF71DFDBF
:1027A00041F65C0540F2F409C2F2000540F28008EF
:1027B000C2F2000964212860C2F200080020C9F8B2
:1027C000001000220021C8F80000307004E000BFB3
:1027D000FD2A02F1010212DAA35C222B04BF0131AF
:1027E0003170212BF4D1EF2AF2DCCBB2012BEFD0E8
:1027F000A318A050FF22586018819872E8E7617A08
:10280000E079267A44F64A375429C0F24C0708BFCB
:102810004F2E65D0627994F803C02179A3794C2AB0
:1028200008BF572900F080804C2B08BF572A00F0C2
:102830008680472B08BF462A00F09C80442808BFAA
:10284000552B00F00381542B08BF462A00F02A8143
:10285000432A08BF502900F04D81522B08BF452A5A
:1028600000F055814D2B08BF492A00F03C82432BD4
:1028700008BF412A00F0598283F0540682F05305C4
:102880002E4381F052052E4308BFBCF1480F00F0E3
:102890008082ACF15705B6FA86F6B5FA85F5760969
:1028A0006D092E40012E40F08F823D2802D1072075
:1028B000FEF76AFE40F22410C2F20000016840F602
:1028C000E460C2F2000002684AF64D60C0F6000003
:1028D00008F09AF8384600BF013800BFFCD137E154
:1028E0004F2897D14AF69970C0F6000008F0DAF93F
:1028F000384600BF013800BFFCD140F22800C2F2C8
:102900000000002101600320C9F80000C8F80000A1
:1029100040F6A070C2F2000063210170384600BF8B
:10292000013800BFFCD11DE1BCF14D0F7FF47CAF3D
:102930003D2B40F0A180FDF747FD05259DE04E2988
:102940007FF477AF3D2808BFFDF73EFD40F23C1015
:10295000C2F2000090F84C104BF217104EF2DE1548
:10296000C0F60000C0F2E40508F04EF8013D00BFDB
:10297000FCD1EDE043297FF461AF3D281FD1FDF785
:1029800023FD3846013800BFFCD141F2AC35C2F21C
:1029900000054AF6415140F2A002C0F60001C2F221
:1029A0000002284608F040F8284607F04BFF42F6A0
:1029B0002850C0F2311000BF013800BFFCD141F2F5
:1029C000AC30C2F200004FF49661FDF7E6FB41F631
:1029D0007400C2F2000040F69801FDF7DEFB42F6FB
:1029E000AC10C2F2000040F63401FDF7D6FB42F213
:1029F0000C10C2F2000040F69801FDF7CEFB42F643
:102A0000A810C2F200000021016042F6A410C2F238
:102A10000000016040F6A470C2F20000FF21FDF743
:102A2000BCFB40F2D400C2F2000003784AF6D16049
:102A300040F2A00140F2C402C0F60000C2F2000160
:102A4000C2F2000207F0E0FF02207FE0412A7FF49B
:102A5000FAAE3D2E68D101202860FDF7B5FC40F2AA
:102A60003C10C2F2000090F843104AF60150C0F644
:102A7000000007F0C9FF68E001254AF60D7043F633
:102A8000282143F6382243F64823C0F60000C2F25C
:102A90000001C2F20002C2F2000307F0B5FFC9F85C
:102AA000005055E04F297FF4D3AEBCF1530F7FF4B3
:102AB000CFAE4AF6A470C0F6000008F0F3F838462E
:102AC000013800BFFCD140F22800C2F20000002112
:102AD00001600320C9F800000D20C8F8000040F68E
:102AE000A070C2F20000632101703846013800BFB7
:102AF000FCD137E03D2B08BFFDF766FC4AF61F709E
:102B000040F66871C0F60000C2F2000108E05629E4
:102B10007FF4A8AE40F208010FF27450C2F2000137
:102B200007F072FF052011E040F23C10C2F20000F5
:102B300090F8431040F22400C2F2000002684AF606
:102B4000E460C0F6000007F05FFF0420C9F8000051
:102B500040F6A170C2F20000007840F6A071C2F207
:102B600000010870207A532840F0AD80E0794D28AC
:102B700040F0A980A0794C2840F0A580A07A2228B6
:102B800040F0778040F6A07040F6946AC2F20000F0
:102B90002A21C2F2000A017050463221FDF7FDFAE7
:102BA00040F6707541F2AC30C2F200050026C2F268
:102BB00000004FF49661C5E90066FDF7EEFA0B20C0
:102BC00000210022235C2C2B04BF01260130235C52
:102BD000222B0AD0002E19BFAB5401320AF8013063
:102BE0000131642800F10100ECDB4AF66C504EF232
:102BF000DE14C0F60000C0F2E40407F023FE00BFBC
:102C0000013C00BFFCD141F2AC34C2F200044AF6F0
:102C10007E5140F69463C0F60001C2F200032046E4
:102C20002A46009507F000FF204607F00BFE4CF205
:102C3000BC30C0F2C91000BF013800BFFCD14AF659
:102C4000B270C0F6000008F02DF83846013800BF19
:102C5000FCD13846013800BFFCD140F22800C2F256
:102C60000000002101600820C9F80010C8F8000029
:102C700018E04AF62B70C0F6000008F013F838464A
:102C8000013800BFFCD1D8F8000008280AD040F66F
:102C9000A170C2F20000007840F6A071C2F20001FB
:102CA000087000BF013F00BFFCD1D8F80000082821
:102CB00009D040F6A170C2F20000007840F6A07181
:102CC000C2F200010870D9F80000032808D10D20D5
:102CD000C8F8000040F6A070C2F200006321017045
:102CE00002B0BDE8F08753297FF4C1AD40F6A2756C
:102CF00040F6A376C2F20005C2F2000629783278C7
:102D00004AF6AA60C0F6000007F07EFE0520C9F86A
:102D10000000287840F6A071C2F2000108703078F7
:102D200040F6A171C2F200011BE746297FF4A4AD71
:102D3000BCF1460F7FF4A0AD49F29464CDA0C0F27F
:102D4000980407F0AFFF01F051FB01F081FB052073
:102D5000C9F8000040F6A170C2F20000007840F609
:102D6000A071C2F200010870013C00BFFCD14EF618
:102D70000C50CEF20000BFF34F8F0168042201F423
:102D8000E061C0F2FA5211430160BFF34F8F00BF00
:102D9000FEE73D2802D10820FEF7F6FB40F22010A6
:102DA000C2F20000016840F6E060C2F20000026872
:102DB0004AF63960C0F6000007F026FE384600BF2C
:102DC000013800BFFCD1C3E6462B08BF542A30D0DF
:102DD000542B08BF542A3BD0472B08BF4C2A53D052
:102DE000432B08BF4F2A00F07B80502B08BF4F2A8F
:102DF00000F08A80322B08BF572A00F0B8804128A3
:102E000008BF542B00F0ED806420C9F80000204674
:102E1000FDF7CEF940F60D222118225200208870CD
:102E2000204607F00FFD40F6A070C2F200001D2101
:102E3000D5E04429CCD1BCF1570FC9D189A007F006
:102E400031FF3846013800BFFCD107F0C1FD7FE6F5
:102E50004429C1D1BCF1570FBED17EA007F022FF9B
:102E60003846013800BFFCD147F67200C0F27D1031
:102E7000013800BFFCD142F60040C4F2010000213D
:102E8000C82206F03FF963E64629A9D1BCF1530FE9
:102E9000A6D140F6A07A40F6A270C2F2000AC2F2B1
:102EA00000009AF80010037840F6A37040F6A1766F
:102EB000C2F2000041F28C35C2F200060078C2F284
:102EC000000532782D6800905AA0019507F09CFD0E
:102ED0003846013800BFFCD130788AF8000041E65E
:102EE00053297FF482AFBCF1430F7FF47EAF41F2F0
:102EF0008C30C2F20000016849A007F085FD384619
:102F0000013800BFFCD123E645297FF473AFBCF143
:102F1000520F7FF46FAF49F294653DA0C0F298055F
:102F200007F0C0FE013D00BFFCD140F2D000C2F26C
:102F30000000642101604AF66C50C0F6000007F002
:102F400081FC46F65610C0F27840013800BFFCD133
:102F500040F64860C2F20000002101700D20C8F860
:102F6000000040F6A070C2F20000622132E0462963
:102F70007FF445AFBCF14D0F7FF441AF49F294654A
:102F800020A0C0F2980507F08DFE013D00BFFCD1E6
:102F900040F23C10C2F2000040F20111A0F8FE1015
:102FA00040F23C21C2F200010122C1E9FE2264226A
:102FB00080F8F020C1F8C02301F018FA01F086FB78
:102FC00001F0E8F90D20C8F8000040F6A070C2F248
:102FD00000006321017040F6A170C2F20000017090
:102FE000C0E54F2A7FF410AF46297FF40DAF40F6BD
:102FF0005470C2F2000000210160012002F0CAFCFE
:10300000B0E500BF41542B4D465732204F4B0D00C9
:1030100041542B52454F5053204F4B0D00000000A0
:1030200041542B43534F434B3D25640D0A4F4B0DE9
:103030000A00000041542B53464C41473D25642C67
:1030400025642C25642C25642C25640D0A4F4B0D1A
:103050000A00000041542B574454540D0A4F4B0DA5
:103060000000000041542B574454460D0A4F4B0DAD
:1030700000000000464143544F52592052455345E9
:103080005420495320574F524B494E470D000000E2
:1030900041542B4D5645523D25730D0A000000004A
:1030A000B0B54AF6B85041F2000444F64A35C0F6CD
:1030B0000000C4F20104C0F24C0507F0C3FB204637
:1030C0004FF4004101F0E2FC284600BF013800BF88
:1030D000FCD120464FF4004101F0DAFC013D00BF75
:1030E000FCD149F294640FA0C0F2980407F0AAFB47
:1030F000204600BF013800BFFCD114A007F0A2FB9E
:10310000204600BF013800BFFCD116A007F09AFB93
:10311000013C00BFFCD140F64860C2F20000012132
:103120000170B0BD41542B4754535953434D443D56
:10313000226E76207365742057414E50696E674643
:10314000696C7465723D31220D0A000041542B47B1
:1031500054535953434D443D226E76207361766536
:10316000220D0A0041542B47544C414E454E4142DA
:103170004C453D310D0A00002DE9F04F81B040F281
:103180002801C2F200014FF0FF30086040F2040055
:10319000C2F20000D0F8009042F6AC1C40F2DC0E07
:1031A0000021C2F2000CC2F2000E00264FF0000A0D
:1031B00005E00819C11C00BF0131494536DA1CF889
:1031C00001003A28F8D101EB0C0515F8010C502844
:1031D000F2D115F8020C4928EED115F8030C4C2851
:1031E000EAD1002403E000BF01340E2CE1D02B19FA
:1031F00032460E195879F71C2C283E4609D03E4617
:103200003AB9BAF1000F3E4603D1DA7800260EF83B
:1032100004202C28E8D11879222808BFBAF1000F21
:10322000E2D1D878BA460EF80400DDE742F6A810DD
:10323000C2F200000021016042F6AC10C2F20000B0
:1032400040F63401FCF7A9FF49F29460C0F29800FF
:10325000013800BFFCD140F2DC08C2F2000843F69E
:103260002821C2F2000140460F22FCF7B6FF40F2CF
:10327000F80740F6547BC2F20007C2F2000B0121AE
:103280003860CBF8001070B140F2DC0043F6382112
:10329000C2F20000C2F200010F22FCF79EFF38606C
:1032A0000220CBF80000386870B140F2DC0043F631
:1032B0004821C2F20000C2F200010F22FCF78DFF8C
:1032C00038600320CBF80000386844F64A3540F6F1
:1032D000A07A40F6A179C0F24C050028C2F2000A9B
:1032E000C2F200094FF0000012D040F22801CBF8E2
:1032F00000004FF0FF30C2F20001086003208AF89E
:1033000000002846013800BFFCD199F8000009E010
:1033100040F22801C2F2000108602846013800BFCF
:10332000FCD123208AF8000040F67876C2F200062D
:1033300000203A68307040F23C10C2F200003AB906
:1033400090F84C10FF2901D0012901D101213170E1
:1033500090F84C0041F27C340130C0B201289CBF8F
:1033600001203070D8F80B3098E88300C2F20004D6
:10337000C4F80B303378C4E900012BA04146A760A4
:1033800007F042FB40F2EC00C2F2000001684A1C68
:10339000032902602BDB3078012828D199F800003E
:1033A000073825283AD8DFE800F013393939393998
:1033B00039133939393939393939391339391339EF
:1033C00039393939391339393939393939393913B9
:1033D00040F69470C2F2000001780131CAB2C82AE6
:1033E00028BF6FF03701017001B0BDE8F08F0020F9
:1033F00040F22801CBF800004FF0FF30C2F200018C
:10340000086003208AF80000013D00BFFCD199F854
:1034100000008AF8000001B0BDE8F08F02F03EFF26
:1034200001B0BDE8F08F00BF657874726163746E9F
:10343000756D2043616C6C65726E756D202573200F
:1034400025642025640D0A002DE9F04F87B041F274
:103450000000C4F201004FF4005101F017FB40F6E8
:10346000A474C2F200042046FF21FCF796FE40F24D
:103470000400C2F20000D0F800E042F6AC160020D2
:10348000C2F200060021002203E000BF01307045B7
:1034900019DA335C432B10D183195F784D2F08D193
:1034A0009F78542F05D1DB78871D3A2B04BF38460F
:1034B0003A4642F6AC16C2F20006002AE6D0335C69
:1034C00073540131E2E740F64162C2F2000200208B
:1034D00040F6A0711070C2F2000108782E2802D0C8
:1034E00008782F2875D141F2A4020023C2F200020D
:1034F000F05C412826D198194178542922D181784D
:103500002B291FD1C1784D291CD10079462819D10A
:103510000020194605E000BF0131632800F10100D9
:1035200017DA775C0A2F1754F6D10E4416F8016C9F
:103530000D2E42F6AC16C2F2000604BF17546430DA
:10354000EAE700BF1846002333B9431C7345CFDBBD
:1035500002E0481D002BF8D04CF2BC3504F14900C4
:10356000B621C0F2C915FCF718FE4BF21421C0F6C3
:10357000000120464922FCF7F7FD02F08BFF00BF57
:10358000013D00BFFCD14EF2DE10C0F2E40000BFEE
:10359000013800BFFCD140F6A47041F2A40144F60A
:1035A0004A34C2F20000C2F20001FF22C0F24C0411
:1035B000FCF7DAFD013C00BFFCD140F65470C2F2CA
:1035C000000001210160012002F0E4F907B0BDE82C
:1035D000F08F41F2A83392F800B0C2F20003002449
:1035E000AEF10207002000254FF0000A1C70069083
:1035F000CDE9047E705D2B283CD17019984600F10E
:10360000020C6B1C002700210AE000BF2C2E08BF13
:10361000BAF1000F22D001310E2902F101032DD0A1
:103620001CF801606C1838461A462C2EA146274615
:10363000ECD00028A1462746E8D1BAF1000FA146F8
:103640002746E3D10CEB010010F8020C41F26C3379
:10365000C2F200030027A9465854D7E70CEB01003B
:1036600010F8020C41F26C33C2F20003A246585427
:10367000D1E700BF4FF000091CE000BF6818851DAE
:10368000AE45C8BF754642F6AC16049FC2F20006AE
:1036900043460024B01880790A2805D0901D0132D5
:1036A0007045F7DB02E000BFD51DA94640F6416238
:1036B000C2F2000240F66070C2F20000B9F1000FE1
:1036C0000460446000F0CC8040F6A47C4FF0000E13
:1036D000C2F2000C0AE000BF8CF800804FF0000E30
:1036E0000135BD420CF1010C80F2BA8016F805805C
:1036F000A8F10A004A2800F26180DFE810F0B1006A
:103700005F005F0077005F005F005F005F005F00A9
:103710005F005F005F005F005F005F005F005F00B1
:103720005F005F005F005F005F005F00A800560061
:103730005F005F005F005F005F005F005F005F0091
:103740005F005F005F005F005F005F005F005F0081
:103750005F005F005F005F005F005F005F005F0071
:103760005F005F005F005F005F005F004B005F0075
:103770005F005F005F004B005F005F005F005F0065
:103780005F005F004B005F004B005F005F005F0069
:103790005F004B000BF1010BB8F1210F82F800B074
:1037A00000F05580B8F1220F08D10698B8F1210F2A
:1037B00000F101000690187000F04980BEF1000F82
:1037C0003FF48AAFAEF10200072809D840F66071D5
:1037D000C2F2000101F800800EF1010E80E700BF87
:1037E000BEF1010F08BF4FF0020E79E77119497859
:1037F0000A2900F035804A28E0D8DFE800F0312FB0
:103800002F2F2F2F2F2F2F2F2F2F2F2F2F2F2F2FC8
:103810002F2F2F2F2F28272F2F2F2F2F2F2F2F2FC7
:103820002F2F2F2F2F2F2F2F2F2F2F2F2F2F2F2FA8
:103830002F2F2F2F2F262F2F2F2F262F2F2F2F2FAA
:103840002F262F262F2F2F2F2600A3E7ADE7069830
:1038500010F0FD0F08BF0EF1010EAFE7AEE700BF9D
:10386000DDF814E0B9F1000F03D101357545FFF61D
:10387000C1AE40F27C00C2F200000A2141F26C337A
:1038800001600020C2F20003107093E8070041F2CB
:103890007C37D3F80B30C2F2000749F2946687E810
:1038A00007000FF66420C0F29806C7F80B3006F048
:1038B000C9FF3046013800BFFCD142F6A81942F6D4
:1038C000AC1044F24224C2F200090025C2F200000A
:1038D0004FF4FA71C0F20F04C9F80050FCF75DFC18
:1038E00040F28008C2F200084FF0FF30C8F8000034
:1038F00040F6547741F26C3043F62821C2F20007BB
:10390000C2F20000C2F200013D60FCF758FC40F238
:10391000F805C2F200052860B0FA80F0400940F6D0
:10392000A07B38602046C2F2000B00BF013800BF08
:10393000FCD1386878B941F26C3043F63821C2F2D4
:103940000000C2F20001FCF73AFCB0FA80F149092C
:103950002860480038602046013800BFFCD1386834
:1039600080B941F26C3043F64821C2F20000C2F245
:103970000001FCF724FC00212860002808BF032177
:10398000396000BF013C00BFFCD13A6840F6787056
:1039900040F23C1AC2F200000021C2F2000A01709B
:1039A0002AB19AF84C10012907D0FF2905D09AF8BE
:1039B0004C100131C9B2012901D8012101700078F0
:1039C000002843D040F6607040F66871C2F20000F3
:1039D000C2F200010822FCF700FC054641F65C003B
:1039E000C2F2000040F6A474056041F2A410C2F2D5
:1039F0000004C2F200002146C822FCF7B5FB7DB3EB
:103A00004EF2DE152046C0F2E405FCF7D1FB44F28D
:103A10000A52C5F252222118225045F24F20C4F218
:103A20002030486044F24F40C2F2451088600020C8
:103A3000087302F02FFD00BF013D00BFFCD140F62E
:103A4000A170C2F20000007800F066BB40F6A170E1
:103A5000C2F2000000788BF8000007B0BDE8F08FDC
:103A600005F07AF86428C8F8000000F24C83DFE81B
:103A700010F06A007F00A500C900ED0002014A03B2
:103A80004A030E0165006500620182019D01C701C4
:103A9000E501030229024F0270028502DE024A0399
:103AA0002C03580377039A034A034A034A034A0341
:103AB0004A034A034A034A034A034A034A034A039E
:103AC0004A034A034A034A034A034A034A034A038E
:103AD0004A034A034A034A034A034A034A034A037E
:103AE0004A034A034A034A034A034A034A034A036E
:103AF0004A034A034A034A034A034A034A034A035E
:103B00004A034A034A034A034A034A034A034A034D
:103B10004A034A034A034A034A034A034A034A033D
:103B20004A034A034A034A034A034A034A034A032D
:103B30004A034A034A034A034A03CB0302F002FD45
:103B4000FCF742FCD8E240F6A47040F6E8614EF281
:103B5000DE14C2F20000C2F20001FF22C0F2E4044F
:103B6000FCF702FB02F096FC013C00BFFCD1C3E273
:103B700040F6A474C2F200044EF2DE152046FF2186
:103B8000C0F2E405FCF709FB43F648274BF290111D
:103B900043F6282243F63823C2F20007C0F600019C
:103BA000C2F20002C2F200032046009706F03CFF7A
:103BB00002F070FC013D00BFFCD19DE240F6A47410
:103BC000C2F200044EF2DE152046FF21C0F2E405E9
:103BD000FCF7E3FA9AF841704BF2E00140F2A002E0
:103BE00040F2C403C0F60001C2F20002C2F20003B8
:103BF0002046009706F018FF02F04CFC013D00BF84
:103C0000FCD179E24EF2DE1504F10A00F521C0F292
:103C1000E405FCF7C2FA4720208145F24F4044F208
:103C20005251C4F64960C4F64271C4E9001002F072
:103C300031FC013D00BFFCD10D20C8F8000063201D
:103C40008BF80000013E00BFFCD15CE240F6A4709E
:103C500040F6E8614EF2DE14C2F20000C2F200014A
:103C6000FF22C0F2E404FCF77FFA02F013FC013CEF
:103C700000BFFCD140E244F64A34C0F24C0402F0EA
:103C800061FCFCF7A1FB013C00BFFCD134E244F62F
:103C90004A34C0F24C0402F055FCFCF795FB013CA1
:103CA00000BFFCD141F2AC34C2F200044AF64151EB
:103CB00040F2A0024EF2DE15C0F60001C2F2000290
:103CC0002046C0F2E40506F0AFFE204606F0BAFD3D
:103CD000013D00BFFCD141F2AC30C2F200004FF414
:103CE0009661FCF75AFA41F67400C2F2000040F601
:103CF0009801FCF752FA42F6AC10C2F2000040F60E
:103D00003401FCF74AFA42F20C10C2F2000040F60D
:103D10009801FCF742FA40F6A172C2F2000242F6A4
:103D2000A41112780020C2F20001C9F80000086056
:103D30008BF80020E7E140F6A474C2F200044EF2D2
:103D4000DE152046FF21C0F2E405FCF726FA40F21A
:103D50002400C2F200009AF8432003684BF2F101FC
:103D6000C0F60001204606F05FFE02F093FB013D25
:103D700000BFFCD1C0E140F6A474C2F200044EF2D0
:103D8000DE152046FF21C0F2E405FCF706FA40F2FA
:103D900008020FF2F451C2F20002204606F044FE7F
:103DA00002F078FB013D00BFFCD1A5E104F1100059
:103DB000EF21FCF7F2F944F6207045F2453144F268
:103DC0004F6245F24143C0F24B00C5F24541C5F296
:103DD0005422C5F22B33C4E90032C4E9021002F0C8
:103DE00059FB013E00BFFCD144F64A30C0F24C0002
:103DF000013800BFFCD10D20C8F80000632080E12D
:103E000041F26C2440F6A475C2F20004C2F200052F
:103E100044F64A3620462946FF22C0F24C06FCF7FB
:103E2000A3F902F08FFB28462146FF22FCF79CF9FC
:103E3000FCF7CAFA013E00BFFCD15DE141F26C24FF
:103E400040F6A475C2F20004C2F2000544F64A36F8
:103E500020462946FF22C0F24C06FCF785F902F005
:103E600071FB28462146FF22FCF77EF9FCF7ACFAED
:103E7000013E00BFFCD13FE140F6A474C2F2000451
:103E80002046FF21FCF789F940F22410C2F200001D
:103E9000026840F6E460C2F2000003684AF64D6131
:103EA000C0F60001204606F0BFFD02F0F3FA013E25
:103EB00000BFFCD144F64A30C0F24C00013800BFCC
:103EC000FCD119E140F6A474C2F200042046FF219F
:103ED000FCF763F940F22010C2F20000026840F6DD
:103EE000E060C2F2000003684AF63961C0F60001E2
:103EF000204606F099FD02F0CDFA013E00BFFCD14C
:103F000044F64A30C0F24C00013800BFFCD1F3E067
:103F100040F6A474C2F200044EF2DE152046FF21E2
:103F2000C0F2E405FCF739F940F65070C2F2000027
:103F3000026840F64460C2F2000003680FF23841A4
:103F4000204606F071FD02F0A5FA013D00BFFCD14C
:103F5000D2E040F6A4704EF2DE14C2F20000C0F2CD
:103F6000E40406F06FFC4AF62870C0F6000006F084
:103F700069FC013C00BFFCD12920C2E041F2A40051
:103F80004CF2BC35C2F200002146FF22C0F2C91536
:103F9000FCF7EAF804F13800C721FCF7FEF84BF211
:103FA0006020C0F60000016800F1100E0591816AE2
:103FB000071D0691C16A9EE840500491016B00F113
:103FC0001C0B039105998CCF9BE8000E84E88E00B2
:103FD00004F1100181E8405004F11C0181E8000E59
:103FE0000699406BA1620499E1620399C4E90C103F
:103FF00002F050FA013D00BFFCD142F62850C0F259
:104000003110013800BFFCD140F6A47041F2A40188
:10401000C2F20000C2F20001FF22FCF7A5F8032063
:1040200001F0B8FC40F6A07BC2F2000B6BE004F19B
:104030003400CB21FCF7B1F84BF21C30C0F6000085
:104040000168071D0591816A8CCF0691C16AD0E98C
:10405000046504910599D0E906CE84E88E0006999E
:10406000D0E9089B006BA1620499C4E90465C4E926
:1040700006CEC4E9089BC4E90B1002F00BFA47F620
:104080007200C0F27D10013800BFFCD140F2011077
:10409000AAF8FE0040F23C20C2F200000121C0E973
:1040A000FE1164218AF8F010C0F8C01300F09EF9E8
:1040B00000F00CFB00F06EF90D2040F6A07BC8F874
:1040C00000006320C2F2000B15E140F6A474C2F2B6
:1040D00000044EF2DE152046FF21C0F2E405FCF795
:1040E0005CF89AF84C20A1A1204606F09DFC02F055
:1040F000D1F9013D00BFFCD140F6A170C2F2000031
:1041000000788BF80000D8F8000003287FF4A5ACF5
:104110000D20C8F8000063208BF8000007B0BDE850
:10412000F08F41F2A40440F6A475C2F20004C2F27A
:10413000000520462946FF22FCF716F82846FF21F5
:10414000FCF72BF84AF6BB71C0F600012846224660
:1041500006F06AFC3868002864D002F037F963E0A2
:1041600041F2A40440F6A475C2F20004C2F20005B4
:1041700020462946FF22FBF7F7FF2846FF21FCF7E0
:104180000CF86CA12846224606F04EFC4BF29D101E
:10419000C0F60000294606F037FC386800286FD0CA
:1041A00002F014F96EE040F6A474C2F200044EF27C
:1041B000DE152046FF21C0F2E405FBF7EEFF40F6D6
:1041C000A27040F6A37140F6A176C2F20000C2F2DE
:1041D000000141F28C379BF80020C2F20006007803
:1041E0000978C2F2000733783F68CDE900014AA19F
:1041F0002046029706F018FC02F04CF9013D00BF82
:10420000FCD130788BF8000040F6A470C2F20000B8
:1042100006F018FB4AF62870C0F6000006F012FB04
:104220001A206EE702F036F94EF2DE10C0F2E4001A
:10423000013800BFFCD140F6A474C2F2000441F280
:10424000A401C2F200012046FF22FBF78DFFFCF71C
:10425000BBF82046FF21FBF7A0FF42F6AC10C2F2EC
:10426000000040F63401FBF798FF40F6A171C2F25E
:10427000000109780020C9F800008BF8001042E71F
:1042800002F008F94EF2DE10C0F2E400013800BF7F
:10429000FCD140F6A474C2F2000441F2A401C2F2BF
:1042A00000012046FF22FBF75FFF2046FF21FBF7BE
:1042B00074FF42F6AC10C2F2000040F63401FBF786
:1042C0006CFF0020C9F8000040F2D000C2F20000EC
:1042D000642101604AF66C50C0F6000006F0B2FAA4
:1042E00046F65610C0F27840013800BFFCD10D20D0
:1042F000C8F80000622040F6A171C2F200018BF8FC
:1043000000000870FFE600BF41542B434D47443D79
:10431000312C340D0A00000041542B53464C4147C8
:104320003D25642C2025642C2025642C2025642C1C
:104330002025640025732E200D0A574F524B494EFD
:10434000472E205265736574204D6F64656D204E55
:104350006F772E20506C65617365205761697420FA
:10436000696E2033206D696E7321000041542B4526
:104370004E574C3D2564000041542B4D474E45544B
:104380003D25642C2564000041542B4D5645523D7B
:104390002573000080B540F22001C2F200010A68D6
:1043A00040F2000E40F67C7CC0F6020EC2F2000C19
:1043B000002ACCF800E008BF80BD40F23C11C2F2F8
:1043C00000014B1E40F23C21C2F20001043900BF43
:1043D0005EF8040BFF2841F8040F28BFFF20013AC4
:1043E00003F8010FF4D1CCF800E080BD70B500F007
:1043F000FDF940F2053000F057F84FF4417000F03D
:1044000053F840F2023000F04FF840F21805C2F2C3
:1044100000052868C8B100240026C0F6020400BFC9
:10442000204600F067F840F2053000F03DF84FF408
:10443000417000F039F840F2023000F035F8286899
:104440000136864204F58064EAD300F03DF870BD81
:1044500080B540F22000C2F200000068002240F661
:104460007C71C0F60202C2F2000100280A6008BF97
:1044700080BD043252F8043C013305D10A60013892
:1044800002F10402F6D180BD40F2BC00C2F200008D
:104490000121016041F20000C4F201004FF48041AB
:1044A00000F0F6FA80BD000042F2000300F01F01A8
:1044B0008009C4F202034FF0010CC2580CFA01F15A
:1044C0001143C1507047000042F21000C4F20200D4
:1044D000016841F0800101604FF2E071C1F6FF71A7
:1044E0000988B1F5007F98BF7047016C41F08001E9
:1044F0000164704780B54FF2E071C1F6FF71098821
:104500008446B1F5007F70D94FF6FF700121C0F6E7
:104510000700CFF2010142F20C02C4F202024FF096
:10452000020E0B4684451BD21068C0070AD11068E2
:10453000C0065ABF10680EEA50000320012804D0BC
:1045400007E000BF0120012803D1002B03F1010384
:10455000EAD1012808BF0420002800F0958080BD22
:10456000106CC0070AD1106CC0065ABF106C0EEA5E
:1045700050000320012804D007E000BF01200128DB
:1045800003D1002B03F10103EAD1012808BF042065
:104590000028E4D1506C022340F002005064C2F8BD
:1045A00048C01069800748BFC2F808C0506C40F08E
:1045B00040005064106CC0070AD1106CC0065ABF8E
:1045C000106C03EA50000320012804D007E000BF6C
:1045D0000120012803D1002901F10101EAD10128BC
:1045E00008BF042002F1440149E00121CFF201019A
:1045F00042F20C02C4F202024FF0020E0B4600BF60
:104600001068C0070AD11068C0065ABF10680EEAC9
:1046100050000320012804D007E000BF012001283A
:1046200003D1002B03F10103EAD1012808BF0420C4
:10463000002818BF80BD5068022340F0020050607F
:10464000C2F808C0506840F0400050601068C007D1
:104650000AD11068C0065ABF106803EA5000032050
:10466000012804D007E000BF0120012803D1002960
:1046700001F10101EAD1111D012808BF04200A68D7
:1046800022F002020A6080BD5068022340F002005E
:104690005060C2F808C0506840F04000506000BF51
:1046A0001068C0070AD11068C0065ABF106803EA34
:1046B00050000320012804D0DDE700BF01200128BD
:1046C000D9D1002901F10101EAD1D4E72DE9F04166
:1046D00000F08CF840F23C2840F23C11C2F2000895
:1046E000C2F20001A8F104000139642211F8013F6F
:1046F000013A40F8043FF9D10020C0F6020040F230
:10470000CC0540F28406C2F20005C2F20006212167
:10471000002700F580642860316000BF58F827103A
:10472000316000F08BF8286801370430B7F5807FDE
:1047300088BFFF27286040F20530FFF7B5FE4FF431
:104740004170FFF7B1FE40F20230FFF7ADFE28687E
:10475000A042E3D3FFF7B8FEBDE8F0812DE9F041B8
:1047600000F044F840F23C2840F23C11C2F200084C
:10477000C2F20001A8F104000139632211F8013FDF
:10478000013A40F8043FF9D10020C0F6020040F29F
:10479000CC0540F28406C2F20005C2F200062121D7
:1047A000002700F580642860316000BF58F82710AA
:1047B000316000F043F8286801370430B7F5807F96
:1047C00088BFFF27286040F20530FFF76DFE4FF4E9
:1047D0004170FFF769FE40F20230FFF765FE28687E
:1047E000A042E3D3FFF770FEBDE8F08142F204007F
:1047F000C4F20200C168090609D540F22311C4F2CF
:104800006751016048F6AB11CCF6EF5101604FF2F1
:10481000E071C1F6FF710988B1F5007F0DD9C16C57
:10482000090658BF704740F22311C4F26751016472
:1048300048F6AB11CCF6EF510164704710B54FF25A
:10484000E072C1F6FF7212888446B2F5007F68D923
:1048500001224FF6FF70CFF20102C0F6070042F2CC
:104860000C038445C4F202034FF0020E14461BD21F
:104870001868C0070AD11868C0065ABF18680EEA3F
:1048800050000320012804D007E000BF01200128C8
:1048900003D1002C04F10104EAD1012808BF04204F
:1048A000002800F0898010BD186CC0070AD1186C70
:1048B000C0065ABF186C0EEA50000320012804D02D
:1048C00007E000BF0120012803D1002C04F10104FE
:1048D000EAD1012808BF04200028E4D1586C40F038
:1048E00001005864CCF80010022100BF186CC0070A
:1048F0000AD1186CC0065ABF186C01EA5000032098
:10490000012804D007E000BF0120012803D1002ABC
:1049100002F10102EAD1012808BF042003F1440199
:1049200045E00123CFF2010342F20C02C4F202027D
:104930004FF0020E1C4600BF1068C0070AD1106875
:10494000C0065ABF10680EEA50000320012804D0A8
:1049500007E000BF0120012803D1002C04F101046D
:10496000EAD1012808BF0420002818BF10BD5068F4
:1049700040F001005060CCF8001002211068C00720
:104980000AD11068C0065ABF106801EA500003201F
:10499000012804D007E000BF0120012803D1002B2B
:1049A00003F10103EAD1111D012808BF04200A68A0
:1049B00022F001020A6010BD586840F00100586002
:1049C000CCF80010022100BF1868C0070AD118688F
:1049D000C0065ABF186801EA50000320012804D01D
:1049E00007E000BF0120012803D1002A02F10102E3
:1049F000EAD1012808BF0420191DD8E7F0B581B01D
:104A000040F2B000C2F2000001210160FFF7EEFEAB
:104A100040F20530FFF748FD4FF44170FFF744FDC9
:104A200040F20230FFF740FD40F21804C2F20004E9
:104A30002068D8B140F294060025C2F20006002793
:104A400030682844FFF756FD40F20530FFF72CFD93
:104A50004FF44170FFF728FD40F20230FFF724FDCC
:104A600020680137874205F58065E9D3FFF72CFD03
:104A700001B0F0BD10B50446C1B243F60000C4F267
:104A8000010005F031FF204610BD00004161704774
:104A9000016170472DE9F047CF0601F00F0C09D5F1
:104AA000042A05D1C26B4CF0030C1A43C26301E027
:104AB0004CEA020C00F1100E00F1140A00244FF031
:104AC00001094FF00F0800270EE000BF166008FA3A
:104AD00004F225EA02020CFA04F52A4302600137C7
:104AE000082F04F104040CD009FA07F212EA0306B5
:104AF000F5D0056828295246E8D04829E7D1724602
:104B0000E4E7082400254FF001094FF00F080FE0FB
:104B1000176008FA05F226EA02020CFA05F632439B
:104B200042600134102C05F1040508BFBDE8F08790
:104B300009FA04F212EA0307F3D04668282952461C
:104B4000E6D04829E5D17246E2E7000080680840D7
:104B500018BF0120704700002DE9F04F81B040F6EA
:104B60009470C2F200000024047040F2EC00C2F223
:104B7000000040F6D0610460C2F20001022008701B
:104B800040F21C10C2F20000046040F6DC60C2F289
:104B90000000046040F65460C2F200004FF0FF31A4
:104BA000016040F69C70C2F20000046040F2D00048
:104BB000C2F2000041F20008046040F20460C4F256
:104BC000010801F03BFB40464FF46041FFF75EFFF8
:104BD0004046102103224FF46043FFF75BFF40F68D
:104BE000586740F2BC0940F6A07A40F28005C2F254
:104BF0000007C2F20009C2F2000AC2F2000500BFBB
:104C000040464FF46041FFF743FF40F2026001F07D
:104C100015FB40F2036001F011FB40F69470C2F204
:104C20000000047040F2FC00C2F20000046040F694
:104C30004860C2F20000047040F2C000C2F20000FE
:104C4000046040F65870C2F20000047040F65970DB
:104C5000C2F20000047040F65070C2F2000004601E
:104C600040F20410C2F20000046040F20810C2F2E8
:104C70000000046040F69870C2F200003C70C9F871
:104C80000040046040F6A170C2F200008AF80040C3
:104C9000047040F22000C2F2000042F6A811006841
:104CA000C2F2000140F23C162C600C6040F67C7BA6
:104CB00000244FF0FF0CC2F20006C2F2000BC0F657
:104CC0000204CBF80040A0B140F23C22C2F2000244
:104CD000711E043A234600BF53F8047BFF2F42F8AD
:104CE000047F28BF6746013801F8017FF4D1CBF873
:104CF000003040F23C20C2F20000D0F8F803012856
:104D000049D0FFF773FB40F22000C2F200000068B8
:104D10000024C0F60204CBF80040C8B10421C0F65C
:104D2000020100BF51F8042C013206D1CBF800106B
:104D3000013801F10401F5D10AE00120C9F80000B1
:104D400040464FF48041FFF7A3FE0024C0F6020462
:104D500040F22000C2F20000006840F23C16C2F2AD
:104D600000064FF0FF05CBF80040A0B140F23C2216
:104D7000C2F20002711E043A234600BF53F8047BBE
:104D8000FF2F42F8047F28BF2F46013801F8017F2A
:104D9000F4D1CBF8003096F8F00064281AD1042042
:104DA000CFF6FF70205840F2B401C2F20001086053
:104DB00040F2B801C2F2000108600020CFF6FF7097
:104DC000205880F308880868804740F6A175C2F231
:104DD00000052BE13078FF2822D07178FF291FD001
:104DE000B278FF2A1CD0D8B1D1B1CAB140F6A174B3
:104DF00040F2A0054FF0FF30C2F200040027C2F2DB
:104E0000000500BF311849782B18A1F130024B2A58
:104E100000F1010028BF39460E285970F2D118E080
:104E200040F2A00043F24D21C2F20000C5F24D0154
:104E3000016044F64C61C4F64151416052210027A3
:104E400040F6A1740172C0F80970A0F80D70C2F2AA
:104E50000004F07B0130C0B202280BD240F2C40043
:104E600043F23101C2F20000C3F230010160077168
:104E700009E000BFF07CD6F80F1040F2C402C2F285
:104E8000000210711160307D25460130C0B2022849
:104E900010D3707EFF280DD060B1D6E90501D6F899
:104EA0001F2043F62827C2F20007F369C7F80B203A
:104EB0000BC715E043F62820C2F2000043F2380188
:104EC000818143F22B61C3F63201016043F2352147
:104ED000C3F23831416043F23531C3F6301181609D
:104EE00096F823000130C0B2022815D396F82800A6
:104EF000FF2811D080B1D6F82300D6F82E2043F633
:104F00003827C2F20007D6F82710D6F82B30C7F89A
:104F10000B200BC716E000BF43F63821C2F2000198
:104F200043F63910888143F22B60C3F632000860E3
:104F300043F23230C3F23100486043F63210C3F21C
:104F40003310886096F832000130C0B2022815D3C1
:104F500096F83700FF2811D080B1D6F83200D6F885
:104F60003D2043F64827C2F20007D6F83610D6F89F
:104F70003A30C7F80B200BC715E000BF43F64821B5
:104F8000C2F200013220888143F22B60C3F6320066
:104F9000086043F23110C3F23230486043F23430DB
:104FA000C3F23170886096F84310042909D84FF491
:104FB0001650DFE801F015030D1013004FF4964072
:104FC0000EE040F22400C2F200000068FF2907E072
:104FD0004FF4164004E04FF4614001E04FF4E1303B
:104FE00040F2D801C2F20001086044F64A30C0F233
:104FF0004C0000BF013800BFFCD196F844000130DE
:10500000C0B202280AD240F6687044F24541C2F2AA
:105010000000C4F64D11C0E9001107E0D6E9110106
:1050200040F66872C2F20002C2E9000140F2D80004
:10503000C2F20000006849F2946641F65C0BC0F2CF
:105040009806C2F2000B05F00FFC47F2EF00C0F229
:10505000720000BF013800BFFCD1A8F58069484646
:10506000042103220123FFF715FD484610210322E6
:105070000223FFF70FFD48460221FFF709FD4FF21B
:10508000E400C0F2FA200024013800BFFCD14846F9
:105090000221FFF7FBFC04F059F847F67200C0F25A
:1050A0007D1000BF013800BFFCD108F5E0500021A1
:1050B000C82204F027F803F0BFFE40464FF4005129
:1050C0008AF80040FFF7E2FC40F2BC00C2F20000A8
:1050D000046040464FF48041FFF7D8FC40464FF44F
:1050E0000041FFF7D3FC40F23C12C2F2000292F8FA
:1050F0004100411CC9B2012912D840F28C00C2F211
:105100000000006840F2D401C2F20001087040F2D1
:105110002411C2F20001086082F841000AE000BFD9
:1051200040F2D401C2F20001087040F22411C2F230
:105130000001086092F84200411CC9B201290DD853
:1051400040F28800C2F20000006840F22011C2F272
:105150000001086082F8420005E000BF40F2201123
:10516000C2F200010860FDF7C9F940F208010FF230
:10517000B870C2F2000105F047FC4CF29030C0F666
:10518000EB3000BF013800BFFCD140F20C10C2F27E
:105190000000047040F6E860C2F200006421FAF7F3
:1051A000FCFF40F2BC00C2F2000001210160404659
:1051B0004FF40051FFF76CFC40F21C00C2F20000FB
:1051C000006844F6D351C1F26201A0FB010140F234
:1051D0009800C2F2000002684FF0FF3000EB91101F
:1051E00041F66801B0F1807FC2F200010A6080F0F0
:1051F0007F834EF21001CEF2000148604EF60C5053
:10520000CEF20000F022C27507228C600A60C475DD
:10521000CBF8004048460121FFF798FC40F6587152
:10522000C2F20001002818BF012008709AF800108F
:105230009AF80000002937D001382D2800F2AE82FC
:10524000DFE810F02E006200650068006B00AC0221
:105250007E008100AC02AC02AC02AC02AC028C005D
:10526000AC028F00AC029800BC00E600E900EC0044
:10527000050108011F012201340137013A016301D0
:105280007D018001AC02B101B401BA01C501000287
:10529000AC02AC025A027702AC02910294029E0266
:1052A00001F0AEF97AE200BF40F2FC02C2F2000265
:1052B00011682870481C362910601CDB0FF2CC6086
:1052C00005F0C0FA304600BF013800BFFCD140F203
:1052D000FC00C2F20000046040F2BC00C2F2000018
:1052E000046040464FF48041FFF7D0FB40464FF446
:1052F0000041FFF7CBFB44F64A30C0F24C0000BF40
:10530000013800BFFCD185E701F0B2FB46E202F0B4
:1053100085FB43E202F014FF40E240F2BC010020B2
:10532000C2F20001086040464FF48041FFF7AEFB37
:1053300040464FF40041FFF7A9FBFDF71DFF2DE2AA
:1053400003F098FB2AE244F64A30C0F24C0000BF5A
:10535000013800BFFCD1FDF7E9F91FE201F01CFAAA
:105360001CE242F62850C0F2311000BF013800BFE5
:10537000FCD110E2DBF800004FF400410428C7BF65
:1053800001208AF800000130CBF800004046FFF70A
:105390007DFB44F64A30C0F24C0000BF013800BF2C
:1053A000FCD140464FF40041FFF772FB44F64A300F
:1053B000C0F24C00013800BFFCD1EFE140464FF491
:1053C0000041FFF763FB44F64A30C0F24C0000BFD7
:1053D000013800BFFCD140464FF40041FFF758FBB5
:1053E00044F64A30C0F24C00013800BFFCD140F214
:1053F000BC010120C2F20001086040464FF4804128
:10540000FFF746FB304600BF013800BFFCD1C5E1C5
:1054100001F0ECFCC2E101F019FFBFE19AF80000D5
:10542000162805D14AF62E60C0F6000005F00AFAEB
:105430004EF2DE10C0F2E400013800BFFCD1287843
:1054400002288CBF192017208AF80000A6E101F07D
:1054500089FFA3E140F2141740F2BC02C2F2000738
:10546000C2F200023868116801300029386000F08B
:10547000AC810020106040464FF48041FFF706FBEE
:10548000AAE102F00FF989E147F67200C0F27D103F
:10549000013800BFFCD100F0FDFF4EF2DE10C0F27B
:1054A000E40000BF013800BFFCD18CE002F070F9CD
:1054B00074E102F0EDF971E14EF2DE10C0F2E400A9
:1054C000013800BFFCD140F6A47B4AF62670C2F238
:1054D000000BC0F60000594605F096FA5846FF2129
:1054E000FAF75BFE44F64A30C0F24C00013800BFC8
:1054F000FCD1287840F6A17549F29466C2F2000505
:10550000C0F298068AF80000F1E047F67200C0F297
:105510007D1000BF013800BFFCD142F6AC10C2F2D2
:10552000000005F08FF944F64A30C0F24C0000BF8D
:10553000013800BFFCD11F208AF800002EE102F0E4
:10554000CDFC2BE19AF8000003283CD34EF2DE108C
:10555000C0F2E400013800BFFCD140F2F000C2F21A
:105560000000006801282ED140F6A4704AF661615F
:10557000C2F20000C0F60001012205F055FA00F069
:1055800025FF4FF2E400C0F2FA2000BF013800BF4F
:10559000FCD1622040F280018AF800000D20C2F2A6
:1055A00000010860FAE002F059FDF7E0304600BF64
:1055B000013800BFFCD1F1E047F67200C0F27D1067
:1055C000013800BFFCD128788AF80000E6E04AF6EE
:1055D000B850C0F60000A84605F034F94EF2DE10CF
:1055E000C0F2E400013800BFFCD140F65470C2F2B2
:1055F0000000012101604BF29820C0F6000090E805
:105600008E0040F6A475C2F20005046985E88E009C
:10561000818A807D2C61A982A87500F0D7FE42F6B0
:105620002850C0F2311000BF013800BFFCD198F8FB
:105630000000454641F200088AF80000C4F2010863
:105640000024ABE04AF6B850C0F6000005F0FAF8C6
:105650004EF2DE10C0F2E400013800BFFCD140F68B
:105660005470C2F20000012101604BF2F420C0F638
:105670000000D0E900E8D0E90237D0E90446D0E9DB
:10568000065CD0E9081040F6A472C2F20002C2E93A
:105690000810C2E900E8C2E90237C2E90446C2E9DB
:1056A000065C00F093FE49F29460C0F2980000BFDF
:1056B000013800BFFCD140F2D0010120C2F200014C
:1056C000086040F280010D20C2F2000108606220F3
:1056D00041F2000849F2946640F6A1758AF800008C
:1056E000C4F20108C0F29806C2F20005002441F697
:1056F0005C0BC2F2000B51E040F2D0010220C2F27A
:10570000000108604EF2DE10C0F2E400013800BF74
:10571000FCD140F2D0010220C2F20001086040F248
:1057200080010D20C2F20001086062208AF80000AA
:1057300034E09AF8000028704EF67E20013800BF51
:10574000FCD140F65861C2F200010878032839D331
:1057500040F280010D20C2F20001086062208AF848
:10576000000028701AE002F0EFFE17E000F096FD4E
:1057700044F64A30C0F24C00013800BFFCD10DE0C5
:105780006BA005F08FFA40F6F060C0F2277000BF02
:10579000013800BFFCD1FDF757FE00BF9AF80000AA
:1057A0002B2808BF02F046FE9AF8000062282FD08E
:1057B0009AF8000061282BD09AF8000063287FF443
:1057C00029AD25E000200870E8E701201060404680
:1057D0004FF48041FFF75CF944F24220C0F20F0021
:1057E000013800BFFCD140F6D061C2F20001386838
:1057F00009788842D2DB40F204110020C2F2000195
:105800000860642038600E208AF80000C6E700BFF8
:105810009AF8000040F658676228C2F200070CD1DF
:105820003878032809D34AA005F0EEF844F64A3048
:10583000C0F24C00013800BFFCD140464FF460413B
:10584000FFF724F942F6285040F2BC0940F28005E7
:10585000C0F23110C2F20009C2F20005013800BFE7
:10586000FCD128680D280FD003282CD14AF61360EC
:10587000C0F6000004F0E6FF48F21860C5F2A3404D
:10588000013800BFFCD11EE040F6A47040F20802CF
:10589000C2F2000031A1C2F2000205F0C5F800F02A
:1058A00095FD4FF2E400C0F2FA2000BF013800BFBE
:1058B000FCD14AF61360C0F6000004F0C3FF304686
:1058C000013800BFFCD13046013800BFFCD1286848
:1058D000032816D09AF8000061280AD09AF8000030
:1058E00063287FF48DA900BF013E00BFFCD108E012
:1058F000FEE746F6E800C1F6CD5000BF013800BF14
:10590000FCD14EF60C52CEF20002BFF34F8F10685E
:10591000042100F4E060C0F2FA5108431060BFF3C4
:105920004F8F00BFFEE700BF474F2025730D0A00D1
:105930005245434549564520464F54412046524F13
:105940004D2045434D20534F4654574152450D007D
:10595000444953434F4E4E4543540000524553541F
:1059600041525420425920534F46545245534554B6
:1059700020434F4E4649472E2043757272656E7420
:10598000204D4355205665722025730041540D0A61
:10599000000000002DE9F04F81B08246032818DB9B
:1059A00042F6A810C2F200000021016042F6AC10DD
:1059B000C2F2000040F63401FAF7EFFB40F6A470A3
:1059C00041F2A401C2F20000C2F20001FF22FAF784
:1059D000CBFB40F6A476C2F20006707A222864D18E
:1059E00040F6A071C2F200012B20087040F6606002
:1059F000C2F200003221FAF7D0FB43F6142840F639
:105A0000807B40F2281941F2AC30C2F20008002439
:105A1000C2F2000BC2F20009C2F200004FF496611C
:105A2000C8E90044C8E90244C8F81040CBE9004482
:105A3000CBE90244CBF81040C9E90044C9E902446B
:105A4000C9F81040FAF7A9FB0A254FF0000C002115
:105A50000022002304E000BF642D05F1010535DAC2
:105A6000705D2C38B0FA80F040090544775D222F34
:105A70002CD00444032CEFD8DFE804F0060F130207
:105A800009F803700133E7E740F66060C2F20000F6
:105A900000F80C700CF1010CDEE708F80170013120
:105AA000DAE70BF802700132D6E7BAF1000F72D0D4
:105AB0004AF64E70C0F6000005F0F4F849F2946022
:105AC000C0F29800013800BFFCD17CE04AF66C506F
:105AD000C0F6000004F0B6FE46F65610C0F278405C
