:020000040800F2
:10000000883B002045010008D1020008C902000811
:10001000CD020008C10200083904000800000000F9
:10002000000000000000000000000000D9020008ED
:10003000C502000800000000D5020008DD0200082B
:100040005F0100085F0100085F0100085F01000810
:100050005F0100085F0100085F0100085F01000800
:100060005F0100085F0100085F0100085F010008F0
:100070005F0100085F0100085F0100085F010008E0
:100080005F0100085F0100085F0100085F010008D0
:100090005F0100085F0100085F0100085F010008C0
:1000A0005F0100085F0100085F0100085F010008B0
:1000B0005F0100085F0100085F0100085F010008A0
:1000C0005F0100085F0100085F0100085F01000890
:1000D0005F01000829040008310400085F010008DE
:1000E0005F0100085F0100085F0100085F01000870
:1000F0005F0100085F0100085F0100085F01000860
:100100005F0100085F0100085F0100085F0100084F
:100110005F0100085F0100085F0100085F0100083F
:100120005F0100085F0100085F0100085F0100082F
:10013000DFF80CD000F092F8004800473D4300087B
:10014000883B00200648804706480047FEE7FEE758
:10015000FEE7FEE7FEE7FEE7FEE7FEE7FEE7FEE777
:10016000E10200083101000840EA01039B0703D0C7
:1001700009E008C9121F08C0042AFAD203E011F8E6
:10018000013B00F8013B521EF9D27047D2B201E0A8
:1001900000F8012B491EFBD270470022F6E710B58C
:1001A00013460A4604461946FFF7F0FF204610BDE5
:1001B000421C10F8011B0029FBD1801A704710B5B2
:1001C000002200E0521C835C8C5CA34201D1002B16
:1001D000F8D1D8B2E1B2401A10BD30B505460020C2
:1001E000034600E05B1C934205D2EC5CC85C201A1D
:1001F00001D1002CF6D130BD2DE9F05F054600207D
:1002000092469B4688460646814640241BE0284687
:1002100041464746224600F042F853465A46C01A25
:10022000914110D311461846224600F029F82D1AA4
:1002300067EB01084F4622460120002100F020F81C
:1002400017EB00094E41201EA4F10104DFDC4846F3
:1002500031462A464346BDE8F09F0000064C074D54
:1002600006E0E06840F0010394E807009847103486
:10027000AC42F6D3FFF760FF509D0008709D000868
:10028000202A04DB203A00FA02F100207047914056
:10029000C2F1200320FA03F3194390407047202A4B
:1002A00004DB203A21FA02F00021704721FA02F320
:1002B000D040C2F120029140084319467047000027
:1002C000FEE7000070470000FEE70000FEE70000C8
:1002D0007047000070470000704700007047000042
:1002E00081B04EF68851CEF200010A6841F2040056
:1002F00042F47002C4F202000A6050F8041C4FF08D
:10030000000C41F0010140F8041C016844F61F6331
:1003100041F080010160CDF800C0009A9A4207D8F0
:1003200044F62062009B01330093009B9342F9D373
:10033000C0F800C0C0F828C050F8042C4FF6FF7376
:10034000CFF6F6631A4040F8042C4FF41F024260C7
:1003500050F8042C22F4802240F8042C50F8042C8D
:1003600042F4803240F8042C4FF6FE7250F8041C20
:10037000013A4CF10003890301D4002BF6D150F867
:10038000041C890301D400BFFEE7826947F2000123
:1003900042F08052C4F2000182610A684FF6FF7396
:1003A00042F440420A600268CBF2C3730260026802
:1003B0000260026842F480620260026822F4403205
:1003C0000260026842F44032026002681A40026031
:1003D000026842F4C012026050F8042C42F08072AD
:1003E00040F8042C50F8042C9201FBD50A6842F422
:1003F00080320A604A68D203FCD50A6842F40032AF
:100400000A6000BF4A689203FCD5016821F003012D
:100410000160016841F00201016000BF0168090745
:10042000FCD501B07047000080B507F04FFE80BDDD
:1004300080B507F01FFF80BDFEE700002DE9F04FFB
:1004400085B040F2101C40F66077C2F2000C40F21A
:10045000102E40F204050026C2F200074FF00109F9
:10046000C2F2000E0CF144004FF0FF0B42F20148C3
:10047000C2F2000500244FF0000A0490042CC0F2E0
:10048000FF82395D3D2940F0FB82E01910F8012C14
:10049000432A27D110F8022C502A23D110F8032C1C
:1004A0004D2A1FD1049A04F10800611C8CF8FE90BB
:1004B000CEF8F8930BE000BFBAF1000F01F1010490
:1004C00018BF167001328142214680F213817B5C95
:1004D0000D2B1370F0D809FA03F313EA080F18BFB5
:1004E0008A46E9E73D2940F0CB8210F8012C442AE6
:1004F00058D110F8022C552A54D1651C785D41F270
:1005000050613D2808BFA51C785DC2F2000130385B
:1005100008608CF843008CF8FE90CEF8F89303F056
:10052000F1FA03F05FFC40F21C00C2F20000006828
:1005300040F2101C002140F63C72C2F2000C002672
:10054000C0F60201C2F200021160C8B140F21022EE
:10055000C2F200020023ACF10101043AC0F602032A
:1005600053F8044BFF2C42F8044F28BF5C46013877
:1005700001F8014FF4D140F63C70C2F20000036074
:100580009CF844000130C0B2022880F0348140F66B
:10059000287044F24541C2F20000C4F64D11C0E992
:1005A000001130E13D2940F06B8210F8012C4C2AFB
:1005B0002AD110F8022C572A26D110F8032C4D2AE4
:1005C00022D104F10E010CF11402631C00208CF8FE
:1005D000FE90CEF8F8930CE02C2D08BF18460028AA
:1005E000A3F1010518BF1670013301328D4280F26C
:1005F0007C81FD5C0D2D1570EED809FA05F414EA26
:10060000080FE9D01846EAE73D2940F0398210F892
:10061000012C4C2A40F0B58010F8022C572A40F0EB
:10062000B08010F8032C4E2A40F0AB8010F8042C58
:10063000452A40F0A6800134385D8CF8FE90B0F178
:10064000300141F25060C2F2000001604FF0000042
:10065000CEF8F89388BF08468CF84C00C2B20FF66B
:10066000E44008F037FE03F04DFA03F0BBFB40F224
:100670001C00C2F20000006840F2101C002140F68D
:100680003C72C2F2000C0026C0F60201C2F2000267
:100690001160E8B140F21022C2F200020023ACF176
:1006A0000101043AC0F6020353F8045BFF2D42F83F
:1006B000045F28BF5D46013801F8015FF4D140F6C0
:1006C0003C7040F20405C2F20000C2F20005036073
:1006D0009CF844000130C0B2022880F07F8340F6CD
:1006E000287044F24541C2F20000C4F64D11C0E941
:1006F00000117BE303F006FA03F074FB40F21C00E8
:10070000C2F20000006840F2102E40F2101C0021DE
:1007100040F63C72C2F2000EC2F2000CC0F60201BA
:10072000C2F200021160D8B10023ACF10101AEF1B8
:100730000402C0F6020300BF53F8045BFF2D42F829
:10074000045F28BF5D46013801F8015FF4D140F62F
:100750003C7040F20405C2F20000C2F200050360E2
:100760009CF844000130C0B2022839D240F628700B
:1007700044F24541C2F20000C4F64D11C0E9001137
:1007800036E03D2940F07C8110F8012C472A45D104
:1007900010F8022C462A41D110F8032C432A3DD1EF
:1007A000CEF8F89340F2800E411C621C002000231A
:1007B000C2F2000E8CF8FE900BE000BF002806BFCE
:1007C0000CF8035000200CF8036001330F2B00F0ED
:1007D000B982CD5C2C2DF1D1D0180CF80360F4E770
:1007E000DCE9110140F62872C2F20002C2E9000100
:1007F0000020002645E1DCE9110140F62872C2F232
:100800000002C2E900012C4640F2102E40F204051D
:100810000120C2F2000EC2F2000532E13D2940F093
:100820002F8110F8012C542A40F0C68010F8022CB9
:10083000532A40F0C18010F8032C522A40F0BC80AB
:1008400010F8042C572A40F0B780407841F25061EC
:100850003038C2F2000104F102020860B95C8CF881
:10086000FE90CEF8F8934FF0000A98BF50462C291E
:1008700008BFE21CB95C41F2A0158CF841002C299C
:1008800008BF0132B9180024C2F20005039200BF6C
:100890000B5DBAF1000F524608BFA246002B18BFED
:1008A0009246BAF1000F18BF33462B550134052C80
:1008B000EED1AAF1010140F6A0650329C2F20005BC
:1008C0002E6000F21A83DFE811F004003D034D03AF
:1008D000600341F2A011C2F20001097841F25063B5
:1008E0003039C2F20003196072E3395C0CF1230362
:1008F0002C2908BF0130395C2C2908BF013000F1D8
:100900000E0200210CE000BF2C2D08BF014600297B
:1009100018BF1E70904200F1010003F101030ADAD2
:100920003D5C0D2D1D70EFD809FA05F414EA080F8F
:10093000EAD00146EBE7785C0CF132022C2808BFC4
:100940000131785C4FF0000A2C2808BF013101F119
:100950000E0009E0BAF1000F01F1010418BF167092
:100960000132814221460ADA7B5C0D2B1370F1D8EB
:1009700009FA03F313EA080F18BF8A46EAE79CF85E
:1009800014000130C0B20228C0F085809CF8190024
:10099000FF2800F08080002800F07D80DCE9050160
:1009A000DCF81F2043F25076C2F20006DCF81C305F
:1009B000C6F80B200BC683E03D2961D110F8011C5D
:1009C00054295DD110F8021C532959D110F8031C89
:1009D000522955D110F8041C482951D14078A31C44
:1009E000B0F1300141F25060C2F200008CF8FE908C
:1009F000CEF8F89301604FF0000A98BF5146FA5CB8
:100A00008CF842100291CDB240F2F401CEF80851B8
:100A10002C2A08BFE31CFA5CC2F200010D6041F20F
:100A2000A01101952C2A08BF0133FA180024C2F244
:100A300000010393155DBAF1000F534608BFA246AB
:100A4000002D18BF9A46BAF1000F18BF35460D5554
:100A50000134052CEED1AAF1010240F69C65032A6F
:100A6000C2F200052E6000F25883DFE812F00400A5
:100A70007503820392030A78303A0260A5E300BF4F
:100A80000120002800F05484286801348442FFF6D5
:100A9000F5AC00F04DBC43F25070C2F200003221C0
:100AA000017343F22B61C3F63201016043F23561F9
:100AB000C3F23811416043F23311C3F2384181600F
:100AC0009CF823000130C0B2022814D39CF82800FF
:100AD000FF2810D078B1DCF82300DCF82E2043F298
:100AE0006076C2F20006DCF82710DCF82B30C6F87E
:100AF0000B200BC615E043F26071C2F2000143F611
:100B00003910888143F22B60C3F63200086043F24B
:100B10003230C3F23100486043F63210C3F2331072
:100B200088609CF832000130C0B2022814D39CF8CF
:100B30003700FF2810D078B1DCF83200DCF83D2017
:100B400043F27076C2F20006DCF83610DCF83A3078
:100B5000C6F80B200BC614E043F270713220C2F2CB
:100B60000001888143F22B60C3F63200086043F233
:100B70003110C3F23230486043F23430C3F2317086
:100B8000886002F0BFFF03F02DF940F21C00C2F2B2
:100B900000000068002140F63C7240F2101C40F258
:100BA000102EC0F60201C2F20002C2F2000CC2F224
:100BB000000E1160B0B10023ACF10101AEF10402EE
:100BC000C0F6020353F8045BFF2D42F8045F28BF10
:100BD0005D46013801F8015FF4D140F63C70C2F285
:100BE000000003609CF814000130C0B2022812D348
:100BF0009CF81900FF280ED068B1DCE90501DCF88B
:100C00001F2043F25075C2F20005DCF81C30C5F815
:100C10000B200BC514E043F25070C2F200003221E9
:100C2000017343F22B61C3F63201016043F2356177
:100C3000C3F23811416043F23311C3F2384181608D
:100C40009CF8230000260130C0B2022814D39CF87F
:100C50002800FF2810D078B1DCF82300DCF82E2023
:100C600043F26075C2F20005DCF82710DCF82B3087
:100C7000C5F80B200BC515E043F26071C2F200010C
:100C800043F63910888143F22B60C3F632000860C6
:100C900043F23230C3F23100486043F63210C3F2FF
:100CA000331088609CF832000130C0B2022814D39F
:100CB0009CF83700FF2810D078B1DCF83200DCF85F
:100CC0003D2043F27075C2F20005DCF83610DCF806
:100CD0003A30C5F80B200BC514E043F27071322096
:100CE000C2F20001888143F22B60C3F63200086033
:100CF00043F23110C3F23230486043F23430C3F271
:100D0000317088609CF8440040F204050130C0B2A4
:100D1000C2F2000502280BD240F6287044F2454189
:100D2000C2F20000C4F64D11C0E900110020A8E68F
:100D3000DCE9110140F62872C2F20002C2E90001AA
:100D400000209EE639184FF0000A00228B5C2C2B05
:100D50001ABF0CEB0205EB7300EB020ABAF1000FAD
:100D60001CBF0CEB0203DE730132052AEED10AF13F
:100D70000104385D41F250612C2808BF0AF10204D9
:100D8000385DC2F200012C2808BF0134385D3038CC
:100D900008609CF8001098BF3046FF298CF841008D
:100DA0002CD09CF80120FF2A28D09CF80230FF2B81
:100DB00024D019B312B30BB34FF0FF310CEB010287
:100DC00052780EEB0105A2F130034B2B01F101012A
:100DD00028BF32460E296A70F0D122E0DCE9110109
:100DE00040F62872C2F20002C2E900014FF0000A88
:100DF000012040F2102EC2F2000E42E643F24D21D5
:100E0000C5F24D01CEF8001044F64C61C4F64151D4
:100E1000CEF8041052218EF80810CEF80960AEF812
:100E20000D609CF80F100131C9B202290AD240F2BC
:100E3000A40143F23102C2F20001C3F230020A609F
:100E40000E7109E09CF81310DCF80F2040F2A403A7
:100E5000C2F2000319711A60411C40F20405C9B2C4
:100E6000C2F2000501290CD840F2B400C2F2000021
:100E7000067040F2F800C2F2000006608CF8416093
:100E80000AE040F2B401C2F20001087040F2F80139
:100E9000C0B2C2F20001086002F034FE02F0A2FF0C
:100EA00040F21C00C2F200000068002140F63C72D3
:100EB00040F2101C40F2102E0028C0F60201C2F2CF
:100EC0000002C2F2000CC2F2000E11603FF448AC06
:100ED0000023ACF10101AEF10402C0F6020300BF31
:100EE00053F8045BFF2D42F8045F28BF5D460138CC
:100EF00001F8015FF4D1FFF72ABC41F2A013C2F25E
:100F000000039D7819780295DD785A7801954FF4A1
:100F10007A7530396A4342F2107511FB0521029D42
:100F2000642215FB0211019A02EB820201EB4201DD
:100F30004DF22002891A1A7940F6A063C2F200032A
:100F400019603EE041F2A012C2F2000211784FF6A1
:100F5000206301EB8101CFF6FF73527803EB41016F
:100F600029602EE041F2A013C2F2000319785A78EA
:100F70009B7802EB820202936423594301EB420106
:100F8000A1F5A551029A29601BE041F2A015C2F219
:100F9000000529786A78AB78ED78303902956425B8
:100FA0006A434FF47A7511FB052103EB830201EBD1
:100FB000420140F6A062A1F5A551C2F20002116003
:100FC000029A303A41F25063C2F2000311441A60AF
:100FD000A1F2A15248F6890512F5B46F0A46C8F687
:100FE000880538BF4FF4B4621A6055FB011140F612
:100FF000AC63C2F200031A604B1103EBD17155FBD5
:10100000022340F61C65C2F2000529605D1105EB64
:10101000D373CEE96421411CC3EB031340F6A065F2
:10102000C9B2A2EB8303C2F2000501292B60CEF8FE
:1010300098310CD840F2B400C2F20000067040F2C1
:10104000F800C2F2000006608CF841600AE040F24D
:10105000B401C2F20001087040F2F801C0B2C2F25D
:101060000001086040F20405039EC2F2000502F090
:1010700049FD02F0B7FE40F21C00C2F20000006819
:10108000002140F63C72C0F60201C2F2000211607B
:1010900000B340F2101140F21022C2F20001C2F27D
:1010A000000200230139043AC0F6020353F8045B3E
:1010B000FF2D42F8045F28BF5D46013801F8015F4B
:1010C000F4D140F63C7040F20405C2F20000C2F2D6
:1010D00000050360344400F067FF40F2101CC2F2C8
:1010E000000C9CF844000130C0B202280AD240F63D
:1010F000287044F24541C2F20000C4F64D11C0E927
:10110000001107E0DCE9110140F62872C2F200028A
:10111000C2E90001002000266BE60A784B784FF404
:101120007A7691F802E091F803C0303A734342F2C4
:10113000107612FB063264231EFB03220CEB8C0399
:1011400002EB43024DF2200340F2101CD21A0B793D
:10115000C2F2000C002609E00A784B784FF62061B5
:1011600002EB8202CFF6FF7101EB4202303B2A60B4
:1011700029E00A784B7891F802E064214A4303EBB6
:10118000830302EB4302A2F5A5522A60AEF13003BD
:1011900019E00A784B788E7891F803C06421303AD0
:1011A0004B434FF47A7112FB013206EB860302EBDC
:1011B0004302A2F5A552ACF1300340F2101C2A60A4
:1011C000C2F2000C00261A440360014642F261702C
:1011D000131A4DF6A000CFF6FF702A608342134623
:1011E00042F2607538BF42F260735D1B0130854288
:1011F0000B6015D240F2102E42F26071C2F2000E66
:101200000620CEE9690140F2EC01C2F2000108605B
:1012100040F61860C2F20000172101603B2228E06E
:1012200045F606315809C0F2B051A0FB010548F659
:101230008901C8F6880151FB022040F2EC02C2F29B
:1012400000021560421102EBD07051FB033240F6F0
:101250001861C2F200010860501100EBD27040F238
:10126000102EC0EB0010C2F2000EA3EB8002CEE9FC
:10127000695340F61C60C2F20000006840F20405A9
:10128000CEF89C01029840F69C610130C0B2012862
:1012900040F2F400C2F20005C2F20001C2F2000006
:1012A0000A60CEF8A02103D806608CF8426001E005
:1012B0000199016002F026FC02F094FD40F21C004E
:1012C000C2F200000068002140F63C72C0F6020144
:1012D000C2F20002116000B340F2101140F210227D
:1012E000C2F20001C2F2000200230139043AC0F642
:1012F000020353F8045BFF2D42F8045F28BF5D46EC
:10130000013801F8015FF4D140F63C7040F2040569
:10131000C2F20000C2F2000503600398044400F02A
:1013200043FE40F2101C00200026C2F2000C60E5D3
:1013300040F66070C2F20000FF21FEF72EFF05B0FC
:10134000BDE8F08F696E20636865636B464D43208E
:10135000454E574C3D25642025640D0A00000000D1
:101360002DE9F04F83B040F2101E40F2000840F625
:101370006074C2F2000E40F2102C40F63C7540F250
:1013800004030290C0F60208C2F20004C2F2000C8C
:101390000EF14400C2F200054FF0FF0AC2F2000352
:1013A00000264FF0000B0190042EC0F23F81A15D9A
:1013B0003D2940F03B81301910F8012C432A2DD1F2
:1013C00010F8022C502A29D110F8032C4D2A25D1CF
:1013D0000120019AA9468EF8FE00CCF8F8030125F9
:1013E00006F10800711C4FF0000C42F201470BE0BF
:1013F000BBF1000F01F1010618BF82F800C00132F5
:101400008142314680F2BC80635C0D2B1370EFD8B3
:1014100005FA03F33B4218BF8B46E9E73D2940F04C
:10142000058110F8012C442A43D110F8022C552ACA
:101430003FD1701C215C4FF001093D2908BFB01C51
:10144000215C0646A1F1300041F25061C2F2000178
:1014500008608EF843008EF8FE90CCF8F89374463E
:10146000E24602F04FFB02F0BDFC40F21C00C2F26B
:1014700000000068C5F80080002800F0F380611EBD
:10148000AAF104024346A646D446FF2553F8044B6E
:10149000FF2C42F8044F28BF2C46013801F8014FB9
:1014A000F4D140F63C75C2F200052B604FF0010903
:1014B000DAE03D2940F0BA8010F8012C4C2A31D1F5
:1014C00010F8022C572A2DD110F8032C4D2A29D1BF
:1014D00001208EF8FE00CCF8F8034FF0010906F168
:1014E0000E010EF11402731C00204FF0000C0DE0F1
:1014F0002C2F08BF18460028A3F1010718BF82F857
:1015000000C0013301328F4280F2B580E75C0D2FBD
:101510001770EDD809FA07F642F201452E42E7D0DE
:101520001846E8E73D2940F0818010F8012C472A51
:1015300055D110F8022C462A51D110F8032C432A19
:101540004DD101218EF8FE10CCF8F813411C721C0D
:10155000002000234FF0000C0BE000BF002806BF66
:101560000EF8037000200EF803C001330F2B00F0BB
:101570001D82CF5C2C2FF1D1D0180EF803C0F4E7F8
:1015800002F0C0FA02F02EFC40F21C00C2F2000091
:101590000068C9F80080002858D040F2101E40F2C0
:1015A000102CC2F2000EC2F2000CAEF10101ACF13F
:1015B000040243464FF0FF0A53F8044BFF2C42F855
:1015C000044F28BF5446013801F8014FF4D140F6CA
:1015D0003C75C2F200052B604FF0000946E03D2942
:1015E00024D110F8012C542A0CD110F8022C532AC3
:1015F00008D110F8032C522A04D110F8042C572AD1
:1016000000F0A7823D2911D110F8011C54290DD1F9
:1016100010F8021C532909D110F8031C522905D1D6
:1016200010F8040C482800F0948200BF4FF0010924
:1016300040F66074B9F1000FC2F2000400F0898234
:10164000186801368642FFF6AFAE82E240F2101E05
:1016500040F2102C4D464FF00009C2F2000EC2F2CB
:10166000000C01E0A646D4464FF0FF0A40F2040306
:10167000C2F20003DCE7215C0EF123032C2908BF32
:101680000130215C2C2908BF013000F10E0200213D
:101690000DE000BF2C2F08BF0146002918BF83F8BA
:1016A00000C0904200F1010003F101030BDA275C56
:1016B0000D2F1F70EED809FA07F642F201452E42AF
:1016C000E8D00146E9E7605C0EF132022C2808BF41
:1016D0000131605C4FF0000B2C2808BF013101F193
:1016E0000E000AE0BBF1000F01F1010618BF82F8FD
:1016F00000C00132814231460BDA635C0D2B13705E
:10170000F0D809FA03F342F20146334218BF8B4680
:10171000E8E79EF814000130C0B2022812D39EF808
:101720001900FF280ED068B1DEE90501DEF81F20A0
:1017300043F25077C2F20007DEF81C30C7F80B20E6
:101740000BC714E043F25070C2F200003221017363
:1017500043F22B61C3F63201016043F23561C3F2FB
:101760003811416043F23311C3F2384181609EF871
:1017700023000130C0B2022814D39EF82800FF28AD
:1017800010D078B1DEF82300DEF82E2043F2607727
:10179000C2F20007DEF82710DEF82B30C7F80B2066
:1017A0000BC715E043F26071C2F2000143F6391035
:1017B000888143F22B60C3F63200086043F2323076
:1017C000C3F23100486043F63210C3F23310886030
:1017D0009EF832000130C0B2022814D39EF83700C0
:1017E000FF2810D078B1DEF83200DEF83D2043F259
:1017F0007077C2F20007DEF83610DEF83A30C7F82C
:101800000B200BC714E043F270713220C2F20001CA
:10181000888143F22B60C3F63200086043F2311036
:10182000C3F23230486043F23430C3F23170886022
:1018300040F63C75C2F2000502F064F902F0D2FAFB
:1018400040F21C00C2F20000006840F2101E40F29C
:10185000102CC2F2000EC2F2000CC5F80080A8B134
:10186000AEF10101ACF10402434600BF53F8044B52
:10187000FF2C42F8044F28BF5446013801F8014FAD
:10188000F4D140F63C75C2F200052B609EF81400BE
:101890000130C0B2022812D39EF81900FF280ED0E2
:1018A00068B1DEE90501DEF81F2043F25074C2F290
:1018B0000004DEF81C30C4F80B200BC414E043F223
:1018C0005070C2F200003221017343F22B61C3F663
:1018D0003201016043F23561C3F23811416043F2D5
:1018E0003311C3F2384181609EF823000130C0B249
:1018F000022814D39EF82800FF2810D078B1DEF813
:101900002300DEF82E2043F26074C2F20004DEF8F9
:101910002710DEF82B30C4F80B200BC415E043F27F
:101920006071C2F2000143F63910888143F22B60E6
:10193000C3F63200086043F23230C3F2310048602F
:1019400043F63210C3F2331088609EF83200013043
:10195000C0B2022814D39EF83700FF2810D078B107
:10196000DEF83200DEF83D2043F27074C2F200046B
:10197000DEF83610DEF83A30C4F80B200BC42BE644
:1019800043F270713220C2F20001888143F22B6071
:10199000C3F63200086043F23110C3F232304860BF
:1019A00043F23430C3F23170886015E621184FF0ED
:1019B000000B00228B5C2C2B1ABF0EEB0206F3737C
:1019C00000EB020BBBF1000F1CBF0EEB020383F810
:1019D0000FC00132052AEDD10BF10106A05D41F2E5
:1019E00050612C2808BF0BF10206A05DC2F2000175
:1019F0002C2808BF0136A05D303808609EF8001022
:101A000098BF6046FF298EF8410020D09EF8012043
:101A1000FF2A1CD09EF80230FF2B18D0B9B1B2B10A
:101A2000ABB14FF0FF3100BF0EEB0102527840F234
:101A30008004A2F13003C2F200040C444B2B01F1EC
:101A4000010128BF62460E296270EDD113E040F219
:101A5000800143F24D22C2F20001C5F24D020A603C
:101A600044F64C62C4F641524A6052220A72C1F8EE
:101A700009C0A1F80DC09EF80F100131C9B20229AA
:101A80000BD240F2A40143F23102C2F20001C3F2D0
:101A900030020A6081F804C009E09EF81310DEF8F5
:101AA0000F2040F2A403C2F2000319711A60411C16
:101AB00040F63C75C9B2C2F2000501290ED840F2C9
:101AC000B400C2F2000080F800C040F2F800C2F298
:101AD0000000C0F800C08EF841C00AE040F2B40136
:101AE000C2F20001087040F2F801C0B2C2F2000177
:101AF000086002F007F802F075F940F21C00C2F22B
:101B000000000068C5F80080C0B140F2101E40F22D
:101B1000102CC2F2000EC2F2000CAEF10101ACF1C9
:101B20000402434653F8044BFF2C42F8044F28BFED
:101B30005446013801F8014FF4D148E540F2101E37
:101B400040F2102C4FF00009C2F2000EC2F2000C5D
:101B50008CE50298082849D041F250650728C2F266
:101B6000000540F0168201208EF8FE00CCF8F80344
:101B7000207A627AB0F1300C4FF00903C5F800C04A
:101B80004FF0000198BF8C462C2A08BF0A23E25C64
:101B90008EF841C02C2A08BF013341F2A012E71889
:101BA000C2F2000200230026BC5D002B184608BFCD
:101BB0003046002C08BF0346002B18BF0C46945536
:101BC0000136052EF0D140F6A06E013BC2F2000EA8
:101BD0000020032BCEF8000055D8DFE803F0026C9C
:101BE000777F1078A0F130022A608DE001208EF816
:101BF000FE00CCF8F803207A41F25065B0F13002D3
:101C0000C2F20005617A2A604FF0000098BF0246D8
:101C100040F2F4038EF84220D2B2C2F200031A60FE
:101C200009232C2908BF0A23E15CCCF808212C29C0
:101C300008BF013341F2A0112344C2F20001002287
:101C4000002700BFDE5D002A144608BF3C46002E78
:101C500008BF2246002A18BF0646CE550137052F79
:101C6000F0D140F69C60013AC2F200000023032A42
:101C7000036000F2CF80DFE802F002E5F0F80978B7
:101C80003039296006E1107853784FF47A749778E8
:101C9000D6783038634342F2107410FB043064236A
:101CA00017FB030006EB860300EB43004DF2200315
:101CB0001279C01A23E010784FF62063527800EBB7
:101CC0008000CFF6FF7303EB400018E010785378E4
:101CD00092786427784303EB83030CE01078537801
:101CE00097786426D278303873434FF47A7610FBB5
:101CF000063007EB870300EB4300A0F5A550303A10
:101D00002A600244CEF80000CEF80020B2F5B46F8D
:101D10002A60C4BF4FF4B460CEF80000DEF80000C3
:101D200048F689070028DCBF4FF4B460CEF8000005
:101D3000DEF80000C8F6880757FB000640F6AC63E3
:101D4000C2F200037411002118603B28C8BF04EBE5
:101D5000D67140F61C6457FB022640F21027C2F2EF
:101D60000004C2F2000721607411C7E964010CF19C
:101D7000010004EBD674C0B2C4EB0414012840F295
:101D8000B4004FF00003A2EB8402C2F20000CEF8D0
:101D90000020C7F898210CD8037040F2F800C2F276
:101DA0000000036040F21010C2F2000080F84130E1
:101DB00008E040F2F80180F800C05FFA8CF0C2F24F
:101DC0000001086040F63C74C2F2000401F09AFE83
:101DD00002F052F840F21C00C2F20000006840F22B
:101DE00010220028C2F20002C4F8008000F0CF8068
:101DF00040F21011C2F200010139043A58F8043BD4
:101E0000FF2B42F8043F28BFFF23013801F8013FB0
:101E1000F4D1BAE00A784B784FF47A748F78CE78A0
:101E2000303A634342F2107412FB0432642317FB0E
:101E3000032206EB860302EB43024DF220030979ED
:101E4000D21A23E00A784FF62063497802EB820227
:101E5000CFF6FF7303EB420218E00A784B788978DB
:101E600064277A4303EB83030CE00A784B788F787E
:101E70006426C978303A73434FF47A7612FB0632FF
:101E800007EB870302EB4302A2F5A5523039296024
:101E9000114402604DF6A00342F26172CFF6FF7367
:101EA0008A1A9A4240F6A862C2F2000201602960D2
:101EB00011603CBF42F260722A602A6842F2607789
:101EC00040F63C74D61B0133C2F200049E420FD28E
:101ED00040F2EC020621C2F20002CCE9691711605F
:101EE00040F61861C2F2000117220A603B2126E089
:101EF00045F606374B09C0F2B057A3FB073740F24F
:101F0000EC03C2F200031F6048F68903C8F6880399
:101F1000CCF8A47153FB0117CCF8A811791101EB8F
:101F2000D77140F6186753FB0223C2F200073960ED
:101F3000591101EBD371C1EB0111A2EB810140F604
:101F40001C62C2F2000212680160CCE96721664699
:101F500001F0D8FD01F090FF40F21C00C2F2000039
:101F60000068C4F8008090B140F21011C2F2000184
:101F70000139321F58F8043BFF2B42F8043F28BFB9
:101F8000FF23013801F8013FF4D1C4F8008000F0CC
:101F90000BF840F66070C2F20000FF21FEF7FDF87A
:101FA00003B0BDE8F08F00002DE9F04340F21020AF
:101FB000C2F20000D0E9666440F6186CC2F2000C70
:101FC000D0E96457D0E9681340F6AC6840F61C626B
:101FD00040F6A069CCF8004040F69C6E40F2EC045C
:101FE000C2F20008C2F20002C2F20009C2F2000E00
:101FF000C2F20004C8F800501760C9F80060CEF8BB
:10200000001057EA0601236004BF1821116011680F
:102010001929A4BF182111601168B1F1FF3FDCBF7D
:1020200000211160B6F1FF3FDCBF0021C9F80010AC
:10203000A5F5B46111F5B46F08D84FF4B461C8F8D0
:102040000010172111603B21C9F80010D0F8A81129
:1020500042F260754DF6A003491BCFF6FF7312687C
:102060009942D9F80010C2EB021301EB8301C8F8C2
:10207000001088BFBDE8F08317230621CCF800309C
:102080003B232160CEF80030C0E96723C0E9691521
:10209000BDE8F083B0B5072884BF6420B0BDC1B2ED
:1020A000BF2222FA01F1C9074FF0640413D00BA13B
:1020B00012A251F8201052F8205040F66070C2F27F
:1020C0000000FEF77CF840F2D001C2F20001086087
:1020D000002808BF2C462046B0BD00BF24000020C9
:1020E0002E000020360000203F0000204A00002083
:1020F00056000020240000206000002000000000A6
:1021000001000000020000000300000004000000C5
:102110001200000000000000150000002DE9F0474B
:1021200082B040F6207041F29C1740F66074C2F213
:1021300000000021C2F20007C2F200040022C0E940
:102140000011397004E000BFFD2901F1010114DA2A
:10215000635C222B04BF01323A70212BF4D1EF29AA
:10216000F2DCD3B2012BEFD02144D1F80130D1F809
:102170000510C0E90031FF21E6E740F62075C2F204
:10218000000540F62871C2F2000128460822FEF739
:1021900024F841F25066C2F20006024630600FF2A7
:1021A0005060294607F096F8316840F26C0940F219
:1021B000CC08C2F2000900200029C2F20008C9F8C8
:1021C000000000F08880207A532840F0FA80E079FF
:1021D0004D2840F0F680A0794C2840F0F280A07A9B
:1021E00044F64A372228C0F24C0740F01D8140F6E1
:1021F0005C7040F65C6AC2F200002A21C2F2000A5A
:10220000017050463221FDF7C8FF40F6307541F2AB
:10221000A010C2F200050026C2F200004FF4966141
:10222000C5E90066FDF7B9FF0B200021002200BFC1
:10223000235C2C2B04BF01260130235C222B0AD007
:10224000002E19BFAB5401320AF801300131642865
:1022500000F10100ECDB49F6B8004EF2DE14C0F6E6
:102260000000C0F2E40406F06FFF00BF013C00BFB5
:10227000FCD141F2A014C2F2000440F65C630FF2FC
:10228000B451C2F2000320462A46009507F032F806
:10229000204606F059FF4CF2BC30C0F2C91000BF16
:1022A000013800BFFCD10FF2A85007F07DFA384684
:1022B000013800BFFCD13846013800BFFCD140F2E4
:1022C0002000C2F20000002101600820C8F80010C0
:1022D000C9F80000C0E06421C8F800100022002105
:1022E000387003E0FD2A02F1010212DAA35C222B0E
:1022F00004BF01313970212BF4D1EF2AF2DCCBB2CB
:10230000012BEFD0A318A050FF22586018819872BB
:10231000E8E7617AE079257A542908BF4F2D5DD02E
:102320006279E7782179A3794C2A08BF572900F010
:102330009C804C2B08BF572A00F0A180472B08BF78
:10234000462A00F0B780442808BF552B00F02281B0
:10235000542B08BF462A00F04181432A08BF502968
:1023600000F06881522B08BF452A00F070814D2B88
:1023700008BF492A00F0A081432B08BF412A00F082
:10238000BD81322B08BF572A00F0EB81412808BFDE
:10239000542B00F01C826420C8F800002046FDF792
:1023A00007FF40F60D222118225200208870204697
:1023B00006F0CAFE40F65C70C2F200001D210170FA
:1023C0006DE10FF2384007F0EFF9D9F800000B216A
:1023D0000828C8F8001040F0588160E14F289FD1CC
:1023E00049F6502044F64A34C0F60000C0F24C04CE
:1023F00007F0DAF9204600BF013800BFFCD140F2F7
:102400002000C2F20000002101600320C8F8000093
:10241000C9F8000040F65C70C2F200006221017051
:10242000013C00BFFCD13AE10FF2E43007F0BCF907
:10243000384600BF013800BFFCD1D9F80000082899
:102440000AD040F65D70C2F20000007840F65C7180
:10245000C2F20001087000BF013F00BFFCD1D9F8F3
:102460000000082840F0118119E14D2F7FF461AF81
:102470003D2B40F09D80FDF7E1FF052499E04E29BA
:102480007FF45CAF3D2808BFFDF7D8FF40F2101085
:10249000C2F2000090F84C1049F65A304EF2DE14A9
:1024A000C0F60000C0F2E40406F014FF013C00BFD7
:1024B000FCD1EAE043297FF446AF3D2823D144F61E
:1024C0004A34C0F24C04FDF7B9FF00BF013C00BF25
:1024D000FCD141F2A014C2F2000449F68D0140F291
:1024E0008002C0F60001C2F20002204606F002FFA0
:1024F000204606F029FE42F62850C0F2311000BFF7
:10250000013800BFFCD141F2A010C2F200004FF42C
:102510009661FDF742FE41F26460C2F2000040F6AF
:102520003401FDF73AFE42F2D460C2F2000040F6F8
:102530003401FDF732FE41F69860C2F2000040F629
:102540003401FDF72AFE42F2D060C2F20000002101
:10255000016042F2CC60C2F20000016040F660709F
:10256000C2F20000FF21FDF718FE40F2B400C2F2F3
:102570000000037849F6A91040F2800140F2A4025D
:10258000C0F60000C2F20001C2F2000206F0A2FE94
:10259000022078E0412A7FF4DBAE3D2D66D1012098
:1025A0003060FDF74BFF49F64D00C0F6000061E0DA
:1025B000012449F6DA1043F2507143F2607243F29B
:1025C0007073C0F60000C2F20001C2F20002C2F253
:1025D000000306F07FFEC8F8004056E04F297FF464
:1025E000BCAE532F7FF4B9AE49F65B2044F64A34B3
:1025F000C0F60000C0F24C0407F0D6F8204600BF39
:10260000013800BFFCD140F22000C2F200000021DE
:1026100001600320C8F800000D20C9F8000040F652
:102620005C70C2F200006221017000BF013C00BF7B
:10263000FCD134E03D2B08BFFDF700FF49F6EC105C
:1026400040F62871C0F60000C2F200010AE05629E7
:102650007FF48DAE49F6F81040F20801C0F6000094
:10266000C2F2000106F036FE05200CE049F6BC106F
:10267000C0F6000040F21011C2F2000191F84310C0
:1026800006F028FE0420C8F8000040F65D70C2F293
:102690000000007840F65C71C2F200010870D8F8C2
:1026A0000000032805D140F65C70C2F200006221F0
:1026B000017002B0BDE8F08753297FF45DAE40F6AB
:1026C0005E7440F65F75C2F20004C2F20005217824
:1026D0002A7849F68210C0F6000006F0FBFD0520BE
:1026E000C8F80000207840F65C71C2F20001087062
:1026F000287840F65D71C2F20001CFE746297FF4E9
:1027000040AE462F7FF43DAE49F2946456A0C0F22D
:10271000980407F049F801F0F5F901F025FA0520D1
:10272000C8F8000040F65D70C2F20000007840F684
:102730005C71C2F200010870013C00BFFCD14EF692
:102740000C50CEF20000BFF34F8F0168042201F459
:10275000E061C0F2FA5211430160BFF34F8F00BF36
:10276000FEE746297FF412AE4D2F7FF40FAE49F2FB
:1027700094643AA0C0F2980407F016F8013C00BF38
:10278000FCD140F21010C2F2000040F20111A0F89A
:10279000FE1040F21021C2F200010122C1E9FE2226
:1027A000642280F8F020C1F8C02301F0ABF901F0F9
:1027B00019FB01F07BF940F65C70C2F20000632166
:1027C000017040F65D70C2F20000017067E74F2AA9
:1027D0007FF4E1AD46297FF4DEAD40F61870C2F219
:1027E000000000210160012002F002FC57E700BF59
:1027F00050433A2025732025640D0A004552524F5C
:10280000522050415353434F4445210D00000000D6
:102810004552524F522E2053594E54415820415444
:102820002B4454444C4D533D2249502C504F52544C
:10283000220D000041542B4D49504F50454E3D3123
:102840002C25732C222573222C25732C300D0A0085
:10285000434F4E4E4543540D0000000041542B4D54
:10286000465732204F4B0D00464143544F5259209A
:10287000524553455420495320574F524B494E47D8
:102880000D000000B0B549F6CA0041F2000444F65C
:102890004A35C0F60000C4F20104C0F24C0506F04F
:1028A00053FC20464FF4004101F0E2FC284600BFF3
:1028B000013800BFFCD120464FF4004101F0DAFCA2
:1028C000013D00BFFCD149F294640FA0C0F298040E
:1028D00006F03AFC204600BF013800BFFCD114A02E
:1028E00006F032FC204600BF013800BFFCD116A024
:1028F00006F02AFC013C00BFFCD140F61660C2F293
:10290000000001210170B0BD41542B47545359536D
:10291000434D443D226E76207365742057414E50DE
:10292000696E6746696C7465723D31220D0A00005C
:1029300041542B4754535953434D443D226E762006
:1029400073617665220D0A0041542B47544C414E69
:10295000454E41424C453D310D0A00002DE9F047FE
:1029600040F22008C2F200084FF0FF30C8F8000023
:1029700040F20400C2F20000D0F8009042F2D46CA1
:1029800040F2BC0E0021C2F2000CC2F2000E002484
:102990004FF0000A05E0C819C11C00BF01314945CC
:1029A00036DA1CF801003A28F8D101EB0C0616F8CB
:1029B000010C5028F2D116F8020C4928EED116F875
:1029C000030C4C28EAD1002703E000BF01370E2F8B
:1029D000E1D0F3192246CC195879E51C2C282C4655
:1029E00009D02C463AB9BAF1000F2C4603D1DA7857
:1029F00000240EF807202C28E8D11879222808BFD7
:102A0000BAF1000FE2D1D878AA460EF80700DDE748
:102A100042F2D060C2F200000021016042F2D460B4
:102A2000C2F2000040F63401FDF7B7FB49F29460B2
:102A3000C0F29800013800BFFCD140F2BC04C2F2E1
:102A4000000443F25071C2F2000120460F22FDF74C
:102A5000C4FB40F2D00540F61876C2F20005C2F27F
:102A6000000601212860316068B140F2BC0043F2E9
:102A70006071C2F20000C2F200010F22FDF7ADFB4F
:102A8000286002203060286868B140F2BC0043F240
:102A90007071C2F20000C2F200010F22FDF79DFB2F
:102AA000286003203060286844F64A31002840F648
:102AB0005C70C0F24C01C2F200004FF0000210D076
:102AC00032604FF0FF32C8F800200322027000BFCE
:102AD000013900BFFCD140F65D71C2F200010978F6
:102AE00006E0C8F8002000BF013900BFFCD1232157
:102AF000017040F21011C2F2000191F84C102A68E6
:102B000081F0010340F638701343C2F200004FF029
:102B10000003037003D00131C9B2012901D801219A
:102B2000017094E80B00D4F80B7041F27016C2F2F9
:102B30000006C6F80B700BC602A0214606F0CAFBC1
:102B4000BDE8F087657874726163746E756D2043BB
:102B5000616C6C65726E756D2025732025640D0A9D
:102B6000000000002DE9F04F87B041F20000C4F2F0
:102B700001004FF4005101F07BFB40F66074C2F29B
:102B800000042046FF21FDF708FB0FF2044006F089
:102B90000BFE40F20407C2F20007386842F2D46527
:102BA0000021C2F200050022002302E0013181422F
:102BB00019DA6E5C432E10D14E1975784D2D08D15F
:102BC000B578542D05D1F6788D1D3A2E04BF2946CF
:102BD0002B4642F2D465C2F20005002BE6D06E5CB3
:102BE000AE540132E2E740F61566C2F2000600215B
:102BF00040F65C723170C2F20002117840F618782B
:102C00002E29C2F2000803D011782F2940F07E80CF
:102C100041F260010027C2F2000100BFEA5D412AD3
:102C200026D17A195378542B22D193782B2B1FD18C
:102C3000D3784D2B1CD11279462A19D100233A465C
:102C400005E000BF0132632B03F1010317DAAE5C2C
:102C50000A2ECE54F6D1154415F8015C0D2D42F222
:102C6000D465C2F2000504BFCE546433EAE700BF66
:102C70003A46002737B9571C8742CFDB02E00532BE
:102C8000002FF8D049F6CA1041F260014CF2BC3571
:102C9000C0F60000C2F20001C0F2C91506F01AFB2E
:102CA00004F14900B621FDF778FA49F64041C0F633
:102CB000000120464922FDF757FA02F03BFE00BF13
:102CC000013D00BFFCD14EF2DE10C0F2E40000BFB7
:102CD000013800BFFCD140F6607041F2600144F65B
:102CE0004A34C2F20000C2F20001FF22C0F24C04DA
:102CF000FDF73AFA013C00BFFCD10120C8F8000002
:102D0000012002F075F907B0BDE8F08F0FF28C20BA
:102D100006F04AFD3F6841F29C13B81E96F8008009
:102D200041F2601EC2F2000300240590C2F2000EC0
:102D3000002000224FF000091C700690A85C2B2890
:102D400030D1A818BC469B460230511C00270023F6
:102D500005E000BF01330E2B06F1010126D00E461F
:102D6000C15CD5183C462C29AA462F460ED0AA464F
:102D70002F465CB9B9F1000FAA462F4606D1C718F5
:102D800017F8027C92460EF8037000272C2908BF22
:102D9000B9F1000FDED1C11811F8021CA9460EF8D6
:102DA0000310D7E74FF0000A1CE000BFD01842F232
:102DB000D465821D6746C2F200055B460024944537
:102DC000C8BF6246A81980790A2805D0B01D01360F
:102DD000B842F7DB02E000BFF21D924640F61566EE
:102DE000C2F2000640F62070C2F20000BAF1000FF5
:102DF0000460446000F0DC8040F6607C4FF0000B23
:102E0000C2F2000C0BE000BF8CF800E04FF0000BAA
:102E10000598013282420CF1010C80F2C98015F84C
:102E200002E0AEF10A004A2800F26180DFE810F00B
:102E3000C0005F005F0076005F005F005F005F0022
:102E40005F005F005F005F005F005F005F005F008A
:102E50005F005F005F005F005F005F005F00A70032
:102E600056005F005F005F005F005F005F005F0073
:102E70005F005F005F005F005F005F005F005F005A
:102E80005F005F005F005F005F005F005F005F004A
:102E90005F005F005F005F005F005F005F004B004E
:102EA0005F005F005F005F004B005F005F005F003E
:102EB0005F005F005F004B005F004B005F005F0042
:102EC0005F005F004B0008F10108BEF1210F86F89A
:102ED000008000F05480BEF1220F08D10698BEF1A8
:102EE000210F00F101000690187000F04880BBF13E
:102EF000000F3FF489AFABF10200072808D840F675
:102F00002071C2F2000101F800E00BF1010B7FE734
:102F1000BBF1010F08BF4FF0020B79E7A918497800
:102F20000A2900F045804A28E1D8DFE800F0412F67
:102F30002F2F2F2F2F2F2F2F2F2F2F2F2F2F2F2FA1
:102F40002F2F2F2F2F28272F2F2F2F2F2F2F2F2FA0
:102F50002F2F2F2F2F2F2F2F2F2F2F2F2F2F2F2F81
:102F60002F2F2F2F2F262F2F2F2F262F2F2F2F2F83
:102F70002F262F262F2F2F2F2600A4E7AEE7069807
:102F800010F0FD0F08BF0BF1010BB0E7AFE700BF7A
:102F900046494C544552434D540D0000696E20453E
:102FA0006C736520534634362D34370D0000000015
:102FB00041F2601EBAF1000FC2F2000E03D10132DD
:102FC000BA42FFF6BBAE40F26800C2F200000A212E
:102FD0000160002030709EE80D0041F27011DEF8B3
:102FE0000B60C2F2000149F2946781E80D000FF610
:102FF0004820C0F29807C1F80B6006F06BF90FF695
:10300000542006F0A1F83846013800BFFCD142F246
:10301000D06942F2D46044F24224C2F20009002591
:10302000C2F200004FF4FA71C0F20F04C9F8005068
:10303000FDF7B3F840F26C01C2F200014FF0FF302F
:10304000086040F6187641F2601043F25071C2F207
:103050000006C2F20000C2F200013560FDF7AFF8D1
:1030600040F2D005C2F200052860B0FA80F04009B5
:1030700030602046013800BFFCD1306878B941F299
:10308000601043F26071C2F20000C2F20001FDF76D
:1030900096F8B0FA80F1490928604800306020466F
:1030A000013800BFFCD1306880B941F2601043F2B2
:1030B0007071C2F20000C2F20001FDF780F8002139
:1030C0002860002808BF0321316000BF013C00BF19
:1030D000FCD140F2101AC2F2000A9AF84C10326881
:1030E0004B1EB3FA83F340F63870002A18BF012252
:1030F0005B09C2F200001A424FF00002027003D1D5
:103100000131C9B2012901D80121017000780028DC
:1031100056D040F6207640F62874C2F20006C2F27D
:1031200000043046214608224FF0080BFDF755F801
:1031300041F25068CDE900B440F66074C2F2000874
:1031400041F26011C2F200040546C8F800000FF613
:103150001410C2F2000122463346029506F0BAF876
:10316000D8F80000002863D04EF2DE152046C0F2E9
:10317000E405FDF71DF844F20A52C5F25222211867
:10318000225045F24F20C4F22030486044F24F40B4
:10319000C2F2451088600020087302F0CBFB40F6B5
:1031A0005C71C2F2000100BF013D00BFFCD140F6DE
:1031B0005D70C2F200000078087007B0BDE8F08FC3
:1031C00040F6607549F2EC7041F2601141F2701204
:1031D000C2F200054EF2DE14C0F60000C2F2000199
:1031E000C2F200022B46C0F2E40406F073F828464F
:1031F000FCF7DEFF44F20A52C5F2522229182A5087
:1032000045F24F20C0F22100486002F093FB00BF5E
:10321000013C00BFFCD140F65D70C2F200000078B6
:1032200040F65C71C2F20001087007B0BDE8F08F93
:1032300004F0CAFB40F26C0840F65C766428C2F2E7
:103240000008C2F20006C8F8000000F28E83DFE832
:1032500010F065007A00A000C400E400F9008C03BF
:103260008C031C018D018C038C03AA01C501EC01A8
:1032700015023E0264028A02A502BA020F038C0301
:10328000640396038C038C038C038C038C038C03E4
:103290008C038C038C038C038C038C038C038C03B6
:1032A0008C038C038C038C038C038C038C038C03A6
:1032B0008C038C038C038C038C038C038C038C0396
:1032C0008C038C038C038C038C038C038C038C0386
:1032D0008C038C038C038C038C038C038C038C0376
:1032E0008C038C038C038C038C038C038C038C0366
:1032F0008C038C038C038C038C038C038C038C0356
:103300008C038C038C038C038C038C038C038C0345
:103310008C038C038C038C038C03B80340F6607021
:1033200040F6B0614EF2DE14C2F20000C2F20001BB
:10333000FF22C0F2E404FCF717FF02F0FBFA013CA5
:1033400000BFFCD103E340F66074C2F200044EF209
:10335000DE152046FF21C0F2E405FCF71EFF43F214
:10336000707749F6BB3143F2507243F26073C2F298
:103370000007C0F60001C2F20002C2F200032046BC
:10338000009705F0B7FF02F0D5FA013D00BFFCD170
:10339000DDE240F66074C2F200044EF2DE15204613
:1033A000FF21C0F2E405FCF7F8FE9AF8417049F6F7
:1033B000493140F2800240F2A403C0F60001C2F29B
:1033C0000002C2F200032046009705F093FF02F0CE
:1033D000B1FA013D00BFFCD1B9E24EF2DE1504F1B5
:1033E0000A00F521C0F2E405FCF7D7FE4720208152
:1033F00045F24F4044F25251C4F64960C4F642715E
:10340000C4E9001002F096FA013D00BFFCD1622031
:103410003070013F00BFFCD19FE240F6607040F683
:10342000B0614EF2DE14C2F20000C2F20001FF22CF
:10343000C0F2E404FCF798FE02F07CFA013C00BF05
:10344000FCD184E24EF2DE14C0F2E404FCF7F6FF95
:1034500043F2707740F6607049F6BB3143F2507228
:1034600043F26073C2F20007C2F20000C0F600012E
:10347000C2F20002C2F20003009705F03BFF02F027
:1034800059FA013C00BFFCD161E24EF2DE15C0F2F8
:10349000E405FCF7D3FF40F66074C2F20004204656
:1034A000FF21FCF77AFE9AF8417049F6493140F263
:1034B000800240F2A403C0F60001C2F20002C2F290
:1034C00000032046009705F015FF02F033FA284666
:1034D000013800BFFCD144F64A30C0F24C0001383C
:1034E00000BFFCD141F2A014C2F2000449F68D01E4
:1034F00040F28002C0F60001C2F20002204605F050
:10350000F9FE204605F020FE013D00BFFCD141F24E
:10351000A010C2F200004FF49661FCF73EFE41F2AB
:103520006460C2F2000040F63401FCF736FE42F25D
:10353000D460C2F2000040F63401FCF72EFE41F6E2
:103540009860C2F2000040F63401FCF726FE40F617
:103550005D72C2F2000242F2CC6112780020C2F227
:103560000001C9F8000008603270F6E14EF2DE1585
:10357000C0F2E405FCF762FF40F66074C2F200049A
:103580002046FF21FCF709FE40F628720FF2105189
:10359000C2F20002204605F0ADFE02F0CBF9013D7B
:1035A00000BFFCD1D3E140F66074C2F200044EF2D9
:1035B000DE152046FF21C0F2E405FCF7EEFD40F2E7
:1035C00008020FF2D041C2F20002204605F092FE3E
:1035D00002F0B0F9013D00BFFCD1B8E104F11000E8
:1035E000EF21FCF7DAFD44F6207045F2453144F254
:1035F0004F6245F24143C0F24B00C5F24541C5F26E
:103600005422C5F22B33C4E90032C4E9021002F09F
:1036100091F9013F00BFFCD144F64A30C0F24C00A2
:10362000013800BFFCD1622096E10720FDF798FE2B
:1036300040F66074C2F200042046FF21FCF7ADFDA5
:1036400040F2F800C2F20000026840F6AC60C2F23C
:103650000000036849F64511C0F60001204605F058
:1036600049FE02F067F9013F00BFFCD144F64A3041
:10367000C0F24C00013800BFFCD168E10820FDF722
:103680006FFE40F66074C2F200042046FF21FCF792
:1036900084FD40F2F400C2F20000026840F6A86027
:1036A000C2F20000036849F63111C0F6000120465D
:1036B00005F020FE02F03EF9013F00BFFCD144F6C8
:1036C0004A30C0F24C00013800BFFCD13FE140F667
:1036D0006074C2F200042046FF21FCF75EFD40F258
:1036E000F800C2F20000026840F6AC60C2F20000CE
:1036F000036849F64511C0F60001204605F0FAFDC1
:1037000002F018F9013F00BFFCD144F64A30C0F284
:103710004C00013800BFFCD119E140F66074C2F2E0
:1037200000042046FF21FCF738FD40F2F400C2F20D
:103730000000026840F6A860C2F20000036849F683
:103740003111C0F60001204605F0D4FD02F0F2F878
:10375000013F00BFFCD144F64A30C0F24C000138B2
:1037600000BFFCD1F3E040F66074C2F200044EF2F8
:10377000DE152046FF21C0F2E405FCF70EFD40F601
:103780001470C2F200000268BFA1204605F0B2FD2D
:1037900002F0D0F8013D00BFFCD1D8E040F66070E7
:1037A0004EF2DE14C2F20000C0F2E40405F0CCFCDC
:1037B00049F60220C0F6000005F0C6FC013C00BF3F
:1037C000FCD12920C8E041F260004CF2BC35C2F2C5
:1037D00000002146FF22C0F2C915FCF7C5FC04F128
:1037E0003800C721FCF7D9FC49F68C40C0F6000030
:1037F000016800F1100E0591C16A071D0691016B69
:103800009EE840500491059900F11C0B8CCF9BE879
:10381000000F84E88E0004F1100181E8405004F1AB
:103820001C0181E8000F0699406BE1620499C4E92C
:103830000C1002F07FF8013D00BFFCD142F6285089
:10384000C0F23110013800BFFCD140F6607041F287
:103850006001C2F20000C2F20001FF22FCF784FC0A
:10386000032001F0C5FB40F65C76C2F200064FE093
:1038700004F13400CB21FCF790FC49F61C50C0F653
:103880000000016800F1200B0591C16A071D069137
:1038900005999BE8000B8CCF84E88E0004F1200191
:1038A000D0E90465D0E906CE006B81E8000B0699EB
:1038B000C4E90465C4E906CEC4E90B1002F03AF885
:1038C00047F67200C0F27D10013800BFFCD140F213
:1038D0000110AAF8FE0040F21020C2F200000121FF
:1038E000C0E9FE1164218AF8F010C0F8C01300F09E
:1038F00009F900F077FA00F0D9F840F65C7640F666
:103900005D716320C2F20006C2F2000130700870DF
:1039100040F26C08C2F200081FE040F66074C2F288
:1039200000044EF2DE152046FF21C0F2E405FCF74C
:1039300034FC9AF84C2049F65A31C0F60001204672
:1039400005F0D8FC01F0F6FF013D00BFFCD140F6C8
:103950005D70C2F2000000783070D8F8001049F6AF
:103960005910C0F6000005F0B5FCD8F80000032897
:103970007FF45BAC6220307007B0BDE8F08F41F29D
:10398000600440F66075C2F20004C2F200052046F1
:103990002946FF22FCF7E8FB2846FF21FCF7FDFB48
:1039A00049F66921C0F600012846224605F0A2FC2E
:1039B00040F61870C2F20000006880B101F056FFB6
:1039C0000FE040F66070C2F2000005F0BDFB49F662
:1039D0000220C0F6000005F0B7FB1A20BCE701F09A
:1039E000A9FF4EF2DE10C0F2E400013800BFFCD1A6
:1039F00040F66074C2F2000441F26001C2F20001BC
:103A00002046FF22FCF7B0FBFCF718FD2046FF2103
:103A1000FCF7C3FB42F2D460C2F2000040F634016E
:103A2000FCF7BBFB40F65D71C2F200010978002093
:103A3000C9F80000317090E741542B434D47443D95
:103A4000312C340D0A736D736E756D312025730D35
:103A50000A00000041542B434D47443D312C340DA6
:103A60000A0000000D0A736D736E756D0D0A2573E3
:103A70000D0A736D730D0A257320257320256420AC
:103A800025732025640D0A0041542B4D474E4554A3
:103A90003D25640041542B4D5645523D2573000091
:103AA00041542B4D50433D257300000080B540F23A
:103AB0001C01C2F200010A6840F2000E40F63C7C94
:103AC000C0F6020EC2F2000C002ACCF800E008BFDB
:103AD00080BD40F21011C2F200014B1E40F21021D5
:103AE000C2F20001043900BF5EF8040BFF2841F860
:103AF000040F28BFFF20013A03F8010FF4D1CCF8DE
:103B000000E080BD70B500F0FFF940F2053000F034
:103B100057F84FF4417000F053F840F2023000F0D3
:103B20004FF840F21805C2F200052868C8B1002419
:103B30000026C0F6020400BF204600F067F840F2FD
:103B4000053000F03DF84FF4417000F039F840F2D4
:103B5000023000F035F828680136864204F58064AA
:103B6000EAD300F03DF870BD80B540F21C00C2F20F
:103B700000000068002240F63C71C0F60202C2F26A
:103B8000000100280A6008BF80BD043252F8043CDE
:103B9000013305D10A60013802F10402F6D180BD7B
:103BA00040F29C00C2F200000121016041F20000DD
:103BB000C4F201004FF4804100F05CFB80BD0000C6
:103BC00042F2000300F01F018009C4F202034FF02B
:103BD000010CC2580CFA01F11143C15070470000AA
:103BE00042F21000C4F20200016841F0800101605D
:103BF0004FF2E071C1F6FF710988B1F5007F98BFFF
:103C00007047016C41F080010164704780B54FF24C
:103C1000E071C1F6FF7109888446B1F5007F70D963
:103C20004FF6FF700121C0F60700CFF2010142F20A
:103C30000C02C4F202024FF0020E0B4684451BD266
:103C40001068C0070AD11068C0065ABF10680EEA93
:103C500050000320012804D007E000BF0120012804
:103C600003D1002B03F10103EAD1012808BF04208E
:103C7000002800F0958080BD106CC0070AD1106C40
:103C8000C0065ABF106C0EEA50000320012804D071
:103C900007E000BF0120012803D1002B03F101033D
:103CA000EAD1012808BF04200028E4D1506C022387
:103CB00040F002005064C2F848C01069800748BF55
:103CC000C2F808C0506C40F040005064106CC0074F
:103CD0000AD1106CC0065ABF106C03EA50000320D2
:103CE000012804D007E000BF0120012803D10029EA
:103CF00001F10101EAD1012808BF042002F14401C9
:103D000049E00121CFF2010142F20C02C4F20202A9
:103D10004FF0020E0B4600BF1068C0070AD11068B2
:103D2000C0065ABF10680EEA50000320012804D0D4
:103D300007E000BF0120012803D1002B03F101039C
:103D4000EAD1012808BF0420002818BF80BD5068B0
:103D5000022340F002005060C2F808C0506840F0F2
:103D6000400050601068C0070AD11068C0065ABFF2
:103D7000106803EA50000320012804D007E000BFC8
:103D80000120012803D1002901F10101EAD1111D0F
:103D9000012808BF04200A6822F002020A6080BDE0
:103DA0005068022340F002005060C2F808C050681A
:103DB00040F04000506000BF1068C0070AD1106892
:103DC000C0065ABF106803EA50000320012804D03F
:103DD000DDE700BF01200128D9D1002901F101014F
:103DE000EAD1D4E72DE9F04100F08EF840F2102836
:103DF00040F21011C2F20008C2F20001A8F1040062
:103E000001394FF4806200BF11F8013F013A40F8D8
:103E1000043FF9D10020C0F6020040F2AC0540F2A8
:103E20007006C2F20005C2F200062121002700F54B
:103E300080642860316000BF58F82710316000F0BE
:103E40008BF8286801370430B7F5807F88BFFF27DB
:103E5000286040F20530FFF7B3FE4FF44170FFF7E2
:103E6000AFFE40F20230FFF7ABFE2868A042E3D37A
:103E7000FFF7B6FEBDE8F0812DE9F04100F044F80F
:103E800040F2102840F21011C2F20008C2F2000104
:103E9000A8F104000139632211F8013F013A40F80A
:103EA000043FF9D10020C0F6020040F2AC0540F218
:103EB0007006C2F20005C2F200062121002700F5BB
:103EC00080642860316000BF58F82710316000F02E
:103ED00043F8286801370430B7F5807F88BFFF2793
:103EE000286040F20530FFF76BFE4FF44170FFF79A
:103EF00067FE40F20230FFF763FE2868A042E3D37A
:103F0000FFF76EFEBDE8F08142F20400C4F2020049
:103F1000C168090609D540F22311C4F26751016056
:103F200048F6AB11CCF6EF5101604FF2E071C1F6EB
:103F3000FF710988B1F5007F0DD9C16C090658BF22
:103F4000704740F22311C4F26751016448F6AB1187
:103F5000CCF6EF510164704710B54FF2E072C1F634
:103F6000FF7212888446B2F5007F68D901224FF6AD
:103F7000FF70CFF20102C0F6070042F20C03844545
:103F8000C4F202034FF0020E14461BD21868C00799
:103F90000AD11868C0065ABF18680EEA50000320FC
:103FA000012804D007E000BF0120012803D1002C24
:103FB00004F10104EAD1012808BF0420002800F020
:103FC000898010BD186CC0070AD1186CC0065ABF92
:103FD000186C0EEA50000320012804D007E000BF4F
:103FE0000120012803D1002C04F10104EAD10128A9
:103FF00008BF04200028E4D1586C40F00100586448
:10400000CCF80010022100BF186CC0070AD1186C50
:10401000C0065ABF186C01EA50000320012804D0E2
:1040200007E000BF0120012803D1002A02F10102AC
:10403000EAD1012808BF042003F1440145E001232F
:10404000CFF2010342F20C02C4F202024FF0020E60
:104050001C4600BF1068C0070AD11068C0065ABFCE
:1040600010680EEA50000320012804D007E000BFCA
:104070000120012803D1002C04F10104EAD1012818
:1040800008BF0420002818BF10BD506840F0010090
:104090005060CCF8001002211068C0070AD11068E7
:1040A000C0065ABF106801EA50000320012804D05E
:1040B00007E000BF0120012803D1002B03F1010319
:1040C000EAD1111D012808BF04200A6822F001026C
:1040D0000A6010BD586840F001005860CCF800102C
:1040E000022100BF1868C0070AD11868C0065ABF6D
:1040F000186801EA50000320012804D007E000BF3F
:104100000120012803D1002A02F10102EAD101288D
:1041100008BF0420191DD8E7F0B581B040F2900027
:10412000C2F2000001210160FFF7EEFE40F205300F
:10413000FFF746FD4FF44170FFF742FD40F20230B9
:10414000FFF73EFD40F21804C2F200042068D8B127
:1041500040F278060025C2F20006002730682844A5
:10416000FFF754FD40F20530FFF72AFD4FF4417090
:10417000FFF726FD40F20230FFF722FD20680137ED
:10418000874205F58065E9D3FFF72AFD01B0F0BD50
:104190002DE9F04387B040F2106940F27808C2F28E
:1041A0000009C2F20008D9F80000D9F8D037D8F8D1
:1041B0000020D9F800140026CDE9000604931CA0C5
:1041C0000023CDE90216059605F084F8FFF79CFE62
:1041D000D8F8000040F2AC04C2F2000440F27007CC
:1041E00040F274052060C2F200072120C2F20005EF
:1041F000386000BF2068296888420BD259F8261021
:104200003960FFF7A9FE206801360430B6F5006F6B
:104210002060EFD1D8F800104FF40060386001F54D
:104220000060C8F80000FFF7DBFC07B0BDE8F083D2
:10423000464F5441464D4350524F47202530386A2F
:1042400078202530386A78202530386A7820253063
:10425000386A780D0A00000010B50446C1B243F672
:104260000000C4F2010004F0C1FF204610BD0000B0
:1042700041617047016170472DE9F047CF0601F0B9
:104280000F0C09D5042A05D1C26B4CF0030C1A435C
:10429000C26301E04CEA020C00F1100E00F1140AB6
:1042A00000244FF001094FF00F0800270EE000BF77
:1042B000166008FA04F225EA02020CFA04F52A4311
:1042C00002600137082F04F104040CD009FA07F248
:1042D00012EA0306F5D0056828295246E8D0482995
:1042E000E7D17246E4E7082400254FF001094FF0BA
:1042F0000F080FE0176008FA05F226EA02020CFA2E
:1043000005F6324342600134102C05F1040508BF64
:10431000BDE8F08709FA04F212EA0307F3D0466811
:1043200028295246E6D04829E5D17246E2E7000046
:104330008068084018BF0120704700002DE9F04F49
:1043400081B040F69861C2F200010220087040F28C
:10435000F000C2F200004FF0000BC0F800B040F6D1
:10436000A460C2F20000C0F800B040F62060C2F2C3
:1043700000004FF0FF31016040F65870C2F20000BB
:10438000C0F800B040F2B000C2F2000041F20008F4
:1043900040F20009C0F800B040F20460C4F2010825
:1043A000C0F6020901F032FA40464FF46041FFF7CF
:1043B0005FFF4046102103224FF46043FFF75CFF8C
:1043C00040F63C7640F2101A40F65C75C2F20006E8
:1043D000C2F2000AC2F2000540464FF46041FFF706
:1043E00049FF40F2026001F011FA40F2036001F06F
:1043F0000DFA40F62460C2F2000080F800B040F2EE
:10440000D400C2F20000C0F800B040F61660C2F25C
:10441000000080F800B040F2A000C2F20000C0F836
:1044200000B040F61C70C2F2000080F800B040F608
:104430001D70C2F2000080F800B040F29C00C2F291
:104440000000C0F800B040F61470C2F20000C0F8DE
:1044500000B040F21C00C2F20000006840F2DC0133
:10446000FF24C2F20001C1F800B0C6F8009098B174
:1044700040F21022C2F20002AAF10101043A4B46B6
:1044800053F8047BFF2F42F8047F28BF27460138EA
:1044900001F8017FF4D1336040F21020C2F2000035
:1044A000D0F8F80301283FD0FFF72CFB40F21C00A6
:1044B000C2F200000068C6F80090C0B10421C0F646
:1044C000020100BF51F8042C013205D131600138DE
:1044D00001F10401F6D10AE040F29C00C2F20000B2
:1044E0000121016040464FF48041FFF7C3FE40F2D6
:1044F0001C00C2F200000068FF24C6F8009098B1CA
:1045000040F21022C2F20002AAF10101043A4B4625
:1045100053F8047BFF2F42F8047F28BF2746013859
:1045200001F8017FF4D133609AF8F000642817D1C4
:104530000420CFF6FF7059F8000040F29401C2F257
:104540000001086040F29801C2F2000108600020FA
:10455000CFF6FF7059F8000080F30888086880479C
:104560009AF8000040F28007FF28C2F200071DD031
:104570009AF80110FF2919D09AF80220FF2A15D0C5
:10458000A0B199B192B14FF0FF3000BF0AEB00012A
:1045900049783B18A1F130024B2A00F1010028BFF5
:1045A00059460E285970F1D110E000BF43F24D205A
:1045B000C5F24D00386044F64C60C4F64150786056
:1045C00052203872C7F809B0A7F80DB09AF80F005A
:1045D0000130C0B202280BD240F2A40043F23101F4
:1045E000C2F20000C3F23001016080F804B009E0BB
:1045F0009AF81300DAF80F1040F2A402C2F2000297
:10460000107111609AF84100411CC9B201290FD8FC
:1046100040F2B400C2F2000080F800B040F2F800AE
:10462000C2F20000C0F800B08AF841B00AE000BF52
:1046300040F2B401C2F20001087040F2F801C2F287
:10464000000108609AF814000130C0B2022813D3A8
:104650009AF81900FF280FD070B1DAE90501DAF8ED
:104660001F2043F25077C2F20007DAF81C30C7F877
:104670000B200BC715E000BF43F25070C2F20000E0
:104680003221017343F22B61C3F63201016043F220
:104690003561C3F23811416043F23311C3F238413E
:1046A00081609AF823000130C0B2022814D39AF82E
:1046B0002800FF2810D078B1DAF82300DAF82E208D
:1046C00043F26077C2F20007DAF82710DAF82B30ED
:1046D000C7F80B200BC715E043F26071C2F200016E
:1046E00043F63910888143F22B60C3F6320008602C
:1046F00043F23230C3F23100486043F63210C3F265
:10470000331088609AF832000130C0B2022815D305
:104710009AF83700FF2811D080B1DAF83200DAF8C1
:104720003D2043F27077C2F20007DAF83610DAF86B
:104730003A30C7F80B200BC715E000BF43F2707189
:104740003220C2F20001888143F22B60C3F63200AE
:10475000086043F23110C3F23230486043F2343023
:10476000C3F2317088609AF843000130C1B2052964
:1047700008D849F2CC7140B2C0F6000151F82000CF
:1047800002E000BF4FF4165040F2B801C2F200013F
:10479000086044F64A30C0F24C0000BF013800BF48
:1047A000FCD19AF844000130C0B202280AD240F687
:1047B000287044F24541C2F20000C4F64D11C0E930
:1047C000001107E0DAE9110140F62872C2F2000296
:1047D000C2E900019AF84200411CC9B2012909D876
:1047E00040F2F400C2F20000C0F800B08AF842B013
:1047F00005E000BF40F2F401C2F200010860FDF7DD
:10480000D3FB40F2B800C2F20000006804F0AEFC36
:1048100047F2EF00C0F27200013800BFFCD1A8F5EA
:1048200080663046042103220123FFF725FD304630
:10483000102103220223FFF71FFD30460221FFF75C
:1048400019FD4FF2E400C0F2FA2000BF013800BFAA
:10485000FCD130460221FFF70BFD03F029FB47F6A0
:104860007200C0F27D1000BF013800BFFCD108F516
:10487000E0500021C82203F0F7FA40464FF40051FF
:1048800085F800B0FFF7F4FC40F29C00C2F2000093
:10489000C0F800B040464FF48041FFF7E9FC4046C5
:1048A0004FF40041FFF7E4FC40F208010FF21070F2
:1048B000C2F2000104F00EFD4CF29030C0F6EB3075
:1048C000013800BFFCD140F2E000C2F2000080F8E5
:1048D00000B040F6B060C2F200006421FBF75DFC5E
:1048E00040F29C00C2F200000121016040464FF4FA
:1048F0000051FFF7BFFC00BF30460121FFF718FD54
:1049000040F61C71C2F20001002818BF0120087097
:1049100029782878002937D001382D2800F2E6823E
:10492000DFE810F02E00760079007C007F00E402C2
:1049300092009500E402E402E402E402E402A00032
:10494000E402A300E402AC00D000FC00FF0002017E
:104950001D01200137013A014C014F015201E402CF
:10496000E402E402E402700173017C018401BE01EF
:10497000E402E40210022C02E4024C024F0298020C
:1049800001F03CF8B2E200BF612800F0C382287851
:10499000622800F0BF822878632800F0BB8240F2D2
:1049A000D402C2F200022878116840F65D73C2F2A8
:1049B00000031870481C3629106020DB0FF22860B5
:1049C00004F0C2FB49F29460C0F29800013800BFC5
:1049D000FCD140F2D400C2F20000C0F800B040F2B6
:1049E0009C00C2F20000C0F800B040464FF4804185
:1049F000FFF73EFC40464FF40041FFF739FC44F618
:104A00004A30C0F24C0000BF013800BFFCD173E750
:104A100001F0E0F96AE202F095F867E202F026FBA5
:104A200064E240F29C010020C2F2000108604046AE
:104A30004FF48041FFF71CFC40464FF40041FFF764
:104A400017FCFDF78BFF51E202F04CFF4EE244F6FB
:104A50004A30C0F24C0000BF013800BFFCD1FDF766
:104A60005DFB43E201F096F840E242F62850C0F2C6
:104A7000311000BF013800BFFCD1F6E141F25060B7
:104A8000C2F2000001680429C7BF0120287001316B
:104A9000016040464FF40041FFF7EAFB44F64A301C
:104AA000C0F24C00013800BFFCD140464FF4004139
:104AB000FFF7E0FB44F64A30C0F24C00013800BF7B
:104AC000FCD113E240464FF40041FFF7D1FB44F61E
:104AD0004A30C0F24C0000BF013800BFFCD1404654
:104AE0004FF40041FFF7C6FB44F64A30C0F24C00D9
:104AF000013800BFFCD140F29C010120C2F200014C
:104B0000086040464FF48041FFF7B4FB49F29460DF
:104B1000C0F29800013800BFFCD1E7E101F0D0FA03
:104B2000E4E101F087FCE1E12878162805D149F697
:104B30002610C0F6000004F007FB4EF2DE10C0F2B3
:104B4000E40000BF013800BFFCD140F65D70C2F246
:104B50000000007802288CBF192017209EE001F089
:104B6000F5FCC3E140F2E80740F29C02C2F2000704
:104B7000C2F200023868116801300029386000F084
:104B80009D810020106040464FF48041FFF770FB8C
:104B90009BE101F06BFEA9E147F67200C0F27D10C7
:104BA000013800BFFCD100F0C5FE4EF2DE10C0F2AD
:104BB000E40000BF013800BFFCD16AE001F0CCFE88
:104BC00094E101F03BFF91E14EF2DE10C0F2E4000F
:104BD000013800BFFCD140F6607749F60020C2F2F0
:104BE0000007C0F60000394604F074FB3846FF2188
:104BF000FBF7D3FA44F64A30C0F24C00013800BF4C
:104C0000FCD146E002F0C6F970E149F29460C0F2CE
:104C1000980000BF013800BFFCD167E147F6720081
:104C2000C0F27D10013800BFFCD132E049F6CA0065
:104C3000C0F6000004F088FA4EF2DE10C0F2E40084
:104C4000013800BFFCD140F61870C2F2000001210B
:104C5000016049F6C440C0F60000D0E900C240F649
:104C60006071C2F20001D0E902370469C1E900C2F3
:104C7000828A807DC1E902370C618A82887500F0E2
:104C8000F5FD42F62850C0F2311000BF013800BFD8
:104C9000FCD140F65D70C2F200000078287025E17A
:104CA00049F6CA00C0F6000004F04EFA4EF2DE10DB
:104CB000C0F2E400013800BFFCD140F61870C2F227
:104CC00000000121016049F6DC40C0F600000168E7
:104CD000071D009100F1100ED0F81C9040F660788E
:104CE000D0E90810C2F20008C8E9081000989EE850
:104CF00010508CCF88E88D0008F1100080E810502B
:104D0000C8F81C9000F0B2FD49F29460C0F298001F
:104D1000013800BFFCD140F2B0010120C2F2000115
:104D2000086040F26C010D20C2F2000108606220B0
:104D300041F2000840F200092870C4F20108C0F6F0
:104D40000209D3E040F2B0010220C2F20001086083
:104D50004EF2DE10C0F2E400013800BFFCD140F298
:104D6000B0010220C2F200010860622040F26C0132
:104D700028700520C2F200010860B7E0287840F6EC
:104D80005D71C2F2000108704EF67E20013800BF4E
:104D9000FCD140F62461C2F200010878032867D3F1
:104DA00040F26C0262200121C2F200022870116000
:104DB00040F65D71C2F20001087097E002F008FB56
:104DC00094E040F6387240F2BC00C2F20002C2F237
:104DD000000000211278C0F80B10C0E900118160BA
:104DE00040F22000012AC2F2000044D144F64A31C8
:104DF000C0F24C01013900BFFCD14FF0FF3101601E
:104E000049F60450C0F6000090E88E00D0E9044C4A
:104E100040F66070C2F2000080E88E00C0E9044CE9
:104E200000F088FD4FF2E400C0F2FA20013800BF24
:104E3000FCD140F26C010320C2F200010860622044
:104E4000287044F64A30C0F24C0000BF013800BF61
:104E5000FCD119E05CA004F0A7FC40F6F060C0F2C1
:104E6000277000BF013800BFFCD1FDF77BFE3DE09D
:104E7000002008703AE040F65D72C2F2000212783B
:104E80004FF0FF3101602A7042F2D06040F204011D
:104E9000C2F200000022C2F200010968026042F280
:104EA000D460C2F20000FBF778F944F64A30C0F251
:104EB0004C0000BF013800BFFCD117E0012010609A
:104EC00040464FF48041FFF7D5F944F24220C0F24A
:104ED0000F0000BF013800BFFCD140F69861C2F25C
:104EE000000138680978884210DA00BF28782B283A
:104EF00008BF02F0E9F9287862280BD028786128E9
:104F000008D0287863287FF4F7AC03E06420386089
:104F10000E20C3E640464FF46041FFF7A9F942F680
:104F20002850C0F2311000BF013800BFFCD140F260
:104F30006C00C2F20000006840F63C760328C2F222
:104F400000060CD149F61910C0F6000004F0FCF878
:104F500048F21860C5F2A340013800BFFCD149F205
:104F60009460C0F2980000BF013800BFFCD140F24D
:104F70006C00C2F20000006803280ED02878612877
:104F800004D0287863287FF427AA06E046F6E800D4
:104F9000C1F6CD50013800BFFCD14EF60C50CEF218
:104FA0000000BFF34F8F0168042201F4E061C0F2FA
:104FB000FA5211430160BFF34F8F00BFFEE700BFFD
:104FC000474F2025730D0A00524543454956452059
:104FD000464F54412046524F4D2045434D20534F9C
:104FE0004654574152450D0041540D0A000000003F
:104FF0002DE9F04F81B08246032818DB42F2D060E1
:10500000C2F200000021016042F2D460C2F200004E
:1050100040F63401FBF7C1F840F6607041F26001E0
:10502000C2F20000C2F20001FF22FBF79DF840F639
:105030006076C2F20006707A22286CD140F27800C5
:105040000021C2F20000C0F60101016040F65C716F
:10505000C2F200012B20087040F62860C2F2000066
:105060003221FBF79AF843F23C7840F6407B40F25D
:10507000FC0941F2A010C2F200080024C2F2000BA9
:10508000C2F20009C2F200004FF49661C8E9004480
:10509000C8E90244C8F81040CBE90044CBE9024417
:1050A000CBF81040C9E90044C9E90244C9F81040EE
:1050B000FBF773F80A254FF0000C002100220023B3
:1050C00004E000BF642D05F1010535DA705D2C3870
:1050D000B0FA80F040090544775D222F2CD00444BB
:1050E000032CEFD8DFE804F0060F130209F8037071
:1050F0000133E7E740F62860C2F2000000F80C70C8
:105100000CF1010CDEE708F801700131DAE70BF869
:1051100002700132D6E7BAF1000F72D049F60520CD
:10512000C0F6000004F040FB49F29460C0F2980021
:10513000013800BFFCD17CE049F6B800C0F60000A1
:1051400004F002F846F65610C0F27840013800BF6D
:10515000FCD141F2A01540F65C79C2F2000545F69B
:105160003A2744F64A362B24C2F2000928464FF467
:105170009661C0F27377C0F24C0689F80040FBF7E5
:105180000CF840F6286243F23C7371A1C2F20002AF
:10519000C2F200032846CDF800B004F0ABF841F2AB
:1051A0005068BAF1000FC2F200084FD041F2A015CA
:1051B00049F60020C2F20005C0F60000294604F0BE
:1051C00089F8284603F0C0FF002089F80040C8F89D
:1051D000000000BF013F00BFFCD12B2089F8000078
:1051E00041F25460C2F20000002101605FA004F0AF
:1051F000DBFA3046013800BFFCD1BAF1030F40DAC8
:1052000061E040F6607049F69E2140F20802C2F269
:105210000000C0F60001C2F2000204F06BF800F0DA
:1052200089FB42F62850C0F2311000BF013800BFA0
:10523000FCD140F65D70C2F20000007840F65C716F
:10524000C2F20001087001B0BDE8F08F41F2A01079
:10525000C2F2000003F078FF002089F80040C8F88F
:10526000000000BF013F00BFFCD12B2089F80000E7
:1052700041F25460C2F2000000210160BAF1030F54
:1052800021DB40F66070C2F20000FF21FAF785FFD3
:1052900042F2D060C2F200000021016042F2D4600C
:1052A000C2F2000040F63401FAF777FF013E00BF7A
:1052B000FCD149F6002041F2A011C0F60000C2F274
:1052C000000104F007F841F2A0150020C2F2000529
:1052D00040F2FC02C8F8000028A1C2F200022846F1
:1052E00004F008F82B2089F80000284603F02CFF72
:1052F00049F26860C0F6BA20013800BFFCD1BAF1AB
:10530000000F09D049F6002042F2D461C0F6000037
:10531000C2F2000103F0DEFF40F22000C2F2000002
:105320000021016040F2CC00C2F20000016040F2B6
:105330006C00C2F20000082202602B2089F80000F5
:1053400041F25860C2F20000016001B0BDE8F08F88
:1053500041542B4654504F50454E3D222573222C2C
:10536000222573222C222573220D0A004D464F540C
:1053700041205354415254494E470D0041542B464D
:1053800054504745543D222573222C300D0A00000D
:105390004EF60C5CCEF2000CDCF8003003F4E06357
:1053A000B3F5E06F01D104232AE0DCF8003003F408
:1053B000E063B3F5C06F01D1032321E0DCF80030D6
:1053C00003F4E063B3F5A06F01D1022318E0DCF829
:1053D000003003F4E063B3F5806F01D101230FE0E7
:1053E000DCF8003003F4E063B3F5407F01D1002323
:1053F00006E040F20053C0F2FA53CCF8003002232A
:1054000001FA03FCC3F104030F21D94011404EF20D
:10541000001241EA0C01CEF20002090140EA020347
:1054200083F8001300F01F01012303FA01F11C238C
:1054300003EAD000815070472DE9F04F87B040F269
:105440009C01C2F200010A68054652B100200860C2
:1054500041F20000C4F201004FF48041FEF708FF62
:1054600009E00120086041F20000C4F201004FF49D
:105470008041FEF7FFFE41F2A014C2F20004204674
:105480004FF49661FAF789FE012D00F08080032D1C
:1054900000F09780022D40F0838042F2D46740F6FE
:1054A000106A40F210694FF00008C2F20007C2F221
:1054B000000AC2F200090025002009E0B0F5C86F1B
:1054C000C8BF40F20970B0F5E16F00F1010067DA82
:1054D000411FB1F5F77FF1D8002DEFD1395C52298A
:1054E00010D1C1194A78452A0CD18A78432A09D1AA
:1054F000CA78562A06D109793A2903D105300125FF
:10550000002107E00025DEE71D4610460D2901F1C8
:1055100001010CDA3A5C6B1C0D2A00F10102F3D197
:10552000BE5C0A2EF0D1023502301431EEE7391894
:1055300020464FF48062FAF717FEDAF80000E31E07
:1055400009EB800104390022D3F80360013A0433E7
:1055500041F8046F12F5807FF6D1801A411EB1F533
:10556000FF7FCAF800000FDBFEF7D6FD44F62A6085
:10557000013800BFFCD1FEF70BFE48464FF4006136
:10558000FAF70BFECAF8008040F209709BE740F280
:105590001060C2F200004FF40061FF22FAF7F6FD3E
:1055A00042F2D060C2F200000021016042F2D460F9
:1055B000C2F2000040F63401FAF7EFFD07B0BDE893
:1055C000F08F41F25060C2F20000642142F2D466D2
:1055D00040F6106940F2106A01604FF0000BC2F211
:1055E0000006C2F20009C2F2000A0FF208180027F2
:1055F000002009E0B0F5C86FC8BF40F20970B0F5EF
:10560000E16F00F10100CBDA411FB1F5F77FF1D86E
:10561000002FEFD1315C522910D181194A78452AE7
:105620000CD18A78432A09D1CA78562A06D1097939
:105630003A2903D106300127002107E00027DEE7E1
:105640001F4610460D2901F101010CDA325C7B1C6A
:105650000D2A00F10102F3D1B55C0A2DF0D1023719
:1056600002301431EEE7311820464FF48062FAF729
:105670007BFDD9F80000E31E0AEB8001043900220B
:10568000D3F80350013A043341F8045F12F5807FE8
:10569000F6D1801A40F27801C2F20001DAF8003443
:1056A0000AEB80050A68DAF8001055F8285CC9F89A
:1056B0000000CDE9023B069040460023CDE9001BE7
:1056C0000495CDF814B003F005FEFEF725FD44F671
:1056D0002A6000BF013800BFFCD1FEF759FD5046DB
:1056E0004FF40061FAF759FDC9F800B040F20970B3
:1056F00085E700BF464F544150726F636573733343
:10570000202530386A78202530386A7820253038CE
:105710006A78202530386A782025640D0A00000058
:1057200010B541F20402C4F202021168C1F3810112
:10573000022906D001290CD14BF68021C0F28C1130
:1057400035E01168C90309D440F6001CC0F23D0CD5
:1057500017E041F20021C0F27A0128E0916A46F692
:1057600000434900116845F6405CC0F2DC23C0F2FA
:10577000C60C5CBF4BF68023C0F28C13890358BF64
:105780009C4613681168C3F3834E102303EAD1517A
:1057900013688E44202101EA536171440B463F296E
:1057A00018BF01330F2938BF8B1C03FB0CF11368A2
:1057B000D2F800C0146803280FD8C3F303130FA254
:1057C000D25C49F2E47E21FA02F3C0F6000EDFE873
:1057D00000F01302060D184610BD002010BDCCF3DA
:1057E00002201EF8000023FA00F010BDC4F3C2200E
:1057F0001EF8000023FA00F1084610BD000000006A
:1058000000000000010203040607080941F200033A
:1058100000F01F018009C4F202034FF0010CC258CE
:105820000CFA01F11143C1507047000041F200032E
:1058300000F01F018009C4F202034FF0010CC258AE
:105840000CFA01F122EA0101C150704741F2000354
:1058500000F01F018009C4F202034FF0010CC2588E
:105860000CFA01F11143C1507047000010B5B2B0FD
:1058700040F65C70C2F2000024216C4601702046A4
:10588000C821FAF78AFC40F61870C2F200000068DE
:1058900043F2707143F25073C2F20001C2F200038E
:1058A000032808BF0B4643F2607249F63E01C2F27C
:1058B00000020228C0F60001204618BF1A4603F075
:1058C00019FD204603F040FC4EF2DE10C0F2E40069
:1058D000013800BFFCD140F66070C2F2000003F056
:1058E00033FC44F24220C0F20F0000BF013800BF79
:1058F000FCD144F20044C4F2000420461A2103F013
:1059000075FC40F66070C2F20000FF21FAF745FC1A
:1059100041F26010C2F200000021C0F80B10C0E993
:105920000011816004F54C404FF40051FEF7A2FCD9
:1059300032B010BDB0B5B2B040F65C70C2F200003B
:1059400024216D4601702846C821FAF726FC41F251
:10595000701449F63E01C2F20004C0F60001284668
:10596000224603F0C7FC21A0294603F0B3FC2846D9
:1059700003F0EAFB4EF2DE10C0F2E400013800BF93
:10598000FCD140F66070C2F2000003F0DDFB44F28F
:105990004220C0F20F0000BF013800BFFCD144F22A
:1059A0000045C4F2000528461A2103F01FFC40F60A
:1059B0006070C2F20000FF21FAF7EFFB41F26010C5
:1059C000C2F200000021C0F80B10C0E90011816094
:1059D000C4E90011A160C4F80B1005F54C404FF468
:1059E0000051FEF747FC32B0B0BD00BF534D5357D6
:1059F0004954484E554D2025730D0A0070B540F6A8
:105A00005C70C2F20000007840F65D71C2F20001E5
:105A1000087040F61C70C2F20000007841F20004E9
:105A2000002840F2A000C4F20104C2F2000009D034
:105A3000016839B10021016020464FF40051FEF7A2
:105A400017FC06E00121016020464FF40051FEF7EB
:105A500011FC42F2A550C0F2260000BF013800BF81
:105A6000FCD144F64A3620464FF40041C0F24C06C1
:105A7000FEF700FC40F61660C2F200000078002835
:105A80003DD1FCF7FFFE20464FF40041FEF7F0FB4E
:105A9000304600BF013800BFFCD120464FF4004122
:105AA000FEF7E8FB304600BF013800BFFCD12046BE
:105AB0004FF40041FEF7DCFB304600BF013800BF69
:105AC000FCD120464FF40041FEF7D4FB304600BF26
:105AD000013800BFFCD120464FF40041FEF7C8FB5F
