:020000040800F2
:10000000503C002045010008D1020008C902000848
:10001000CD020008C10200083904000800000000F9
:10002000000000000000000000000000D9020008ED
:10003000C502000800000000D5020008DD0200082B
:100040005F0100085F0100085F0100085F01000810
:100050005F0100085F0100085F0100085F01000800
:100060005F0100085F0100085F0100085F010008F0
:100070005F0100085F0100085F0100085F010008E0
:100080005F0100085F0100085F0100085F010008D0
:100090005F0100085F0100085F0100085F010008C0
:1000A0005F0100085F0100085F0100085F010008B0
:1000B0005F0100085F0100085F0100085F010008A0
:1000C0005F0100085F0100085F0100085F01000890
:1000D0005F01000829040008310400085F010008DE
:1000E0005F0100085F0100085F0100085F01000870
:1000F0005F0100085F0100085F0100085F01000860
:100100005F0100085F0100085F0100085F0100084F
:100110005F0100085F0100085F0100085F0100083F
:100120005F0100085F0100085F0100085F0100082F
:10013000DFF80CD000F092F800480047394500087D
:10014000503C00200648804706480047FEE7FEE78F
:10015000FEE7FEE7FEE7FEE7FEE7FEE7FEE7FEE777
:10016000E10200083101000840EA01039B0703D0C7
:1001700009E008C9121F08C0042AFAD203E011F8E6
:10018000013B00F8013B521EF9D27047D2B201E0A8
:1001900000F8012B491EFBD270470022F6E710B58C
:1001A00013460A4604461946FFF7F0FF204610BDE5
:1001B000421C10F8011B0029FBD1801A704710B5B2
:1001C000002200E0521C835C8C5CA34201D1002B16
:1001D000F8D1D8B2E1B2401A10BD30B505460020C2
:1001E000034600E05B1C934205D2EC5CC85C201A1D
:1001F00001D1002CF6D130BD2DE9F05F054600207D
:1002000092469B4688460646814640241BE0284687
:1002100041464746224600F042F853465A46C01A25
:10022000914110D311461846224600F029F82D1AA4
:1002300067EB01084F4622460120002100F020F81C
:1002400017EB00094E41201EA4F10104DFDC4846F3
:1002500031462A464346BDE8F09F0000064C074D54
:1002600006E0E06840F0010394E807009847103486
:10027000AC42F6D3FFF760FFF0A0000810A1000821
:10028000202A04DB203A00FA02F100207047914056
:10029000C2F1200320FA03F3194390407047202A4B
:1002A00004DB203A21FA02F00021704721FA02F320
:1002B000D040C2F120029140084319467047000027
:1002C000FEE7000070470000FEE70000FEE70000C8
:1002D0007047000070470000704700007047000042
:1002E00081B04EF68851CEF200010A6841F2040056
:1002F00042F47002C4F202000A6050F8041C4FF08D
:10030000000C41F0010140F8041C016844F61F6331
:1003100041F080010160CDF800C0009A9A4207D8F0
:1003200044F62062009B01330093009B9342F9D373
:10033000C0F800C0C0F828C050F8042C4FF6FF7376
:10034000CFF6F6631A4040F8042C4FF41F024260C7
:1003500050F8042C22F4802240F8042C50F8042C8D
:1003600042F4803240F8042C4FF6FE7250F8041C20
:10037000013A4CF10003890301D4002BF6D150F867
:10038000041C890301D400BFFEE7826947F2000123
:1003900042F08052C4F2000182610A684FF6FF7396
:1003A00042F440420A600268CBF2C3730260026802
:1003B0000260026842F480620260026822F4403205
:1003C0000260026842F44032026002681A40026031
:1003D000026842F4C012026050F8042C42F08072AD
:1003E00040F8042C50F8042C9201FBD50A6842F422
:1003F00080320A604A68D203FCD50A6842F40032AF
:100400000A6000BF4A689203FCD5016821F003012D
:100410000160016841F00201016000BF0168090745
:10042000FCD501B07047000080B507F0FBFF80BD30
:1004300080B508F0CBF880BDFEE700002DE9F04F55
:1004400085B040F2101C40F66076C2F2000C40F21B
:10045000102E40F204030025C2F200064FF00108FE
:10046000C2F2000E0CF144004FF0FF0A42F2014BC1
:10047000C2F2000300274FF000090490042FC0F2DD
:10048000EF82F15D3D2940F0EB82B81910F8012CA4
:10049000432A27D110F8022C502A23D110F8032C1C
:1004A0004D2A1FD1049A07F10800791C8CF8FE80B0
:1004B000CEF8F8830BE000BFB9F1000F01F101079E
:1004C00018BF157001328142394680F20781735C92
:1004D0000D2B1370F0D808FA03F313EA0B0F18BFB3
:1004E0008946E9E73D2940F0BB8210F8012C442AF7
:1004F00058D110F8022C552A54D17C1C305D41F2A1
:1005000018713D2808BFBC1C305DC2F200013038B4
:1005100008608CF843008CF8FE80CEF8F88303F076
:10052000EFFB03F05DFD40F21C00C2F2000000682A
:1005300040F2101C002140F63C72C2F2000C002573
:10054000C0F60201C2F200021160C8B140F21022EE
:10055000C2F200020023ACF10101043AC0F602032A
:1005600053F8047BFF2F42F8047F28BF5746013819
:1005700001F8017FF4D140F63C70C2F20000036044
:100580009CF844000130C0B2022880F0248140F67B
:10059000287044F24541C2F20000C4F64D11C0E992
:1005A000001120E13D2940F05B8210F8012C4C2A1B
:1005B0002AD110F8022C572A26D110F8032C4D2AE4
:1005C00022D107F10E010CF114027B1C00208CF8E3
:1005D000FE80CEF8F8830CE02C2F08BF18460028C8
:1005E000A3F1010718BF1570013301328F4280F269
:1005F0006C81F75C0D2F1770EED808FA07F414EA37
:100600000B0FE9D01846EAE73D2940F0298210F89F
:10061000012C4C2A40F0A58010F8022C572A40F0FB
:10062000A08010F8032C4E2A40F09B8010F8042C78
:10063000452A40F096800137F05D41F2187130385C
:10064000C2F200018CF8FE80CEF8F883086098BFF3
:1006500028468CF84C0003F053FB03F0C1FC40F239
:100660001C00C2F20000006840F2101C002140F69D
:100670003C72C2F2000CC0F60201C2F2000211602C
:10068000D0B140F21022C2F200020023ACF101010D
:10069000043AC0F6020300BF53F8044BFF2C42F8A3
:1006A000044F28BF5446013801F8014FF4D140F6F9
:1006B0003C70C2F2000003609CF844000130C0B2FC
:1006C000022880F07B8340F6287044F24541C2F254
:1006D0000000C4F64D11C0E9001177E303F010FBF0
:1006E00003F07EFC40F21C00C2F20000006840F201
:1006F000102E40F2101C002140F63C72C2F2000E97
:10070000C2F2000CC0F60201C2F200021160B8B1E0
:100710000023ACF10101AEF10402C0F6020300BFF8
:1007200053F8044BFF2C42F8044F28BF54460138BD
:1007300001F8014FF4D140F63C70C2F200000360B2
:100740009CF844000130C0B2022839D240F628702B
:1007500044F24541C2F20000C4F64D11C0E9001157
:1007600036E03D2940F07C8110F8012C472A45D124
:1007700010F8022C462A41D110F8032C432A3DD10F
:10078000CEF8F88340F2800E411C7A1C0020002332
:10079000C2F2000E8CF8FE800BE000BF002806BFFE
:1007A0000CF8037000200CF8035001330F2B00F0FD
:1007B000B982CF5C2C2FF1D1D0180CF80350F4E79C
:1007C000DCE9110140F62872C2F20002C2E9000120
:1007D000002000250DE0DCE9110140F62872C2F28C
:1007E0000002C2E900010120274640F2102EC2F2A9
:1007F000000E40F20403C2F2000332E13D2940F052
:100800002F8110F8012C542A40F0C68010F8022CD9
:10081000532A40F0C18010F8032C522A40F0BC80CB
:1008200010F8042C572A40F0B780407841F2187134
:100830003038C2F2000107F102020860B15C8CF8A6
:10084000FE80CEF8F8834FF0000998BF48462C2967
:1008500008BFFA1CB15C41F268248CF841002C29D5
:1008600008BF0132B1180027C2F20004039200BF92
:10087000CB5DB9F1000F4A4608BFB946002B18BF3F
:100880009146B9F1000F18BF2B46E3550137052FEC
:10089000EED1A9F1010140F6A0630329C2F20003E1
:1008A0001D6000F21283DFE811F0040034034403FA
:1008B0005B0341F26821C2F20001097841F218732A
:1008C0003039C2F2000319606DE3315C0CF123038F
:1008D0002C2908BF0130315C2C2908BF013000F100
:1008E0000E0200210CE000BF2C2F08BF014600299A
:1008F00018BF1D70904200F1010003F101030ADAF4
:10090000375C0D2F1F70EFD808FA07F414EA0B0FAD
:10091000EAD00146EBE7705C0CF132022C2808BFEC
:100920000131705C4FF000092C2808BF013101F142
:100930000E0009E0B9F1000F01F1010718BF1570B1
:100940000132814239460ADA735C0D2B1370F1D8FB
:1009500008FA03F313EA0B0F18BF8946EAE79CF87D
:1009600014000130C0B20228C0F085809CF8190044
:10097000FF2800F08080002800F07D80DCE9050180
:10098000DCF81F2043F61805C2F20005DCF81C3025
:10099000C5F80B200BC583E03D2961D110F8011C7F
:1009A00054295DD110F8021C532959D110F8031CA9
:1009B000522955D110F8041C482951D14078BB1C4C
:1009C000B0F1300141F21870C2F200008CF8FE80E4
:1009D000CEF8F88301604FF0000998BF4946F25CF9
:1009E0008CF842100291CCB240F2F401CEF80841EA
:1009F0002C2A08BFFB1CF25CC2F200010C6041F221
:100A0000682101942C2A08BF0133F2180027C2F292
:100A100000010393D45DB9F1000F4B4608BFB946FE
:100A2000002C18BF9946B9F1000F18BF2C46CC55C1
:100A30000137052FEED1A9F1010240F69C64032A8B
:100A4000C2F20004256000F24C83DFE812F00400DB
:100A50006903760386030A78303A026099E300BF9F
:100A60000120002800F04184186801378742FFF612
:100A700005AD00F03ABC43F61800C2F20000322186
:100A8000017343F22B61C3F63201016043F2356119
:100A9000C3F23811416043F23311C3F2384181602F
:100AA0009CF823000130C0B2022814D39CF828001F
:100AB000FF2810D078B1DCF82300DCF82E2043F6B4
:100AC0002805C2F20005DCF82710DCF82B30C5F849
:100AD0000B200BC515E043F62801C2F2000143F6D6
:100AE0003910888143F22B60C3F63200086043F26C
:100AF0003230C3F23100486043F63210C3F2331093
:100B000088609CF832000130C0B2022814D39CF8EF
:100B10003700FF2810D078B1DCF83200DCF83D2037
:100B200043F63805C2F20005DCF83610DCF83A303E
:100B3000C5F80B200BC514E043F638013220C2F291
:100B40000001888143F22B60C3F63200086043F253
:100B50003110C3F23230486043F23430C3F23170A6
:100B6000886003F0CDF803F03BFA40F21C00C2F2BB
:100B700000000068002140F63C7240F2101C40F278
:100B8000102EC0F60201C2F20002C2F2000CC2F244
:100B9000000E1160B0B10023ACF10101AEF104020E
:100BA000C0F6020353F8044BFF2C42F8044F28BF51
:100BB0005446013801F8014FF4D140F63C70C2F2BE
:100BC000000003609CF814000130C0B2022812D368
:100BD0009CF81900FF280ED068B1DCE90501DCF8AB
:100BE0001F2043F61804C2F20004DCF81C30C4F8DD
:100BF0000B200BC414E043F61800C2F200003221AF
:100C0000017343F22B61C3F63201016043F2356197
:100C1000C3F23811416043F23311C3F238418160AD
:100C20009CF8230000250130C0B2022814D39CF8A0
:100C30002800FF2810D078B1DCF82300DCF82E2043
:100C400043F62804C2F20004DCF82710DCF82B304D
:100C5000C4F80B200BC415E043F62801C2F20001D2
:100C600043F63910888143F22B60C3F632000860E6
:100C700043F23230C3F23100486043F63210C3F21F
:100C8000331088609CF832000130C0B2022814D3BF
:100C90009CF83700FF2810D078B1DCF83200DCF87F
:100CA0003D2043F63804C2F20004DCF83610DCF8CC
:100CB0003A30C4F80B200BC414E043F6380132205C
:100CC000C2F20001888143F22B60C3F63200086053
:100CD00043F23110C3F23230486043F23430C3F291
:100CE000317088609CF8440040F204030130C0B2C7
:100CF000C2F2000302280BD240F6287044F24541AC
:100D0000C2F20000C4F64D11C0E900110020A8E6AF
:100D1000DCE9110140F62872C2F20002C2E90001CA
:100D200000209EE631184FF0000900228B5C2C2B2E
:100D30001ABF0CEB0207FB7300EB0209B9F1000FBD
:100D40001CBF0CEB0203DD730132052AEED109F161
:100D50000107F05D41F218712C2808BF09F1020764
:100D6000F05DC2F200012C2808BF0137F05D303879
:100D700008609CF8001098BF2846FF298CF84100B5
:100D800029D09CF80120FF2A25D09CF80230FF2BA7
:100D900021D001B3FAB1F3B14FF0FF310CEB0102F6
:100DA00052780EEB0104A2F130034B2B01F101014B
:100DB00028BF2A460E296270F0D11FE0DCE911013C
:100DC00040F62872C2F20002C2E900014FF00009A9
:100DD0000120002509E543F24D21C5F24D01CEF871
:100DE000001044F64C61C4F64151CEF80410522173
:100DF0008EF80810CEF80950AEF80D509CF80F1080
:100E00000131C9B202290AD240F2A40143F23102EF
:100E1000C2F20001C3F230020A600D7109E09CF8D1
:100E20001310DCF80F2040F2A403C2F20003197182
:100E30001A60411CC9B201290CD840F2B400C2F2B8
:100E40000000057040F2F800C2F2000005608CF866
:100E500041500AE040F2B401C2F20001087040F2D1
:100E6000F801C0B2C2F20001086002F049FF03F0CD
:100E7000B7F840F21C00C2F200000068002140F602
:100E80003C7240F2101C40F2102E0028C0F6020105
:100E9000C2F20002C2F2000CC2F2000E11603FF476
:100EA0004FAC0023ACF10101AEF10402C0F6020325
:100EB00053F8044BFF2C42F8044F28BF5446013826
:100EC00001F8014FF4D1FFF736BC41F26823C2F2BA
:100ED00000039C7819780294DC785A7801944FF4D6
:100EE0007A743039624342F2107411FB0421029C7F
:100EF000642214FB0211019A02EB820201EB42010F
:100F00004DF22002891A1A7940F6A063C2F200035A
:100F10000DE041F26822C2F2000211784FF620641F
:100F2000527801EB8101CFF6FF7404EB41011960A7
:100F300032E041F26823C2F2000319785A7864243F
:100F4000614302EB82029B7801EB420140F6A06212
:100F5000A1F5A551C2F200021160A3F130021CE01C
:100F600041F26824C2F2000421786278A378E47820
:100F700030390294642462434FF47A7411FB0421E3
:100F800003EB830201EB420140F6A062A1F5A551FB
:100F9000C2F200021160029A303A41F21873C2F2B2
:100FA000000311441A60A1F2A15248F6890412F517
:100FB000B46F0A46C8F6880438BF4FF4B4621A60AA
:100FC00054FB011140F6AC63C2F200031A604B11EE
:100FD00003EBD17154FB022340F61C64C2F20004FF
:100FE00021605C1104EBD373CEE96421411CC3EB97
:100FF000031340F6A064C9B2A2EB8303C2F200045B
:1010000001292360CEF898310CD840F2B400C2F226
:101010000000057040F2F800C2F2000005608CF894
:1010200041500AE040F2B401C2F20001087040F2FF
:10103000F801C0B2C2F200010860039D02F060FE38
:1010400002F0CEFF40F21C00C2F200000068002156
:1010500040F63C72C0F60201C2F200021160E0B13B
:1010600040F2101140F21022C2F20001C2F200025E
:1010700000230139043AC0F6020353F8044BFF2C55
:1010800042F8044F28BF5446013801F8014FF4D10B
:1010900040F63C70C2F2000003602F4401F07AF881
:1010A00040F2101CC2F2000C9CF844000130C0B2A7
:1010B00002280AD240F6287044F24541C2F20000EC
:1010C000C4F64D11C0E9001107E0DCE9110140F65A
:1010D0002872C2F20002C2E9000100200025FFF7D9
:1010E00084BB0A784B784FF47A7591F802E091F856
:1010F00003C0303A6B4342F2107512FB0532642391
:101100001EFB03220CEB8C0302EB43024DF2200387
:1011100040F2101CD21A0B79C2F2000C002509E033
:101120000A784B784FF6206102EB8202CFF6FF710E
:1011300001EB4202303B226029E00A784B7891F8BB
:1011400002E064214A4303EB830302EB4302A2F56E
:10115000A5522260AEF1300319E00A784B788D7801
:1011600091F803C06421303A4B434FF47A7112FB7B
:10117000013205EB850302EB4302A2F5A552ACF167
:10118000300340F2101C2260C2F2000C00251A4409
:101190000360014642F26170131A4DF6A000CFF6CB
:1011A000FF7022608342134642F2607438BF42F2FD
:1011B00060731C1B013084420B6015D240F2102E6C
:1011C00042F26071C2F2000E0620CEE9690140F2DF
:1011D000EC01C2F20001086040F61860C2F20000A3
:1011E000172101603B2228E045F606315809C0F27C
:1011F000B051A0FB010448F68901C8F6880151FBF3
:10120000022040F2EC02C2F200021460421102EB32
:10121000D07051FB033240F61861C2F20001086041
:10122000501100EBD27040F2102EC0EB0010C2F251
:10123000000EA3EB8002CEE9694340F61C60C2F2C7
:101240000000006840F69C61CEF89C010298C2F252
:1012500000010130C0B2012840F2F400C2F20000E7
:101260000A60CEF8A02103D805608CF8425001E056
:101270000199016002F044FD02F0B2FE40F21C0050
:10128000C2F200000068002140F63C72C0F6020184
:10129000C2F200021160E0B140F2101140F21022DF
:1012A000C2F20001C2F2000200230139043AC0F682
:1012B000020353F8044BFF2C42F8044F28BF544656
:1012C000013801F8014FF4D140F63C70C2F2000041
:1012D00003600398074400F05DFF40F2101C0020FB
:1012E0000025C2F2000CFFF780BA40F66070C2F22F
:1012F0000000FF21FEF751FF05B0BDE8F08F0000B0
:101300002DE9F04F83B040F2101C40F2000B40F684
:101310006075C2F2000C40F2102E40F204038046C9
:10132000C0F6020BC2F20005C2F2000E0CF144003E
:10133000FF27C2F2000300244FF0000A029000BF12
:10134000042CC0F24981295D3D2940F04581601996
:1013500010F8012C432A2DD110F8022C502A29D143
:1013600010F8032C4D2A25D10120029A8CF8FE009A
:10137000012704F10800611C4FF0000C42F2014605
:10138000CEF8F8730CE000BFBAF1000F01F10104D0
:1013900018BF82F800C001328142214680F2C3802A
:1013A0006B5C0D2B1370EFD807FA03F3334218BFB1
:1013B0008A46E9E73D2940F00F8110F8012C442AC4
:1013C00049D110F8022C552A45D1601C295CCDF872
:1013D00004803D2908BFA01C295C0446A1F130000F
:1013E00041F21871C2F200014FF0010908608CF857
:1013F00043008CF8FE90CEF8F8936646F04602F073
:101400007FFC02F0EDFD40F21C00C2F2000000681B
:1014100040F63C710028C2F20001C1F800B000F0B3
:10142000F380711EA8F104025B46B446C64600BFB5
:1014300053F8046BFF2E42F8046F28BF3E46013874
:1014400001F8016FF4D140F63C70C2F20000036075
:101450004FF00109DAE03D2940F0BE8010F8012C80
:101460004C2A31D110F8022C572A2DD110F8032C18
:101470004D2A29D101208CF8FE004FF00109CEF849
:10148000F80304F10E010CF11402631C00204FF06C
:10149000000E0DE02C2F08BF18460028A3F101070D
:1014A00018BF82F800E0013301328F4280F2B88029
:1014B000EF5C0D2F1770EDD809FA07F642F20144E0
:1014C0002642E7D01846E8E73D2940F0858010F82D
:1014D000012C472A59D110F8022C462A55D110F870
:1014E000032C432A51D101218CF8FE10CEF8F813B9
:1014F000411C621C002000234FF0000E0CE000BFD6
:10150000002806BF0CF8037000200CF803E001333C
:10151000FF270F2B00F01E82CF5C2C2FF0D1D018AC
:101520000CF803E0F3E702F0EBFB02F059FD40F2A8
:101530001C00C2F20000006840F63C710028C2F2B4
:101540000001C1F800B053D040F2101C40F2102E40
:10155000C2F2000CC2F2000EACF10101AEF10402C5
:101560005B46FF2753F8046BFF2E42F8046F28BF39
:101570003E46013801F8016FF4D140F63C70C2F2EA
:10158000000003604FF0000942E03D2924D110F82B
:10159000012C542A0CD110F8022C532A08D110F82F
:1015A000032C522A04D110F8042C572A00F0AB82E5
:1015B0003D2911D110F8011C54290DD110F8021C3D
:1015C000532909D110F8031C522905D110F8040C35
:1015D000482800F0988200BF4FF00109B9F1000FD0
:1015E00000F09182186801348442FFF6A9AE8AE2C5
:1015F00040F2101C40F2102E4FF00009C2F2000C15
:10160000C2F2000EFF2703E0B446C646DDF80480B0
:1016100040F20403C2F20003B9F1000FE2D172E21A
:10162000295C0CF123032C2908BF0130295C2C29EB
:1016300008BF013000F10E0200210CE02C2F08BF82
:101640000146002918BF83F800E0904200F1010034
:1016500003F101030BDA2F5C0D2F1F70EED809FA8E
:1016600007F642F201442642E8D00146E9E7685C09
:101670000CF132022C2808BF0131685C4FF0000ADF
:101680002C2808BF013101F10E000AE0BAF1000F69
:1016900001F1010418BF82F800E0013281422146C5
:1016A0000BDA6B5C0D2B1370F0D809FA03F342F2DE
:1016B0000144234218BF8A46E8E79CF81400013031
:1016C000C0B2022812D39CF81900FF280ED068B1CE
:1016D000DCE90501DCF81F2043F61807C2F2000719
:1016E000DCF81C30C7F80B200BC714E043F61800D9
:1016F000C2F200003221017343F22B61C3F63201C2
:10170000016043F23561C3F23811416043F2331195
:10171000C3F2384181609CF82300FF270130C0B23A
:10172000022814D39CF82800FF2810D078B1DCF8E8
:101730002300DCF82E2043F62806C2F20006DCF86F
:101740002710DCF82B30C6F80B200BC615E043F64B
:101750002801C2F2000143F63910888143F22B6060
:10176000C3F63200086043F23230C3F23100486001
:1017700043F63210C3F2331088609CF83200013017
:10178000C0B2022814D39CF83700FF2810D078B1DB
:10179000DCF83200DCF83D2043F63806C2F20006E1
:1017A000DCF83610DCF83A30C6F80B200BC614E033
:1017B00043F638013220C2F20001888143F22B60E7
:1017C000C3F63200086043F23110C3F23230486091
:1017D00043F23430C3F23170886002F091FA02F0C3
:1017E000FFFB40F21C00C2F20000006840F63C71B2
:1017F00040F2101C40F2102EC2F20001C2F2000CA6
:10180000C2F2000EC1F800B0A0B1ACF10101AEF11E
:1018100004025B4653F8046BFF2E42F8046F28BFA6
:101820003E46013801F8016FF4D140F63C70C2F237
:10183000000003609CF814000130C0B2022812D3EB
:101840009CF81900FF280ED068B1DCE90501DCF82E
:101850001F2043F61806C2F20006DCF81C30C6F85A
:101860000B200BC614E043F61800C2F20000322130
:10187000017343F22B61C3F63201016043F235611B
:10188000C3F23811416043F23311C3F23841816031
:101890009CF823000130C0B2022814D39CF8280021
:1018A000FF2810D078B1DCF82300DCF82E2043F6B6
:1018B0002806C2F20006DCF82710DCF82B30C6F848
:1018C0000B200BC615E043F62801C2F2000143F6D7
:1018D0003910888143F22B60C3F63200086043F26E
:1018E0003230C3F23100486043F63210C3F2331095
:1018F00088609CF832000130C0B2022814D39CF8F2
:101900003700FF2810D078B1DCF83200DCF83D2039
:1019100043F63806C2F20006DCF83610DCF83A303E
:10192000C6F80B200BC62DE643F638013220C2F272
:101930000001888143F22B60C3F63200086043F255
:101940003110C3F23230486043F23430C3F23170A8
:10195000886017E629184FF0000A00228B5C2C2BB8
:101960001ABF0CEB0206F37300EB020ABAF1000F88
:101970001CBF0CEB020383F80FE00132052AEDD106
:101980000AF10104285D41F218712C2808BF0AF100
:101990000204285DC2F200012C2808BF0134285D32
:1019A000B0F13009C1F800909CF8001098BFF146E2
:1019B000FF298CF8419020D09CF80120FF2A1CD0F0
:1019C0009CF80230FF2B18D0B9B1B2B1ABB140F2E4
:1019D00080004FF0FF31C2F2000000BF0CEB0102AB
:1019E00052784618A2F130034B2B01F1010128BFB8
:1019F00072460E297270F1D113E040F2800043F27A
:101A00004D21C2F20000C5F24D01016044F64C6167
:101A1000C4F64151416052210172C0F809E0A0F8BA
:101A20000DE09CF80F100131C9B202290BD240F22F
:101A3000A40043F23101C2F20000C3F230010160A0
:101A400080F804E009E09CF81310DCF80F2040F265
:101A5000A400C2F200000171026009F10101C9B2E3
:101A600001290ED840F2B400C2F2000080F800E074
:101A700040F2F800C2F20000C0F800E08CF841E04B
:101A80000CE040F2B401C2F2000181F8009040F293
:101A9000F8015FFA89F0C2F20001086002F030F943
:101AA00002F09EFA40F21C00C2F20000006840F60C
:101AB0003C71C2F20001C1F800B0C8B140F2101C84
:101AC00040F2102EC2F2000CC2F2000EACF1010185
:101AD000AEF104025B4600BF53F8046BFF2E42F8E0
:101AE000046F28BF3E46013801F8016FF4D144E588
:101AF00040F2101C40F2102E4FF00009C2F2000C10
:101B0000C2F2000E84E5B8F1080F58D041F2187AFD
:101B1000B8F1070FC2F2000A40F03183012095F8B6
:101B200008908CF8FE00CEF8F803687AB9F1300816
:101B30004FF00907CAF800804FF0000698BFB04682
:101B40002C2808BF0A27E85D41F26824C2F200048D
:101B50002C2820464FF496618CF8418008BF01374D
:101B6000FEF71BFBE8190021002200BF835C00295F
:101B70000F4608BF1746002B08BF3946002918BF7B
:101B80003346A3540132052AF0D140F6A06C013946
:101B9000C2F2000C00220329CCF800206CD840F2DD
:101BA000102EC2F2000EDFE801F002B0BEDF217895
:101BB0003039CAF8001088BFCCF8001014E10120B9
:101BC0008CF8FE00CEF8F803287A41F21878303805
:101BD000C2F20008697AC8F800004FF0000698BF0A
:101BE000304640F2F4028CF84200C0B2C2F2000269
:101BF000092710602C2908BF0A27E95D41F26824F3
:101C0000C2F20004CEF808012C2920464FF4966158
:101C100008BF0137FEF7C1FAE8190021002200BF12
:101C2000835C00290F4608BF1746002B08BF3946C2
:101C3000002918BF3346A3540132052AF0D140F6DB
:101C40009C6C0139C2F2000C00220329CCF8002060
:101C500000F24E8140F21020C2F20000DFE811F0E5
:101C600004009801A601C70121783039C8F8001096
:101C700088BFCCF80010FAE121786278303942F25E
:101C8000107344F2804659434FF47A73CFF6FF76CF
:101C900002FB03F712FB03624BF68133CCF8001012
:101CA0009F42CAF8002024BF1144CCF80010A1784C
:101CB00064224EF6405740F2102E01FB02F3CFF69D
:101CC000FF77C2F2000E11FB0271B3F5965FCAF8FE
:101CD000001004D9DCF800201144CCF80010E178A1
:101CE0004FF6206301EB81014A00CFF6FF7303EB4F
:101CF0004101B2F5F07FCAF8001004D9DCF80020E9
:101D00001144CCF80010227963E02278A2F130016E
:101D1000312ACAF8001022BF01EB81014900CCF83A
:101D20000010627855E0B9F1310F03D321783039D2
:101D3000CAF80010DAF8002064215143012ACCF8D7
:101D4000001003DB6278303ACAF80020DAF800307D
:101D500003EB83025200012BCAF80020A4BF1144F8
:101D6000CCF80010A27834E022784EF64057A2F169
:101D70003001312ACAF8001022BF4FF47A72514361
:101D8000CCF800106178642201FB02F3CFF6FF77F4
:101D900011FB0271B3F5965FCAF8001004D9DCF8A4
:101DA00000201144CCF80010A1784FF6206301EB1D
:101DB00081014A00CFF6FF7303EB4101B2F5F07FDA
:101DC000CAF8001004D9DCF800201144CCF8001047
:101DD000E278A2F13001312ACAF8001004D3DCF80D
:101DE00000201144CCF80010DCF8001048F68907F8
:101DF000B1F5B46FCAF80010C4BF4FF4B462CCF8A8
:101E00000020DCF80020C8F68807002ADCBF4FF469
:101E1000B462CCF80020DCF8003040F6AC6257FB2E
:101E20000336C2F200020020136074113B2BC8BFBE
:101E300004EBD67040F61C6657FB0117C2F2000691
:101E400030607E11CEE9643008F1010006EBD777EF
:101E5000C0B2C7EB0717012840F2B4004FF00002F0
:101E6000A1EB8701C2F20000CCF80010CEF8981167
:101E70000CD8027040F2F800C2F20000026040F29A
:101E80001010C2F2000080F8412008E040F2F80192
:101E900080F800805FFA88F0C2F20001086001F06B
:101EA0002FFF02F0E7F840F21C00C2F200000068C9
:101EB00040F63C7140F210220028C2F20001C2F24A
:101EC0000002C1F800B000F0588140F21011C2F2D7
:101ED00000010139043A00BF5BF8043BFF2B42F8D4
:101EE000043F28BFFF23013801F8013FF4D13EE150
:101EF000227844F28047A2F13001312AC8F800105C
:101F000022BF42F210725143CCF8001061784FF4B6
:101F10007A72CFF6FF7740F2102001FB02F311FB3B
:101F200002714BF68132C2F200009342C8F80010F1
:101F300004D3DCF800201144CCF80010A17864220E
:101F40004EF6405701FB02F3CFF6FF7711FB02710B
:101F5000B3F5965FC8F8001004D9DCF800201144EE
:101F6000CCF80010E1784FF6206301EB81014A00C4
:101F7000CFF6FF7303EB4101B2F5F07FC8F8001014
:101F800004D9DCF800201144CCF80010227963E079
:101F90002278A2F13001312AC8F8001022BF01EBEB
:101FA00081014900CCF80010627855E022784FF6A4
:101FB0002063A2F13001312AC8F8001022BF642248
:101FC0005143CCF800106178CFF6FF7301EB81012B
:101FD0004A0003EB4101B2F5F07FC8F8001004D9C4
:101FE000DCF800201144CCF80010A27834E022780C
:101FF0004EF64057A2F13001312AC8F8001022BF36
:102000004FF47A725143CCF800106178642201FBDE
:1020100002F3CFF6FF7711FB0271B3F5965FC8F8B4
:10202000001004D9DCF800201144CCF80010A1788D
:102030004FF6206301EB81014A00CFF6FF7303EBFB
:102040004101B2F5F07FC8F8001004D9DCF8002097
:102050001144CCF80010E278A2F13001312AC8F81E
:10206000001004D3DCF800201144CCF80010DCF898
:1020700000104DF6A00342F26172CFF6FF738A1A88
:102080009A4240F6A862C2F20002C8F8001011603D
:102090003CBF42F26072C8F80020D8F8002042F23B
:1020A0006077D61B01339E420FD240F2EC0206212C
:1020B000C2F20002C0E96917116040F61861C2F26D
:1020C000000117220A603B2126E045F606374B093E
:1020D000C0F2B057A3FB073740F2EC03C2F2000393
:1020E0001F6048F68903C8F68803C0F8A47153FB43
:1020F0000117C0F8A811791101EBD77140F61867E4
:1021000053FB0223C2F200073960591101EBD3716E
:10211000C1EB0111A2EB810140F61C62C2F2000288
:102120001268CCF80010C0E96721044601F0E8FD10
:1021300001F0A0FF40F21C00C2F20000006840F66F
:102140003C71C2F20001C1F800B0B0B140F2101110
:10215000C2F200010139221F5BF8043BFF2B42F859
:10216000043F28BFFF23013801F8013FF4D140F6B6
:102170003C70C2F20000C0F800B000F00BF840F66E
:102180006070C2F20000FF21FEF707F803B0BDE85F
:10219000F08F00002DE9F04340F21020C2F2000061
:1021A000D0E9666340F6186CC2F2000CD0E96457BF
:1021B000D0E9681440F6AC6840F61C6240F6A069AD
:1021C000CCF8003040F69C6E40F2EC03C2F20008FE
:1021D000C2F20002C2F20009C2F2000EC2F2000313
:1021E000C8F800501760C9F80060CEF8001057EA30
:1021F00006011C6004BF1821116011681929A4BFD1
:10220000182111601168B1F1FF3FDCBF002111609E
:10221000B6F1FF3FDCBF0021C9F80010A5F5B4619D
:1022200011F5B46F08D84FF4B461C8F80010172145
:1022300011603B21C9F800101168D9F80040C1EBCA
:10224000011104EB8101A1F5B46414F5B46FC8F871
:10225000001008D84FF4B461C8F8001017211160BD
:102260003B21C9F80010D0F8A82142F260714DF668
:10227000A004521ACFF6FF74A2420BD806221724EC
:102280003B251A60CCF80040CEF80050C0E9674505
:10229000C0E96921D0F8A811FF2900D0F9B9D0F818
:1022A000A411FF2900D0D1B9D0F8A011FF2900D086
:1022B000A9B9D0F89C11FF2903D0002918BFBDE8A7
:1022C000F083062242F260711A6017233B27CCF894
:1022D0000030CEF80070C0E96737C0E96921BDE879
:1022E000F0830000B0B5072884BF6420B0BDC1B240
:1022F000BF2222FA01F1C9074FF0640413D00BA1E9
:1023000012A251F8201052F8205040F66070C2F22C
:102310000000FDF754FF40F2D001C2F20001086056
:10232000002808BF2C462046B0BD00BF2800002072
:10233000320000203A000020430000204E00002020
:102340005A00002028000020640000200000000047
:102350000100000002000000030000000400000073
:102360001200000000000000150000002DE9F047F9
:1023700082B040F6207041F2642740F66074C2F2E9
:1023800000000021C2F20007C2F200040022C0E9EE
:102390000011397004E000BFFD2901F1010114DAD8
:1023A000635C222B04BF01323A70212BF4D1EF2958
:1023B000F2DCD3B2012BEFD02144D1F80130D1F8B7
:1023C0000510C0E90031FF21E6E740F62075C2F2B2
:1023D000000540F62871C2F2000128460822FDF7E8
:1023E000FCFE41F21876C2F20006024630600FF29F
:1023F0006860294607F01AF9316840F2700940F226
:10240000CC08C2F2000900200029C2F20008C9F875
:10241000000000F08880207A532840F0FA80E079AC
:102420004D2840F0F680A0794C2840F0F280A07A48
:1024300044F64A372228C0F24C0740F01D8140F68E
:102440005C7040F65C6AC2F200002A21C2F2000A07
:10245000017050463221FDF7A0FE40F6307541F282
:102460006820C2F200050026C2F200004FF4966117
:10247000C5E90066FDF791FE0B200021002200BF98
:10248000235C2C2B04BF01260130235C222B0AD0B5
:10249000002E19BFAB5401320AF801300131642813
:1024A00000F10100ECDB49F6F8304EF2DE14C0F624
:1024B0000000C0F2E40406F0F3FF00BF013C00BFDF
:1024C000FCD141F26824C2F2000440F65C630FF2D2
:1024D000CC51C2F2000320462A46009507F0B6F818
:1024E000204606F0DDFF4CF2BC30C0F2C91000BF40
:1024F000013800BFFCD10FF2C05007F001FB384695
:10250000013800BFFCD13846013800BFFCD140F291
:102510002400C2F20000002101600820C8F8001069
:10252000C9F80000C0E06421C8F8001000220021B2
:10253000387003E0FD2A02F1010212DAA35C222BBB
:1025400004BF01313970212BF4D1EF2AF2DCCBB278
:10255000012BEFD0A318A050FF2258601881987269
:10256000E8E7617AE079257A542908BF4F2D5DD0DC
:102570006279E7782179A3794C2A08BF572900F0BE
:102580009C804C2B08BF572A00F0A180472B08BF26
:10259000462A00F0B780442808BF552B00F022815E
:1025A000542B08BF462A00F04981432A08BF50290E
:1025B00000F07081522B08BF452A00F078814D2B26
:1025C00008BF492A00F0AD81432B08BF412A00F023
:1025D000CA81322B08BF572A00F0F781412808BF73
:1025E000542B00F028826420C8F800002046FDF734
:1025F000DFFD40F60D22211822520020887020466F
:1026000006F04EFF40F65C70C2F200001D21017022
:102610007AE10FF2504007F073FAD9F800000B216D
:102620000828C8F8001040F065816DE14F289FD15F
:1026300049F6A75044F64A34C0F60000C0F24C04F4
:1026400007F05EFA204600BF013800BFFCD140F21F
:102650002400C2F20000002101600320C8F800003D
:10266000C9F8000040F65C70C2F2000062210170FF
:10267000013C00BFFCD147E10FF2FC3007F040FA0B
:10268000384600BF013800BFFCD1D9F80000082847
:102690000AD040F65D70C2F20000007840F65C712E
:1026A000C2F20001087000BF013F00BFFCD1D9F8A1
:1026B0000000082840F01E8126E14D2F7FF461AF15
:1026C0003D2B40F0A580FDF7B9FE0524A1E04E2981
:1026D0007FF45CAF3D2808BFFDF7B0FE40F210105C
:1026E000C2F2000090F84C1049F6D7604EF2DE14AA
:1026F000C0F60000C0F2E40406F098FF013C00BF01
:10270000FCD1F7E043297FF446AF3D2823D144F6BE
:102710004A34C0F24C04FDF791FE00BF013C00BFFB
:10272000FCD141F26824C2F2000449F6CD3140F2F6
:102730008002C0F60001C2F20002204606F086FFC9
:10274000204606F0ADFE42F62850C0F2311000BF20
:10275000013800BFFCD141F26820C2F200004FF402
:102760009661FDF71AFD41F22C70C2F2000040F6AE
:102770003401FDF712FD42F29C70C2F2000040F6F7
:102780003401FDF70AFD41F66070C2F2000040F628
:102790003401FDF702FD42F29870C2F20000002100
:1027A000016042F29470C2F20000016040F6607075
:1027B000C2F20000FF21FDF7F0FC40F2B400C2F2CB
:1027C0000000037849F6D54040F2800140F2A402AF
:1027D000C0F60000C2F20001C2F2000206F026FFBD
:1027E000022085E0412A7FF4DBAE3D2D6ED1012031
:1027F0003060FDF723FE40F21010C2F2000090F8A6
:10280000431049F68D30C0F6000006F00FFF6EE071
:10281000012449F6315043F6180143F6280243F6E5
:102820003803C0F60000C2F20001C2F20002C2F298
:10283000000306F0FBFEC8F800405BE04F297FF480
:10284000B4AE532F7FF4B1AE49F6B25044F64A34D9
:10285000C0F60000C0F24C0407F052F9204600BF59
:10286000013800BFFCD140F22400C2F20000002178
:1028700001600320C8F800000D20C9F8000040F6F0
:102880005C70C2F200006221017000BF013C00BF19
:10289000FCD139E03D2B08BFFDF7D0FD49F6435090
:1028A00040F62871C0F60000C2F200010AE0562985
:1028B0007FF485AE49F64F5040F20801C0F60000A3
:1028C000C2F2000106F0B2FE052011E040F2101045
:1028D000C2F2000090F8431040F22000C2F2000063
:1028E000026849F6E840C0F6000006F09FFE0420AA
:1028F000C8F8000040F65D70C2F20000007840F6B3
:102900005C71C2F200010870D8F80000032805D1FC
:1029100040F65C70C2F200006221017002B0BDE8B6
:10292000F08753297FF450AE40F65E7440F65F7531
:10293000C2F20004C2F2000521782A7849F6AE40BE
:10294000C0F6000006F072FE0520C8F800002078EE
:1029500040F65C71C2F200010870287840F65D71A3
:10296000C2F20001CFE746297FF433AE462F7FF451
:1029700030AE49F2946456A0C0F2980407F0C0F853
:1029800001F0BEF901F0EEF90520C8F8000040F6AC
:102990005D70C2F20000007840F65C71C2F2000186
:1029A0000870013C00BFFCD14EF60C50CEF2000086
:1029B000BFF34F8F0168042201F4E061C0F2FA52C4
:1029C00011430160BFF34F8FFEE746297FF406AE47
:1029D0004D2F7FF403AE49F294643AA0C0F29804FC
:1029E00007F08EF8013C00BFFCD140F21010C2F29B
:1029F000000040F20111A0F8FE1040F21021C2F2D6
:102A000000010122C1E9FE22642280F8F020C1F811
:102A1000C02301F075F901F0E3FA01F045F940F641
:102A20005C70C2F200006321017040F65D70C2F27A
:102A30000000017068E74F2A7FF4D5AD46297FF486
:102A4000D2AD40F61870C2F20000002101600120F2
:102A500002F010FC58E700BF50433A2025732025B0
:102A6000640D0A004552524F522050415353434F78
:102A70004445210D000000004552524F522E205374
:102A8000594E5441582041542B4454444C4D533DCD
:102A90002249502C504F5254220D000041542B4DCE
:102AA00049504F50454E3D312C25732C2225732221
:102AB0002C25732C300D0A00434F4E4E4543540DC8
:102AC0000000000041542B4D465732204F4B0D0063
:102AD000464143544F52592052455345542049537F
:102AE00020574F524B494E470D000000B0B549F6F4
:102AF0000A4041F2000444F64A35C0F60000C4F230
:102B00000104C0F24C0506F0CBFC20464FF4004116
:102B100001F0ACFC284600BF013800BFFCD12046C4
:102B20004FF4004101F0A4FC013D00BFFCD149F28B
:102B300094640FA0C0F2980406F0B2FC204600BFD7
:102B4000013800BFFCD114A006F0AAFC204600BF4B
:102B5000013800BFFCD116A006F0A2FC013C00BF6A
:102B6000FCD140F61660C2F2000001210170B0BD38
:102B700041542B4754535953434D443D226E7620C4
:102B80007365742057414E50696E6746696C746571
:102B9000723D31220D0A000041542B4754535953C2
:102BA000434D443D226E762073617665220D0A0006
:102BB00041542B47544C414E454E41424C453D31CA
:102BC0000D0A00002DE9F04740F22408C2F2000887
:102BD0004FF0FF30C8F8000040F20400C2F20000DD
:102BE000D0F8009042F29C7C40F2BC0E0021C2F270
:102BF000000CC2F2000E00244FF0000A05E0C819D4
:102C0000C11C00BF0131494536DA1CF801003A28E1
:102C1000F8D101EB0C0616F8010C5028F2D116F889
:102C2000020C4928EED116F8030C4C28EAD10027F3
:102C300003E000BF01370E2FE1D0F3192246CC1973
:102C40005879E51C2C282C4609D02C463AB9BAF103
:102C5000000F2C4603D1DA7800240EF807202C2828
:102C6000E8D11879222808BFBAF1000FE2D1D8784C
:102C7000AA460EF80700DDE742F29870C2F20000A3
:102C80000021016042F29C70C2F2000040F6340163
:102C9000FDF783FA49F29460C0F29800013800BF52
:102CA000FCD140F2BC04C2F2000443F61801C2F2A7
:102CB000000120460F22FDF790FA40F2D00540F6C1
:102CC0001876C2F20005C2F20006012128603160C8
:102CD00068B140F2BC0043F62801C2F20000C2F223
:102CE00000010F22FDF779FA286002203060286881
:102CF00068B140F2BC0043F63801C2F20000C2F2F3
:102D000000010F22FDF769FA28600320306028686F
:102D100044F64A31002840F65C70C0F24C01C2F221
:102D200000004FF0000210D032604FF0FF32C8F8C0
:102D300000200322027000BF013900BFFCD140F621
:102D40005D71C2F20001097806E0C8F8002000BFFA
:102D5000013900BFFCD12321017040F21011C2F2F1
:102D6000000191F84C102A6881F001031343B3FA73
:102D700083F3013140F638705B09C9B20027C2F213
:102D80000000022938BF012747EA0301017094E8D7
:102D90000B0041F23826D4F80B70C2F2000686E828
:102DA0000B0004A02146C6F80B7006F03FFCBDE8FE
:102DB000F08700BF657874726163746E756D20432F
:102DC000616C6C65726E756D2025732025640D0A2B
:102DD000000000002DE9F04F87B041F20000C4F27E
:102DE00001004FF4005101F041FB40F66074C2F263
:102DF00000042046FF21FDF7D0F90FF2184006F03D
:102E00007FFE40F20406C2F20006306842F29C7572
:102E10000021C2F200050022002302E001318142BC
:102E200019DA6F5C432F10D14F197D784D2D08D1E1
:102E3000BD78542D05D1FF788D1D3A2F04BF29464A
:102E40002B4642F29C75C2F20005002BE6D06F5C67
:102E5000AF540132E2E740F61567C2F200070021E5
:102E600040F65C723970C2F2000211782E2903D04C
:102E700011782F2940F0818041F260010027C2F2D1
:102E8000000100BFEA5D412A26D17A195378542BFC
:102E900022D193782B2B1FD1D3784D2B1CD11279B3
:102EA000462A19D100233A4605E000BF0132632BC0
:102EB00003F1010317DAAE5C0A2ECE54F6D11544A5
:102EC00015F8015C0D2D42F29C75C2F2000504BF9D
:102ED000CE546433EAE700BF3A46002737B9571C9F
:102EE0008742CFDB02E00532002FF8D049F61150BF
:102EF00041F260014CF2BC35C0F60000C2F20001A4
:102F0000C0F2C91506F092FB04F14900B621FDF7A5
:102F100044F949F6E071C0F6000120464922FDF768
:102F200023F902F049FE00BF013D00BFFCD14EF283
:102F3000DE10C0F2E40000BF013800BFFCD140F653
:102F4000607041F2600144F64A34C2F20000C2F2FD
:102F50000001FF22C0F24C04FDF706F9013C00BF5E
:102F6000FCD140F61870C2F200000121016001207E
:102F700002F080F907B0BDE8F08F0FF2A42006F050
:102F8000BFFD316841F26423084697F800B0C2F2F1
:102F9000000300248E1E002000224FF000091C7048
:102FA00005910690049600BFA85C41F2282A2B28C0
:102FB000C2F2000A36D1A818BE4600F1020C501C1D
:102FC000002100250AE000BF2C2C08BFB9F1000F3A
:102FD00020D001350E2D06F1010027D01CF8054048
:102FE00057190B4606462C2CB8463946ECD0002B18
:102FF000B8463946E8D1B9F1000FB8463946E3D1B1
:103000000CEB050010F8020C002190460AF80500B0
:10301000DAE700BF0CEB050010F8020CB9460AF81D
:103020000500D6E74FF000081EE000BF50190599D3
:1030300042F29C75821DC2F2000577469142C8BFDC
:103040000A4600BFA81980790A2805D0B01D0136AC
:103050008842F7DB02E000BFF21D904641F2642394
:10306000049EC2F20003002440F62070C2F2000069
:10307000B8F1000F0460446000F0DC8040F6607C32
:103080004FF0000AC2F2000C0AE000BF8CF800E02A
:103090004FF0000A0132B2420CF1010C80F2CA80FA
:1030A00015F802E0AEF10A004A2800F26180DFE87C
:1030B00010F0C1005F005F0077005F005F005F00FD
:1030C0005F005F005F005F005F005F005F005F0008
:1030D0005F005F005F005F005F005F005F005F00F8
:1030E000A80056005F005F005F005F005F005F00A8
:1030F0005F005F005F005F005F005F005F005F00D8
:103100005F005F005F005F005F005F005F005F00C7
:103110005F005F005F005F005F005F005F005F00B7
:103120004B005F005F005F005F004B005F005F00CF
:103130005F005F005F005F004B005F004B005F00BF
:103140005F005F005F004B000BF1010BBEF1210F30
:1031500087F800B000F05580BEF1220F08D1069824
:10316000BEF1210F00F101000690187000F04980B7
:10317000BAF1000F3FF48AAFAAF10200072809D87C
:1031800040F62071C2F2000101F800E00AF1010AE4
:1031900080E700BFBAF1010F08BF4FF0020A79E7DC
:1031A000A91849780A2900F045804A28E0D8DFE8C4
:1031B00000F0412F2F2F2F2F2F2F2F2F2F2F2F2F7B
:1031C0002F2F2F2F2F2F2F2F2F28272F2F2F2F2F1E
:1031D0002F2F2F2F2F2F2F2F2F2F2F2F2F2F2F2FFF
:1031E0002F2F2F2F2F2F2F2F2F262F2F2F2F262F01
:1031F0002F2F2F2F2F262F262F2F2F2F2600A3E7FD
:10320000ADE7069810F0FD0F08BF0AF1010AAFE71D
:10321000AEE700BF46494C544552434D540D0000A3
:10322000696E20456C736520534634362D34370D56
:1032300000000000B8F1000F04D10598013282426D
:10324000FFF6B2AE40F26C00C2F200000A2101604B
:1032500041F228210020C2F20001387091E80D00EF
:10326000D1F80B7041F23821C2F2000149F2946AA0
:1032700081E80D000FF6B410C0F2980AC1F80B7087
:1032800006F0D4F90FF6C01006F00AF9504600BF58
:10329000013800BFFCD142F29870C2F20000002653
:1032A000066042F29C7044F24225C2F200004FF4E4
:1032B000FA71C0F20F05FCF770FF40F27001C2F224
:1032C00000014FF0FF30086040F6187441F22820EA
:1032D00043F61801C2F20004C2F20000C2F200017B
:1032E0002660FCF76CFF40F2D006C2F200063060A8
:1032F000B0FA80F040092060284600BF013800BFC6
:10330000FCD1206878B941F2282043F62801C2F2A6
:103310000000C2F20001FCF752FFB0FA80F1490947
:103320003060480020602846013800BFFCD120688A
:1033300080B941F2282043F63801C2F20000C2F2FF
:103340000001FCF73CFF00213060002808BF03218A
:10335000216000BF013D00BFFCD140F21011C2F25C
:10336000000191F84C1022684B1EB3FA83F340F62B
:103370003870002A18BF01225B09C2F200001A420D
:103380004FF00002027003D10131C9B2012901D806
:10339000012101700078002860D040F6207540F6C9
:1033A0002876C2F20005C2F20006284631460822FD
:1033B0004FF0080BFCF711FF41F21879C2F2000937
:1033C00040F660780746C9F8000041F26010C2F28A
:1033D0000008C2F200004146C822FCF7C5FE41F2D7
:1033E00028210FF67400C2F2000142462B46CDE9B7
:1033F00000B6029706F01AF9D9F80000002865D047
:103400004EF2DE144046C0F2E404FCF7D1FE44F272
:103410000A52C5F2522208EB000148F8002045F29A
:103420004F20C4F22030486044F24F40C2F24510B1
:1034300088600020087302F0BFFB00BF013C00BFA2
:10344000FCD140F65D70C2F20000007840F65C717D
:10345000C2F20001087007B0BDE8F08F40F6607559
:1034600049F62C3041F2282141F23822C2F20005FF
:103470004EF2DE14C0F60000C2F20001C2F20002F9
:103480002B46C0F2E40406F0D1F82846FCF790FE83
:1034900044F20A52C5F2522229182A5045F24F200E
:1034A000C0F22100486002F087FB00BF013C00BF72
:1034B000FCD140F65D70C2F20000007840F65C710D
:1034C000C2F20001087007B0BDE8F08F04F026FCDE
:1034D00040F2700740F65C766428C2F20007C2F240
:1034E0000006386000F23C83DFE810F06A007F00DD
:1034F000A600CE00F00005013A033A031101650071
:10350000650067018B01A801D001DD01EA0111020C
:10351000350250026502BB023A03120343033A0329
:103520003A033A033A033A033A033A033A033A03B3
:103530003A033A033A033A033A033A033A033A03A3
:103540003A033A033A033A033A033A033A033A0393
:103550003A033A033A033A033A033A033A033A0383
:103560003A033A033A033A033A033A033A033A0373
:103570003A033A033A033A033A033A033A033A0363
:103580003A033A033A033A033A033A033A033A0353
:103590003A033A033A033A033A033A033A033A0343
:1035A0003A033A033A033A033A033A033A033A0333
:1035B0003A033A03610302F0A7FBFCF73FFFC2E2C4
:1035C00040F6607040F6B0614EF2DE14C2F20000C8
:1035D000C2F20001FF22C0F2E404FCF7C5FD02F0D4
:1035E000EBFA013C00BFFCD1ADE240F66074C2F2E0
:1035F00000044EF2DE152046FF21C0F2E405FCF780
:10360000CCFD43F6380C49F6507143F6180243F6E8
:103610002803C2F2000CC0F60001C2F20002C2F29E
:1036200000032046CDF800C006F010F802F0C4FAFE
:10363000013D00BFFCD186E240F66078C2F200088E
:103640004EF2DE154046FF21C0F2E405FCF7A5FD71
:1036500040F21010C2F2000090F8414049F6A0611B
:1036600040F2800240F2A403C0F60001C2F2000260
:10367000C2F200034046009405F0E8FF02F09CFA15
:10368000013D00BFFCD15EE24EF2DE1408F10A00FB
:10369000F521C0F2E404FCF780FD4720A8F80800FB
:1036A00045F24F4044F25251C4F64960C4F64271AB
:1036B000C8E9001002F080FA013C00BFFCD1622092
:1036C0003070BAF1010A00BFFBD142E240F66070EF
:1036D00040F6B0614EF2DE14C2F20000C2F2000108
:1036E000FF22C0F2E404FCF73FFD02F065FA013C62
:1036F00000BFFCD127E244F64A34C0F24C0402F089
:1037000003FBFCF79BFE013C00BFFCD11BE244F62F
:103710004A34C0F24C0402F0F7FAFCF78FFE013C89
:1037200000BFFCD141F26824C2F2000449F6CD3159
:1037300040F280024EF2DE15C0F60001C2F2000235
:103740002046C0F2E40505F081FF204605F0A8FE02
:1037500042F29874C2F20004013D00BFFCD141F274
:103760006820C2F200004FF49661FCF716FD41F2AA
:103770002C70C2F2000040F63401FCF70EFD42F25C
:103780009C70C2F2000040F63401FCF706FD41F6E1
:103790006070C2F2000040F63401FCF7FEFC40F617
:1037A0005D72C2F2000242F2947112780020C2F2FD
:1037B0000001206008603270CBE140F66074C2F214
:1037C00000044EF2DE152046FF21C0F2E405FCF7AE
:1037D000E4FC40F21010C2F2000090F8432040F2E6
:1037E0002000C2F20000036849F6B161C0F6000192
:1037F000204605F02BFF02F0DFF9013D00BFFCD1B0
:10380000A1E140F66074C2F200044EF2DE152046DB
:10381000FF21C0F2E405FCF7C0FC49F6607140F2FC
:103820000802C0F60001C2F20002204605F00EFFB9
:1038300002F0C2F9013D00BFFCD184E108F11000A3
:10384000EF21FCF7AAFC44F6207045F2453144F222
:103850004F6245F24143C0F24B00C5F24541C5F20B
:103860005422C5F22B33C8E90032C8E9021002F035
:10387000A3F9BAF1010A00BFFBD144F64A30C0F205
:103880004C00013800BFFCD1622061E144F64A34AB
:10389000C0F24C0402F038FA0720FDF731FD013C7C
:1038A00000BFFCD14FE144F64A34C0F24C0402F0B0
:1038B0002BFA0820FDF724FD013C00BFFCD142E1BA
:1038C00040F66074C2F200042046FF21FCF765FC5C
:1038D00040F2F800C2F20000026840F6AC60C2F2AA
:1038E0000000036849F67141C0F60001204605F06A
:1038F000ADFE02F061F9BAF1010A00BFFBD144F656
:103900004A30C0F24C00013800BFFCD11BE140F648
:103910006074C2F200042046FF21FCF73EFC40F236
:10392000F400C2F20000026840F6A860C2F2000093
:103930000368D8A1204605F089FE02F03DF9BAF1EE
:10394000010A00BFFBD144F64A30C0F24C000138F6
:1039500000BFFCD1F7E040F66074C2F200044EF202
:10396000DE152046FF21C0F2E405FCF716FC40F608
:103970001470C2F200000268C3A1204605F066FE82
:1039800002F01AF9013D00BFFCD1DCE040F66070A6
:103990004EF2DE14C2F20000C0F2E40405F080FD35
:1039A00049F65950C0F6000005F07AFD013C00BF11
:1039B000FCD12920CCE041F260004CF2BC34C2F2D0
:1039C00000004146FF22C0F2C914FCF7CDFB08F10C
:1039D0003800C721FCF7E1FB4AF22C00C0F60000DA
:1039E000016800F1200B0591C16A071D0691016B6A
:1039F0009BE8000E049105998CCF88E88E0008F1B1
:103A0000200181E8000E0699D0E90465D0E906CED0
:103A1000406BC8F82C100499C8E90465C8E906CEC3
:103A2000C8E90C1002F0C8F8013C00BFFCD142F616
:103A30002850C0F23110013800BFFCD140F6607050
:103A400041F26001C2F20000C2F20001FF22FCF765
:103A50008BFB032001F00EFC40F65C76C2F2000600
:103A600051E008F13400CB21FCF797FB4AF2BC008F
:103A7000C0F6000090E88E0000F1180E9EE810508D
:103A800000F1240BD0E904659BE8000E006B88E888
:103A90008E0008F1180181E8105008F12401C8E9EE
:103AA000046581E8000EC8F8300002F085F847F69A
:103AB0007200C0F27D10013800BFFCD140F210123C
:103AC00040F20110C2F20002A2F8FE0040F2102003
:103AD000C2F200000121C0E9FE11642182F8F01059
:103AE000C0F8C01300F00CF900F07AFA00F0DCF82E
:103AF00040F65C7640F65D716320C2F20006C2F2C9
:103B000000013070087040F27007C2F2000720E038
:103B100040F66074C2F200044EF2DE152046FF212A
:103B2000C0F2E405FCF739FB40F21010C2F20000CD
:103B300090F84C2051A1204605F088FD02F03CF899
:103B4000013D00BFFCD140F65D70C2F2000000787C
:103B50003070396849F68540C0F6000005F066FD12
:103B6000386803287FF4AFAC6220307007B0BDE83E
:103B7000F08F41F2600840F66075C2F20008C2F2B0
:103B8000000540462946FF22FCF7EEFA2846FF21B1
:103B9000FCF703FB49F6C051C0F600012846424637
:103BA00005F054FD206880B101F0A2FF0FE040F65F
:103BB0006070C2F2000005F073FC49F65950C0F67F
:103BC000000005F06DFC1A20C2E701F0F5FF42F29B
:103BD00098754EF2DE10C2F20005C0F2E400013822
:103BE00000BFFCD140F66074C2F2000441F26001F3
:103BF000C2F200012046FF22FCF7B6FAFCF71EFCD9
:103C00002046FF21FCF7C9FA42F29C70C2F2000084
:103C100040F63401FCF7C1FA40F65D71C2F20001D2
:103C2000097800202860317093E700BF41542B438E
:103C30004D47443D312C340D0A736D736E756D31F3
:103C40002025730D0A00000041542B434D47443D8D
:103C5000312C340D0A0000000D0A736D736E756D02
:103C60000D0A25730D0A736D730D0A2573202573D4
:103C70002025642025732025640D0A0041542B451E
:103C80004E574C3D2564000041542B4D474E455442
:103C90003D25640041542B485253543D25642C2546
:103CA000640D0A4F4B0D0A0080B540F21C01C2F2B0
:103CB00000010A6840F2000E40F63C7CC0F6020E9D
:103CC000C2F2000C002ACCF800E008BF80BD40F230
:103CD0001011C2F200014B1E40F21021C2F200018D
:103CE000043900BF5EF8040BFF2841F8040F28BF19
:103CF000FF20013A03F8010FF4D1CCF800E080BDB9
:103D000070B500F0FFF940F2053000F057F84FF4BD
:103D1000417000F053F840F2023000F04FF840F2EA
:103D20001805C2F200052868C8B100240026C0F6B4
:103D3000020400BF204600F067F840F2053000F0B2
:103D40003DF84FF4417000F039F840F2023000F0D5
:103D500035F828680136864204F58064EAD300F01D
:103D60003DF870BD80B540F21C00C2F20000006852
:103D7000002240F63C71C0F60202C2F200010028A7
:103D80000A6008BF80BD043252F8043C013305D1FB
:103D90000A60013802F10402F6D180BD40F29C00B5
:103DA000C2F200000121016041F20000C4F20100F2
:103DB0004FF4804100F05CFB80BD000042F2000344
:103DC00000F01F018009C4F202034FF0010CC25839
:103DD0000CFA01F11143C1507047000042F210008B
:103DE000C4F20200016841F0800101604FF2E0710D
:103DF000C1F6FF710988B1F5007F98BF7047016C6B
:103E000041F080010164704780B54FF2E071C1F666
:103E1000FF7109888446B1F5007F70D94FF6FF70B5
:103E20000121C0F60700CFF2010142F20C02C4F2F8
:103E300002024FF0020E0B4684451BD21068C007E9
:103E40000AD11068C0065ABF10680EEA500003205D
:103E5000012804D007E000BF0120012803D1002B76
:103E600003F10103EAD1012808BF0420002800F073
:103E7000958080BD106CC0070AD1106CC0065ABF77
:103E8000106C0EEA50000320012804D007E000BFA8
:103E90000120012803D1002B03F10103EAD10128FD
:103EA00008BF04200028E4D1506C022340F0020037
:103EB0005064C2F848C01069800748BFC2F808C003
:103EC000506C40F040005064106CC0070AD1106C78
:103ED000C0065ABF106C03EA50000320012804D02A
:103EE00007E000BF0120012803D1002901F10101F1
:103EF000EAD1012808BF042002F1440149E0012170
:103F0000CFF2010142F20C02C4F202024FF0020EA3
:103F10000B4600BF1068C0070AD11068C0065ABF20
:103F200010680EEA50000320012804D007E000BF0B
:103F30000120012803D1002B03F10103EAD101285C
:103F400008BF0420002818BF80BD5068022340F03D
:103F500002005060C2F808C0506840F04000506055
:103F60001068C0070AD11068C0065ABF106803EA7B
:103F700050000320012804D007E000BF01200128E1
:103F800003D1002901F10101EAD1111D012808BF67
:103F900004200A6822F002020A6080BD50680223F1
:103FA00040F002005060C2F808C0506840F0400085
:103FB000506000BF1068C0070AD11068C0065ABF21
:103FC000106803EA50000320012804D0DDE700BF99
:103FD00001200128D9D1002901F10101EAD1D4E75A
:103FE0002DE9F04100F08EF840F2102840F2101157
:103FF000C2F20008C2F20001A8F1040001394FF436
:10400000806200BF11F8013F013A40F8043FF9D146
:104010000020C0F6020040F2AC0540F27406C2F285
:104020000005C2F200062121002700F58064286007
:10403000316000BF58F82710316000F08BF8286815
:1040400001370430B7F5807F88BFFF27286040F232
:104050000530FFF7B3FE4FF44170FFF7AFFE40F2BB
:104060000230FFF7ABFE2868A042E3D3FFF7B6FEAD
:10407000BDE8F0812DE9F04100F044F840F210284D
:1040800040F21011C2F20008C2F20001A8F10400CF
:104090000139632211F8013F013A40F8043FF9D198
:1040A0000020C0F6020040F2AC0540F27406C2F2F5
:1040B0000005C2F200062121002700F58064286077
:1040C000316000BF58F82710316000F043F82868CD
:1040D00001370430B7F5807F88BFFF27286040F2A2
:1040E0000530FFF76BFE4FF44170FFF767FE40F2BB
:1040F0000230FFF763FE2868A042E3D3FFF76EFEAD
:10410000BDE8F08142F20400C4F20200C168090671
:1041100009D540F22311C4F26751016048F6AB1192
:10412000CCF6EF5101604FF2E071C1F6FF710988E2
:10413000B1F5007F0DD9C16C090658BF704740F238
:104140002311C4F26751016448F6AB11CCF6EF516C
:104150000164704710B54FF2E072C1F6FF72128829
:104160008446B2F5007F68D901224FF6FF70CFF286
:104170000102C0F6070042F20C038445C4F20203B8
:104180004FF0020E14461BD21868C0070AD11868F7
:10419000C0065ABF18680EEA50000320012804D058
:1041A00007E000BF0120012803D1002C04F1010425
:1041B000EAD1012808BF0420002800F0898010BD42
:1041C000186CC0070AD1186CC0065ABF186C0EEAEA
:1041D00050000320012804D007E000BF012001287F
:1041E00003D1002C04F10104EAD1012808BF042006
:1041F0000028E4D1586C40F001005864CCF800105D
:10420000022100BF186CC0070AD1186CC0065ABF43
:10421000186C01EA50000320012804D007E000BF19
:104220000120012803D1002A02F10102EAD101286C
:1042300008BF042003F1440145E00123CFF201034C
:1042400042F20C02C4F202024FF0020E1C4600BF02
:104250001068C0070AD11068C0065ABF10680EEA7D
:1042600050000320012804D007E000BF01200128EE
:1042700003D1002C04F10104EAD1012808BF042075
:10428000002818BF10BD506840F001005060CCF805
:10429000001002211068C0070AD11068C0065ABF7A
:1042A000106801EA50000320012804D007E000BF95
:1042B0000120012803D1002B03F10103EAD1111DD4
:1042C000012808BF04200A6822F001020A6010BD1C
:1042D000586840F001005860CCF80010022100BF7F
:1042E0001868C0070AD11868C0065ABF186801EAE2
:1042F00050000320012804D007E000BF012001285E
:1043000003D1002A02F10102EAD1012808BF0420EA
:10431000191DD8E7F0B581B040F29000C2F200005C
:1043200001210160FFF7EEFE40F20530FFF746FD88
:104330004FF44170FFF742FD40F20230FFF73EFDBF
:1043400040F21804C2F200042068D8B140F27C06A2
:104350000025C2F20006002730682844FFF754FD0C
:1043600040F20530FFF72AFD4FF44170FFF726FDBC
:1043700040F20230FFF722FD20680137874205F541
:104380008065E9D3FFF72AFD01B0F0BD2DE9F043C8
:1043900087B040F2106940F27C08C2F20009C2F214
:1043A0000008D9F80000D9F8D037D8F80020D9F89B
:1043B00000140026CDE9000604931CA00023CDE9DB
:1043C0000216059605F032F9FFF79CFED8F80000BA
:1043D00040F2AC04C2F2000440F2740740F27805E7
:1043E0002060C2F200072120C2F20005386000BF41
:1043F0002068296888420BD259F826103960FFF7E7
:10440000A9FE206801360430B6F5006F2060EFD1B8
:10441000D8F800104FF40060386001F50060C8F86B
:104420000000FFF7DBFC07B0BDE8F083464F5441C6
:10443000464D4350524F47202530386A782025306A
:10444000386A78202530386A78202530386A780D27
:104450000A00000010B50446C1B243F60000C4F2E1
:10446000010005F06FF8204610BD00004161704763
:10447000016170472DE9F047CF0601F00F0C09D517
:10448000042A05D1C26B4CF0030C1A43C26301E04D
:104490004CEA020C00F1100E00F1140A00244FF057
:1044A00001094FF00F0800270EE000BF166008FA60
:1044B00004F225EA02020CFA04F52A4302600137ED
:1044C000082F04F104040CD009FA07F212EA0306DB
:1044D000F5D0056828295246E8D04829E7D1724628
:1044E000E4E7082400254FF001094FF00F080FE022
:1044F000176008FA05F226EA02020CFA05F63243C2
:1045000042600134102C05F1040508BFBDE8F087B6
:1045100009FA04F212EA0307F3D046682829524642
:10452000E6D04829E5D17246E2E7000080680840FD
:1045300018BF0120704700002DE9F04F81B040F610
:104540009861C2F200010220087040F2F000C2F24D
:1045500000004FF0000AC0F800A040F6A460C2F2CC
:104560000000C0F800A040F62060C2F200004FF04A
:10457000FF31016040F65870C2F20000C0F800A0A0
:1045800040F2B000C2F2000041F2000800274FF2F2
:10459000E409C0F800A040F20460C4F20108C0F6CB
:1045A0000207C0F2FA2901F073FA40464FF4604165
:1045B000FFF75CFF4046102103224FF46043FFF7F2
:1045C00059FF40F63C7440F2101B40F2800640F662
:1045D0005C75C2F20004C2F2000BC2F20006C2F225
:1045E000000500BF40464FF46041FFF741FF40F235
:1045F000026001F04DFA40F2036001F049FA40F622
:104600002460C2F2000080F800A040F2D400C2F2A0
:104610000000C0F800A040F61660C2F2000080F86A
:1046200000A040F2A000C2F20000C0F800A040F6D6
:104630001C70C2F2000080F800A040F61D70C2F2AB
:10464000000080F800A040F29C00C2F20000C0F818
:1046500000A040F61470C2F20000C0F800A040F2C2
:104660001C00C2F20000006840F2DC01C2F200014E
:10467000C1F800A02760E8B140F21022C2F20002A7
:10468000ABF10101043A3B46FF2400BF53F8046B31
:10469000FF2E42F8046F28BF2646013801F8016F4B
:1046A000F4D140F63C7440F28006C2F20004C2F23B
:1046B0000006236040F21020C2F20000D0F8F80398
:1046C000012845D0FFF71CFB40F21C00C2F200009D
:1046D00000682760B8B10421C0F6020151F8042C2B
:1046E000013205D12160013801F10401F6D10AE05F
:1046F00040F29C00C2F200000121016040464FF4EC
:104700008041FFF7B5FE40F21C00C2F200000068D5
:104710002760E8B140F21022C2F20002ABF10101C1
:10472000043A3B46FF2400BF53F8046BFF2E42F8C7
:10473000046F28BF2646013801F8016FF4D140F616
:104740003C7040F28006C2F20000C2F20006036034
:104750009BF8F000642815D10420CFF6FF7038587C
:1047600040F29401C2F20001086040F29801C2F2E6
:10477000000108600020CFF6FF70385880F30888E9
:10478000086880479BF80000FF281DD09BF80110A7
:10479000FF2919D09BF80220FF2A15D0A0B199B1AA
:1047A00092B14FF0FF3000BF0BEB00014978331896
:1047B000A1F130024B2A00F1010028BF51460E281A
:1047C0005970F1D110E000BF43F24D20C5F24D0009
:1047D000306044F64C60C4F6415070605220307234
:1047E000C6F809A0A6F80DA09BF80F000130C0B2D2
:1047F00002280BD240F2A40043F23101C2F20000C1
:10480000C3F23001016080F804A009E09BF81300B6
:10481000DBF80F1040F2A402C2F200021071116026
:104820009BF84100411CC9B201290FD840F2B400E5
:10483000C2F2000080F800A040F2F800C2F20000CE
:10484000C0F800A08BF841A00AE000BF40F2B4011C
:10485000C2F20001087040F2F801C2F200010860E3
:104860009BF814000130C0B2022813D39BF8190042
:10487000FF280FD070B1DBE90501DBF81F2043F6FC
:104880001806C2F20006DBF81C30C6F80B200BC677
:1048900015E000BF43F61800C2F200003221017398
:1048A00043F22B61C3F63201016043F23561C3F27A
:1048B0003811416043F23311C3F2384181609BF8F3
:1048C00023000130C0B2022814D39BF82800FF282F
:1048D00010D078B1DBF82300DBF82E2043F6280651
:1048E000C2F20006DBF82710DBF82B30C6F80B20ED
:1048F0000BC615E043F62801C2F2000143F6391059
:10490000888143F22B60C3F63200086043F23230F4
:10491000C3F23100486043F63210C3F233108860AE
:104920009BF832000130C0B2022815D39BF8370043
:10493000FF2811D080B1DBF83200DBF83D2043F6D0
:104940003806C2F20006DBF83610DBF83A30C6F85B
:104950000B200BC615E000BF43F638013220C2F22F
:104960000001888143F22B60C3F63200086043F2F5
:104970003110C3F23230486043F23430C3F2317048
:1049800088609BF8431004290AD84FF41650DFE8DA
:1049900001F017030E1114004FF4964010E000BF11
:1049A00040F22000C2F200000068FF2908E04FF446
:1049B000164005E04FF4614002E04FF4E13000BFE3
:1049C00040F2B801C2F20001086044F64A30C0F279
:1049D0004C0000BF013800BFFCD19BF844000130FF
:1049E000C0B202280AD240F6287044F24541C2F211
:1049F0000000C4F64D11C0E9001107E0DBE9110128
:104A000040F62872C2F20002C2E900019BF842009F
:104A1000411CC9B2012909D840F2F400C2F20000D9
:104A2000C0F800A08BF842A005E000BF40F2F401FE
:104A3000C2F200010860FDF7ADFB40F2B800C2F21F
:104A40000000006804F03EFD47F2EF00C0F2720083
:104A5000013800BFFCD1A8F580663046042103224E
:104A60000123FFF707FD3046102103220223FFF741
:104A700001FD30460221FFF7FBFC4846013800BF2C
:104A8000FCD130460221FFF7F1FC03F0BDFB47F6F5
:104A90007200C0F27D1000BF013800BFFCD108F5E4
:104AA000E0500021C82203F08BFB40464FF4005138
:104AB00085F800A0FFF7DAFC40F29C00C2F200008B
:104AC000C0F800A040464FF48041FFF7CFFC4046BD
:104AD0004FF40041FFF7CAFC40F208010FF2587092
:104AE000C2F2000104F0A2FD4CF29030C0F6EB30AF
:104AF000013800BFFCD140F2E000C2F2000080F8B3
:104B000000A040F6B060C2F200006421FBF745FB54
:104B100040F29C00C2F200000121016040464FF4C7
:104B20000051FFF7A5FC00BF30460121FFF7FEFC56
:104B300040F61C71C2F20001002818BF0120087065
:104B400029782878002937D001382D2800F2F882FA
:104B5000DFE810F02E00760079007C007F00F6027E
:104B600092009500F602F602F602F602F602A000A6
:104B7000F602A300F602AC00D000FC00FF00020128
:104B80001D01200137013A014C014F015201F6028B
:104B9000F602F602F6027601790182018F01CD015B
:104BA000F602F60223024002F60260026302A60247
:104BB00001F0CEF8C4E200BF612800F0D08228786E
:104BC000622800F0CC822878632800F0C88240F286
:104BD000D402C2F200022878116840F65D73C2F276
:104BE00000031870481C3629106020DB0FF270603B
:104BF00004F056FC49F29460C0F29800013800BFFE
:104C0000FCD140F2D400C2F20000C0F800A040F293
:104C10009C00C2F20000C0F800A040464FF4804162
:104C2000FFF724FC40464FF40041FFF71FFC44F619
:104C30004A30C0F24C0000BF013800BFFCD173E71E
:104C400001F072FA7CE202F027F979E202F0B8FB97
:104C500076E240F29C010020C2F20001086040466A
:104C60004FF48041FFF702FC40464FF40041FFF74C
:104C7000FDFBFDF7A7FF63E202F0DEFF60E244F612
:104C80004A30C0F24C0000BF013800BFFCD1FDF734
:104C90006DFB55E201F028F952E242F62850C0F2CD
:104CA000311000BF013800BFFCD104E241F218709E
:104CB000C2F2000001680429C7BF01202870013139
:104CC000016040464FF40041FFF7D0FB44F64A3004
:104CD000C0F24C00013800BFFCD140464FF4004107
:104CE000FFF7C6FB44F64A30C0F24C00013800BF63
:104CF000FCD125E240464FF40041FFF7B7FB44F6F4
:104D00004A30C0F24C0000BF013800BFFCD1404621
:104D10004FF40041FFF7ACFB44F64A30C0F24C00C0
:104D2000013800BFFCD140F29C010120C2F2000119
:104D3000086040464FF48041FFF79AFB49F29460C7
:104D4000C0F29800013800BFFCD1F9E101F062FB2C
:104D5000F6E101F019FDF3E12878162805D149F6AE
:104D60006640C0F6000004F09BFB4EF2DE10C0F27D
:104D7000E40000BF013800BFFCD140F65D70C2F214
:104D80000000007802288CBF19201720D6E101F01E
:104D900087FDD5E140F2E80440F29C02C2F2000433
:104DA000C2F200022068116801300029206000F082
:104DB000AB810020106040464FF48041FFF756FB66
:104DC000A9E101F0FDFEBBE147F67200C0F27D10E3
:104DD000013800BFFCD100F0EFFE4EF2DE10C0F251
:104DE000E40000BF013800BFFCD13CE001F05EFFF1
:104DF000A6E101F0CDFFA3E14EF2DE10C0F2E40027
:104E0000013800BFFCD140F6607949F65750C2F234
:104E10000009C0F60000494604F008FC4846FF219E
:104E2000FBF7BBF944F64A30C0F24C00013800BF32
:104E3000FCD140F65D70C2F2000000782870A7E057
:104E400002F052FA7CE149F29460C0F2980000BF8F
:104E5000013800BFFCD173E147F67200C0F27D104B
:104E6000013800BFFCD140F65D70C2F2000000784E
:104E700064E149F60A40C0F6000004F011FB4EF26E
:104E8000DE10C0F2E40000BF013800BFFCD140F6E4
:104E90001870C2F20000012101604AF26400C0F6FD
:104EA0000000D0E900C200F1080740F6607198CF19
:104EB000C2F20001C1E900C201F1080298C2828A6F
:104EC000807D8A82887500F013FE42F62850C0F279
:104ED000311000BF013800BFFCD140F65D70C2F256
:104EE0000000007800272870C0F6020728E149F684
:104EF0000A40C0F6000004F0D3FA4EF2DE10C0F211
:104F0000E40000BF013800BFFCD140F61870C2F2C7
:104F10000000012101604AF27C00C0F60000016837
:104F2000071D009100F1100ED0F81C9040F660783B
:104F3000D0E90810C2F20008C8E9081000989EE8FD
:104F400010508CCF88E88D0008F1100080E81050D8
:104F5000C8F81C9000F0CCFD49F29460C0F29800B3
:104F6000013800BFFCD140F2B0010120C2F20001C3
:104F7000086040F270010D20C2F20001086062205A
:104F800041F2000800272870C4F20108C0F60207A9
:104F90004FF2E409C0F2FA29D2E040F2B001022057
:104FA000C2F2000108604EF2DE10C0F2E40000BF61
:104FB000013800BFFCD140F2B0010220C2F2000172
:104FC0000860622040F2700128700520C2F20001E2
:104FD0000860B5E0287840F65D71C2F20001087003
:104FE0004EF67E20013800BFFCD140F62461C2F2AB
:104FF00000010878032861D340F270026220012189
:10500000C2F200022870116040F65D71C2F2000128
:10501000087095E002F086FB92E040F6387240F2AC
:10502000BC00C2F20002C2F2000000211278C0F8F7
:105030000B10C0E90011816040F22400012AC2F285
:1050400000003ED144F64A31C0F24C01013900BFA4
:10505000FCD14FF0FF3101604AF2A400C0F600001D
:1050600090E81E5040F66070C2F2000080E81E50CA
:1050700000F0A2FD484600BF013800BFFCD140F25D
:1050800070010320C2F2000108606220287044F61B
:105090004A30C0F24C0000BF013800BFFCD119E01B
:1050A00067A004F02DFD40F6F060C0F2277000BF4D
:1050B000013800BFFCD1FDF78DFE41E000200870F3
:1050C0003EE040F65D72C2F2000212784FF0FF310E
:1050D00001602A7042F2987040F20401C2F20000AE
:1050E0000022C2F200010968026042F29C70C2F222
:1050F0000000FBF752F844F64A30C0F24C0000BF03
:10510000013800BFFCD11BE00120106040464FF485
:105110008041FFF7ADF944F24220C0F20F0000BF1A
:10512000013800BFFCD140F69861C2F2000120684E
:105130000978884204DB642020600E20287000BFBC
:1051400028782B2808BF02F069FA2878622806D050
:105150002878612803D0287863287FF4E5AC287884
:10516000622810D140F62460C2F2000000780328C3
:1051700009D33DA004F05AFA44F64A30C0F24C007C
:10518000013800BFFCD140464FF46041FFF76EF993
:1051900042F6285040F63C7440F28006C0F23110CE
:1051A000C2F20004C2F20006013800BFFCD140F296
:1051B0007000C2F20000006803280CD149F6594083
:1051C000C0F6000004F06CF948F21860C5F2A34084
:1051D000013800BFFCD149F29460C0F2980000BFD2
:1051E000013800BFFCD140F27000C2F2000000683C
:1051F00003280ED02878612804D0287863287FF40B
:10520000F1A906E046F6E800C1F6CD50013800BF2E
:10521000FCD14EF60C50CEF20000BFF34F8F016868
:10522000042201F4E061C0F2FA5211430160BFF3BD
:105230004F8F00BFFEE700BF474F2025730D0A00C8
:105240005245434549564520464F54412046524F0A
:105250004D2045434D20534F4654574152450D0074
:1052600041540D0A00000000444953434F4E4E453F
:10527000435400002DE9F04F81B08246032818DB2B
:1052800042F29870C2F200000021016042F29C706C
:10529000C2F2000040F63401FAF77FFF40F660707A
:1052A00041F26001C2F20000C2F20001FF22FAF7EF
:1052B0005BFF40F66076C2F20006707A22286CD15D
:1052C00040F27C000021C2F20000C0F60101016042
:1052D00040F65C71C2F200012B20087040F6286095
:1052E000C2F200003221FAF758FF43F6040840F6F4
:1052F000407B40F2FC0941F26820C2F20008002421
:10530000C2F2000BC2F20009C2F200004FF4966133
:10531000C8E90044C8E90244C8F81040CBE9004499
:10532000CBE90244CBF81040C9E90044C9E9024482
:10533000C9F81040FAF731FF0A254FF0000C0021A0
:105340000022002304E000BF642D05F1010535DAD9
:10535000705D2C38B0FA80F040090544775D222F4B
:105360002CD00444032CEFD8DFE804F0060F13021E
:1053700009F803700133E7E740F62860C2F2000045
:1053800000F80C700CF1010CDEE708F80170013137
:10539000DAE70BF802700132D6E7BAF1000F72D0EB
:1053A00049F65C50C0F6000004F0AAFB49F2946094
:1053B000C0F29800013800BFFCD17CE049F6F8301B
:1053C000C0F6000004F06CF846F65610C0F27840C3
:1053D000013800BFFCD141F2682540F65C79C2F289
:1053E000000545F63A2744F64A362B24C2F2000956
:1053F00028464FF49661C0F27377C0F24C0689F8E4
:105400000040FAF7CAFE40F6286243F6040371A191
:10541000C2F20002C2F200032846CDF800B004F048
:1054200015F941F21878BAF1000FC2F200084FD016
:1054300041F2682549F65750C2F20005C0F6000057
:10544000294604F0F3F8284604F02AF8002089F8E9
:105450000040C8F8000000BF013F00BFFCD12B2076
:1054600089F8000041F21C70C2F2000000210160C6
:105470005FA004F045FB3046013800BFFCD1BAF113
:10548000030F40DA61E040F6607049F6F55140F2F2
:105490000802C2F20000C0F60001C2F2000204F0ED
:1054A000D5F800F089FB42F62850C0F2311000BF59
:1054B000013800BFFCD140F65D70C2F200000078F8
:1054C00040F65C71C2F20001087001B0BDE8F08FD7
:1054D00041F26820C2F2000003F0E2FF002089F8E8
:1054E0000040C8F8000000BF013F00BFFCD12B20E6
:1054F00089F8000041F21C70C2F200000021016036
:10550000BAF1030F21DB40F66070C2F20000FF2108
:10551000FAF743FE42F29870C2F2000000210160E7
:1055200042F29C70C2F2000040F63401FAF735FEF8
:10553000013E00BFFCD149F6575041F26821C0F648
:105540000000C2F2000104F071F841F26825002069
:10555000C2F2000540F2FC02C8F8000028A1C2F225
:105560000002284604F072F82B2089F80000284633
:1055700003F096FF49F26860C0F6BA20013800BF18
:10558000FCD1BAF1000F09D049F6575042F29C7194
:10559000C0F60000C2F2000104F048F840F2240016
:1055A000C2F200000021016040F2CC00C2F2000013
:1055B000016040F27000C2F20000082202602B205D
:1055C00089F8000041F22070C2F20000016001B0D1
:1055D000BDE8F08F41542B4654504F50454E3D226C
:1055E0002573222C222573222C222573220D0A00DA
:1055F0004D464F5441205354415254494E470D009B
:1056000041542B4654504745543D222573222C309B
:105610000D0A00004EF60C5CCEF2000CDCF80030F7
:1056200003F4E063B3F5E06F01D104232AE0DCF872
:10563000003003F4E063B3F5C06F01D1032321E030
:10564000DCF8003003F4E063B3F5A06F01D102236E
:1056500018E0DCF8003003F4E063B3F5806F01D1AB
:1056600001230FE0DCF8003003F4E063B3F5407F82
:1056700001D1002306E040F20053C0F2FA53CCF807
:105680000030022301FA03FCC3F104030F21D940C7
:1056900011404EF2001241EA0C01CEF20002090163
:1056A00040EA020383F8001300F01F01012303FA0C
:1056B00001F11C2303EAD000815070472DE9F04F1F
:1056C00087B040F29C01C2F200010A68054652B15F
:1056D0000020086041F20000C4F201004FF4804154
:1056E000FEF7C4FE09E00120086041F20000C4F2A8
:1056F00001004FF48041FEF7BBFE41F26824C2F284
:10570000000420464FF49661FAF747FD012D00F0A2
:105710008080032D00F09780022D40F0838042F2BC
:105720009C7740F6106A40F210694FF00008C2F210
:105730000007C2F2000AC2F200090025002009E0B9
:10574000B0F5C86FC8BF40F20970B0F5E16F00F165
:10575000010067DA411FB1F5F77FF1D8002DEFD1D5
:10576000395C522910D1C1194A78452A0CD18A785E
:10577000432A09D1CA78562A06D109793A2903D190
:1057800005300125002107E00025DEE71D46104613
:105790000D2901F101010CDA3A5C6B1C0D2A00F1B4
:1057A0000102F3D1BE5C0A2EF0D102350230143171
:1057B000EEE7391820464FF48062FAF7D5FCDAF8A4
:1057C0000000E31E09EB800104390022D3F80360D6
:1057D000013A043341F8046F12F5807FF6D1801A44
:1057E000411EB1F5FF7FCAF800000FDBFEF792FD06
:1057F00044F62A60013800BFFCD1FEF7C7FD4846D9
:105800004FF40061FAF7C9FCCAF8008040F2097051
:105810009BE740F21060C2F200004FF40061FF22EB
:10582000FAF7B4FC42F29870C2F200000021016065
:1058300042F29C70C2F2000040F63401FAF7ADFC6F
:1058400007B0BDE8F08F41F21870C2F20000642189
:1058500042F29C7640F6106940F2106A01604FF007
:10586000000BC2F20006C2F20009C2F2000A0FF2F7
:1058700008180027002009E0B0F5C86FC8BF40F243
:105880000970B0F5E16F00F10100CBDA411FB1F50D
:10589000F77FF1D8002FEFD1315C522910D1811957
:1058A0004A78452A0CD18A78432A09D1CA78562ADF
:1058B00006D109793A2903D106300127002107E0F2
:1058C0000027DEE71F4610460D2901F101010CDA21
:1058D000325C7B1C0D2A00F10102F3D1B55C0A2D6C
:1058E000F0D1023702301431EEE7311820464FF480
:1058F0008062FAF739FCD9F80000E31E0AEB800158
:1059000004390022D3F80350013A043341F8045F0C
:1059100012F5807FF6D1801A40F27C01C2F20001BC
:10592000DAF800340AEB80050A68DAF8001055F856
:10593000285CC9F80000CDE9023B069040460023F0
:10594000CDE9001B0495CDF814B003F06FFEFEF70F
:10595000E1FC44F62A6000BF013800BFFCD1FEF72D
:1059600015FD50464FF40061FAF717FCC9F800B076
:1059700040F2097085E700BF464F544150726F6393
:1059800065737333202530386A78202530386A787B
:10599000202530386A78202530386A782025640D33
:1059A0000A00000010B541F20402C4F202021168BC
:1059B000C1F38101022906D001290CD14BF68021C7
:1059C000C0F28C1135E01168C90309D440F6001CFF
:1059D000C0F23D0C17E041F20021C0F27A0128E04C
:1059E000916A46F600434900116845F6405CC0F2F2
:1059F000DC23C0F2C60C5CBF4BF68023C0F28C13D4
:105A0000890358BF9C4613681168C3F3834E102363
:105A100003EAD15113688E44202101EA5361714495
:105A20000B463F2918BF01330F2938BF8B1C03FBDE
:105A30000CF11368D2F800C0146803280FD8C3F320
:105A400003130FA2D25C49F6243E21FA02F3C0F6FA
:105A5000000EDFE800F01302060D184610BD00200E
:105A600010BDCCF302201EF8000023FA00F010BD98
:105A7000C4F3C2201EF8000023FA00F1084610BD4E
:105A800000000000000000000102030406070809EE
:105A900041F2000300F01F018009C4F202034FF03D
:105AA000010CC2580CFA01F11143C15070470000BB
:105AB00041F2000300F01F018009C4F202034FF01D
:105AC000010CC2580CFA01F122EA0101C1507047E1
:105AD00041F2000300F01F018009C4F202034FF0FD
