:020000040800F2
:10000000683B002045010008590200085102000821
:100010005502000849020008C10300080000000062
:100020000000000000000000000000006102000865
:100030004D020008000000005D0200086502000893
:100040005F0100085F0100085F0100085F01000810
:100050005F0100085F0100085F0100085F01000800
:100060005F0100085F0100085F0100085F010008F0
:100070005F0100085F0100085F0100085F010008E0
:100080005F0100085F0100085F0100085F010008D0
:100090005F0100085F0100085F0100085F010008C0
:1000A0005F0100085F0100085F0100085F010008B0
:1000B0005F0100085F0100085F0100085F010008A0
:1000C0005F0100085F0100085F0100085F01000890
:1000D0005F010008B1030008B90300085F010008D0
:1000E0005F0100085F0100085F0100085F01000870
:1000F0005F0100085F0100085F0100085F01000860
:100100005F0100085F0100085F0100085F0100084F
:100110005F0100085F0100085F0100085F0100083F
:100120005F0100085F0100085F0100085F0100082F
:10013000DFF80CD000F076F8004800476D2B00087F
:10014000683B00200648804706480047FEE7FEE778
:10015000FEE7FEE7FEE7FEE7FEE7FEE7FEE7FEE777
:10016000690200083101000840EA01039B0703D03F
:1001700009E008C9121F08C0042AFAD203E011F8E6
:10018000013B00F8013B521EF9D27047D2B201E0A8
:1001900000F8012B491EFBD270470022F6E710B58C
:1001A00013460A4604461946FFF7F0FF204610BDE5
:1001B000421C10F8011B0029FBD1801A704710B5B2
:1001C000002200E0521C835C8C5CA34201D1002B16
:1001D000F8D1D8B2E1B2401A10BD30B505460020C2
:1001E000034600E05B1C934205D2EC5CC85C201A1D
:1001F00001D1002CF6D130BD30B50B4601460020B0
:100200002022012409E021FA02F59D4205D303FAD8
:1002100002F5491B04FA02F52844151EA2F1010259
:10022000F1DC30BD064C074D06E0E06840F001030C
:1002300094E8070098471034AC42F6D3FFF77CFFF0
:10024000E07C0008007D0008FEE700007047000029
:10025000FEE70000FEE70000704700007047000066
:10026000704700007047000081B04EF68851CEF212
:1002700000010A6841F2040042F47002C4F2020074
:100280000A6050F8041C4FF0000C41F0010140F8E6
:10029000041C016844F61F6341F080010160CDF841
:1002A00000C0009A9A4207D844F62062009B0133AE
:1002B0000093009B9342F9D3C0F800C0C0F828C057
:1002C00050F8042C4FF6FF73CFF6F6631A4040F84F
:1002D000042C4FF41F02426050F8042C22F48022B8
:1002E00040F8042C50F8042C42F4803240F8042CDE
:1002F0004FF6FE7250F8041C013A4CF100038903DA
:1003000001D4002BF6D150F8041C890301D400BF9E
:10031000FEE7826947F2000142F08052C4F2000118
:1003200082610A684FF6FF7342F440420A60026835
:10033000CBF2C373026002680260026842F480621A
:100340000260026822F440320260026842F44032E5
:10035000026002681A400260026842F4C012026041
:1003600050F8042C42F0807240F8042C50F8042C11
:100370009201FBD50A6842F480320A604A68D203CF
:10038000FCD50A6842F400320A6000BF4A68920352
:10039000FCD5016821F003010160016841F0020110
:1003A000016000BF01680907FCD501B0704700007B
:1003B00080B506F0B9F880BD80B506F089F980BD3A
:1003C000FEE700002DE9F04F85B040F20819C2F2B7
:1003D000000940F2082C40F6547841F2306EC2F227
:1003E000000CA9F1010040F204030024C2F200084D
:1003F000C2F2000E0490ACF10400FF264FF0010A97
:10040000C2F200034FF0000B039000BFBBF1040FDA
:10041000C0F2968118F80B103D2940F091810BEB4A
:10042000080010F8012C442A50D110F8022C552A4B
:100430004CD10BF1010018F8001001253D2908BF2F
:100440000BF1020018F800108346A1F13000774646
:10045000CEF8000089F843004C4689F8FE50E24689
:10046000CCF8F85302F016F802F084F940F21800C4
:10047000C2F200000068002240F63071C0F60202AD
:10048000C2F200010A6090B1DDE9031352F8045B87
:10049000FF2D41F8045F28BF3546013803F8015F9E
:1004A000F4D140F63070C2F2000002600125BE4671
:1004B000D446A14600244FF0010A40F20403C2F2E0
:1004C0000003002D40F0408100F086BD3D2940F042
:1004D000378110F8012C4C2A2ED110F8022C572A03
:1004E0002AD110F8032C4D2A26D10BF10E0109F167
:1004F00014020BF10103002042F2014689F8FEA02C
:10050000CCF8F8A30DE000BF2C2D08BF184600283A
:10051000A3F1010718BF1470013301328F4280F23A
:100520001B8118F803500D2D1570EDD80AFA05F748
:100530003742E9D01846EAE73D2940F0018110F83A
:10054000012C472A28D110F8022C462A24D110F871
:10055000032C432A20D1CCF8F8A340F2780C411C9C
:100560000BF1010200200023C2F2000C89F8FEA06A
:100570000BE000BF002806BF09F80350002009F86F
:10058000034001330F2B00F08582CD5C2C2DF1D17F
:10059000D01809F80340F4E73D2940F0D18010F865
:1005A000012C542A5BD110F8022C532A57D110F891
:1005B000032C522A53D110F8042C572A4FD14078DB
:1005C00089F8FEA0B0F130010BF1020018F800200C
:1005D000CCF8F8A3CEF800104FF0000798BF3946CA
:1005E0002C2A08BF0BF1030018F80020019189F8AC
:1005F00041102C2A08BF0130029008EB000241F2A2
:1006000080100025C2F20000535D002F394608BF5C
:100610002946002B08BF0F46002F18BF234643551D
:100620000135052DF0D1791E40F698600329C2F2FC
:100630000000046000F2EB82DFE811F00400080320
:100640001D03340341F28010C2F20000017840F62D
:1006500098603039CEF80010C2F2000041E33D2925
:100660006ED110F8011C54296AD110F8021C5329CC
:1006700066D110F8031C522962D110F8041C4829D5
:100680005ED1407889F8FEA0CCF8F8A3B0F1300A2A
:100690000BF10202CEF800A04FF0000098BF824696
:1006A00061465FFA8AFC18F80230C1F808C140F2CE
:1006B000EC0189F842A02C2B08BF0BF1030218F8BB
:1006C0000230C2F20001C1F800C041F280110024E2
:1006D0002C2B08BF013208EB02030025C2F20001F7
:1006E000029200BF5F5D0028024608BF2A46002F25
:1006F00008BF1046002818BF27464F550135052D65
:10070000F0D1421E40F6946940F2000B032AC2F277
:100710000009C0F6020BC9F8004000F24D83DFE883
:1007200012F00400670379038D0341F28010C2F2D6
:1007300000000078A0F13002CEF800209AE300BF5C
:100740000125002D00F0488418680BF1010B83454A
:10075000FFF65CAE00F040BC18F8001009F123036E
:100760002C2908BF013018F800102C2908BF0130CF
:1007700000F10E0200210BE02C2D08BF01460029DC
:1007800018BF1C70904200F1010003F101030ADA66
:1007900018F800500D2D1D70EED80AFA05F73742F3
:1007A000EAD00146EBE718F8010009F132022C28E3
:1007B00008BF013118F8010000232C2808BF0131BF
:1007C00001F10E00FF2608E0002B01F1010B18BF1C
:1007D00014700132814259460CDA18F801500D2D7F
:1007E0001570F1D80AFA05F742F201452F4218BFF9
:1007F0000B46E9E799F814000130C0B2022812D381
:1008000099F81900FF280ED068B1D9E90501D9F887
:100810001F2043F23075C2F20005D9F81C30C5F82C
:100820000B200BC514E043F23070C2F200003221FD
:10083000017343F22B61C3F63201016043F235616B
:10084000C3F23811416043F23311C3F23841816081
:1008500099F823000130C0B2022814D399F8280077
:10086000FF2810D078B1D9F82300D9F82E2043F210
:100870004075C2F20005D9F82710D9F82B30C5F819
:100880000B200BC515E043F24071C2F2000143F6A4
:100890003910888143F22B60C3F63200086043F2BE
:1008A0003230C3F23100486043F63210C3F23310E5
:1008B000886099F832000130C0B2022818D399F844
:1008C0003700FF2814D098B16746D9F832C0D9F85C
:1008D0003610D9F83D20D9F83A3043F25070C2F2C0
:1008E00000007546C0F80B20C0E900C1836016E027
:1008F00043F250713220C2F20001888143F22B6032
:10090000C3F63200086043F23110C3F2323048605F
:1009100043F2343067467546C3F23170886001F0A7
:10092000B9FD01F027FF40F21800C2F20000006894
:10093000002140F63072C0F60201C2F20002AE465B
:10094000BC461160A0B1DDE903130022C0F602022B
:1009500052F8047BFF2F41F8047F28BF3746013847
:1009600003F8017FF4D140F63070C2F2000002605B
:1009700099F814000130C0B2022812D399F8190076
:10098000FF280ED068B1D9E90501D9F81F2043F23C
:100990003075C2F20005D9F81C30C5F80B200BC524
:1009A00014E043F23070C2F200003221017343F2CE
:1009B0002B61C3F63201016043F23561C3F2381195
:1009C000416043F23311C3F23841816099F823004A
:1009D0000130C0B2022814D399F82800FF2810D0A3
:1009E00078B1D9F82300D9F82E2043F24075C2F22D
:1009F0000005D9F82710D9F82B30C5F80B200BC506
:100A000015E043F24071C2F2000143F639108881CB
:100A100043F22B60C3F63200086043F23230C3F277
:100A20003100486043F63210C3F23310886099F801
:100A300032000130C0B2022815D399F83700FF28E0
:100A400011D080B1D9F83200D9F83D2043F2507569
:100A5000C2F20005D9F83610D9F83A30C5F80B20A3
:100A60000BC5002529E543F250713220C2F2000186
:100A7000888143F22B60C3F63200086043F23110E4
:100A8000C3F23230486043F23430C3F231708860D0
:100A9000002512E508EB000200210023D55C2C2D77
:100AA0001ABF09EB0307FD73C11800291CBF09EB2E
:100AB0000307FC730133052BF0D101F1010B18F88A
:100AC0000B002C2808BF01F1020B18F80B002C2892
:100AD00008BF0BF1010B18F80B0099F80010303823
:100AE000CEF8000098BF2046FF2989F841001DD0AC
:100AF00099F80120FF2A19D099F80230FF2B15D060
:100B0000A1B19AB193B14FF0FF3100BF09EB0102DF
:100B100052780CEB0107A2F130034B2B01F10101DC
:100B200028BF22460E297A70F0D112E043F24D21FF
:100B3000C5F24D01CCF8001044F64C61C4F64151A9
:100B4000CCF8041052218CF80810CCF80940ACF80D
:100B50000D4099F80F100131C9B202290AD240F2B2
:100B60009C0143F23102C2F20001C3F230020A607A
:100B70000C7109E099F81310D9F80F2040F29C038A
:100B8000C2F2000319711A60411CC9B201290CD8C4
:100B900040F2AC00C2F20000047040F2F000C2F279
:100BA0000000046089F841400AE040F2AC01C2F262
:100BB0000001087040F2F001C0B2C2F2000108600A
:100BC00001F068FC01F0D6FD40F21800C2F200000E
:100BD0000068002240F630710028C0F60202C2F21E
:100BE00000010A6000F0ED81DDE9031352F8047B97
:100BF000FF2F41F8047F28BF3746013803F8017FF3
:100C0000F4D140F63070C2F200000260D9E141F246
:100C10008010C2F200000178427883784FF47A7B2A
:100C20000093303902FB0BF242F21073C77811FBCC
:100C30000321009B642213FB021107EB870201EBE7
:100C400042014DF22002891A02790DE041F2801032
:100C5000C2F20000017842784FF6206001EB81017A
:100C6000CFF6FF7000EB410140F69860C2F2000041
:100C7000303A016032E041F28010C2F200000178A7
:100C8000427883786420414302EB820201EB420107
:100C900040F69860A1F5A551C2F200000160A3F1F1
:100CA00030021BE041F28010C2F20000017842786D
:100CB0008378C7786420303942434FF47A7011FB4F
:100CC000002103EB830201EB420140F69860A1F59D
:100CD000A551C2F200000160A7F130021144CEF824
:100CE000002048F68907A1F2A152C8F6880712F53C
:100CF000B46F0A4657FB011140F6A063C2F200032D
:100D000038BF4FF4B4621A604B1103EBD17157FB3B
:100D1000022340F61467C2F2000739605F1107EB47
:100D2000D373C3EB0313A2EB830303600198CCE9F5
:100D30006421411CC9B20129CEF80020CCF89831B9
:100D40000CD840F2AC00C2F20000047040F2F00097
:100D5000C2F20000046089F841400AE040F2AC01B0
:100D6000C2F20001087040F2F001C0B2C2F200010C
:100D700008600027C0F6020701F08CFB01F0FAFCC6
:100D800040F21800C2F20000006840F630710028FE
:100D9000C2F200010F6000F00F81DDE903133A4653
:100DA00052F8047BFF2F41F8047F28BF37460138F3
:100DB00003F8017FF4D1FAE041F28011C2F20001A0
:100DC00008784A784FF47A748B78CF783038624359
:100DD00042F2107410FB0420642213FB020007EBA4
:100DE000870200EB42004DF22002801A0A790DE0E2
:100DF00041F28011C2F2000108784A784FF6206172
:100E000000EB8000CFF6FF7101EB4000303AC9F8EB
:100E100000002CE041F28011C2F2000108784A780B
:100E20008B786421484302EB820200EB4200A0F57C
:100E3000A550C9F80000A3F1300218E041F280117A
:100E4000C2F2000108784A788B78CF786421303874
:100E50004A434FF47A7110FB012003EB830200EB4D
:100E60004200A0F5A550C9F80000A7F13002CEF865
:100E70000020024442F261704DF6A00142F260741B
:100E8000101ACFF6FF711346C9F80020884238BF08
:100E900042F26073181B4F1CB842CEF8003013D2D8
:100EA00040F2082140F2E402C2F200010620C2F240
:100EB0000002C1E96904106040F61060C2F200004F
:100EC000172202603B2228E045F606315809C0F29D
:100ED000B05148F68906A0FB0107C8F6880656FB04
:100EE000022040F2E40240F20821C2F20002C2F203
:100EF000000117604211C1E9697302EBD07056FB23
:100F0000033240F61067C2F200073860501100EB60
:100F1000D270C0EB0010A3EB800240F61460C2F266
:100F200000000068C9F80020C1F89C010AF1010026
:100F3000C0B20128C1F8A0210CD840F2EC0040F268
:100F400008190024C2F20000C2F20009046089F806
:100F500042400AE040F2EC0040F20819C2F2000000
:100F6000C2F200090024C0F800C04FF0010A01F0ED
:100F700091FA01F0FFFB40F21800C2F20000006895
:100F800040F63071C2F200014FF0FF06C1F800B028
:100F900090B1DDE903135A4652F8047BFF2F41F864
:100FA000047F28BF3746013803F8017FF4D140F6AB
:100FB0003070C2F200000260029800EB050B00F0F6
:100FC00015F841F2306E40F2082C0025C2F2000EF6
:100FD000C2F2000CFFF771BA40F65470C2F2000082
:100FE000FF21FFF7DAF805B0BDE8F08F2DE9F043F7
:100FF00040F20820C2F20000D0E9666440F6106CAE
:10100000C2F2000CD0E96457D0E9681340F6A0683A
:1010100040F6146240F69869CCF8004040F6946EB1
:1010200040F2E404C2F20008C2F20002C2F2000977
:10103000C2F2000EC2F20004C8F800501760C9F8EE
:101040000060CEF8001057EA0601236004BF1821A3
:10105000116011681929A4BF182111601168B1F13C
:10106000FF3FDCBF00211160B6F1FF3FDCBF002174
:10107000C9F80010A5F5B46111F5B46F08D84FF4A4
:10108000B461C8F80010172111603B21C9F80010A5
:10109000D0F8A81142F260754DF6A003491BCFF6B7
:1010A000FF7312689942D9F80010C2EB021301EBEA
:1010B0008301C8F8001088BFBDE8F083172306211C
:1010C000CCF800303B232160CEF80030C0E9672324
:1010D000C0E96915BDE8F083B0B5072884BF642076
:1010E000B0BDC1B2BF2222FA01F1C9074FF06404BA
:1010F00013D00BA112A251F8201052F8205040F644
:101100005470C2F20000FFF75AF840F2C801C2F270
:1011100000010860002808BF2C462046B0BD00BF73
:10112000200000202A000020320000203B00002088
:101130004600002052000020200000205C0000201B
:101140000000000001000000020000000300000099
:101150000400000012000000000000001500000064
:101160002DE9F04782B040F6187040F65474C2F290
:1011700000000021C2F20004C0E9001104E000BF39
:10118000FD2901F101010DDA625C212AF8D1EF2974
:10119000F6DC2144D1F80120D1F80510C0E9002186
:1011A000FF21EDE740F6187040F62071C2F2000012
:1011B000C2F200010822FFF710F841F2306640F257
:1011C000680940F2C408C2F20006C2F20009002118
:1011D0000028C2F200083060C9F8001000F08780D3
:1011E000207A532840F0EB80E0794D2840F0E780EA
:1011F000A0794C2840F0E380A07A44F64A372228B0
:10120000C0F24C0740F00E8140F6507040F6546A30
:10121000C2F200002A21C2F2000A017050463221B7
:10122000FEF7BBFF40F6287541F28010C2F20005C0
:101230000026C2F200004FF49661C5E90066FEF791
:10124000ACFF0B2000210022235C2C2B04BF0126C5
:101250000130235C222B0AD0002E19BFAB5401327F
:101260000AF801300131642800F10100ECDB47F697
:10127000D0104EF2DE14C0F60000C0F2E40406F016
:101280005BF900BF013C00BFFCD141F28014C2F207
:10129000000440F654630FF24851C2F200032046A6
:1012A0002A46009506F01EFA204606F045F94CF253
:1012B000BC30C0F2C91000BF013800BFFCD10FF232
:1012C0003C5006F015FB3846013800BFFCD13846CB
:1012D000013800BFFCD140F21C00C2F20000002126
:1012E00001600820C8F80010C9F80000B0E06420D0
:1012F000C8F80000002003E0FD2800F101000BDA2F
:10130000225C212AF8D1EF28F6DC22182150FF2098
:10131000516011819172EFE7617AE079257A542961
:1013200008BF4F2D58D06279E7782179A3794C2AEC
:1013300008BF572900F09580472B08BF462A00F0C8
:101340009A80442808BF552B00F00281542B08BF17
:10135000462A00F00B81432A08BF502900F048813B
:10136000522B08BF452A00F050814D2B08BF492A57
:1013700000F07D81432B08BF412A00F09A81322B77
:1013800008BF572A00F0C981412808BF542B00F03C
:10139000FA816420C8F800002046FEF709FF40F6F5
:1013A0000D222118225200208870204606F0C4F831
:1013B00040F65070C2F200001D2101704AE10FF2A8
:1013C000E83006F095FAD9F800000B210828C8F893
:1013D000001040F035813DE14F28A4D147F614308C
:1013E00044F64A34C0F60000C0F24C0406F080FA1D
:1013F000204600BF013800BFFCD140F21C00C2F201
:101400000000002101600320C8F80000C9F80000B6
:1014100040F65070C2F2000062210170013C00BF32
:10142000FCD117E1E5A006F063FA3846013800BFA9
:10143000FCD1D9F8000008280AD040F65170C2F259
:101440000000007840F65071C2F20001087000BF41
:10145000013F00BFFCD1D9F80000082840F0F0801F
:10146000F8E04D2F7FF468AF3D2B40F0AB80FEF7E6
:10147000A9FF0524A7E043297FF463AF44F64A346B
:10148000C0F24C04FEF79EFF013C00BFFCD141F2CC
:101490008014C2F2000447F6A51140F278024EF221
:1014A000DE15C0F60001C2F200022046C0F2E405DB
:1014B00006F018F9204606F03FF800BF013D00BFD6
:1014C000FCD141F28010C2F200004FF49661FEF7A9
:1014D00064FE41F24460C2F2000040F63401FEF7BF
:1014E0005CFE42F2B460C2F2000040F63401FEF746
:1014F00054FE41F67860C2F2000040F63401FEF777
:101500004CFE42F2B060C2F200000021016042F2E3
:10151000AC60C2F20000016040F65470C2F20000FC
:10152000FF21FEF73AFE40F2AC00C2F20000037861
:1015300047F68A2040F2780140F29C02C0F6000093
:10154000C2F20001C2F2000206F0BCF8022075E00F
:10155000412A7FF4FBAE3D2D63D101203060FEF7C0
:1015600031FF47F66510C0F600005EE04F297FF4BA
:10157000F2AE532F7FF4EFAE47F61F3044F64A34F5
:10158000C0F60000C0F24C0406F0B2F9204600BFDD
:10159000013800BFFCD140F21C00C2F20000002163
:1015A00001600320C8F800000D20C9F8000040F6D3
:1015B0005070C2F200006221017000BF013C00BF08
:1015C000FCD147E0012447F6AB2043F2307143F2EF
:1015D000407243F25073C0F60000C2F20001C2F242
:1015E0000002C2F2000306F06DF8C8F8004027E0E0
:1015F0003D2B08BFFEF7E6FE47F6BD2040F6207102
:10160000C0F60000C2F2000107E056297FF4ADAE3B
:1016100040F2080186A0C2F2000106F053F805204E
:101620000CE047F69D20C0F6000040F20811C2F21F
:10163000000191F8431006F045F80420C8F80000B6
:1016400040F65170C2F20000007840F65071C2F2CC
:1016500000010870D8F80000032805D140F650704A
:10166000C2F200006221017002B0BDE8F087532988
:101670007FF480AE40F6527440F65375C2F2000417
:10168000C2F2000521782A7847F66320C0F60000F0
:1016900006F018F80520C8F80000207840F65071D0
:1016A000C2F200010870287840F65171C2F20001C0
:1016B000CFE746297FF463AE462F7FF460AE49F250
:1016C000946454A0C0F2980406F012F900F0E2FE0F
:1016D00000F012FF0520C8F8000040F65170C2F279
:1016E0000000007840F65071C2F20001087000BF9F
:1016F000013C00BFFCD14EF60C50CEF20000BFF30F
:101700004F8F0168042201F4E061C0F2FA521143E4
:101710000160BFF34F8F00BFFEE746297FF434AE70
:101720004D2F7FF431AE49F2946437A0C0F2980493
:1017300006F0DEF8013C00BFFCD140F20810C2F216
:10174000000040F20111A0F8FE1040F20821C2F2A0
:1017500000010122C1E9FE22642280F8F020C1F8D4
:10176000C02300F097FE01F005F800F067FE40F698
:101770005070C2F200006321017040F65170C2F255
:101780000000017066E74F2A7FF403AE46297FF41C
:1017900000AE40F60C70C2F2000000210160012092
:1017A00001F0F4FF56E700BF4552524F522050411E
:1017B0005353434F4445210D000000004552524F02
:1017C000522E2053594E5441582041542B445444D6
:1017D0004C4D533D2249502C504F5254220D000085
:1017E00041542B4D49504F50454E3D312C25732CC3
:1017F000222573222C25732C300D0A00434F4E4EA8
:101800004543540D0000000041542B4D46573220F3
:101810004F4B0D00464143544F52592052455345BA
:101820005420495320574F524B494E470D0000005A
:1018300041542B4D5645523D25730D0A00000000C2
:10184000B0B547F6E21041F2000444F64A35C0F65E
:101850000000C4F20104C0F24C0505F06DFE204604
:101860004FF4004101F01CF9284600BF013800BFC9
:10187000FCD120464FF4004101F014F9013D00BFB6
:10188000FCD149F294640FA0C0F2980405F054FE14
:10189000204600BF013800BFFCD114A005F04CFE6B
:1018A000204600BF013800BFFCD116A005F044FE61
:1018B000013C00BFFCD140F60C60C2F200000121E7
:1018C0000170B0BD41542B4754535953434D443DCF
:1018D000226E76207365742057414E50696E6746BC
:1018E000696C7465723D31220D0A000041542B472A
:1018F00054535953434D443D226E762073617665AF
:10190000220D0A0041542B47544C414E454E414252
:101910004C453D310D0A00002DE9F04740F21C080E
:10192000C2F200084FF0FF30C8F8000040F2040097
:10193000C2F20000D0F8009042F2B46C40F2B40E53
:101940000021C2F2000CC2F2000E00244FF0000A87
:1019500005E0C819C11C00BF0131494536DA1CF841
:1019600001003A28F8D101EB0C0616F8010C5028BA
:10197000F2D116F8020C4928EED116F8030C4C28C7
:10198000EAD1002703E000BF01370E2FE1D0F319A1
:101990002246CC195879E51C2C282C4609D02C4617
:1019A0003AB9BAF1000F2C4603D1DA7800240EF8C8
:1019B00007202C28E8D11879222808BFBAF1000F97
:1019C000E2D1D878AA460EF80700DDE742F2B0600F
:1019D000C2F200000021016042F2B460C2F20000D5
:1019E00040F63401FEF7D9FB49F29460C0F298004A
:1019F000013800BFFCD140F2B40043F23071C2F2B2
:101A00000000C2F200010F22FEF7E7FB40F2C8051A
:101A100040F60C74C2F20005C2F2000401212860F5
:101A2000216068B140F2B40043F24071C2F200009C
:101A3000C2F200010F22FEF7D0FB286002202060D6
:101A4000286868B140F2B40043F25071C2F200005D
:101A5000C2F200010F22FEF7C0FB286003202060C5
:101A6000286844F64A31002840F65070C0F24C0114
:101A7000C2F200004FF0000211D022604FF0FF329E
:101A8000C8F8002003220270013900BFFCD140F6E3
:101A90005171C2F2000109780170BDE8F087C8F801
:101AA000002000BF013900BFFCD123210170BDE837
:101AB000F08700002DE9F04F81B041F20000C4F240
:101AC00001004FF4005100F0EBFF40F65470C2F2F9
:101AD0000000FF21FEF761FB40F20400C2F20000AB
:101AE000D0F800A042F2B46B0022C2F2000B00203A
:101AF000002302E0013252451ADA1BF80210432992
:101B00000ED102EB0B014F784D2F09D18F78542F56
:101B100006D1C978971D3A2904BF3A463B4600BF13
:101B2000002BE7D01BF802100BF800100130E1E7A2
:101B300041F25419AAF102024FF0000CC2F200095E
:101B4000002600271BF806002B2835D10BEB0600DA
:101B5000851C731C002100200AE000BFBCF12C0F83
:101B600008BF002F20D001300E2804F1010327D038
:101B700015F800C01C4633188E46BCF12C0F984651
:101B80001946EBD0BEF1000F98461946E6D1002F5A
:101B900098461946E2D1291811F8021CB04609F8F6
:101BA00000100021DAE700BF2F1817F8027C09F8AF
:101BB00000701F46D7E700BF4FF0000814E000BFD9
:101BC0003044861D4FF0000CB245C8BF564600BFDA
:101BD0000BEB040080790A2804D0A01D0134504585
:101BE000F6DB01E0E61DB04640F61870C2F20000D8
:101BF000B8F1000FC0F800C0C0F804C02ED040F605
:101C000054750024C2F2000507E000BF28700024CC
:101C10000136964205F1010520DA1BF806000D2871
:101C200004D10BEB060149780A2917D0212803D0EB
:101C30000A2813D01CB9E9E70134002CE6D0A11E14
:101C4000072907D840F61873C2F20003585401342C
:101C5000DEE700BF012C08BF0224D9E7B8F1000F6E
:101C600003D101365645FFF66DAF40F26400C2F273
:101C700000000A2149F2946401600FF25070C0F232
:101C8000980405F059FC2046013800BFFCD142F20F
:101C9000B06A42F2B46044F24227C2F2000A00265F
:101CA000C2F200004FF4FA71C0F20F07CAF80060E8
:101CB000FEF773FA40F26809C2F200094FF0FF30F4
:101CC000C9F8000040F60C7541F2541043F230712F
:101CD000C2F20005C2F20000C2F200012E60FEF75F
:101CE0006EFA40F2C806C2F200063060B0FA80F028
:101CF00040092860384600BF013800BFFCD1286881
:101D000078B941F2541043F24071C2F20000C2F2BD
:101D10000001FEF754FAB0FA80F14909306048003A
:101D200028603846013800BFFCD1286880B941F2EC
:101D3000541043F25071C2F20000C2F20001FEF7EB
:101D40003EFA00213060002808BF0321296000BF4F
:101D5000013F00BFFCD12868A0B340F6187040F6E0
:101D60002071C2F20000C2F200010822FEF735FA2B
:101D700041F23061C2F20001002808604AD040F60A
:101D80005475C2F200054EF2DE142846C0F2E40497
:101D9000FEF70EFA44F20A52C5F2522229182A50CE
:101DA00045F24F20C4F22030486044F24F40C2F266
:101DB000451088600020087302F0E8F8013C00BF7D
:101DC000FCD11AE040F65475C2F200054EF2DE1462
:101DD0002846C0F2E404FEF7EBF944F20A52C5F2D9
:101DE000522229182A5045F24F20C0F221004860A3
:101DF00002F0CCF8013C00BFFCD140F65170C2F2B9
:101E00000000007840F65071C2F20001087001B085
:101E1000BDE8F08F04F022F86428C9F8000000F251
:101E2000CD82DFE810F065007B00A100C900F3005F
:101E30000901CB02CB022D01CB02CB02CB029D01CB
:101E4000B701CB02CB02CB02CB02E8010D02260286
:101E50007302CB02CB02CB02CB02CB02CB02CB0272
:101E6000CB02CB02CB02CB02CB02CB02CB02CB020A
:101E7000CB02CB02CB02CB02CB02CB02CB02CB02FA
:101E8000CB02CB02CB02CB02CB02CB02CB02CB02EA
:101E9000CB02CB02CB02CB02CB02CB02CB02CB02DA
:101EA000CB02CB02CB02CB02CB02CB02CB02CB02CA
:101EB000CB02CB02CB02CB02CB02CB02CB02CB02BA
:101EC000CB02CB02CB02CB02CB02CB02CB02CB02AA
:101ED000CB02CB02CB02CB02CB02CB02CB02CB029A
:101EE000CB02CB02CB02CB02CB02CB02CB02B9029C
:101EF00040F6547040F6A4614EF2DE14C2F20000C7
:101F0000C2F20001FF22C0F2E404FEF72DF901F055
:101F1000D9FF00BF013C00BFFCD186E140F65474FC
:101F2000C2F200044EF2DE152046FF21C0F2E405A5
:101F3000FEF733F943F2507747F63F4143F23072F0
:101F400043F24073C2F20007C0F60001C2F2000281
:101F5000C2F200032046009705F0C4FB01F0B2FF77
:101F6000013D00BFFCD160E140F65474C2F20004B0
:101F70004EF2DE152046FF21C0F2E405FEF70DF912
:101F800040F20810C2F2000090F8417047F6D831D4
:101F900040F2780240F29C03C0F60001C2F2000257
:101FA000C2F200032046009705F09CFB01F08AFF77
:101FB000013D00BFFCD138E140F65476C2F2000684
:101FC0004EF2DE1506F10A00F521C0F2E405FEF737
:101FD000E4F84720308145F24F4044F25251C4F6B4
:101FE0004960C4F64271C6E9001001F06BFF00BF02
:101FF000013D00BFFCD140F65070C2F200006221EA
:10200000017000BF013C00BFFCD1D7E140F6547025
:1020100040F6A4614EF2DE14C2F20000C2F20001EA
:10202000FF22C0F2E404FEF79FF801F04BFF00BF6F
:10203000013C00BFFCD1F8E04EF2DE14C0F2E40433
:10204000FEF7C0F943F2507740F6547047F63F412F
:1020500043F2307243F24073C2F20007C2F2000052
:10206000C0F60001C2F20002C2F20003009705F0C0
:1020700039FB01F027FF00BF013C00BFFCD1D4E0D9
:1020800044F64A34C0F24C04FEF79CF9013C00BF10
:10209000FCD141F28014C2F2000447F6A51140F2CF
:1020A00078024EF2DE17C0F60001C2F200022046AE
:1020B000C0F2E40705F016FB204605F03DFA38466D
:1020C000013800BFFCD141F28010C2F200004FF491
:1020D0009661FEF762F841F24460C2F2000040F6F9
:1020E0003401FEF75AF842F2B460C2F2000040F642
:1020F0003401FEF752F841F67860C2F2000040F673
:102100003401FEF74AF842F2AC6140F65474002004
:10211000C2F20001C2F20004CAF8000008602046C2
:10212000FF21FEF73AF840F20810C2F2000090F8E2
:10213000416047F6D83140F2780240F29C03C0F685
:102140000001C2F20002C2F200032046009605F030
:10215000C9FA01F0B7FE00BF013F00BFFCD164E047
:1021600040F65474C2F200044EF2DE152046FF2100
:10217000C0F2E405FEF711F840F20802ACA1C2F289
:102180000002204605F0AEFA01F09CFE013D00BFC2
:10219000FCD14AE040F65475C2F2000505F110008A
:1021A000EF21FDF7FAFF44F6207045F2453144F285
:1021B0004F6245F24143C0F24B00C5F24541C5F2C2
:1021C0005422C5F22B33C5E90032C5E9021001F0F3
:1021D00079FE00BF013C00BFFCD144F64A30C0F29A
:1021E0004C0000BF013800BFFCD140F65070C2F275
:1021F00000006221E1E040F65474C2F200044EF2A5
:10220000DE152046FF21C0F2E405FDF7C6FF40F6CB
:102210000870C2F20000026882A1204605F062FA4E
:1022200001F050FE013D00BFFCD140F65170C2F2FA
:102230000000007840F65071C2F200010870BDE065
:1022400040F654704EF2DE14C2F20000C0F2E40414
:1022500005F072F947F6C620C0F6000005F06CF9EB
:10226000013C00BFFCD140F65070C2F200002921B1
:10227000A3E040F6547441F25400C2F20004C2F2EA
:1022800000002146FF22FDF76FFF04F12B00D4214F
:10229000FDF783FF58A1D1E90680D1F820E0C4E919
:1022A0000680486A0F1DDFF850C18CCFD1E9046564
:1022B000C4E908E091F82A00098DC4E900C2C4E924
:1022C0000237C4E9046584F82A00218501F0FAFD8B
:1022D0004CF2BC30C0F2C910013800BFFCD142F64C
:1022E0002850C0F2311000BF013800BFFCD140F6C9
:1022F000547041F25401C2F20000C2F20001FF2208
:10230000FDF732FF032001F041FA57E040F6547523
:10231000C2F200054EF2DE1405F11C00E321C0F20A
:10232000E404FDF73AFF2DA10F1DDFF8B0C08CCFFC
:10233000D1E904608969C5E900C2C5E90237C5E988
:102340000460A96101F0BEFD013C00BFFCD140F278
:102350000810C2F2000040F20111A0F8FE1040F295
:102360000821C2F200010122C1E9FE22642280F8A4
:10237000F020C1F8C02300F08DF800F0FBF900F068
:102380005DF840F65070C2F200006321017040F623
:102390005170C2F2000010E040F65470C2F200002A
:1023A00005F0CAF847F6C620C0F6000005F0C4F8EC
:1023B00040F65070C2F200001A210170D9F80000F6
:1023C00003287FF424AD62201CE500BF41542B4359
:1023D0004D47443D312C340D0A00000041542B4D33
:1023E000465732204F4B0D0A5245424F4F54494EEB
:1023F00047204E4F570D0A0041542B4D464F544134
:10240000204F4B0D0A4D464F544120537461727456
:10241000696E672E20506C65617365205761697421
:102420000D0A000041542B4D474E45543D25640094
:1024300041542B4D5645523D2573000080B540F266
:102440001801C2F200010A6840F2000E40F6307C2A
:10245000C0F6020EC2F2000C002ACCF800E008BF61
:1024600080BD40F20811C2F200014B1E40F208216B
:10247000C2F20001043900BF5EF8040BFF2841F8E6
:10248000040F28BFFF20013A03F8010FF4D1CCF864
:1024900000E080BD70B500F0B7F940F2053000F003
:1024A00057F84FF4417000F053F840F2023000F05A
:1024B0004FF840F21405C2F200052868C8B10024A4
:1024C0000026C0F6020400BF204600F067F840F284
:1024D000053000F03DF84FF4417000F039F840F25B
:1024E000023000F035F828680136864204F5806431
:1024F000EAD300F03DF870BD80B540F21800C2F29A
:1025000000000068002240F63071C0F60202C2F2FC
:10251000000100280A6008BF80BD043252F8043C64
:10252000013305D10A60013802F10402F6D180BD01
:1025300040F29400C2F200000121016041F200006B
:10254000C4F201004FF4804100F0ACFA80BD0000FD
:1025500042F2000300F01F018009C4F202034FF0B1
:10256000010CC2580CFA01F11143C1507047000030
:1025700042F21000C4F20200016841F080010160E3
:102580004FF2E071C1F6FF710988B1F5007F98BF85
:102590007047016C41F080010164704780B54FF2D3
:1025A000E071C1F6FF7109888446B1F5007F70D9EA
:1025B0004FF6FF700121C0F60700CFF2010142F291
:1025C0000C02C4F202024FF0020E0B4684451BD2ED
:1025D0001068C0070AD11068C0065ABF10680EEA1A
:1025E00050000320012804D007E000BF012001288B
:1025F00003D1002B03F10103EAD1012808BF042015
:10260000002800F0958080BD106CC0070AD1106CC6
:10261000C0065ABF106C0EEA50000320012804D0F7
:1026200007E000BF0120012803D1002B03F10103C3
:10263000EAD1012808BF04200028E4D1506C02230D
:1026400040F002005064C2F848C01069800748BFDB
:10265000C2F808C0506C40F040005064106CC007D5
:102660000AD1106CC0065ABF106C03EA5000032058
:10267000012804D007E000BF0120012803D1002970
:1026800001F10101EAD1012808BF042002F144014F
:1026900049E00121CFF2010142F20C02C4F2020230
:1026A0004FF0020E0B4600BF1068C0070AD1106839
:1026B000C0065ABF10680EEA50000320012804D05B
:1026C00007E000BF0120012803D1002B03F1010323
:1026D000EAD1012808BF0420002818BF80BD506837
:1026E000022340F002005060C2F808C0506840F079
:1026F000400050601068C0070AD11068C0065ABF79
:10270000106803EA50000320012804D007E000BF4E
:102710000120012803D1002901F10101EAD1111D95
:10272000012808BF04200A6822F002020A6080BD66
:102730005068022340F002005060C2F808C05068A0
:1027400040F04000506000BF1068C0070AD1106818
:10275000C0065ABF106803EA50000320012804D0C5
:10276000DDE700BF01200128D9D1002901F10101D5
:10277000EAD1D4E72DE9F04100F046F840F208280C
:1027800040F20811C2F20008C2F20001A8F10400F0
:1027900001394FF4806200BF11F8013F013A40F85F
:1027A000043FF9D10020C0F6020040F2A40540F237
:1027B0006C06C2F20005C2F200062121002700F5D6
:1027C00080642860316000BF58F82710316000F045
:1027D00043F8286801370430B7F5807F88BFFF27AA
:1027E000286040F20530FFF7B3FE4FF44170FFF769
:1027F000AFFE40F20230FFF7ABFE2868A042E3D301
:10280000FFF7B6FEBDE8F08142F20400C4F2020018
:10281000C168090609D540F22311C4F2675101606D
:1028200048F6AB11CCF6EF5101604FF2E071C1F602
:10283000FF710988B1F5007F0DD9C16C090658BF39
:10284000704740F22311C4F26751016448F6AB119E
:10285000CCF6EF510164704710B54FF2E072C1F64B
:10286000FF7212888446B2F5007F68D901224FF6C4
:10287000FF70CFF20102C0F6070042F20C0384455C
:10288000C4F202034FF0020E14461BD21868C007B0
:102890000AD11868C0065ABF18680EEA5000032013
:1028A000012804D007E000BF0120012803D1002C3B
:1028B00004F10104EAD1012808BF0420002800F037
:1028C000898010BD186CC0070AD1186CC0065ABFA9
:1028D000186C0EEA50000320012804D007E000BF66
:1028E0000120012803D1002C04F10104EAD10128C0
:1028F00008BF04200028E4D1586C40F0010058645F
:10290000CCF80010022100BF186CC0070AD1186C67
:10291000C0065ABF186C01EA50000320012804D0F9
:1029200007E000BF0120012803D1002A02F10102C3
:10293000EAD1012808BF042003F1440145E0012346
:10294000CFF2010342F20C02C4F202024FF0020E77
:102950001C4600BF1068C0070AD11068C0065ABFE5
:1029600010680EEA50000320012804D007E000BFE1
:102970000120012803D1002C04F10104EAD101282F
:1029800008BF0420002818BF10BD506840F00100A7
:102990005060CCF8001002211068C0070AD11068FE
:1029A000C0065ABF106801EA50000320012804D075
:1029B00007E000BF0120012803D1002B03F1010330
:1029C000EAD1111D012808BF04200A6822F0010283
:1029D0000A6010BD586840F001005860CCF8001043
:1029E000022100BF1868C0070AD11868C0065ABF84
:1029F000186801EA50000320012804D007E000BF56
:102A00000120012803D1002A02F10102EAD10128A4
:102A100008BF0420191DD8E7F0B581B040F2880442
:102A2000C2F2000401202060FFF7EEFE40F2053004
:102A3000FFF78EFD4FF44170FFF78AFD40F2023040
:102A4000FFF786FD2068D8B140F274060025C2F277
:102A50000006002730682844FFF7A0FD40F205304B
:102A6000FFF776FD4FF44170FFF772FD40F2023040
:102A7000FFF76EFD20680137874205F58065E9D3D1
:102A8000FFF776FD01B0F0BD10B50446C1B243F6C4
:102A90000000C4F2010004F0A1FD204610BD0000BA
:102AA00041617047016170472DE9F047CF0601F0A1
:102AB0000F0C09D5042A05D1C26B4CF0030C1A4344
:102AC000C26301E04CEA020C00F1100E00F1140A9E
:102AD00000244FF001094FF00F0800270EE000BF5F
:102AE000166008FA04F225EA02020CFA04F52A43F9
:102AF00002600137082F04F104040CD009FA07F230
:102B000012EA0306F5D0056828295246E8D048297C
:102B1000E7D17246E4E7082400254FF001094FF0A1
:102B20000F080FE0176008FA05F226EA02020CFA15
:102B300005F6324342600134102C05F1040508BF4C
:102B4000BDE8F08709FA04F212EA0307F3D04668F9
:102B500028295246E6D04829E5D17246E2E700002E
:102B60008068084018BF0120704700002DE9F04F31
:102B700081B040F69061C2F200010220087040F27C
:102B8000E800C2F200000026066040F69C60C2F237
:102B90000000066040F61860C2F200004FF0FF31FE
:102BA000016040F64C70C2F20000066040F2A800DE
:102BB000C2F2000041F20009066040F20460C4F273
:102BC000010901F04FF948464FF46041FFF768FFF3
:102BD0004846102103224FF46043FFF765FF40F69B
:102BE0001C6B40F2081540F65078C2F2000BC2F29E
:102BF0000005C2F2000800BF48464FF46041AA46F3
:102C0000FFF750FF40F2026001F02CF940F2036040
:102C100001F028F940F2CC00C2F20000066040F654
:102C20000C60C2F20000067040F29800C2F2000090
:102C3000066040F61070C2F20000067040F6117097
:102C4000C2F20000067040F60870C2F20000066092
:102C500040F21800C2F2000040F2D4010068C2F253
:102C600000018BF8006040F2940B0E6040F6307467
:102C70000021FF25C2F2000BC2F20004C0F60201DF
:102C8000CBF800602160A8B140F20822C2F2000235
:102C90000023AAF10101043AC0F6020353F8047BB1
:102CA000FF2F42F8047F28BF2F46013801F8017F2B
:102CB000F4D1236040F20820C2F20000D0F8F803FB
:102CC000012843D0FFF7E6FB40F21800C2F20000F3
:102CD00000680021C0F602012160A8B10421C0F6FD
:102CE000020100BF51F8042C013205D121600138E6
:102CF00001F10401F6D107E00120CBF800004846BD
:102D00004FF48041FFF7CEFE40F21800C2F20000FF
:102D100000680021C0F602014FF0FF052160A8B154
:102D200040F20822C2F200020023AAF10101043A93
:102D3000C0F6020353F8047BFF2F42F8047F28BF3C
:102D40002F46013801F8017FF4D123609AF8F00092
:102D50005546642818D104200022CFF6FF70C0F633
:102D60000202105840F28C01C2F20001086040F2E9
:102D70009001C2F2000108600020CFF6FF701058E9
:102D800080F3088808688047287840F27807FF2891
:102D9000C2F2000718D06978FF2915D0AA78FF2A57
:102DA00012D088B181B17AB14FF0FF30291849783B
:102DB0003B18A1F130024B2A00F1010028BF314637
:102DC0000E285970F2D10FE043F24D20C5F24D00AC
:102DD000386044F64C60C4F6415078605220387236
:102DE000C7F80960A7F80D60E87B0130C0B202287F
:102DF0000AD240F29C0043F23101C2F20000C3F259
:102E000030010160067108E0E87CD5F80F1040F24F
:102E10009C02C2F200021071116095F84100411C41
:102E2000C9B201290CD840F2AC00C2F20000067011
:102E300040F2F000C2F20000066085F8416009E04F
:102E400040F2AC01C2F20001087040F2F001C2F29F
:102E500000010860287D0130C0B2022810D3687ECE
:102E6000FF280DD060B1D5E90501D5F81F2043F248
:102E70003077C2F20007EB69C7F80B200BC714E0EC
:102E800043F23070C2F200003221017343F22B6131
:102E9000C3F63201016043F23561C3F2381141607B
:102EA00043F23311C3F23841816095F823000130B9
:102EB000C0B2022814D395F82800FF2810D078B1AA
:102EC000D5F82300D5F82E2043F24077C2F2000750
:102ED000D5F82710D5F82B30C7F80B200BC715E015
:102EE00043F24071C2F2000143F63910888143F287
:102EF0002B60C3F63200086043F23230C3F2310077
:102F0000486043F63210C3F23310886095F83200FF
:102F10000130C0B2022815D395F83700FF2811D030
:102F200080B1D5F83200D5F83D2043F25077C2F297
:102F30000007D5F83610D5F83A30C7F80B200BC784
:102F400015E000BF43F250713220C2F200018881C7
:102F500043F22B60C3F63200086043F23110C3F233
:102F60003230486043F23430C3F23170886095F8F3
:102F700043000130C1B2052908D847F6141140B208
:102F8000C0F6000151F8200002E000BF4FF41650D7
:102F900040F2B001C2F20001086044F64A30C0F2CB
:102FA0004C0000BF013800BFFCD195F8440001304F
:102FB000C0B202280AD240F6207044F24541C2F263
:102FC0000000C4F64D11C0E9001107E0D5E9110178
:102FD00040F62072C2F20002C2E9000195F84200F8
:102FE000411CC9B2012907D840F2EC00C2F200002E
:102FF000066085F8426004E040F2EC01C2F2000194
:103000000860FDF7F3FF40F2B000C2F20000006874
:1030100004F0A4FA47F2EF00C0F27200013800BFDA
:10302000FCD1A9F580663046042103220123FFF775
:103030003BFD3046102103220223FFF735FD3046C9
:103040000221FFF72FFD4FF2E400C0F2FA2000BF8B
:10305000013800BFFCD130460221FFF721FD03F00B
:1030600055F947F67200C0F27D1000BF013800BF6D
:10307000FCD109F5E0500021C82203F023F94FF0FC
:10308000000B48464FF4005188F800B0FFF708FDE8
:1030900040F29404C2F2000448464FF480410027F5
:1030A000C4F800B0FFF7FCFC48464FF40041FFF7BE
:1030B000F7FC40F208010FF2C460C2F2000104F014
:1030C00001FB4CF29030C0F6EB3000BF013800BF7E
:1030D000FCD140F2D800C2F20000077040F6A460B4
:1030E000C2F200006421FDF758F801202060484634
:1030F0004FF40051FFF7D6FC40F61C6B42F6285403
:1031000040F6517AC2F2000BC0F23114C2F2000A4A
:1031100030460121FFF724FD40F61071C2F2000194
:10312000002818BF0120087098F8001098F80000D7
:10313000002935D001382C2800F2B481DFE810F0E6
:103140002D006E00710074007700B2018A008D00BE
:10315000B201B201B201B201B2019800B2019B000A
:10316000B201A200C800F400F700FA001201150134
:103170002C012F01420145014801B201B201B20107
:10318000B2016601690172017A01C301B201B201A3
:103190001D023B02B2015502580200F045FF81E1D9
:1031A000622800F0A58298F80000632800F0A08251
:1031B00040F2CC02C2F2000298F8000011688AF8CE
:1031C0000000481C3629106020DB0FF2B85004F0D4
:1031D000B3F949F29460C0F2980000BF013800BF13
:1031E000FCD140F2CC010020C2F20001086040F2A4
:1031F0009401C2F20001086048464FF48041FFF795
:103200004FFC48464FF40041FFF74AFC44F64A3071
:10321000C0F24C00013800BFFCD179E701F0F0F8B2
:1032200040E101F0A1FF3DE102F032FA3AE140F263
:1032300094010020C2F20001086048464FF480412A
:10324000FFF72EFC48464FF40041FFF729FCFEF73C
:1032500063FB27E102F090FD24E144F64A30C0F21E
:103260004C0000BF013800BFFCD1FDF779FF19E128
:1032700000F0A6FF16E12046013800BFFCD1FEF7A2
:1032800019FC0FE141F23060C2F20000016804292C
:10329000C7BF012088F800000131016048464FF4A3
:1032A0000041FFF7FDFB44F64A30C0F24C0000BF7E
:1032B000013800BFFCD148464FF40041FFF7F2FB54
:1032C00044F64A30C0F24C00013800BFFCD1E9E0BE
:1032D00048464FF40041FFF7E3FB44F64A30C0F2A2
:1032E0004C0000BF013800BFFCD148464FF40041FC
:1032F000FFF7D8FB44F64A30C0F24C00013800BF5B
:10330000FCD140F294010120C2F20001086048465D
:103310004FF48041FFF7C6FB49F29460C0F2980079
:10332000013800BFFCD1BDE001F0E0F9BAE001F0E6
:1033300097FBB7E098F80000162805D147F63E2025
:10334000C0F6000004F0F8F84EF2DE10C0F2E4001F
:10335000013800BFFCD19AF8000002288CBF192068
:1033600017209CE001F008FC9CE040F2E00740F2EE
:103370009402C2F20007C2F20002386811680130FC
:103380000029386000F052810020106048464FF458
:103390008041FFF785FB50E101F07EFD82E047F6BA
:1033A0007200C0F27D1000BF013800BFFCD100F0F8
:1033B00089FD4EF2DE10C0F2E40000BF013800BF0C
:1033C000FCD16AE001F0DEFD6CE001F04BFE69E04B
:1033D0004EF2DE10C0F2E400013800BFFCD140F62E
:1033E000547747F6C420C2F20007C0F60000394601
:1033F00004F068F93846FF21FCF7CFFE44F64A3066
:10340000C0F24C00013800BFFCD146E002F0D4F815
:1034100048E049F29460C0F2980000BF013800BF54
:10342000FCD13FE047F67200C0F27D10013800BFCA
:10343000FCD132E047F6E210C0F6000004F07CF860
:103440004EF2DE10C0F2E400013800BFFCD140F6BD
:103450000C70C2F200000121016047F68840C0F6FE
:103460000000D0E900C240F65471C2F20001D0E978
:1034700002370469C1E900C2828A807DC1E902374E
:103480000C618A82887500F01DFD42F62854C0F256
:1034900031142046013800BFFCD19AF8000088F8AA
:1034A000000000BF98F800002B2808BF02F01EFAA9
:1034B00098F80000622800F01B8198F8000063284B
:1034C0007FF426AE14E147F6E210C0F6000004F0E7
:1034D00033F84EF2DE10C0F2E40000BF013800BF46
:1034E000FCD140F60C70C2F200000121016047F6E9
:1034F000A040C0F6000090E88E0000F1100ED0F859
:103500001CA040F65479D0E908B09EE81050C2F2F1
:103510000009C9F8240009F1100089E88E0080E84C
:103520001050C9E907AB00F0CDFC49F29460C0F23D
:10353000980000BF013800BFFCD140F2A801012073
:10354000C2F20001086040F268010D20C2F20001E1
:103550000860622041F2000942F6285440F61C6BD4
:1035600040F6517A88F80000C4F20109C0F2311423
:10357000C2F2000BC2F2000A94E740F2A801022056
:10358000C2F2000108604EF2DE10C0F2E40000BF9B
:10359000013800BFFCD140F2A8010220C2F20001B4
:1035A0000860622040F2680188F800000520C2F23D
:1035B0000001086076E798F800008AF800004EF6EF
:1035C0007E2000BF013800BFFCD19BF8000003281B
:1035D00028D340F2680262200121C2F2000288F87A
:1035E000000011608AF800005CE702F0F7F959E783
:1035F00040F21C00C2F20000016840F2B402C2F2C4
:10360000000200294FF00001C2F80B10C2E90011BE
:10361000916025D09AF800204FF0FF31016088F8C2
:1036200000204CE000208BF800003BE701201060F8
:1036300048464FF48041FFF735FA44F62A6000BF50
:10364000013800BFFCD140F69061C2F20001386839
:1036500009788842FFF626AF642038600E201EE706
:1036600044F64A31C0F24C01013900BFFCD14FF0A1
:10367000FF31016047F6C840C0F6000090E88E5068
:1036800040F65470C2F2000080E88E5000F01AFC40
:1036900049F29460C0F29800013800BFFCD140F2BA
:1036A00068010320C2F200010860622088F800006F
:1036B00044F64A30C0F24C00013800BFFCD142F25F
:1036C000B06040F20401C2F200000022C2F2000128
:1036D0000968026042F2B460C2F20000FCF75DFDCE
:1036E00044F64A30C0F24C00013800BFFCD1D9E6A4
:1036F00048464FF46041FFF7D3F92046013800BF38
:10370000FCD140F26800C2F20000006800260328E5
:103710000DD147F63120C0F6000003F00DFF48F24E
:103720001860C5F2A34000BF013800BFFCD149F2C8
:103730009460C0F2980000BF013800BFFCD140F295
:103740006800C2F200000068032804D098F8000066
:1037500063287FF451AA4EF60C50CEF20000BFF35E
:103760004F8F0168042201F4E061C0F2FA52114364
:103770000160BFF34F8F00BFFEE700BF474F20251A
:10378000730D0A0041540D0A000000002DE9F04FAE
:1037900081B040F65476C2F20006717A8246222940
:1037A0006BD140F274000021C2F20000C0F60101AA
:1037B000016040F65071C2F200012B20087040F603
:1037C0002060C2F200003221FCF7E7FC43F21C78D3
:1037D00040F6347B40F2F40941F28010C2F2000856
:1037E0000024C2F2000BC2F20009C2F200004FF442
:1037F0009661C8E90044C8E90244C8F81040CBE922
:103800000044CBE90244CBF81040C9E90044C9E9BF
:103810000244C9F81040FCF7C0FC0A254FF0000C28
:1038200000210022002303E0642D05F1010535DAB3
:10383000705D2C38B0FA80F040090544775D222F86
:103840002CD00444032CEFD8DFE804F0060F130259
:1038500009F803700133E7E740F62060C2F2000088
:1038600000F80C700CF1010CDEE708F80170013172
:10387000DAE70BF802700132D6E7BAF1000F6BD02D
:1038800047F6C920C0F6000004F032F849F294600F
:10389000C0F29800013800BFFCD174E047F6D010A8
:1038A000C0F6000003F048FE46F65610C0F278401D
:1038B000013800BFFCD141F2801540F65074C2F2CD
:1038C000000545F63A262B27C2F2000428464FF49D
:1038D0009661C0F273762770FCF75FFC40F62062B9
:1038E00043F21C735BA1C2F20002C2F2000328463D
:1038F000CDF800B003F0F6FE41F23068BAF1000FE7
:10390000C2F200084CD041F2801547F6C420C2F242
:103910000005C0F60000294603F0D4FE284603F057
:103920000BFE00202770C8F8000000BF013E00BF5A
:10393000FCD12B20207041F23460C2F20000002143
:1039400001604BA003F0D4FF44F64A30C0F24C00B3
:10395000013800BFFCD138E040F6547047F62D31F5
:1039600040F20802C2F20000C0F60001C2F20002FA
:1039700003F0B8FE00F0A6FA42F62850C0F231106B
:10398000013800BFFCD140F65170C2F2000000784F
:1039900040F65071C2F20001087001B0BDE8F08F2E
:1039A00041F28010C2F2000003F0C6FD0020277033
:1039B000C8F80000013E00BFFCD12B20207041F26E
:1039C0003460C2F20000002101600020C8F800004D
:1039D00041F2801040F2F402C2F2000028A1C2F2CB
:1039E000000203F07FFEBAF1000F09D047F6C420B1
:1039F00041F28011C0F60000C2F2000103F062FE45
:103A00002B20207041F28010C2F2000003F094FDE0
:103A100049F26860C0F6BA20013800BFFCD140F21C
:103A20001C00C2F200000021016040F2C400C2F29A
:103A30000000016040F26800C2F20000082202604B
:103A40002B20207041F23860C2F20000016001B00A
:103A5000BDE8F08F41542B4654504F50454E3D2207
:103A60002573222C222573222C222573220D0A0075
:103A70004D464F5441205354415254494E470D0036
:103A800041542B4654504745543D222573222C3037
:103A90000D0A00004EF60C5CCEF2000CDCF8003093
:103AA00003F4E063B3F5E06F01D104232AE0DCF80E
:103AB000003003F4E063B3F5C06F01D1032321E0CC
:103AC000DCF8003003F4E063B3F5A06F01D102230A
:103AD00018E0DCF8003003F4E063B3F5806F01D147
:103AE00001230FE0DCF8003003F4E063B3F5407F1E
:103AF00001D1002306E040F20053C0F2FA53CCF8A3
:103B00000030022301FA03FCC3F104030F21D94062
:103B100011404EF2001241EA0C01CEF200020901FE
:103B200040EA020383F8001300F01F01012303FAA7
:103B300001F11C2303EAD000815070472DE9F04FBA
:103B400081B040F29401C2F200010A68054652B108
:103B50000020086041F20000C4F201004FF48041EF
:103B6000FEF79EFF09E00120086041F20000C4F268
:103B700001004FF48041FEF795FF41F28010C2F240
:103B800000004FF49661FCF708FB012D00F0D48093
:103B9000022D40F0DA8042F2B46640F6086740F247
:103BA000086540F2A40940F26C0B40F2700AC2F2C0
:103BB0000006C2F20007C2F20005C2F20009C2F21A
:103BC000000BC2F2000A4FF0000800200BE000BF1B
:103BD000B0F5C86FC8BF40F20970B0F5E16F00F1F1
:103BE000010080F2B280411FB1F5F77F30D8B8F103
:103BF000000F2DD1315C522922D181194A78452AF2
:103C00001ED18A78432A1BD1CA78562A1ED1097937
:103C10003A2915D1421D002107E000BF0D2901F10D
:103C200001014FF00108024612DAB05C0D2802F1E2
:103C30000100F3D1335C0A2B04BF901C1431EDE773
:103C40004FF00008B8F1010F05DAC1E74FF00008A6
:103C5000B8F1010FBCDB40F2A3618842B8DC41F24D
:103C60008014C2F20004311820464FF48062FCF741
:103C70007BFA3868E31E05EB80010A1F002100BFB4
:103C8000D3F803400139043342F8044F11F5807F23
:103C9000F6D140F60C72C2F200021268401A386087
:103CA0004AB940F27400C2F2000001682A683B6819
:103CB0002EA003F007FD3868B0F5007F39DBFEF772
:103CC000ABFEFEF7A1FD40F27400C2F200000068F6
:103CD0000024C9F800002120CBF80000D9F800002A
:103CE000DAF8001088420ED255F82410CBF80010F4
:103CF000FEF7B2FDD9F8000001340430B4F5006FCE
:103D0000C9F80000EAD140F27401C2F2000108686B
:103D10004FF4006200F50060CBF800200860FEF769
:103D200027FC28464FF40061FF22FCF72FFA002001
:103D3000386040F2097050E740F20860C2F20000BB
:103D40004FF40061FF22FCF721FA42F2B060C2F2A8
:103D500000000021016042F2B460C2F2000040F6AF
:103D60003401FCF71AFA01B0BDE8F08F2575202563
:103D700075202025640D0A0010B541F20402C4F23A
:103D800002021168C1F38101022906D001290CD178
:103D90004BF68021C0F28C1135E01168C90309D4BB
:103DA00040F6001CC0F23D0C17E041F20021C0F2C9
:103DB0007A0128E0916A46F600434900116845F609
:103DC000405CC0F2DC23C0F2C60C5CBF4BF6802323
:103DD000C0F28C13890358BF9C4613681168C3F363
:103DE000834E102303EAD15113688E44202101EA47
:103DF000536171440B463F2918BF01330F2938BF67
:103E00008B1C03FB0CF11368D2F800C01468032864
:103E10000FD8C3F303130FA2D25C47F62C1E21FA6E
:103E200002F3C0F6000EDFE800F01302060D18469C
:103E300010BD002010BDCCF302201EF8000023FAB4
:103E400000F010BDC4F3C2201EF8000023FA00F1F8
:103E5000084610BD0000000000000000010203043D
:103E60000607080941F2000300F01F018009C4F2AF
:103E700002034FF0010CC2580CFA01F11143C1507A
:103E80007047000041F2000300F01F018009C4F2F6
:103E900002034FF0010CC2580CFA01F122EA0101B1
:103EA000C150704741F2000300F01F018009C4F2C5
:103EB00002034FF0010CC2580CFA01F11143C1503A
:103EC0007047000010B5B2B040F65070C2F200006A
:103ED00024216C4601702046C821FCF75EF940F6AB
:103EE0000C70C2F20000006843F2507143F230736C
:103EF000C2F20001C2F20003032808BF0B4643F2DE
:103F0000407247F65611C2F200020228C0F60001C4
:103F1000204618BF1A4603F0E5FB204603F00CFBD1
:103F20004EF2DE10C0F2E400013800BFFCD140F6D2
:103F30005470C2F2000003F0FFFA44F24220C0F2D3
:103F40000F0000BF013800BFFCD144F20044C4F2AE
:103F5000000420461A2103F041FB40F65470C2F2DF
:103F60000000FF21FCF719F941F25410C2F20000E1
:103F70000021C0F80B10C0E90011816004F54C402D
:103F80004FF40051FEF78EFD32B010BDB0B5B2B0A7
:103F900040F65070C2F2000024216D4601702846A0
:103FA000C821FCF7FAF841F2541447F65611C2F250
:103FB0000004C0F600012846224603F093FB284681
:103FC00003F0BAFA4EF2DE10C0F2E400013800BF8E
:103FD000FCD140F65470C2F2000003F0ADFA4AF290
:103FE0002110C0F2070000BF013800BFFCD144F22D
:103FF0000045C4F2000528461A2103F0EFFA40F606
:104000005470C2F20000FF21FCF7C7F80020C4F88A
:104010000B00C4E90000A06005F54C404FF40051CE
:10402000FEF740FD32B0B0BD70B540F65070C2F240
:104030000000007840F65171C2F20001087040F6AD
:104040001070C2F20000007841F20004002840F233
:104050009800C4F20104C2F2000009D0016839B12D
:104060000021016020464FF40051FEF719FD06E0E3
:104070000121016020464FF40051FEF713FD42F28A
:10408000A550C0F2260000BF013800BFFCD144F6A5
:104090004A3620464FF40041C0F24C06FEF702FDBE
:1040A00040F60C60C2F20000007800283DD1FDF718
:1040B000C7FB20464FF40041FEF7F2FC304600BF3C
:1040C000013800BFFCD120464FF40041FEF7EAFC66
:1040D000304600BF013800BFFCD120464FF40041FC
:1040E000FEF7DEFC304600BF013800BFFCD12046A1
:1040F0004FF40041FEF7D6FC304600BF013800BF48
:10410000FCD120464FF40041FEF7CAFC304600BF08
:10411000013800BFFCD120464FF40041FEF7C2FC3D
:10412000304600BF013800BFFCD120464FF40041AB
:10413000FEF7B6FC304600BF013800BFFCD1204678
:104140004FF40041FEF7AEFC304600BF013800BF1F
:10415000FCD141F28015C2F2000528464FF4966169
:10416000FCF71BF840F2780210A1C2F200022846C8
:1041700003F0B8FA284603F0DFF9002520464FF493
:104180000041FEF78DFC3046013800BFFCD12046CF
:104190004FF40041FEF786FC304600BF013800BFF7
:1041A000FCD101350A2D08BF70BDE7E741542B4D06
:1041B000495043414C4C3D312C222573220D0A00BD
:1041C0002DE9F04740F61C60C2F20000002140F6E5
:1041D00050780170C2F2000898F8001040F651794A
:1041E00041F23C6540F61077C2F20009C2F20005C8
:1041F000C2F20007286889F80010397841F20004FB
:10420000421CC4F201042A6079B105280DDB40F29A
:104210009800C2F200000121016020464FF40051D5
:10422000FEF740FC0020286011E059B140F29800F0
:10423000C2F200000021016020464FF40051FEF759
:104240002FFC04E020464FF40051FEF72BFC41F216
:10425000406540F60872C2F20005C2F2000228680A
:10426000126843F2607A411C072AC2F2000A2960F0
:1042700017DBDAF80010012901D1022823DA00291E
:1042800076D1022874DB40F2D801C2F200010A782C
:1042900040F29400C2F200000121142A01604AD2C7
:1042A00056E0DAF80010042A08DB012901D10128C0
:1042B00009DA00295CD1032832DA59E001292CD12E
:1042C000B0F1FF3F29DB40F2D800C2F200000078D5
:1042D000142810D320464FF40041FEF7E3FB40F2D0
:1042E0009400C2F200000026066020464FF4804190
:1042F000FEF7D6FB38E020464FF40041FEF7D0FB36
:1043000040F29400C2F200000121016020464FF407
:104310008041FEF7C7FB002626E049BB072827DBC4
:1043200040F2D800C2F20000007814280BD340F20B
:104330009400C2F200000021016020464FF4804149
:10434000FEF7AEFB0AE040F29400C2F20000012149
:10435000016020464FF48041FEF7A4FB20464FF455
:104360000041FEF79FFB01260020CAF8006028608C
:1043700040F61175C2F2000538782978884234D0A9
:1043800040F60C70C2F200000121016020464FF49B
:104390000051FEF785FB40F65470C2F20000FF2189
:1043A000FBF7FBFE3A7840F65470C2F20000012A97
:1043B00005D147F6C831C0F60001012203E047F6F7
:1043C000AF31C0F6000103F08DF9FFF77BFD42F637
:1043D0002850C0F2311000BF013800BFFCD138783E
:1043E00099F80010287088F8001044F64A30C0F29E
:1043F0004C0000BF013800BFFCD1BDE8F0870000D1
:104400002DE9F04F81B040F65077C2F2000741F23B
:104410000004387840F65171C4F20104C2F2000180
:1044200044F64A36087020464FF40041C0F24C066C
:10443000FEF736FB304600BF013800BFFCD141F229
:104440008015C2F2000528464FF49661FBF7A5FEE1
:1044500040F29C0281A1C2F20002284603F042F918
:10446000284603F069F820464FF40041FEF71AFB96
:10447000304600BF013800BFFCD103200025387052
:1044800020464FF40041FEF70BFB3046013800BFD9
:10449000FCD120464FF40041FEF704FB304600BF3C
:1044A000013800BFFCD10135042DE9D140F2A80547
:1044B000C2F200052868012834D0022840F0788034
:1044C00047F6E2104EF2DE17C0F60000C0F2E40735
:1044D00003F032F8013F00BFFCD140F60C70C2F28D
:1044E0000000012165A2016040F65470DFF88CC124
:1044F000D2E90139D2E9031ED2E9058249F2946773
:10450000C2F20000C0F29807C0E900C3C0E90291FE
:10451000C0E904E88261FFF7D5FC00BF013F00BF9E
:10452000FCD13CE047F6E2104EF2DE17C0F6000088
:10453000C0F2E40703F000F8013F00BFFCD140F6F1
:104540000C70C2F20000012153A2016040F65470C9
:10455000DFF844C1D2E90131D2E9035E02F1140B64
:10456000D2E90882C2F200009BE8000E49F294678B
:10457000C0E90882C0E900C300F108021430C0F2AB
:10458000980782E8224080E8000EFFF79BFC40F28B
:10459000A805C2F2000500BF013F00BFFCD1296899
:1045A00047F68430C0F6000003F08CF80020286045
:1045B00043A002F0C1FF002520464FF40041FEF762
:1045C0006FFA3046013800BFFCD120464FF400415D
:1045D000FEF768FA304600BF013800BFFCD1013554
:1045E000042DE9D147F60020C0F6000002F0A4FF38
:1045F000002500BF20464FF40041FEF751FA304637
:10460000013800BFFCD120464FF40041FEF74AFAC2
:10461000304600BF013800BFFCD10135042DE9D17F
:104620002FA002F089FF002520464FF40041FEF73D
:1046300037FA3046013800BFFCD120464FF4004124
:10464000FEF730FA304600BF013800BFFCD101351B
:10465000042DE9D101B0BDE8F08F00BF41542B4DCE
:1046600049504F50454E3D312C25732C22302E3071
:104670002E302E30222C302C300D0A00414654456D
:10468000522047545241542E205245424F4F5445D8
:104690004420444F4E452E00464F544120444F572E
:1046A0004E4C4F414420434F4D504C455445442EB1
:1046B000205245424F4F54454420444F4E452E0012
:1046C00041542B47545345543D22495052464D5472
:1046D000222C313B2B434D47463D310D0A00000053
:1046E00041542B434C49503D310D0A002DE9F04F08
:1046F00081B041F2306840F2D009C2F200080020D7
:10470000C2F20009C8F80000C9F8000040F6517074
:10471000C2F2000090F800E040F20400C2F2000093
:10472000066842F2B46340F2CC0ABEF1030FC2F253
:104730000003C2F2000A80F08F8041F2701C41F247
:10474000781E0027C2F2000CC2F2000E002112E017
:10475000A2F14100C0B2062838BF373A144604F02F
:104760000F00CAF8000008443146CEF800000131BD
:10477000B14280F255810729F9DB5A5C2F2A01D01A
:104780002C2A02D10137C9F80070032FEFDB19443E
:104790004C78A4F13002D5B20A2D0ED3A4F16102F7
:1047A000D2B2052A02D8A4F1570206E0A4F14102D0
:1047B000D2B2062A38BF373C224602F00F028D786B
:1047C00002EB82025400A5F13002D0B20A28CCF8E4
:1047D00000400ED3A5F16100C0B2052802D8A5F1B2
:1047E000570206E0A5F14100C0B2062838BF373DA8
:1047F0002A4602F00F000A79CAF800002044A2F10C
:104800003004E5B20A2DCCF800000ED3A2F161000D
:10481000C0B2052802D8A2F1570406E0A2F1410077
:10482000C0B2062838BF373A14464A7904F00F0060
:1048300000EB8000A2F130044100E0B20A28CEF87B
:104840000010FFF48CAFA2F16100C0B205283FF662
:104850007FAFA2F1570482E740F2E80B40F61868F8
:1048600040F64C790024C2F2000BC2F20008C2F2FA
:104870000009002212E0A7F14100C0B2062838BFAB
:10488000373F3A4602F00F00CAF8000008443246AB
:10489000C9F800000132B24280F2C580072AF9DB74
:1048A000995C2F2901D02C2905D140F2D000013488
:1048B000C2F200000460032CECDBD11811F802CC2A
:1048C000ACF13007F8B20A2841F23460C2F20000BD
:1048D00002600FD3ACF16100C0B2052802D8ACF180
:1048E000570707E0ACF14100C0B2062838BFACF171
:1048F000370C674611F8015C07F00F0000EB8000F1
:10490000A5F130074200F8B20A28CBF800200ED3F8
:10491000A5F16100C0B2052802D8A5F1570706E04D
:10492000A5F14100C0B2062838BF373D2F4607F039
:104930000F004F78CAF800001044A7F13002D5B23A
:104940000A2DCBF800000ED3A7F16100C0B20528F4
:1049500002D8A7F1570206E0A7F14100C0B206282D
:1049600038BF373F3A468D7802F00F0000EB8000E9
:10497000A5F130074200F8B20A28C8F800200ED38B
:10498000A5F16100C0B2052802D8A5F1570706E0DD
:10499000A5F14100C0B2062838BF373D2F4607F0C9
:1049A0000F001044C8F8000008794A79CF793038F0
:1049B00000EB800588BF6800303ACAF80020104438
:1049C000A7F13002D5B20A2D40F69C65C2F200056F
:1049D00028600ED3A7F16100C0B2052802D8A7F164
:1049E000570206E0A7F14100C0B2062838BF373FA2
:1049F0003A460F7A02F00F0000EB8000A7F1300278
:104A00004100D0B20A28C9F80010FFF43BAFA7F16B
:104A10006100C0B205283FF62EAFA7F1570231E77B
:104A20004FF0030E03E041F23068C2F2000840F696
:104A30005070C2F2000042F2B06180F800E0002045
:104A4000C2F20001C8F80000086042F2B460C2F28D
:104A5000000040F63401FBF7A0FB01B0BDE8F08F89
:104A60002DE9F04381B040F2E000C2F2000001689D
:104A70000131016044F62A61013900BFFCD10168AF
:104A8000022976DB40F651786421C2F20008016009
:104A900098F8000040F65077C2F2000742F2B06981
:104AA0003870C2F20009D9F8005041F28014280988
:104AB000C2F20004C5F596614A2804EB050088BFE0
:104AC0000021FBF76AFB42F2B466C2F20006204600
:104AD00031462A46FBF748FB40F20400C2F20000D0
:104AE000056830462946FBF758FB40F2680CA81DC4
:104AF0000023C2F2000C4FF00D0E622640F2E635A4
:104B000004E000BFAB4203F1010316DAE15C412986
:104B1000F8D119194A784C2AF4D18A784C2AF1D163
:104B2000CA783A2AEED149793029EBD10346CCF83C
:104B300000E03E7088F80060E4E740F6A46041F2CF
:104B40008011C2F20000C2F200016422FBF70CFBEC
:104B50000020C9F8000042F2B460C2F2000040F642
:104B60003401FBF71AFB387862281CBF98F8000064
:104B7000387001B0BDE8F0832DE9F04182B040F219
:104B80000403C2F2000341F2306C40F2D0021E680E
:104B900042F2B46540F60874C2F2000C0021C2F281
:104BA0000002C2F20005C2F200040023CCF800109B
:104BB00011600DE0A7F14100C0B2062838BF373FB1
:104BC0003B4603F00F00334620600133B34217DA4F
:104BD000072BFADBEF5C2C2F04BF01311160032996
:104BE000F3DB2B445F78A7F13003D8B20A28E8D36F
:104BF000A7F16100C0B20528DCD8A7F15703E0E7B0
:104C000042F2B0600024C2F20000046042F2B460DC
:104C1000C2F2000040F63401CCF80040FBF7BDFAC8
:104C200041F26810C2F20000012141F26C180160EB
:104C3000C2F2000841F27010C8F80010C2F2000081
:104C40000821016041F27810C2F20000046049F2CC
:104C50009460C0F2980000BF013800BFFCD141F25F
:104C60008014C2F2000420464FF49661FBF795FAD7
:104C700040F61862C2F2000240F69C611768C2F268
:104C800000010E6841F27C1EC2F2000E781CCEF8C4
:104C9000006043D040F64C7540F2E80C741CC2F240
:104CA00000050023C2F2000C2B60DCF800500C6001
:104CB00041F27414C2F20004C8F800503B2E276081
:104CC000A2BF1060A6F13B030B601368182B04DB36
:104CD000002313606B1CCCF800303C2EA2BFA6F161
:104CE0003C03CEF8003020602068182804DB6B1CE1
:104CF0001838C8F80030206013680E680A2BA8BF67
:104D00000A2E31DA0A2B3ADB092E38DCDCF80020D7
:104D100041F28010C2F2000056A141E0002008607C
:104D200040F64C71C2F20001086041F27411CEF8F5
:104D3000000047F65040C2F200010822C0F6000011
:104D40000A6090E88E00D0E90465D0E906CE90F8BC
:104D5000200084E88E00C4E90465C4F818C0C4F8D3
:104D60001CE084F820001EE0DCF8002041F28010F6
:104D700047F63411C2F20000C0F6000110E0DCF882
:104D80000020092B07DC0A2E05DB41F28010C2F25D
:104D900000002FA104E041F28010C2F2000023A124
:104DA000009602F09FFC41F2801041F2000444F6AC
:104DB0004A35C2F20000C4F20104C0F24C0502F010
:104DC000BBFB40F6507640F65171C2F2000603205C
:104DD000C2F200013070087020464FF40041FDF728
:104DE0005FFE2846013800BFFCD120464FF4004149
:104DF000FDF758FE284600BF013800BFFCD1204611
:104E00004FF40041FDF74CFE284600BF013800BFBB
:104E1000FCD120464FF40041FDF744FE013D00BFA8
:104E2000FCD11420307002B0BDE8F08141542B4316
:104E3000434C4B3D2237302F30312F3025642C30FE
:104E400025643A3025643A30302B3238220D0A007E
:104E500041542B43434C4B3D2237302F30312F30C0
:104E600025642C3025643A25643A30302B323822C0
:104E70000D0A000041542B43434C4B3D2237302F49
:104E800030312F3025642C25643A3025643A303097
:104E90002B3238220D0A000070B540F65170C2F274
:104EA00000000078622808BF70BD40F20400C2F222
:104EB000000041F2306C40F2D001036842F2B4606D
:104EC00040F6087EC2F2000C0022C2F20001C2F2DB
:104ED0000000C2F2000E0024CCF800200A600EE0B0
:104EE000A4F14105EDB2062D38BF373C254605F04B
:104EF0000F04CEF800401C4601349C4217DA072C00
:104F0000FADB055D2C2D04BF01320A60032AF3DBB6
:104F100004446478A4F13005EEB20A2EE7D3A4F17C
:104F20006105EDB2052DDBD8A4F15705DFE70020C0
:104F3000086042F2B061C2F20001CCF800000860E3
:104F400042F2B460C2F2000040F63401FBF725F9EA
:104F500040F65074C2F200042078192802D106A04D
:104F600002F0EAFA49F29460C0F29800013800BFFA
:104F7000FCD11420207070BD41542B43434C4B3F57
:104F80000D0A000070B540F2940140F2DC04C2F258
:104F90000001C2F2000408682268002841F2000003
:104FA000C4F2010002F10102226006D000220A6070
:104FB0004FF48041FDF774FD05E001220A604FF4D3
:104FC0008041FDF76FFD44F62A6000BF013800BF45
:104FD000FCD140F61C65C2F20005287840F65076F8
:104FE0000328C2F200060DD340F268016220C2F22B
:104FF0000001012230700A6040F65171C2F20001D6
:10500000087001E00020287040F69061C2F20001B3
:1050100020680978884224DB6420206040F64870CC
:10502000C2F20000006840F68C61C2F20001086024
:1050300041F24460C2F2000040F63401FBF7ADF8E3
:1050400042F6E860C2F2000040F63401FBF7A5F832
:105050003078622808BF70BD00202870307814387E
:10506000307070BD70B540F2940140F2DC04C2F2C1
:105070000001C2F2000408682268002841F2000022
:10508000C4F2010002F10102226006D000220A608F
:105090004FF48041FDF704FD05E001220A604FF462
:1050A0008041FDF7FFFC44F62A6000BF013800BFD5
:1050B000FCD140F61C65C2F20005287840F6507617
:1050C0000328C2F200060DD340F268016220C2F24A
:1050D0000001012230700A6040F65171C2F20001F5
:1050E000087001E00020287040F69061C2F20001D3
:1050F00020680978884235DB6420206040F64870DB
:10510000C2F20000006840F68C61C2F2000141F674
:105110007864086040F65470C2F20004C2F20000E5
:105120002146FF22FBF720F8204640F63401FBF72A
:1051300034F841F24460C2F2000040F63401FBF75B
:105140002CF842F6E860C2F2000040F63401FBF7AA
:1051500024F83078622808BF70BD002028703078AD
:105160001438307070BD00002DE9F04F81B040F66A
:105170001C60C2F20000002140F6507940F2D40ACF
:105180000170C2F20009C2F2000A99F80000DAF8D0
:10519000001040F6517841F23C6540F61077C2F2BB
:1051A00000080131C2F20005C2F2000788F80000D1
:1051B0002868CAF80010397841F20004421CC4F291
:1051C00001042A6079B105280DDB40F29800C2F293
:1051D00000000121016020464FF40051FDF762FC00
:1051E0000020286011E059B140F29800C2F200009E
:1051F0000021016020464FF40051FDF751FC04E00E
:1052000020464FF40051FDF74DFC41F2406540F659
:105210000872C2F20005C2F200022868126843F266
:10522000607B411C072AC2F2000B296019DBDBF806
:105230000010012901D1022830DA002940F08380D2
:105240000228C0F2808040F2D801C2F200010A7840
:1052500040F29400C2F200000121142A016055D2EC
:1052600061E0DBF80010042A13DB012901D10128D9
:1052700014DA002967D1032865DB40F2D800C2F2B6
:1052800000000078142849D340F29400C2F20000D4
:105290003CE001292CD1B0F1FF3F29DB40F2D800DE
:1052A000C2F200000078142810D320464FF40041C9
:1052B000FDF7F8FB40F29400C2F200000026066001
:1052C00020464FF48041FDF7EBFB38E020464FF4D9
:1052D0000041FDF7E5FB40F29400C2F2000001211D
:1052E000016020464FF48041FDF7DCFB002626E0FC
:1052F00049BB072827DB40F2D800C2F20000007843
:10530000142840F29400C2F200000BD30021016087
:1053100020464FF48041FDF7C3FB0AE040F29400C1
:10532000C2F200000121016020464FF48041FDF7E8
:10533000B9FB20464FF40041FDF7B4FB01260020E5
:10534000CBF80060286040F61175C2F2000538788D
:10535000297888423FD040F60C70C2F2000001214B
:10536000016020464FF40051FDF79AFB40F654705F
:10537000C2F20000FF21FAF710FF3A7840F65470AD
:10538000C2F20000012A05D147F6C831C0F600017B
:10539000012203E047F6AF31C0F6000102F0A2F9A6
:1053A00042F62854C0F23114FEF78CFD204600BFAF
:1053B000013800BFFCD147F62320C0F6000002F000
:1053C000BBF800BF013C00BFFCD1387898F8001052
:1053D000287089F8001040F20815C2F2000595F80F
:1053E000410040F6A0640128C2F2000433D12068D5
:1053F000B0F5B46F2FDA41F2741140F6146240F642
:105400001860C2F20001C2F20002C2F20000096894
:1054100012680068114488421DD141F27C1140F6A7
:10542000986240F69C60C2F20001C2F20002C2F231
:105430000000096812680068114488420BDB40F2E2
:105440006800C2F200000D210160622089F80000AE
:105450004FA002F04DFA95F84200012841D141F2E7
:10546000681140F2E40240F2E800C2F20001C2F228
:105470000002C2F200000968126800681144884204
:105480002FD141F2701140F6106240F61860C2F25E
:105490000001C2F20002C2F200000968126800684E
:1054A000114488421DD141F2781140F6946240F6D1
:1054B0009C60C2F20001C2F20002C2F20000096860
:1054C00012680068114488420BDB40F26800C2F2A7
:1054D000000003210160622089F800002FA002F083
:1054E00007FA95F8410001283AD12068B0F5B46F69
:1054F00036DB41F26C1140F2E800C2F20001C2F268
:105500000000096800680131884229D140F618601E
:1055100041F27411C2F20000C2F200010068096891
:1055200088421DD141F27C1140F6986240F69C60A1
:10553000C2F20001C2F20002C2F200000968126861
:105540000068114488420BDB40F26800C2F20000A0
:105550000D210160622089F8000013A002F0C8F953
:10556000DAF80000322809DB99F80000032804BFAC
:10557000162089F800000020CAF8000044F64A30DE
:10558000C0F24C00013800BFFCD101B0BDE8F08F83
:10559000534F465452455345540D00004841524420
:1055A00052455345540D0000534F46545245534500
:1055B0005420442B310D00002DE9F04381B040F21E
:1055C000E00540F29400C2F20005C2F2000001685A
:1055D0002A6841F200040029C4F2010402F1010129
:1055E000296007D00021016020464FF48041FDF77B
:1055F00057FA06E00121016020464FF48041FDF793
:1056000051FA44F62A6000BF013800BFFCD1286877
:10561000022839DB6420286042F2AC60C2F200004C
:10562000006840F68865C2F20005286040F64878B8
:1056300040F2DC00C2F200084FF00009C2F20000A4
:10564000C8F80090C0F8009040F68C60C2F20000EC
:10565000C0F80090286801280EDB41F2446700265C
:10566000C2F2000704F52054B95D204601F0B6FFF0
:10567000286801368642F7DB40F65070C2F200001F
:105680000E21C8F80090017001B0BDE8F083000061
:105690002DE9F04740F61C60C2F20000002140F600
:1056A00050780170C2F2000898F8001040F6517965
:1056B00041F23C6540F61077C2F20009C2F20005E3
:1056C000C2F20007286889F80010397841F2000416
:1056D000421CC4F201042A6079B105280DDB40F2B6
:1056E0009800C2F200000121016020464FF40051F1
:1056F000FDF7D8F90020286011E059B140F2980078
:10570000C2F200000021016020464FF40051FDF775
:10571000C7F904E020464FF40051FDF7C3F941F208
:10572000406540F60872C2F20005C2F20002286825
:10573000126843F2607A411C072AC2F2000A29600B
:1057400017DBDAF80010012901D1022823DA002939
:1057500076D1022874DB40F2D801C2F200010A7847
:1057600040F29400C2F200000121142A01604AD2E2
:1057700056E0DAF80010042A08DB012901D10128DB
:1057800009DA00295CD1032832DA59E001292CD149
:10579000B0F1FF3F29DB40F2D800C2F200000078F0
:1057A000142810D320464FF40041FDF77BF940F256
:1057B0009400C2F200000026066020464FF48041AB
:1057C000FDF76EF938E020464FF40041FDF768F927
:1057D00040F29400C2F200000121016020464FF423
:1057E0008041FDF75FF9002626E049BB072827DB4B
:1057F00040F2D800C2F20000007814280BD340F227
:105800009400C2F200000021016020464FF4804164
:10581000FDF746F90AE040F29400C2F200000121CF
:10582000016020464FF48041FDF73CF920464FF4DB
:105830000041FDF737F901260020CAF80060286012
:1058400040F61175C2F2000538782978884242D0B6
:1058500040F60C70C2F200000121016020464FF4B6
:105860000051FDF71DF940F65470C2F20000FF210F
:10587000FAF793FC3A7840F65470C2F20000012A1D
:1058800005D147F6C831C0F60001012203E047F612
:10589000AF31C0F6000101F025FFFEF713FB4EF219
:1058A000DE10C0F2E40000BF013800BFFCD147F6B3
:1058B0002320C0F6000001F03FFE49F29460C0F2E0
:1058C000980000BF013800BFFCD1387899F800106B
:1058D000287088F8001044F64A30C0F24C0000BF2F
:1058E000013800BFFCD1BDE8F0870000F0B581B001
:1058F00041F23066C2F200063068411C0028316077
:1059000057D441F2346540F65077C2F20005C2F236
:1059100000072A683B7842F2B464C2F200042AA06D
:10592000009401F0CFFE3068272806DC49F294602D
:10593000C0F29800013800BFFCD13268A2F121000A
:10594000062819D840F60C70C2F200000068D0B1E9
:1059500040F6547047F64921C2F20000C0F600013B
:1059600001F0C0FEFEF7AEFA4CF2BC30C0F2C91036
:10597000013800BFFCD10DE0282A14DB002028608C
:105980002C2038700FE047F64920C0F60000114681
:1059900001F098FE002040F6517128600220C2F20A
:1059A00000013870087040F60860C2F20000002163
:1059B00001604EF2DE10C0F2E40000BF013800BF0B
:1059C000FCD101B0F0BD00BF696E20736620256474
:1059D0002025642025642025730D0A002DE9F0435D
:1059E00081B041F23068C2F20008D8F8000041F2FC
:1059F00034652828C2F2000505DB2868B0F1FF3FB6
:105A0000DCBF002028602868012827D000285BD14F
:105A100047F67441C0F6000191E88C00CC6841F271
:105A20008010098A44F64A36C2F20000C0F24C06E1
:105A300080E88C00C460018201F07EFD40F2E0004D
:105A4000C2F2000000210160032028606FF06300B3
:105A5000C8F80000013E00BFFCD168E040F2E00061
:105A6000C2F2000002686FF06301C8F80010511C18
:105A7000016042F2157100BF013900BFFCD101681D
:105A8000022954DB642144F64A3401600220C0F24A
:105A90004C04FEF753F847F67441C0F6000191E854
:105AA0008C00CE6841F28010098AC2F2000080E8C2
:105AB0008C00C660018201F03FFD0320286000BF1A
:105AC000013C00BFFCD154E040F2E000C2F2000013
:105AD00002686FF06301C8F80010511C016042F2C7
