:020000040800F2
:10000000B8730020450100082D02000825020008F1
:10001000290200081D0200089503000800000000E6
:100020000000000000000000000000003502000891
:100030002102000800000000310200083902000817
:100040005F0100085F0100085F0100085F01000810
:100050005F0100085F0100085F0100085F01000800
:100060005F0100085F0100085F0100085F010008F0
:100070005F0100085F0100085F0100085F010008E0
:100080005F0100085F0100085F0100085F010008D0
:100090005F0100085F0100085F0100085F010008C0
:1000A0005F0100085F0100085F0100085F010008B0
:1000B0005F0100085F0100085F0100085F010008A0
:1000C0005F0100085F0100085F0100085F01000890
:1000D0005F010008850300088D0300085F01000828
:1000E0005F0100085F0100085F0100085F01000870
:1000F0005F0100085F0100085F0100085F01000860
:100100005F0100085F0100085F0100085F0100084F
:100110005F0100085F0100085F0100085F0100083F
:100120005F0100085F0100085F0100085F0100082F
:10013000DFF80CD000F060F800480047F10C000830
:10014000B87300200648804706480047FEE7FEE7F0
:10015000FEE7FEE7FEE7FEE7FEE7FEE7FEE7FEE777
:100160003D0200083101000840EA01039B0703D06B
:1001700009E008C9121F08C0042AFAD203E011F8E6
:10018000013B00F8013B521EF9D27047D2B201E0A8
:1001900000F8012B491EFBD270470022F6E710B58C
:1001A00013460A4604461946FFF7F0FF204610BDE5
:1001B00010B5002200E0521C835C8C5CA34201D18C
:1001C000002BF8D1D8B2E1B2401A10BD30B50B46C1
:1001D000014600202022012409E021FA02F59D4277
:1001E00005D303FA02F5491B04FA02F52844151E4B
:1001F000A2F10102F1DC30BD064C074D06E0E068DB
:1002000040F0010394E8070098471034AC42F6D35D
:10021000FFF792FF8C2B0008AC2B0008FEE70000D4
:1002200070470000FEE70000FEE700007047000096
:1002300070470000704700007047000081B04EF624
:100240008851CEF200010A6841F2040042F47002C3
:10025000C4F202000A6050F8041C4FF0000C41F098
:10026000010140F8041C016844F61F6341F080015D
:100270000160CDF800C0009A9A4207D844F6206287
:10028000009B01330093009B9342F9D3C0F800C058
:10029000C0F828C050F8042C4FF6FF73CFF6F66371
:1002A0001A4040F8042C4FF41F02426050F8042C0E
:1002B00022F4802240F8042C50F8042C42F48032BE
:1002C00040F8042C4FF6FE7250F8041C013A4CF131
:1002D0000003890301D4002BF6D150F8041C8903D4
:1002E00001D400BFFEE7826947F2000142F080526C
:1002F000C4F2000182610A684FF6FF7342F4404283
:100300000A600268CBF2C37302600268026002688E
:1003100042F480620260026822F4403202600268A5
:1003200042F44032026002681A400260026842F4FD
:10033000C012026050F8042C42F0807240F8042C85
:1003400050F8042C9201FBD50A6842F480320A600E
:100350004A68D203FCD50A6842F400320A6000BF42
:100360004A689203FCD5016821F00301016001682D
:1003700041F00201016000BF01680907FCD501B02E
:100380007047000080B501F001FD80BD80B501F02F
:1003900079FD80BDFEE7000010B541F2CC010446B6
:1003A0003DA0C2F2000102F089FA042C18D8DFE85F
:1003B00004F0031A30465C0041F2CC0040F2200108
:1003C000C2F20000C2F20001FFF7F2FE40F2A0010B
:1003D000C2F200010860002818BF4FF0FF3010BDC6
:1003E0004FF0FF3010BD41F2CC0040F22701C2F2C5
:1003F0000000C2F20001FFF7DBFE014640F2A00060
:10040000C2F2000001604FF0FF30002908BF012058
:1004100010BD41F2CC0040F23201C2F20000C2F243
:100420000001FFF7C5FE014640F2A000C2F2000045
:1004300001604FF0FF30002908BF022010BD41F2DB
:10044000CC0040F23B01C2F20000C2F20001FFF713
:10045000AFFE014640F2A000C2F2000001604FF082
:10046000FF30002908BF032010BD41F2CC0040F24C
:100470004601C2F20000C2F20001FFF799FE0146F8
:1004800040F2A000C2F2000001604FF0FF300029EE
:1004900008BF042010BD00BF0D0A202573200000F6
:1004A000F0B581B040F21000C2F2000042F28C14AC
:1004B0000168C2F200042046FFF76FFE40F2B0066A
:1004C000C2F200063068012840F2BC00C2F200000F
:1004D0001EDB00210EE000BFA2F14103DBB2062BC0
:1004E00038BF373A134603F00F02425432680131E5
:1004F00091420DDA425CA2F13003DFB20A2FF2D34F
:10050000A2F16103DBB2052BE6D8A2F15703EAE7BB
:10051000316801EBD17149103160316801290FDB7D
:10052000002100BF00EB4102527810F8113002F0B8
:100530000F0242EA03126254326801319142F1DB48
:10054000306801280CDB43F600050027C4F20105E2
:10055000E15D284602F03EF9306801378742F7DB5B
:1005600001B0F0BD2DE9F04140F2B001C2F200014E
:100570000A6840F2BC0341F2DC1E41F2E01C40F28A
:10058000AC08012AC2F20003C2F2000EC2F2000C53
:10059000C2F2000825DB1C180020002512E000BF75
:1005A0005F1917F8017C302F02BF322E6A1ECCF87B
:1005B0000020302F04BF332EC8F800500A680135E0
:1005C00095420FDA665D002D5E55F7D02C2EE7D1EF
:1005D0005F1917F8017C302F0CBF681CCEF8007033
:1005E000DEE70020DEF80020CCF80000303ACEF83C
:1005F0000020D8F80020101A01300860086801288F
:1006000022DB002004E000BF0A68013090421BDAC0
:100610000028F9D01E1816F8022C2C2A09D116F839
:10062000012C302A05D11A5C322A04BF421ECCF8B4
:10063000002016F8012C302AE6D11A5C332A04BFB8
:10064000421EC8F80020DFE7DCF800000A68012A33
:1006500012DB00269F191A1817F8015C975D302DE0
:100660009F5501BF332F0020CCF80000C8F8006070
:100670000A6801369642EDDBD8F80000DCF800206D
:10068000801A01300860BDE8F08100002DE9F047D4
:1006900040F21C08C2F200084FF0FF30C8F800001A
:1006A00040F21000C2F20000D0F8009044F2D40CE6
:1006B00040F2900E0021C2F2000CC2F2000E0024A3
:1006C0004FF0000A05E0C819C11C00BF01314945BF
:1006D00036DA1CF801003A28F8D101EB0C0616F8BE
:1006E000010C5028F2D116F8020C4928EED116F868
:1006F000030C4C28EAD1002703E000BF01370E2F7E
:10070000E1D0F3192246CC195879E51C2C282C4647
:1007100009D02C463AB9BAF1000F2C4603D1DA7849
:1007200000240EF807202C28E8D11879222808BFC9
:10073000BAF1000FE2D1D878AA460EF80700DDE73B
:1007400044F2D000C2F200000021016044F2D40063
:10075000C2F200004FF47A61FFF71FFD49F2946086
:10076000C0F29800013800BFFCD140F2900040F286
:100770005801C2F20000C2F20001FFF719FD40F279
:10078000A004C2F20004206050B140F2900040F298
:100790006701C2F20000C2F20001FFF709FD20600C
:1007A000206850B140F2900040F27601C2F20000A1
:1007B000C2F20001FFF7FCFC2060206828B14FF076
:1007C000FF30C8F8000003200AE00020C8F800004D
:1007D00044F64A30C0F24C00013800BFFCD123205F
:1007E00041F2C801C2F200010870BDE8F0870000C4
:1007F0002DE9F04FB3B040F21000C2F20000D0F883
:1008000000A044F2D40E0022C2F2000E0023002702
:1008100003E000BF013252451ADA1EF802004328F5
:100820000ED102EB0E0041784D2909D1817854296F
:1008300006D1C078911D3A2804BF0A460F4600BF72
:10084000002FE7D01EF802000EF803000133E1E7A5
:1008500041F2CC1C41F2CC090023C2F2000CC2F2DE
:1008600000094FF0000B00BF1EF803002B2831D108
:100870000EEB0300841C5D1C0021002205E000BF7C
:1008800001320E2A07F1010528D02F46A55C9E18DB
:1008900088462C2D3046314610D0B8F1000F304636
:1008A00031460BD1BBF1000F3046314606D1A018BE
:1008B00010F8020C00210CF8020018462C2D08BF7D
:1008C000BBF1000FDCD1A51815F8025CB3460CF89B
:1008D0000250D5E70020B0B929E000BF99188B1D60
:1008E0009A45C8BF534600BF0EEB070189790A2914
:1008F00006D0B91D01375145F6DB20B917E000BF1E
:10090000FB1D184698B149460EEB030462781EF8A9
:1009100003500D2A03F101030D7002D1A4780A2CB3
:1009200005D00A2A03D0534501F10101ECDB18B9C7
:1009300001335345FFF698AFA8A001F0F9FE49F244
:100940009460C0F2980000BF013800BFFCD144F2AF
:10095000D00040F21001C2F200000022C2F20001F9
:100960000968026044F2D400C2F20000FFF715FCEF
:1009700041F2CC1040F25801C2F20000C2F2000174
:10098000FFF716FC40F2A005C2F20005286028B966
:1009900041F2C100C2F200000121017044F242267E
:1009A000C0F20F06304600BF013800BFFCD12868F6
:1009B00088B141F2CC1040F26701C2F20000C2F2ED
:1009C0000001FFF7F5FB286028B941F2C100C2F22F
:1009D0000000022101703046013800BFFCD12868B8
:1009E00090B141F2CC1040F27601C2F20000C2F2A6
:1009F0000001FFF7DDFB286030B941F2C100C2F20F
:100A000000000321017000BF013E00BFFCD1286837
:100A100078B141F2C800C2F20000032101700178F0
:100A200042F66730C0F6000001F048FF33B0BDE881
:100A3000F08F00F0AFFE40F25402411EC2F20002FD
:100A40000429106028D8DFE801F0033F5D9EB30061
:100A500041F2CC04C2F2000444F64A352046FF219C
:100A6000C0F24C05FFF799FB40F2760740F25802BE
:100A700040F26703C2F2000760A1C2F20002C2F2B4
:100A800000032046009701F029FF00F021FE00BF7F
:100A9000013D00BFFCD1BCE74FF0FF30106041F2D8
:100AA000CC0201AC5AA1C2F20002204601F016FFAE
:100AB000204601F03DFE41F2C800C2F200001A21BA
:100AC000017033B0BDE8F08F41F2CC04C2F20004F3
:100AD00044F64A352046FF21C0F24C05FFF75DFB86
:100AE00040F2040240F2140340A1C2F20002C2F23A
:100AF0000003204601F0F2FE00F0EAFD013D00BFD8
:100B0000FCD186E709F10A00F521FFF746FB4720F3
:100B1000A9F8080045F24F4044F25251C4F649602A
:100B2000C4F64271C9E9001000F0D2FD47F6720028
:100B3000C0F27D10013800BFFCD141F2C800C2F202
:100B4000000003210170017842F6673044F64A3410
:100B5000C0F60000C0F24C0401F0B0FE013C00BF42
:100B6000FCD14EF60C50CEF20000BFF34F8F01685F
:100B7000042201F4E061C0F2FA5211430160BFF3B4
:100B80004F8F00BFFEE741F2CC0041F25C0144F61A
:100B90004A34C2F20000C2F20001FF22C0F24C044B
:100BA000FFF7E2FA00F094FD013C00BFFCD130E712
:100BB00041F2CC0041F25C0144F64A34C2F200003A
:100BC000C2F20001FF22C0F24C04FFF7CDFA00F0A0
:100BD0007FFD00BF013C00BFFCD11AE741542B430D
:100BE0004D47443D312C340D0A00000041542B4D3B
:100BF0004346473D222573222C25730041542B4D3B
:100C00004E554D574C3D25732C25732C25730000F4
:100C100025730D0A0000000010B50446C1B243F66A
:100C20000000C4F2010001F0D5FD204610BD000017
:100C300041617047016170472DE9F047CF0601F02F
:100C40000F0C09D5042A05D1C26B4CF0030C1A43D2
:100C5000C26301E04CEA020C00F1100E00F1140A2C
:100C600000244FF001094FF00F0800270EE000BFED
:100C7000166008FA04F225EA02020CFA04F52A4387
:100C800002600137082F04F104040CD009FA07F2BE
:100C900012EA0306F5D0056828295246E8D048290B
:100CA000E7D17246E4E7082400254FF001094FF030
:100CB0000F080FE0176008FA05F226EA02020CFAA4
:100CC00005F6324342600134102C05F1040508BFDB
:100CD000BDE8F08709FA04F212EA0307F3D0466888
:100CE00028295246E6D04829E5D17246E2E70000BD
:100CF00040F2A400C2F20000002141F2000444F6D8
:100D00004A38016040F20260C4F20104C0F24C08AB
:100D100000F0AEFC40F2036000F0AAFC40F2046078
:100D200000F0A6FC20464FF46041FFF781FF20460B
:100D3000102103224FF46043FFF77EFF20464FF45B
:100D40006041FFF777FF01F005FD4046013800BF25
:100D5000FCD140F28800C2F200004FF4165101604D
:100D600040F28C00C2F200004FF4E131A4F580653E
:100D70004FF2E40601602846102103220223C0F24C
:100D8000FA26FFF759FF28460221FFF753FF3046A6
:100D9000013800BFFCD147F6720928460221C0F293
:100DA0007D19FFF745FF00F0E3FE4846013800BF1C
:100DB000FCD104F5E0500021C82200F0B5FE4CF251
:100DC0009030C0F6EB3000BF013800BFFCD149F2D3
:100DD000946A20464FF40051C0F2980AFFF728FFAA
:100DE00020464FF48041FFF723FF20464FF4004197
:100DF000FFF71EFF20464FF40051FFF71BFF41F2A3
:100E0000C80B42F6603541F2E417C2F2000BC0F69F
:100E10000005C2F20007632615E000BF0020206035
:100E2000FFF7A0FBFFF73CFB9BF800004FF480416D
:100E3000182804BF04208BF8000041F20000C4F21F
:100E40000100FFF7F5FE40F21C01C2F2000140F282
:100E5000B404C2F2000400BF9BF800000028FBD0DD
:100E60009BF80000012851D1284601F061FC41F2B5
:100E70000000C4F201004FF40041FFF7DBFE2846FA
:100E800001F056FC4EF2C810C0F2F550013800BF18
:100E9000FCD142F6EE20C0F6000001F049FC4846C5
:100EA000013800BFFCD142F61530C0F6000001F059
:100EB0003FFC4846013800BFFCD142F64130C0F645
:100EC000000001F035FC4846013800BFFCD138462F
:100ED0004FF47A61FFF761F942F62D3140F20402D6
:100EE0003846C0F60001C2F2000201F0F7FC3846B5
:100EF00001F01EFC40F21C014846C2F200018BF8D2
:100F0000006000BF013800BFFCD1A5E79BF80000DE
:100F100002284DD1484600BF013800BFFCD13846F9
:100F20004FF47A61FFF739F940F2140238460FF2B4
:100F30005451C2F2000201F0D1FC4846013800BF12
:100F4000FCD1384601F0F4FB03208BF800608BF8ED
:100F500000004FF2E400C0F2FA2000BF013800BFE9
:100F6000FCD10FF2405001F0E3FB5046013800BFC6
:100F7000FCD10FF23C5001F0DBFB5046013800BFC2
:100F8000FCD10FF2485001F0D3FB5046013800BFAE
:100F9000FCD142F65430C0F6000001F0C9FB40F22B
:100FA0001C015046C2F20001013800BFFCD153E7DA
:100FB0009BF8000016280AD14EF2DE10C0F2E400C1
:100FC000013800BFFCD103208BF8000044E79BF8F8
:100FD0000000032825D141F20000C4F201004FF4C3
:100FE0008041FFF727FE42F2881346F6B471C2F241
:100FF0000003C2F2000118680968421C01291A6046
:1010000028D1022826DB41F20000C4F201004FF48F
:101010000041FFF70DFE40F21C010020C2F200016A
:101020002DE09BF8000004283AD141F20000C4F200
:1010300001004FF40041FFF7FDFD40F21C0142F2B8
:10104000A550C2F20001C0F2260000BF013800BF67
:10105000FCD101E7002940F21C01C2F2000119D1C4
:10106000022817DB41F20000C4F201004FF40041F6
:10107000FFF7E0FD40F21C01C2F20001012046F63C
:10108000B472C2F20002106042F28810C2F2000094
:1010900000220260404600BF013800BFFCD1DBE601
:1010A0009BF800000E2800F043819BF800001828F0
:1010B00000F07E819BF80000052806D1FFF7E6FAD4
:1010C00040F21C01C2F20001C6E69BF80000232892
:1010D00004D15046013800BFFCD1BDE69BF80000AA
:1010E0002D281CD10868002800F096814FF0FF30B1
:1010F000086040F21000C2F2000044F2D002016821
:101100000020C2F20002106044F2D400C2F20000DB
:10111000FFF743F840F21C01C2F2000153E79BF8CD
:10112000000019283FF498AE9BF80000102807D162
:10113000504600BF013800BFFCD1FFF759FBBFE7A5
:101140009BF800001A2811D1484600BF013800BFA3
:10115000FCD100F0BDFA4046013800BFFCD10320AD
:101160008BF800009BF80010BFA00EE09BF8000079
:1011700024280DD1484600BF013800BFFCD1032010
:101180008BF800009BF80010B0A001F097FB97E7E8
:101190009BF8000007286FD141F20000C4F2010063
:1011A0004FF40041FFF744FD40F21000C2F200008E
:1011B00046F214040168C2F200042046FEF7EDFF77
:1011C00041F2DC10C2F20000026840F2B400C2F248
:1011D0000000036842F676312046C0F6000101F0B7
:1011E0007DFB204601F0A4FA404600BF013800BF55
:1011F000FCD140F21000C2F20000016846F2140077
:10120000C2F20000FEF7C9FF40F2B404C2F20004CB
:10121000206841F20002012843F22C10C4F20102BE
:10122000C2F2000017DB4FF0000800BF10F80810F2
:10123000A2F54C40144601F0CDFA224640F2B40427
:10124000C2F20004206808F10108804543F22C1026
:10125000C2F20000EADB112044F64A3840F21C01D9
:101260008BF800005046C0F24C08C2F2000100BFEB
:10127000013800BFFCD1EFE59BF80000112843D1F5
:1012800003208BF8000040F2BC00C2F200004FF4D3
:101290007A61FEF782FF43F22C10C2F200004FF495
:1012A0007A61FEF77AFF42F28C10C2F200004FF42E
:1012B0007A61FEF772FF45F27400C2F200004FF44B
:1012C0007A61FEF76AFF44F2D400C2F200004FF4E4
:1012D0007A61FEF762FF46F21400C2F200004FF49A
:1012E0007A61FEF75AFF41F2C4020020C2F2000206
:1012F000106040F2B00240F21C01C2F20002C2F2E1
:10130000000110602060A7E59BF800001B2805D1B4
:10131000404600BF013800BFFCD19DE59BF80000AE
:1013200063287FF499AD4046013800BFFCD193E5B6
:10133000484600BF013800BFFCD144F2D000C2F2E1
:101340000000D0F8008044F2D40445F27400C2F2E8
:101350000004C2F2000021464246FEF705FF40F2BB
:10136000B001A8F10100C2F20001086040F2AC0136
:10137000C2F200010860182640F210008BF80060ED
:10138000C2F2000044F2D00201680020C2F2000262
:1013900010602046FEF701FF44F64A3840F21C0177
:1013A0008BF80060C0F24C08C2F2000163264EE5E3
:1013B00040F21000C2F20000026840F2BC0045F2A8
:1013C0007401C2F20000C2F20001FEF7CDFE40F24D
:1013D000B004C2F2000420680428FFF61FAD00210B
:1013E000002005E022680B1D01319342BFF617ADC6
:1013F00040F2BC02C2F200020A4493783A2BF1D1C7
:101400005278502AEED140F2BC02C2F20002525C85
:10141000432A08BF081DE5E7B8F1010800BFFBD16A
:101420004FF0FF3008604EF60C50CEF20000BFF3D4
:101430004F8F0168042201F4E061C0F2FA521143B7
:101440000160BFF34F8F00BFFEE700BF66726F6D94
:1014500020736633363A2073696D5F666C6167206E
:1014600025640D0A0000000066726F6D20736632FD
:10147000363A2073696D5F666C61672025640D0ADA
:101480000000000041542B4D49504F50454E3D3116
:101490002C25732C22302E302E302E30222C302C46
:1014A000300D0A0041542B434D47463D310D0A0093
:1014B00041542B47545345543D2243414C4C4252D6
:1014C00045414B222C300D0A0000000041542B43B3
:1014D0004E4D493D302C320D0A0000004EF60C5C9A
:1014E000CEF2000CDCF8003003F4E063B3F5E06FFB
:1014F00001D104232AE0DCF8003003F4E063B3F503
:10150000C06F01D1032321E0DCF8003003F4E06375
:10151000B3F5A06F01D1022318E0DCF8003003F42A
:10152000E063B3F5806F01D101230FE0DCF80030F8
:1015300003F4E063B3F5407F01D1002306E040F2FD
:101540000053C0F2FA53CCF80030022301FA03FC36
:10155000C3F104030F21D94011404EF2001241EAB9
:101560000C01CEF20002090140EA020383F80013E5
:1015700000F01F01012303FA01F11C2303EAD0004C
:101580008150704710B541F20402C4F202021168A2
:10159000C1F38101022906D001290CD14BF680212B
:1015A000C0F28C1135E01168C90309D440F6001C63
:1015B000C0F23D0C17E041F20021C0F27A0128E0B0
:1015C000916A46F600434900116845F6405CC0F256
:1015D000DC23C0F2C60C5CBF4BF68023C0F28C1338
:1015E000890358BF9C4613681168C3F3834E1023C8
:1015F00003EAD15113688E44202101EA53617144FA
:101600000B463F2918BF01330F2938BF8B1C03FB42
:101610000CF11368D2F800C0146803280FD8C3F384
:1016200003130FA2D25C42F6E62E21FA02F3C0F6B3
:10163000000EDFE800F01302060D184610BD002072
:1016400010BDCCF302201EF8000023FA00F010BDFC
:10165000C4F3C2201EF8000023FA00F1084610BDB2
:101660000000000000000000010203040607080952
:1016700041F2000300F01F018009C4F202034FF0A1
:10168000010CC2580CFA01F11143C150704700001F
:1016900041F2000300F01F018009C4F202034FF081
:1016A000010CC2580CFA01F122EA0101C150704745
:1016B00041F2000300F01F018009C4F202034FF061
:1016C000010CC2580CFA01F11143C15070470000DF
:1016D000B0B5B2B041F2C800C2F2000024210170DE
:1016E00044F24220C0F20F00013800BFFCD16C462A
:1016F0002046C821FEF751FD41F2C105C2F20005A6
:10170000287840F2760140F25803C2F20001C2F29A
:101710000003032840F2670208BF0B46C2F2000232
:10172000022818A1204618BF1A4601F0D7F8FF205A
:101730002870204600F0FCFF44F64A30C0F24C000E
:10174000013800BFFCD141F2CC04C2F200042046B3
:1017500000F0EEFF44F20040C4F200001A2101F054
:1017600039F82046FF21FEF718FD41F2CC10C2F2F5
:1017700000000021C0F80B10C0E90011816032B0F8
:10178000B0BD00BF41542B434D47533D222573222A
:101790000D0A0000B0B54FF0FF3400252846FEF7D3
:1017A000FBFD611C05F1010508BF04460A2DF5D1BA
:1017B000611C40F08E8041F2CC020021C2F2000296
:1017C0000829C0F07F80531813F8015C3D2D79D1B2
:1017D00013F8024C312C19D113F8034C4C2C15D1B1
:1017E00013F8044C572C11D113F8054C2B2C0DD1A8
:1017F00013F8064C542C09D113F8074C412C04461D
:1018000008BF05245FD03D2D02D05CE03D2D59D1AD
:1018100013F8024C322C19D113F8034C4C2C15D16F
:1018200013F8044C572C11D113F8054C2B2C0DD167
:1018300013F8064C542C09D113F8074C412C0446DC
:1018400008BF06243FD03D2D02D03CE03D2D39D1CC
:1018500013F8024C332C19D113F8034C4C2C15D12E
:1018600013F8044C572C11D113F8054C2B2C0DD127
:1018700013F8064C542C09D113F8074C412C04469C
:1018800008BF07241FD03D2D02D01CE03D2D19D1EB
:1018900013F8025C472D15D113F8035C462D11D1C6
:1018A00013F8045C432D0DD113F8055C4D2D09D1BF
:1018B00013F8065C2B2D05D113F8073C542B08BFF9
:1018C000082000BF04460131002C4FF0FF303FF5E7
:1018D00077AF2046B0BD0000016841F08001016093
:1018E00070470000032900F2FF80DFE801F00243A7
:1018F0008AD0016A21F001010162816921F00301AE
:1019000081611188036A19430162016A21F00201B1
:1019100001629188036A194343F20043C4F2010350
:101920009842016206D042F60041C4F201018842A9
:1019300040F0DA80016A21F0040101625188036AF3
:1019400019430162016A21F008010162D188036A2A
:101950001943016250F8041F21F48071016011895C
:10196000036819430160016821F400710160518925
:101970000268B7E0016A21F010010162816921F477
:10198000407181611188036A43EA01110162016AB1
:1019900021F0200101629188036A43EA011143F2B8
:1019A0000043C4F201039842016206D042F60041AE
:1019B000C4F20101884240F09780016A21F04001A1
:1019C00001625188036A43EA01110162016A21F050
:1019D00080010162D188036A43EA0111016250F873
:1019E000041F21F4806101601189036843EA8101C9
:1019F0000160016821F40061016052890168920070
:101A000070E0016A21F480710162C16921F0030173
:101A1000C1611188036A43EA01210162016A21F46C
:101A2000007101629188036A43EA012143F2004395
:101A3000C4F201039842016205D042F60041C4F2AB
:101A40000101884250D1016A21F48061016251880C
:101A5000036A43EA01210162016A21F40061016223
:101A6000D188036A43EA0121016250F8041F21F47E
:101A7000805101601189036843EA01110160016826
:101A800021F4005101605289016812012AE0016AC3
:101A900021F480510162C16921F44071C161118852
:101AA000036A43EA01310162016A21F400510162D3
:101AB0009188036A43EA013143F20043C4F201030F
:101AC0009842016206D042F60041C4F20101884208
:101AD00018BF704750F8041F21F48041016012893B
:101AE000016892011143016070470000032988BF1B
:101AF0007047DFE801F0020E050B50F8181F01E0F7
:101B000050F81C1F21F07001016008E050F81C1F04
:101B100001E050F8181F21F4E04112020160016851
:101B2000114301607047000003299CBF00EB810056
:101B300042637047032988BF7047DFE801F0020E57
:101B4000050B50F8181F01E050F81C1F21F0080188
:101B5000016008E050F81C1F01E050F8181F21F444
:101B600000611202016001681143016070470000CA
:101B7000B0B588B040F20B60FFF77AFD42F6004442
:101B8000C4F20104204600F037F8772001904FF4AA
:101B9000FA700025039001A9204602958DF8105097
:101BA00000F090F80120ADF8140005AA20460021AD
:101BB000CDF81650CDF81A50ADF81E50FFF792FE32
:101BC00020460021FA22FFF7AFFF204600216022C5
:101BD000FFF78CFF204600210022FFF7ABFF2046D5
:101BE000012100F0C9F82046FFF776FE204600F0FC
:101BF00063F808B0B0BD000010B540F6FF71C4F244
:101C00000001884211DC40F2FF71C4F200018842F9
:101C100020DCB0F1804F3CD040F20041C4F2000122
:101C2000884247D140F201443EE042F6FF31C4F21F
:101C3000010188421DDC41F20001C4F2000188422A
:101C40002AD041F20041C4F20001884232D140F270
:101C5000054429E040F60001C4F2000188421ED08C
:101C600040F60041C4F20001884223D140F203440F
:101C70001AE042F60041C4F20101884212D043F258
:101C80000041C4F20101884218BF10BD40F20D347A
:101C90000AE04FF4806407E040F2044404E040F2BC
:101CA000024401E040F20B342046FFF701FD2046DC
:101CB000FFF7EEFC10BD0000016841F0010101607A
:101CC0007047000080B50A8843F2004C826240F6FB
:101CD000FF32C4F200029042C4F2010C0FDCB0F1FA
:101CE000804F1AD040F20043C4F20003984214D04F
:101CF00040F60003C4F2000398420ED019E040F60B
:101D00000043C4F20003984207D0604505D042F674
:101D10000043C4F2010398420BD1036823F070031F
:101D200003604B8802681A4302608A8803681A437A
:101D3000026041F20002D1F808E020F48063C4F2AE
:101D400000029342C0F82CE007D0026822F44072EF
:101D50000260CA8803681A430260604505D042F6F3
:101D60000042C4F20102904201D1097B0163416942
:101D700041F00101416180BD426C012922F4004221
:101D800008BF02F5004242647047000010B543F6F8
:101D90000004C4F2010440F20531C0F205012046FE
:101DA00000F06EFD002808BF10BD204600F00EFDBB
:101DB00041F2C401C2F200010A6843F22C13C2F2DC
:101DC000000398540A68C0B2013202280A6010D099
:101DD000032810D1086840F2B402C2F20002106079
:101DE0000020086041F2C800C2F200000722027021
:101DF00001E00120086040F21002C2F2000208680F
:101E000012689042C4BF0020086010BDB0B540F217
:101E10000260FFF72DFC40F20E60FFF729FC43F64D
:101E20000004C4F20104A4F54055284618210322F9
:101E30004FF40073FEF700FF2846042103224FF4FD
:101E40008063FEF7F9FE204600F0CCFC20464FF4FC
:101E5000165100F085FC2046042100F023FD2046A9
:101E6000082100F025FD204600F0F8FC2520002187
:101E70000022FFF733FB204640F2053100F0F4FC6E
:101E8000B0BD00002DE9F04F81B044F20049C4F22A
:101E9000000940F20531C0F20501484600F0F0FCAF
:101EA000002800F00784484600F090FC44F2D0057A
:101EB000C2F200050446286844F2D40840F2100A31
:101EC000C2F20008411C0328C2F2000A08F80040D0
:101ED0002960C0F2E283E1B241F2C80B5429C2F298
:101EE000000B1FD1404410F8010C41281AD19BF877
:101EF0000000B8B901208BF800000020DAF80010CB
:101F0000286044F2D40044F64A36C2F20000C0F21F
:101F10004C06FEF742F900BF013E00BFFCD1012094
:101F20008BF800002868404410F8011C542919D08F
:101F3000592920D110F8022C442A11D110F8032C71
:101F4000412A0DD101208BF800000020DAF80010A2
:101F5000286044F2D400C2F20000FEF71EF9C1E08E
:101F6000542908D110F8022C412A04D19BF80020F2
:101F7000002A00F0A3803A290DD110F8022C542A2F
:101F800009D110F8032C4D2A05D110F8042C432A4E
:101F900001D11020A4E03F2912D110F8022C4C2AC4
:101FA0000ED110F8032C4C2A0AD110F8042C412A27
:101FB00006D19BF80000102800F0948017208FE0D5
:101FC0003A290DD110F8022C4C2A09D110F8032C13
:101FD0004C2A05D110F8042C412A01D112207FE0AF
:101FE0004E2915D03D2921D110F8022C4C2A0DD1B3
:101FF00010F8032C4C2A09D110F8042C412A05D1E1
:102000009BF8000010286DD00B2069E04E290DD1FF
:1020100010F8022C452A09D110F8032C502A05D1BA
:102020009BF8000010285DD00D2059E03A2931D1ED
:1020300010F8022C502A19D110F8032C432A15D17C
:1020400010F8042C542A11D110F8052C522A0DD165
:102050009BF80000102845D00E208BF8000040F2BD
:102060009F00C2F20000002101703BE03A2911D12B
:1020700010F8022C502A0DD110F8032C492A09D14E
:1020800010F8042C4C2A05D19BF80000102829D008
:102090000F2025E0432925D110F8021C432921D126
:1020A00010F8031C4C291DD110F8040C432819D139
:1020B0009BF80000102815D0192011E00020DAF854
:1020C0000010286044F2D40044F64A36C2F2000000
:1020D000C0F24C06FEF761F8013E00BFFCD10120C2
:1020E0008BF800002868404410F8011C312915D0F5
:1020F0003A292AD110F8022C502A0DD110F8032CBD
:10210000492A09D110F8042C4C2A05D19BF800204B
:10211000102A1AD00F2216E0312916D110F8022CFD
:102120003D2A12D110F8032C502A0ED110F8042C9D
:10213000492A0AD110F8052C4C2A06D19BF8002018
:10214000102A02D00C228BF800209BF800200B2ACA
:1021500008BF0A2916D09BF800200B2A08BF0A29BD
:1021600019D09BF80020122A08BF0A291DD09BF81D
:102170000020122A08BF0A2943D110F8020C0D28AA
:1021800011D03EE010F8022C0D2AE4D110F8032CF7
:10219000522AE0D10DE010F8022C0D2AE1D110F8FE
:1021A000032C4B2ADDD102200EE010F8022C0D2A60
:1021B000DDD141F25C00C2F200000178A1B94178A2
:1021C00091B9807880B901208BF800000020286048
:1021D00041F25C0044F2D401C2F20000C2F20001FC
:1021E0006422FDF7C1FF04E002208BF8000000200C
:1021F0002860DAF8001044F2D400C2F20000FDF7C3
:10220000CCFF9BF800000D2805D12868404410F849
:10221000010C0A2809D09BF80000172812D1286861
:10222000404410F8010C0A280CD103208BF8000060
:102230000020DAF80010286044F2D400C2F2000056
:10224000FDF7ABFF9BF800001A2814D12E6841F26D
:10225000CC07C2F20007C6F1FF01B819FE2E88BFF5
:102260000021FDF79AFF44F2D401C2F20001384682
:102270003246FDF779FF9BF800001A2831D12E680D
:1022800006EB080010F8031C0A292AD110F8041CD8
:102290000D2926D110F8011C4B2922D110F8020C6F
:1022A0004F281ED141F2CC07C2F20007C6F1FF0150
:1022B000B819FE2E88BF0021FDF76FFF44F2D4014C
:1022C000C2F20001384632460F46FDF74DFF24208A
:1022D0008BF800000020DAF8001028603846FDF77F
:1022E0005CFF9BF800001A2831D12E6806EB08002D
:1022F00010F8031C0A292AD110F8041C0D2926D134
:1023000010F8011C522922D110F8020C4F281ED1BE
:1023100041F2CC07C2F20007C6F1FF01B819FE2E48
:1023200088BF0021FDF739FF44F2D401C2F2000159
:10233000384632460F46FDF717FF24208BF8000081
:102340000020DAF8001028603846FDF726FF9BF8D9
:1023500000000C2813D12868404410F8031C0A29F7
:102360000DD110F8041C0D2909D110F8011C4B29BE
:1023700005D110F8020C4F2801D1162016E09BF869
:1023800000000C281FD12868404410F8031C0A29BB
:1023900019D110F8041C0D2915D110F8011C52296F
:1023A00011D110F8020C4F280DD101208BF800003C
:1023B0000020286044F2D400C2F200004FF47A6199
:1023C000FDF7EBFEE6E09BF800000E2822D128681E
:1023D00000EB080111F8010C2C281BD140F29F00E2
:1023E000C2F200000278002A4FD0DAF8001042F260
:1023F0008C10C2F20000FDF7D0FE40F2A800C2F23D
:1024000000000021017044F2CC00C2F20000016023
:102410002220A8E040F2A8009BF80020C2F20000B1
:102420000178222A08BF002913D09BF80020222A15
:1024300008BF01291CD09BF800000F2840F0AA809B
:102440002868404410F8010C0A2840F0A3800520B9
:1024500089E04A1CA4F13001CBB20A2B02702AD3C6
:10246000A4F16100C0B205281ED8A4F1570122E0F2
:10247000A4F13001CAB20A2A31D3A4F16101C9B270
:10248000052925D8A4F1570129E011F8021CA1F172
:102490003002D3B20A2B70D3A1F16102D2B2052A65
:1024A00064D8A1F1570268E0A4F14100C0B2062847
:1024B00038BF373C214601F00F0042F28411C2F2CE
:1024C0000001087041F2C001C2F20001087061E031
:1024D000A4F14101C9B2062938BF373C214642F276
:1024E000841241F2C00301F00F01C2F20002C2F2F5
:1024F0000003117040F2B8021B78C2F200021170A2
:1025000041EA031244F2CC01C2F200010B6842F22C
:102510008C16D7B2C2F20006F2545A1C0023032FC5
:102520000A60037036D140F2B007C2F200073A6089
:102530000B60386801280DDB4FF0000A09F5744480
:1025400016F80A10204600F045F938680AF1010A29
:102550008245F5DB9BF8000040F2100A2228C2F207
:10256000000A17D104208BF8000013E0A1F141020A
:10257000D2B2062A38BF37390A4602F00F0242F2B9
:102580008411027041F2DC10C2F20001C2F20000BC
:102590000A7002609BF8000023281FD1286840447D
:1025A00010F8031C492919D110F8041C522915D11F
:1025B00010F8011C522911D110F8020C45280DD138
:1025C0002D208BF80000DAF800100020286044F27B
:1025D000D400C2F20000FDF7E0FD28E09BF8000007
:1025E000192824D12868404410F8010C0A281ED16B
:1025F00003208BF80000DAF80010002003E000BF91
:1026000001308842E1DA18F800203A2AF8D100EBCC
:10261000080212F8013C432BF2D112F8023C432B82
:10262000EED112F8032C4C2A08BF0130E8E72868E5
:1026300004282BDB404410F8011C0A2926D110F88D
:10264000022C0D2A07D110F8032C4B2A03D110F8C5
:10265000042C4F2A10D00A2918D110F8021C0D2979
:1026600014D110F8031C522910D110F8040C4F2873
:102670000CD101208BF800000020DAF8001028604F
:1026800044F2D400C2F20000FDF787FD2868DAF8B2
:1026900000108842A4BF002028602868DAF80010E3
:1026A000884207DB0020286044F2D400C2F2000018
:1026B000FDF773FD01B0BDE8F08F0000B0B540F24A
:1026C0000260FEF7D5FF40F21170FEF7D1FF44F231
:1026D0000044C4F2000404F54445284618210322AE
:1026E0000423FEF7A9FA2846042103220823FEF753
:1026F000A3FA204600F076F820464FF4E13100F0CE
:102700002FF82046042100F0CDF82046082100F0E3
:10271000CFF8204600F0A2F8262000210022FEF784
:10272000DDFE204640F2053100F09EF8B0BD00000D
:10273000B0B5017859B144F20044451EC4F200041A
:10274000204600F047F8A97801350029F8D100208B
:10275000B0BD000080B5FFF759FBFFF7AFFF80BDAC
:10276000B0B5044644F6FF30C4F200000D46844282
:102770004FF0000013DD44F60041C4F200018C422A
:1027800019D045F20001C4F200018C4213D043F687
:102790000001C4F201018C4210D103200CE044F28C
:1027A0000041C4F200018C4205D044F60001C4F29D
:1027B00000018C4202D10220FEF7E4FE00EB55003E
:1027C000B0FBF5F080B2A060B0BD000040686FF3D0
:1027D0005F2070476FF35F21416000BF0168090609
:1027E000FCD5704710B544F6FF31C4F200018842B1
:1027F00015DD44F60041C4F2000188421ED045F2C6
:102800000001C4F2000188421BD043F60001C4F26B
:102810000101884218BF10BD40F20E3416E044F2A8
:102820000041C4F2000188420ED044F60001C4F217
:102830000001884210D140F2124407E040F21344F4
:1028400004E040F2144401E040F211442046FEF757
:102850002FFF2046FEF71CFF10BD0000C16841F4A9
:102860000051C1607047000001F01F0289094FF05C
:10287000010C0B580CFA02F21A430A507047000080
:10288000C1F3891252F800C08A0D105801F01F03DD
:10289000C1F30441C8402CFA03F1084000F00100E4
:1028A00070470000C26822F004021143C160704703
:1028B000C26822F008021143C16070470FB4054B93
:1028C00010B503A9044A029800F02CF810BC5DF87A
:1028D00014FB0000190C0008000000200FB4084B86
:1028E00010B504A902AA039800F01CF8044602A936
:1028F000002000F0F3F8204610BC5DF814FB000047
:10290000DD2A000802E008C8121F08C1002AFAD117
:1029100070477047002001E001C1121F002AFBD15F
:10292000704700002DE9FF4F8BB09A460F460546D1
:10293000002606E025280BD052460D9990476D1CC5
:10294000761C28780028F5D10FB03046BDE8F08F0E
:102950000024A0460122604900E0044315F8013F2D
:10296000203B02FA03F00842F7D128782E2817D12D
:1029700015F8010F44F004042A280ED06FF02F023E
:102980002878A0F1300109290AD808EB880102EB68
:10299000410100EB01086D1CF2E757F8048B6D1C38
:1029A000287869283ED006DC0028CDD063280BD0DB
:1029B000642804D136E0732810D075284BD05246D5
:1029C0000D999047761C85E017F8040B8DF80000F0
:1029D00000208DF80100E946012003E057F8049B30
:1029E0004FF0FF3061074FF0000401D40AE0641C8F
:1029F00044450DDA8442FADB19F804100029F6D1B7
:102A000006E0641C8442FCDB19F804100029F8D1AC
:102A1000264404E019F8010B52460D999047641EB4
:102A2000F8D257E001CF4FF00A0B002802DA4042FB
:102A30002D2102E0210504D52B218DF82410012140
:102A400003E0E10705D02021F7E70DF12009089107
:102A50000CE00021F9E701CF4FF00A0BF9E75946E6
:102A6000FDF7B4FB01F1300209F8012D0028F6D181
:102A7000ADEB090000F1200B600701D44FF0010815
:102A8000D84502DDA8EB0B0000E0002080460024C2
:102A900006E009A85246005D0D999047641C761C1B
:102AA00008988442F5DB04E0302052460D999047A7
:102AB000761CB8F10001A8F10108F5DC05E019F871
:102AC000010B52460D999047761CBBF10001ABF10A
:102AD000010BF4DC6D1C34E7092801000A68531C63
:102AE0000B601070704700000000010203044154A5
:102AF0002B4754535953434D443D226E7620736502
:102B0000742057414E50696E6746696C7465723D1A
:102B100031220D0A0041542B4754535953434D441D
:102B20003D226E762073617665220D0A0041542B9A
:102B30004D495043414C4C3D312C222573220D0A06
:102B40000041542B47544C414E454E41424C453D6B
:102B5000310D0A0041542B434C49503D310D0A00C0
:102B6000415445310D0A000D0A73696D666C616749
:102B70002025640D0A0041542B4D495053454E44C5
:102B80003D25642C25640D0A00000000B02B0008D0
:102B9000000000208800000004290008382C0008EC
:102BA0008800002030730000142900080000000095
:102BB000000000004D324D504C4E414D520000007F
:102BC000A00F00003130303000000000FFFFFFFF99
:102BD00041542B4353510041542B4D4E554D574CAE
:102BE0003F0041542B4D4346473F0041542B4D522B
:102BF00045424F4F540041542B4D495043414C4C9A
:102C00003F000000FFFFFFFF2B36323832313132F8
:102C1000363937313532002B3632383233313032B3
:102C20003933313939002B3632383131323334339C
:082C3000313732000000000002
:0400000508000131BD
:00000001FF
